{
	"blindAuctionDEF.sol": {
		"BlindAuctionFinalV2": {
			"abi": [
				{
					"inputs": [
						{
							"internalType": "uint256",
							"name": "_commitDuration",
							"type": "uint256"
						},
						{
							"internalType": "uint256",
							"name": "_revealDuration",
							"type": "uint256"
						},
						{
							"internalType": "uint256",
							"name": "_deposit",
							"type": "uint256"
						},
						{
							"internalType": "uint256",
							"name": "_paymentDuration",
							"type": "uint256"
						},
						{
							"internalType": "uint256",
							"name": "_maxBidders",
							"type": "uint256"
						},
						{
							"internalType": "uint256",
							"name": "_maxFallbacks",
							"type": "uint256"
						}
					],
					"stateMutability": "nonpayable",
					"type": "constructor"
				},
				{
					"anonymous": false,
					"inputs": [
						{
							"indexed": true,
							"internalType": "address",
							"name": "bidder",
							"type": "address"
						},
						{
							"indexed": false,
							"internalType": "bytes32",
							"name": "commitment",
							"type": "bytes32"
						}
					],
					"name": "Committed",
					"type": "event"
				},
				{
					"anonymous": false,
					"inputs": [
						{
							"indexed": true,
							"internalType": "address",
							"name": "bidder",
							"type": "address"
						},
						{
							"indexed": false,
							"internalType": "uint256",
							"name": "amount",
							"type": "uint256"
						},
						{
							"indexed": false,
							"internalType": "string",
							"name": "reason",
							"type": "string"
						}
					],
					"name": "DepositConfiscated",
					"type": "event"
				},
				{
					"anonymous": false,
					"inputs": [
						{
							"indexed": true,
							"internalType": "address",
							"name": "bidder",
							"type": "address"
						},
						{
							"indexed": false,
							"internalType": "uint256",
							"name": "amount",
							"type": "uint256"
						}
					],
					"name": "DepositWithdrawn",
					"type": "event"
				},
				{
					"anonymous": false,
					"inputs": [],
					"name": "Deserted",
					"type": "event"
				},
				{
					"anonymous": false,
					"inputs": [
						{
							"indexed": true,
							"internalType": "address",
							"name": "firstWinner",
							"type": "address"
						},
						{
							"indexed": false,
							"internalType": "uint256",
							"name": "bid",
							"type": "uint256"
						},
						{
							"indexed": false,
							"internalType": "uint256",
							"name": "paymentDeadline",
							"type": "uint256"
						}
					],
					"name": "Finalized",
					"type": "event"
				},
				{
					"anonymous": false,
					"inputs": [
						{
							"indexed": false,
							"internalType": "uint256",
							"name": "amount",
							"type": "uint256"
						}
					],
					"name": "OwnerWithdrawn",
					"type": "event"
				},
				{
					"anonymous": false,
					"inputs": [
						{
							"indexed": true,
							"internalType": "address",
							"name": "bidder",
							"type": "address"
						},
						{
							"indexed": false,
							"internalType": "uint256",
							"name": "bid",
							"type": "uint256"
						}
					],
					"name": "Revealed",
					"type": "event"
				},
				{
					"anonymous": false,
					"inputs": [
						{
							"indexed": true,
							"internalType": "address",
							"name": "caller",
							"type": "address"
						},
						{
							"indexed": false,
							"internalType": "uint256",
							"name": "amount",
							"type": "uint256"
						}
					],
					"name": "RewardAccrued",
					"type": "event"
				},
				{
					"anonymous": false,
					"inputs": [
						{
							"indexed": true,
							"internalType": "address",
							"name": "caller",
							"type": "address"
						},
						{
							"indexed": false,
							"internalType": "uint256",
							"name": "amount",
							"type": "uint256"
						}
					],
					"name": "RewardWithdrawn",
					"type": "event"
				},
				{
					"anonymous": false,
					"inputs": [
						{
							"indexed": true,
							"internalType": "address",
							"name": "newWinner",
							"type": "address"
						},
						{
							"indexed": false,
							"internalType": "uint256",
							"name": "bid",
							"type": "uint256"
						},
						{
							"indexed": false,
							"internalType": "uint256",
							"name": "paymentDeadline",
							"type": "uint256"
						},
						{
							"indexed": false,
							"internalType": "uint256",
							"name": "fallbackCount",
							"type": "uint256"
						}
					],
					"name": "WinnerAdvanced",
					"type": "event"
				},
				{
					"anonymous": false,
					"inputs": [
						{
							"indexed": true,
							"internalType": "address",
							"name": "winner",
							"type": "address"
						},
						{
							"indexed": false,
							"internalType": "uint256",
							"name": "totalPaid",
							"type": "uint256"
						}
					],
					"name": "WinnerPaid",
					"type": "event"
				},
				{
					"inputs": [],
					"name": "ADVANCE_CALLER_BOUNTY_BPS",
					"outputs": [
						{
							"internalType": "uint256",
							"name": "",
							"type": "uint256"
						}
					],
					"stateMutability": "view",
					"type": "function"
				},
				{
					"inputs": [],
					"name": "MAX_DEPOSIT",
					"outputs": [
						{
							"internalType": "uint256",
							"name": "",
							"type": "uint256"
						}
					],
					"stateMutability": "view",
					"type": "function"
				},
				{
					"inputs": [],
					"name": "MAX_MAX_BIDDERS",
					"outputs": [
						{
							"internalType": "uint256",
							"name": "",
							"type": "uint256"
						}
					],
					"stateMutability": "view",
					"type": "function"
				},
				{
					"inputs": [],
					"name": "MIN_COMMIT_DURATION",
					"outputs": [
						{
							"internalType": "uint256",
							"name": "",
							"type": "uint256"
						}
					],
					"stateMutability": "view",
					"type": "function"
				},
				{
					"inputs": [],
					"name": "MIN_DEPOSIT",
					"outputs": [
						{
							"internalType": "uint256",
							"name": "",
							"type": "uint256"
						}
					],
					"stateMutability": "view",
					"type": "function"
				},
				{
					"inputs": [],
					"name": "MIN_MAX_BIDDERS",
					"outputs": [
						{
							"internalType": "uint256",
							"name": "",
							"type": "uint256"
						}
					],
					"stateMutability": "view",
					"type": "function"
				},
				{
					"inputs": [],
					"name": "MIN_PAYMENT_DURATION",
					"outputs": [
						{
							"internalType": "uint256",
							"name": "",
							"type": "uint256"
						}
					],
					"stateMutability": "view",
					"type": "function"
				},
				{
					"inputs": [],
					"name": "MIN_REVEAL_DURATION",
					"outputs": [
						{
							"internalType": "uint256",
							"name": "",
							"type": "uint256"
						}
					],
					"stateMutability": "view",
					"type": "function"
				},
				{
					"inputs": [],
					"name": "UNREVEALED_PENALTY_BPS",
					"outputs": [
						{
							"internalType": "uint256",
							"name": "",
							"type": "uint256"
						}
					],
					"stateMutability": "view",
					"type": "function"
				},
				{
					"inputs": [],
					"name": "advanceWinnerIfUnpaid",
					"outputs": [],
					"stateMutability": "nonpayable",
					"type": "function"
				},
				{
					"inputs": [],
					"name": "auctionDeserted",
					"outputs": [
						{
							"internalType": "bool",
							"name": "",
							"type": "bool"
						}
					],
					"stateMutability": "view",
					"type": "function"
				},
				{
					"inputs": [],
					"name": "auctionSuccessful",
					"outputs": [
						{
							"internalType": "bool",
							"name": "",
							"type": "bool"
						}
					],
					"stateMutability": "view",
					"type": "function"
				},
				{
					"inputs": [
						{
							"internalType": "uint256",
							"name": "",
							"type": "uint256"
						}
					],
					"name": "bidderList",
					"outputs": [
						{
							"internalType": "address",
							"name": "",
							"type": "address"
						}
					],
					"stateMutability": "view",
					"type": "function"
				},
				{
					"inputs": [
						{
							"internalType": "address",
							"name": "",
							"type": "address"
						}
					],
					"name": "bidders",
					"outputs": [
						{
							"internalType": "bytes32",
							"name": "commitment",
							"type": "bytes32"
						},
						{
							"internalType": "uint256",
							"name": "commitTime",
							"type": "uint256"
						},
						{
							"internalType": "uint256",
							"name": "revealedBid",
							"type": "uint256"
						},
						{
							"internalType": "bool",
							"name": "hasCommitted",
							"type": "bool"
						},
						{
							"internalType": "bool",
							"name": "hasRevealed",
							"type": "bool"
						},
						{
							"internalType": "bool",
							"name": "withdrawn",
							"type": "bool"
						},
						{
							"internalType": "bool",
							"name": "depositLocked",
							"type": "bool"
						},
						{
							"internalType": "bool",
							"name": "defaulted",
							"type": "bool"
						}
					],
					"stateMutability": "view",
					"type": "function"
				},
				{
					"inputs": [
						{
							"internalType": "bytes32",
							"name": "_commitment",
							"type": "bytes32"
						}
					],
					"name": "commit",
					"outputs": [],
					"stateMutability": "payable",
					"type": "function"
				},
				{
					"inputs": [],
					"name": "commitDeadline",
					"outputs": [
						{
							"internalType": "uint256",
							"name": "",
							"type": "uint256"
						}
					],
					"stateMutability": "view",
					"type": "function"
				},
				{
					"inputs": [],
					"name": "currentWinner",
					"outputs": [
						{
							"internalType": "address",
							"name": "",
							"type": "address"
						}
					],
					"stateMutability": "view",
					"type": "function"
				},
				{
					"inputs": [],
					"name": "currentWinnerIndex",
					"outputs": [
						{
							"internalType": "uint256",
							"name": "",
							"type": "uint256"
						}
					],
					"stateMutability": "view",
					"type": "function"
				},
				{
					"inputs": [],
					"name": "deposit",
					"outputs": [
						{
							"internalType": "uint256",
							"name": "",
							"type": "uint256"
						}
					],
					"stateMutability": "view",
					"type": "function"
				},
				{
					"inputs": [],
					"name": "fallbackCount",
					"outputs": [
						{
							"internalType": "uint256",
							"name": "",
							"type": "uint256"
						}
					],
					"stateMutability": "view",
					"type": "function"
				},
				{
					"inputs": [],
					"name": "finalize",
					"outputs": [],
					"stateMutability": "nonpayable",
					"type": "function"
				},
				{
					"inputs": [],
					"name": "finalized",
					"outputs": [
						{
							"internalType": "bool",
							"name": "",
							"type": "bool"
						}
					],
					"stateMutability": "view",
					"type": "function"
				},
				{
					"inputs": [],
					"name": "getBidderCount",
					"outputs": [
						{
							"internalType": "uint256",
							"name": "",
							"type": "uint256"
						}
					],
					"stateMutability": "view",
					"type": "function"
				},
				{
					"inputs": [],
					"name": "getRankedCount",
					"outputs": [
						{
							"internalType": "uint256",
							"name": "",
							"type": "uint256"
						}
					],
					"stateMutability": "view",
					"type": "function"
				},
				{
					"inputs": [
						{
							"internalType": "uint256",
							"name": "bidAmount",
							"type": "uint256"
						},
						{
							"internalType": "bytes32",
							"name": "salt",
							"type": "bytes32"
						},
						{
							"internalType": "address",
							"name": "bidder",
							"type": "address"
						}
					],
					"name": "hashBid",
					"outputs": [
						{
							"internalType": "bytes32",
							"name": "",
							"type": "bytes32"
						}
					],
					"stateMutability": "view",
					"type": "function"
				},
				{
					"inputs": [],
					"name": "maxBidders",
					"outputs": [
						{
							"internalType": "uint256",
							"name": "",
							"type": "uint256"
						}
					],
					"stateMutability": "view",
					"type": "function"
				},
				{
					"inputs": [],
					"name": "maxFallbacks",
					"outputs": [
						{
							"internalType": "uint256",
							"name": "",
							"type": "uint256"
						}
					],
					"stateMutability": "view",
					"type": "function"
				},
				{
					"inputs": [],
					"name": "owner",
					"outputs": [
						{
							"internalType": "address",
							"name": "",
							"type": "address"
						}
					],
					"stateMutability": "view",
					"type": "function"
				},
				{
					"inputs": [],
					"name": "ownerProceeds",
					"outputs": [
						{
							"internalType": "uint256",
							"name": "",
							"type": "uint256"
						}
					],
					"stateMutability": "view",
					"type": "function"
				},
				{
					"inputs": [],
					"name": "payWinningBid",
					"outputs": [],
					"stateMutability": "payable",
					"type": "function"
				},
				{
					"inputs": [],
					"name": "paymentDeadline",
					"outputs": [
						{
							"internalType": "uint256",
							"name": "",
							"type": "uint256"
						}
					],
					"stateMutability": "view",
					"type": "function"
				},
				{
					"inputs": [],
					"name": "paymentDuration",
					"outputs": [
						{
							"internalType": "uint256",
							"name": "",
							"type": "uint256"
						}
					],
					"stateMutability": "view",
					"type": "function"
				},
				{
					"inputs": [
						{
							"internalType": "uint256",
							"name": "",
							"type": "uint256"
						}
					],
					"name": "rankedBidders",
					"outputs": [
						{
							"internalType": "address",
							"name": "",
							"type": "address"
						}
					],
					"stateMutability": "view",
					"type": "function"
				},
				{
					"inputs": [
						{
							"internalType": "uint256",
							"name": "_bidAmount",
							"type": "uint256"
						},
						{
							"internalType": "bytes32",
							"name": "_salt",
							"type": "bytes32"
						}
					],
					"name": "reveal",
					"outputs": [],
					"stateMutability": "nonpayable",
					"type": "function"
				},
				{
					"inputs": [],
					"name": "revealDeadline",
					"outputs": [
						{
							"internalType": "uint256",
							"name": "",
							"type": "uint256"
						}
					],
					"stateMutability": "view",
					"type": "function"
				},
				{
					"inputs": [
						{
							"internalType": "address",
							"name": "",
							"type": "address"
						}
					],
					"name": "rewards",
					"outputs": [
						{
							"internalType": "uint256",
							"name": "",
							"type": "uint256"
						}
					],
					"stateMutability": "view",
					"type": "function"
				},
				{
					"inputs": [],
					"name": "timeLeft",
					"outputs": [
						{
							"internalType": "uint256",
							"name": "commitLeft",
							"type": "uint256"
						},
						{
							"internalType": "uint256",
							"name": "revealLeft",
							"type": "uint256"
						},
						{
							"internalType": "uint256",
							"name": "payLeft",
							"type": "uint256"
						}
					],
					"stateMutability": "view",
					"type": "function"
				},
				{
					"inputs": [],
					"name": "withdrawDeposit",
					"outputs": [],
					"stateMutability": "nonpayable",
					"type": "function"
				},
				{
					"inputs": [
						{
							"internalType": "uint256",
							"name": "amount",
							"type": "uint256"
						}
					],
					"name": "withdrawOwnerProceeds",
					"outputs": [],
					"stateMutability": "nonpayable",
					"type": "function"
				},
				{
					"inputs": [
						{
							"internalType": "uint256",
							"name": "amount",
							"type": "uint256"
						}
					],
					"name": "withdrawReward",
					"outputs": [],
					"stateMutability": "nonpayable",
					"type": "function"
				},
				{
					"stateMutability": "payable",
					"type": "receive"
				}
			],
			"devdoc": {
				"kind": "dev",
				"methods": {
					"commit(bytes32)": {
						"details": "Commitment recomendado:      keccak256(abi.encode(bidAmount, salt, msg.sender, address(this)))"
					},
					"reveal(uint256,bytes32)": {
						"details": "En Ethereum el reveal es público sí o sí."
					}
				},
				"title": "BlindAuctionFinalV2",
				"version": 1
			},
			"evm": {
				"assembly": "    /* \"blindAuctionDEF.sol\":719:23955  contract BlindAuctionFinalV2 {... */\n  mstore(0x40, 0x0160)\n    /* \"blindAuctionDEF.sol\":7678:8925  constructor(... */\n  callvalue\n  dup1\n  iszero\n  tag_1\n  jumpi\n  0x00\n  dup1\n  revert\ntag_1:\n  pop\n  mload(0x40)\n  sub(codesize, bytecodeSize)\n  dup1\n  bytecodeSize\n  dup4\n  codecopy\n  dup2\n  dup2\n  add\n  0x40\n  mstore\n  dup2\n  add\n  swap1\n  tag_2\n  swap2\n  swap1\n  tag_3\n  jump\t// in\ntag_2:\n    /* \"blindAuctionDEF.sol\":1496:1505  5 minutes */\n  0x012c\n    /* \"blindAuctionDEF.sol\":7971:7986  _commitDuration */\n  dup7\n    /* \"blindAuctionDEF.sol\":7971:8009  _commitDuration >= MIN_COMMIT_DURATION */\n  lt\n  iszero\n    /* \"blindAuctionDEF.sol\":7963:8038  require(_commitDuration >= MIN_COMMIT_DURATION, \"commitDuration muy corto\") */\n  tag_6\n  jumpi\n  mload(0x40)\n  0x08c379a000000000000000000000000000000000000000000000000000000000\n  dup2\n  mstore\n  0x04\n  add\n  tag_7\n  swap1\n  tag_8\n  jump\t// in\ntag_7:\n  mload(0x40)\n  dup1\n  swap2\n  sub\n  swap1\n  revert\ntag_6:\n    /* \"blindAuctionDEF.sol\":1559:1568  5 minutes */\n  0x012c\n    /* \"blindAuctionDEF.sol\":8057:8072  _revealDuration */\n  dup6\n    /* \"blindAuctionDEF.sol\":8057:8095  _revealDuration >= MIN_REVEAL_DURATION */\n  lt\n  iszero\n    /* \"blindAuctionDEF.sol\":8049:8124  require(_revealDuration >= MIN_REVEAL_DURATION, \"revealDuration muy corto\") */\n  tag_9\n  jumpi\n  mload(0x40)\n  0x08c379a000000000000000000000000000000000000000000000000000000000\n  dup2\n  mstore\n  0x04\n  add\n  tag_10\n  swap1\n  tag_11\n  jump\t// in\ntag_10:\n  mload(0x40)\n  dup1\n  swap2\n  sub\n  swap1\n  revert\ntag_9:\n    /* \"blindAuctionDEF.sol\":1622:1631  5 minutes */\n  0x012c\n    /* \"blindAuctionDEF.sol\":8143:8159  _paymentDuration */\n  dup4\n    /* \"blindAuctionDEF.sol\":8143:8183  _paymentDuration >= MIN_PAYMENT_DURATION */\n  lt\n  iszero\n    /* \"blindAuctionDEF.sol\":8135:8213  require(_paymentDuration >= MIN_PAYMENT_DURATION, \"paymentDuration muy corto\") */\n  tag_12\n  jumpi\n  mload(0x40)\n  0x08c379a000000000000000000000000000000000000000000000000000000000\n  dup2\n  mstore\n  0x04\n  add\n  tag_13\n  swap1\n  tag_14\n  jump\t// in\ntag_13:\n  mload(0x40)\n  dup1\n  swap2\n  sub\n  swap1\n  revert\ntag_12:\n    /* \"blindAuctionDEF.sol\":1317:1328  0.001 ether */\n  0x038d7ea4c68000\n    /* \"blindAuctionDEF.sol\":8282:8290  _deposit */\n  dup5\n    /* \"blindAuctionDEF.sol\":8282:8305  _deposit >= MIN_DEPOSIT */\n  lt\n  iszero\n    /* \"blindAuctionDEF.sol\":8274:8332  require(_deposit >= MIN_DEPOSIT, \"deposit demasiado bajo\") */\n  tag_15\n  jumpi\n  mload(0x40)\n  0x08c379a000000000000000000000000000000000000000000000000000000000\n  dup2\n  mstore\n  0x04\n  add\n  tag_16\n  swap1\n  tag_17\n  jump\t// in\ntag_16:\n  mload(0x40)\n  dup1\n  swap2\n  sub\n  swap1\n  revert\ntag_15:\n    /* \"blindAuctionDEF.sol\":1373:1381  10 ether */\n  0x8ac7230489e80000\n    /* \"blindAuctionDEF.sol\":8351:8359  _deposit */\n  dup5\n    /* \"blindAuctionDEF.sol\":8351:8374  _deposit <= MAX_DEPOSIT */\n  gt\n  iszero\n    /* \"blindAuctionDEF.sol\":8343:8401  require(_deposit <= MAX_DEPOSIT, \"deposit demasiado alto\") */\n  tag_18\n  jumpi\n  mload(0x40)\n  0x08c379a000000000000000000000000000000000000000000000000000000000\n  dup2\n  mstore\n  0x04\n  add\n  tag_19\n  swap1\n  tag_20\n  jump\t// in\ntag_19:\n  mload(0x40)\n  dup1\n  swap2\n  sub\n  swap1\n  revert\ntag_18:\n    /* \"blindAuctionDEF.sol\":1733:1735  10 */\n  0x0a\n    /* \"blindAuctionDEF.sol\":8456:8467  _maxBidders */\n  dup3\n    /* \"blindAuctionDEF.sol\":8456:8486  _maxBidders >= MIN_MAX_BIDDERS */\n  lt\n  iszero\n    /* \"blindAuctionDEF.sol\":8448:8516  require(_maxBidders >= MIN_MAX_BIDDERS, \"maxBidders demasiado bajo\") */\n  tag_21\n  jumpi\n  mload(0x40)\n  0x08c379a000000000000000000000000000000000000000000000000000000000\n  dup2\n  mstore\n  0x04\n  add\n  tag_22\n  swap1\n  tag_23\n  jump\t// in\ntag_22:\n  mload(0x40)\n  dup1\n  swap2\n  sub\n  swap1\n  revert\ntag_21:\n    /* \"blindAuctionDEF.sol\":1784:1787  200 */\n  0xc8\n    /* \"blindAuctionDEF.sol\":8535:8546  _maxBidders */\n  dup3\n    /* \"blindAuctionDEF.sol\":8535:8565  _maxBidders <= MAX_MAX_BIDDERS */\n  gt\n  iszero\n    /* \"blindAuctionDEF.sol\":8527:8595  require(_maxBidders <= MAX_MAX_BIDDERS, \"maxBidders demasiado alto\") */\n  tag_24\n  jumpi\n  mload(0x40)\n  0x08c379a000000000000000000000000000000000000000000000000000000000\n  dup2\n  mstore\n  0x04\n  add\n  tag_25\n  swap1\n  tag_26\n  jump\t// in\ntag_25:\n  mload(0x40)\n  dup1\n  swap2\n  sub\n  swap1\n  revert\ntag_24:\n    /* \"blindAuctionDEF.sol\":8616:8626  msg.sender */\n  caller\n    /* \"blindAuctionDEF.sol\":8608:8626  owner = msg.sender */\n  0xffffffffffffffffffffffffffffffffffffffff\n  and\n  0x80\n  dup2\n  0xffffffffffffffffffffffffffffffffffffffff\n  and\n  dup2\n  mstore\n  pop\n  pop\n    /* \"blindAuctionDEF.sol\":8674:8689  _commitDuration */\n  dup6\n    /* \"blindAuctionDEF.sol\":8656:8671  block.timestamp */\n  timestamp\n    /* \"blindAuctionDEF.sol\":8656:8689  block.timestamp + _commitDuration */\n  tag_27\n  swap2\n  swap1\n  tag_28\n  jump\t// in\ntag_27:\n    /* \"blindAuctionDEF.sol\":8639:8689  commitDeadline = block.timestamp + _commitDuration */\n  0xa0\n  dup2\n  dup2\n  mstore\n  pop\n  pop\n    /* \"blindAuctionDEF.sol\":8734:8749  _revealDuration */\n  dup5\n    /* \"blindAuctionDEF.sol\":8717:8731  commitDeadline */\n  mload(0xa0)\n    /* \"blindAuctionDEF.sol\":8717:8749  commitDeadline + _revealDuration */\n  tag_29\n  swap2\n  swap1\n  tag_28\n  jump\t// in\ntag_29:\n    /* \"blindAuctionDEF.sol\":8700:8749  revealDeadline = commitDeadline + _revealDuration */\n  0xc0\n  dup2\n  dup2\n  mstore\n  pop\n  pop\n    /* \"blindAuctionDEF.sol\":8772:8780  _deposit */\n  dup4\n    /* \"blindAuctionDEF.sol\":8762:8780  deposit = _deposit */\n  0xe0\n  dup2\n  dup2\n  mstore\n  pop\n  pop\n    /* \"blindAuctionDEF.sol\":8809:8825  _paymentDuration */\n  dup3\n    /* \"blindAuctionDEF.sol\":8791:8825  paymentDuration = _paymentDuration */\n  0x0100\n  dup2\n  dup2\n  mstore\n  pop\n  pop\n    /* \"blindAuctionDEF.sol\":8849:8860  _maxBidders */\n  dup2\n    /* \"blindAuctionDEF.sol\":8836:8860  maxBidders = _maxBidders */\n  0x0120\n  dup2\n  dup2\n  mstore\n  pop\n  pop\n    /* \"blindAuctionDEF.sol\":8886:8899  _maxFallbacks */\n  dup1\n    /* \"blindAuctionDEF.sol\":8871:8899  maxFallbacks = _maxFallbacks */\n  0x0140\n  dup2\n  dup2\n  mstore\n  pop\n  pop\n    /* \"blindAuctionDEF.sol\":7678:8925  constructor(... */\n  pop\n  pop\n  pop\n  pop\n  pop\n  pop\n    /* \"blindAuctionDEF.sol\":719:23955  contract BlindAuctionFinalV2 {... */\n  jump(tag_30)\n    /* \"#utility.yul\":88:205   */\ntag_32:\n    /* \"#utility.yul\":197:198   */\n  0x00\n    /* \"#utility.yul\":194:195   */\n  dup1\n    /* \"#utility.yul\":187:199   */\n  revert\n    /* \"#utility.yul\":334:411   */\ntag_34:\n    /* \"#utility.yul\":371:378   */\n  0x00\n    /* \"#utility.yul\":400:405   */\n  dup2\n    /* \"#utility.yul\":389:405   */\n  swap1\n  pop\n    /* \"#utility.yul\":334:411   */\n  swap2\n  swap1\n  pop\n  jump\t// out\n    /* \"#utility.yul\":417:539   */\ntag_35:\n    /* \"#utility.yul\":490:514   */\n  tag_59\n    /* \"#utility.yul\":508:513   */\n  dup2\n    /* \"#utility.yul\":490:514   */\n  tag_34\n  jump\t// in\ntag_59:\n    /* \"#utility.yul\":483:488   */\n  dup2\n    /* \"#utility.yul\":480:515   */\n  eq\n    /* \"#utility.yul\":470:533   */\n  tag_60\n  jumpi\n    /* \"#utility.yul\":529:530   */\n  0x00\n    /* \"#utility.yul\":526:527   */\n  dup1\n    /* \"#utility.yul\":519:531   */\n  revert\n    /* \"#utility.yul\":470:533   */\ntag_60:\n    /* \"#utility.yul\":417:539   */\n  pop\n  jump\t// out\n    /* \"#utility.yul\":545:688   */\ntag_36:\n    /* \"#utility.yul\":602:607   */\n  0x00\n    /* \"#utility.yul\":633:639   */\n  dup2\n    /* \"#utility.yul\":627:640   */\n  mload\n    /* \"#utility.yul\":618:640   */\n  swap1\n  pop\n    /* \"#utility.yul\":649:682   */\n  tag_62\n    /* \"#utility.yul\":676:681   */\n  dup2\n    /* \"#utility.yul\":649:682   */\n  tag_35\n  jump\t// in\ntag_62:\n    /* \"#utility.yul\":545:688   */\n  swap3\n  swap2\n  pop\n  pop\n  jump\t// out\n    /* \"#utility.yul\":694:1828   */\ntag_3:\n    /* \"#utility.yul\":809:815   */\n  0x00\n    /* \"#utility.yul\":817:823   */\n  dup1\n    /* \"#utility.yul\":825:831   */\n  0x00\n    /* \"#utility.yul\":833:839   */\n  dup1\n    /* \"#utility.yul\":841:847   */\n  0x00\n    /* \"#utility.yul\":849:855   */\n  dup1\n    /* \"#utility.yul\":898:901   */\n  0xc0\n    /* \"#utility.yul\":886:895   */\n  dup8\n    /* \"#utility.yul\":877:884   */\n  dup10\n    /* \"#utility.yul\":873:896   */\n  sub\n    /* \"#utility.yul\":869:902   */\n  slt\n    /* \"#utility.yul\":866:986   */\n  iszero\n  tag_64\n  jumpi\n    /* \"#utility.yul\":905:984   */\n  tag_65\n  tag_32\n  jump\t// in\ntag_65:\n    /* \"#utility.yul\":866:986   */\ntag_64:\n    /* \"#utility.yul\":1025:1026   */\n  0x00\n    /* \"#utility.yul\":1050:1114   */\n  tag_66\n    /* \"#utility.yul\":1106:1113   */\n  dup10\n    /* \"#utility.yul\":1097:1103   */\n  dup3\n    /* \"#utility.yul\":1086:1095   */\n  dup11\n    /* \"#utility.yul\":1082:1104   */\n  add\n    /* \"#utility.yul\":1050:1114   */\n  tag_36\n  jump\t// in\ntag_66:\n    /* \"#utility.yul\":1040:1114   */\n  swap7\n  pop\n    /* \"#utility.yul\":996:1124   */\n  pop\n    /* \"#utility.yul\":1163:1165   */\n  0x20\n    /* \"#utility.yul\":1189:1253   */\n  tag_67\n    /* \"#utility.yul\":1245:1252   */\n  dup10\n    /* \"#utility.yul\":1236:1242   */\n  dup3\n    /* \"#utility.yul\":1225:1234   */\n  dup11\n    /* \"#utility.yul\":1221:1243   */\n  add\n    /* \"#utility.yul\":1189:1253   */\n  tag_36\n  jump\t// in\ntag_67:\n    /* \"#utility.yul\":1179:1253   */\n  swap6\n  pop\n    /* \"#utility.yul\":1134:1263   */\n  pop\n    /* \"#utility.yul\":1302:1304   */\n  0x40\n    /* \"#utility.yul\":1328:1392   */\n  tag_68\n    /* \"#utility.yul\":1384:1391   */\n  dup10\n    /* \"#utility.yul\":1375:1381   */\n  dup3\n    /* \"#utility.yul\":1364:1373   */\n  dup11\n    /* \"#utility.yul\":1360:1382   */\n  add\n    /* \"#utility.yul\":1328:1392   */\n  tag_36\n  jump\t// in\ntag_68:\n    /* \"#utility.yul\":1318:1392   */\n  swap5\n  pop\n    /* \"#utility.yul\":1273:1402   */\n  pop\n    /* \"#utility.yul\":1441:1443   */\n  0x60\n    /* \"#utility.yul\":1467:1531   */\n  tag_69\n    /* \"#utility.yul\":1523:1530   */\n  dup10\n    /* \"#utility.yul\":1514:1520   */\n  dup3\n    /* \"#utility.yul\":1503:1512   */\n  dup11\n    /* \"#utility.yul\":1499:1521   */\n  add\n    /* \"#utility.yul\":1467:1531   */\n  tag_36\n  jump\t// in\ntag_69:\n    /* \"#utility.yul\":1457:1531   */\n  swap4\n  pop\n    /* \"#utility.yul\":1412:1541   */\n  pop\n    /* \"#utility.yul\":1580:1583   */\n  0x80\n    /* \"#utility.yul\":1607:1671   */\n  tag_70\n    /* \"#utility.yul\":1663:1670   */\n  dup10\n    /* \"#utility.yul\":1654:1660   */\n  dup3\n    /* \"#utility.yul\":1643:1652   */\n  dup11\n    /* \"#utility.yul\":1639:1661   */\n  add\n    /* \"#utility.yul\":1607:1671   */\n  tag_36\n  jump\t// in\ntag_70:\n    /* \"#utility.yul\":1597:1671   */\n  swap3\n  pop\n    /* \"#utility.yul\":1551:1681   */\n  pop\n    /* \"#utility.yul\":1720:1723   */\n  0xa0\n    /* \"#utility.yul\":1747:1811   */\n  tag_71\n    /* \"#utility.yul\":1803:1810   */\n  dup10\n    /* \"#utility.yul\":1794:1800   */\n  dup3\n    /* \"#utility.yul\":1783:1792   */\n  dup11\n    /* \"#utility.yul\":1779:1801   */\n  add\n    /* \"#utility.yul\":1747:1811   */\n  tag_36\n  jump\t// in\ntag_71:\n    /* \"#utility.yul\":1737:1811   */\n  swap2\n  pop\n    /* \"#utility.yul\":1691:1821   */\n  pop\n    /* \"#utility.yul\":694:1828   */\n  swap3\n  swap6\n  pop\n  swap3\n  swap6\n  pop\n  swap3\n  swap6\n  jump\t// out\n    /* \"#utility.yul\":1834:2003   */\ntag_37:\n    /* \"#utility.yul\":1918:1929   */\n  0x00\n    /* \"#utility.yul\":1952:1958   */\n  dup3\n    /* \"#utility.yul\":1947:1950   */\n  dup3\n    /* \"#utility.yul\":1940:1959   */\n  mstore\n    /* \"#utility.yul\":1992:1996   */\n  0x20\n    /* \"#utility.yul\":1987:1990   */\n  dup3\n    /* \"#utility.yul\":1983:1997   */\n  add\n    /* \"#utility.yul\":1968:1997   */\n  swap1\n  pop\n    /* \"#utility.yul\":1834:2003   */\n  swap3\n  swap2\n  pop\n  pop\n  jump\t// out\n    /* \"#utility.yul\":2009:2183   */\ntag_38:\n    /* \"#utility.yul\":2149:2175   */\n  0x636f6d6d69744475726174696f6e206d757920636f72746f0000000000000000\n    /* \"#utility.yul\":2145:2146   */\n  0x00\n    /* \"#utility.yul\":2137:2143   */\n  dup3\n    /* \"#utility.yul\":2133:2147   */\n  add\n    /* \"#utility.yul\":2126:2176   */\n  mstore\n    /* \"#utility.yul\":2009:2183   */\n  pop\n  jump\t// out\n    /* \"#utility.yul\":2189:2555   */\ntag_39:\n    /* \"#utility.yul\":2331:2334   */\n  0x00\n    /* \"#utility.yul\":2352:2419   */\n  tag_75\n    /* \"#utility.yul\":2416:2418   */\n  0x18\n    /* \"#utility.yul\":2411:2414   */\n  dup4\n    /* \"#utility.yul\":2352:2419   */\n  tag_37\n  jump\t// in\ntag_75:\n    /* \"#utility.yul\":2345:2419   */\n  swap2\n  pop\n    /* \"#utility.yul\":2428:2521   */\n  tag_76\n    /* \"#utility.yul\":2517:2520   */\n  dup3\n    /* \"#utility.yul\":2428:2521   */\n  tag_38\n  jump\t// in\ntag_76:\n    /* \"#utility.yul\":2546:2548   */\n  0x20\n    /* \"#utility.yul\":2541:2544   */\n  dup3\n    /* \"#utility.yul\":2537:2549   */\n  add\n    /* \"#utility.yul\":2530:2549   */\n  swap1\n  pop\n    /* \"#utility.yul\":2189:2555   */\n  swap2\n  swap1\n  pop\n  jump\t// out\n    /* \"#utility.yul\":2561:2980   */\ntag_8:\n    /* \"#utility.yul\":2727:2731   */\n  0x00\n    /* \"#utility.yul\":2765:2767   */\n  0x20\n    /* \"#utility.yul\":2754:2763   */\n  dup3\n    /* \"#utility.yul\":2750:2768   */\n  add\n    /* \"#utility.yul\":2742:2768   */\n  swap1\n  pop\n    /* \"#utility.yul\":2814:2823   */\n  dup2\n    /* \"#utility.yul\":2808:2812   */\n  dup2\n    /* \"#utility.yul\":2804:2824   */\n  sub\n    /* \"#utility.yul\":2800:2801   */\n  0x00\n    /* \"#utility.yul\":2789:2798   */\n  dup4\n    /* \"#utility.yul\":2785:2802   */\n  add\n    /* \"#utility.yul\":2778:2825   */\n  mstore\n    /* \"#utility.yul\":2842:2973   */\n  tag_78\n    /* \"#utility.yul\":2968:2972   */\n  dup2\n    /* \"#utility.yul\":2842:2973   */\n  tag_39\n  jump\t// in\ntag_78:\n    /* \"#utility.yul\":2834:2973   */\n  swap1\n  pop\n    /* \"#utility.yul\":2561:2980   */\n  swap2\n  swap1\n  pop\n  jump\t// out\n    /* \"#utility.yul\":2986:3160   */\ntag_40:\n    /* \"#utility.yul\":3126:3152   */\n  0x72657665616c4475726174696f6e206d757920636f72746f0000000000000000\n    /* \"#utility.yul\":3122:3123   */\n  0x00\n    /* \"#utility.yul\":3114:3120   */\n  dup3\n    /* \"#utility.yul\":3110:3124   */\n  add\n    /* \"#utility.yul\":3103:3153   */\n  mstore\n    /* \"#utility.yul\":2986:3160   */\n  pop\n  jump\t// out\n    /* \"#utility.yul\":3166:3532   */\ntag_41:\n    /* \"#utility.yul\":3308:3311   */\n  0x00\n    /* \"#utility.yul\":3329:3396   */\n  tag_81\n    /* \"#utility.yul\":3393:3395   */\n  0x18\n    /* \"#utility.yul\":3388:3391   */\n  dup4\n    /* \"#utility.yul\":3329:3396   */\n  tag_37\n  jump\t// in\ntag_81:\n    /* \"#utility.yul\":3322:3396   */\n  swap2\n  pop\n    /* \"#utility.yul\":3405:3498   */\n  tag_82\n    /* \"#utility.yul\":3494:3497   */\n  dup3\n    /* \"#utility.yul\":3405:3498   */\n  tag_40\n  jump\t// in\ntag_82:\n    /* \"#utility.yul\":3523:3525   */\n  0x20\n    /* \"#utility.yul\":3518:3521   */\n  dup3\n    /* \"#utility.yul\":3514:3526   */\n  add\n    /* \"#utility.yul\":3507:3526   */\n  swap1\n  pop\n    /* \"#utility.yul\":3166:3532   */\n  swap2\n  swap1\n  pop\n  jump\t// out\n    /* \"#utility.yul\":3538:3957   */\ntag_11:\n    /* \"#utility.yul\":3704:3708   */\n  0x00\n    /* \"#utility.yul\":3742:3744   */\n  0x20\n    /* \"#utility.yul\":3731:3740   */\n  dup3\n    /* \"#utility.yul\":3727:3745   */\n  add\n    /* \"#utility.yul\":3719:3745   */\n  swap1\n  pop\n    /* \"#utility.yul\":3791:3800   */\n  dup2\n    /* \"#utility.yul\":3785:3789   */\n  dup2\n    /* \"#utility.yul\":3781:3801   */\n  sub\n    /* \"#utility.yul\":3777:3778   */\n  0x00\n    /* \"#utility.yul\":3766:3775   */\n  dup4\n    /* \"#utility.yul\":3762:3779   */\n  add\n    /* \"#utility.yul\":3755:3802   */\n  mstore\n    /* \"#utility.yul\":3819:3950   */\n  tag_84\n    /* \"#utility.yul\":3945:3949   */\n  dup2\n    /* \"#utility.yul\":3819:3950   */\n  tag_41\n  jump\t// in\ntag_84:\n    /* \"#utility.yul\":3811:3950   */\n  swap1\n  pop\n    /* \"#utility.yul\":3538:3957   */\n  swap2\n  swap1\n  pop\n  jump\t// out\n    /* \"#utility.yul\":3963:4138   */\ntag_42:\n    /* \"#utility.yul\":4103:4130   */\n  0x7061796d656e744475726174696f6e206d757920636f72746f00000000000000\n    /* \"#utility.yul\":4099:4100   */\n  0x00\n    /* \"#utility.yul\":4091:4097   */\n  dup3\n    /* \"#utility.yul\":4087:4101   */\n  add\n    /* \"#utility.yul\":4080:4131   */\n  mstore\n    /* \"#utility.yul\":3963:4138   */\n  pop\n  jump\t// out\n    /* \"#utility.yul\":4144:4510   */\ntag_43:\n    /* \"#utility.yul\":4286:4289   */\n  0x00\n    /* \"#utility.yul\":4307:4374   */\n  tag_87\n    /* \"#utility.yul\":4371:4373   */\n  0x19\n    /* \"#utility.yul\":4366:4369   */\n  dup4\n    /* \"#utility.yul\":4307:4374   */\n  tag_37\n  jump\t// in\ntag_87:\n    /* \"#utility.yul\":4300:4374   */\n  swap2\n  pop\n    /* \"#utility.yul\":4383:4476   */\n  tag_88\n    /* \"#utility.yul\":4472:4475   */\n  dup3\n    /* \"#utility.yul\":4383:4476   */\n  tag_42\n  jump\t// in\ntag_88:\n    /* \"#utility.yul\":4501:4503   */\n  0x20\n    /* \"#utility.yul\":4496:4499   */\n  dup3\n    /* \"#utility.yul\":4492:4504   */\n  add\n    /* \"#utility.yul\":4485:4504   */\n  swap1\n  pop\n    /* \"#utility.yul\":4144:4510   */\n  swap2\n  swap1\n  pop\n  jump\t// out\n    /* \"#utility.yul\":4516:4935   */\ntag_14:\n    /* \"#utility.yul\":4682:4686   */\n  0x00\n    /* \"#utility.yul\":4720:4722   */\n  0x20\n    /* \"#utility.yul\":4709:4718   */\n  dup3\n    /* \"#utility.yul\":4705:4723   */\n  add\n    /* \"#utility.yul\":4697:4723   */\n  swap1\n  pop\n    /* \"#utility.yul\":4769:4778   */\n  dup2\n    /* \"#utility.yul\":4763:4767   */\n  dup2\n    /* \"#utility.yul\":4759:4779   */\n  sub\n    /* \"#utility.yul\":4755:4756   */\n  0x00\n    /* \"#utility.yul\":4744:4753   */\n  dup4\n    /* \"#utility.yul\":4740:4757   */\n  add\n    /* \"#utility.yul\":4733:4780   */\n  mstore\n    /* \"#utility.yul\":4797:4928   */\n  tag_90\n    /* \"#utility.yul\":4923:4927   */\n  dup2\n    /* \"#utility.yul\":4797:4928   */\n  tag_43\n  jump\t// in\ntag_90:\n    /* \"#utility.yul\":4789:4928   */\n  swap1\n  pop\n    /* \"#utility.yul\":4516:4935   */\n  swap2\n  swap1\n  pop\n  jump\t// out\n    /* \"#utility.yul\":4941:5113   */\ntag_44:\n    /* \"#utility.yul\":5081:5105   */\n  0x6465706f7369742064656d61736961646f2062616a6f00000000000000000000\n    /* \"#utility.yul\":5077:5078   */\n  0x00\n    /* \"#utility.yul\":5069:5075   */\n  dup3\n    /* \"#utility.yul\":5065:5079   */\n  add\n    /* \"#utility.yul\":5058:5106   */\n  mstore\n    /* \"#utility.yul\":4941:5113   */\n  pop\n  jump\t// out\n    /* \"#utility.yul\":5119:5485   */\ntag_45:\n    /* \"#utility.yul\":5261:5264   */\n  0x00\n    /* \"#utility.yul\":5282:5349   */\n  tag_93\n    /* \"#utility.yul\":5346:5348   */\n  0x16\n    /* \"#utility.yul\":5341:5344   */\n  dup4\n    /* \"#utility.yul\":5282:5349   */\n  tag_37\n  jump\t// in\ntag_93:\n    /* \"#utility.yul\":5275:5349   */\n  swap2\n  pop\n    /* \"#utility.yul\":5358:5451   */\n  tag_94\n    /* \"#utility.yul\":5447:5450   */\n  dup3\n    /* \"#utility.yul\":5358:5451   */\n  tag_44\n  jump\t// in\ntag_94:\n    /* \"#utility.yul\":5476:5478   */\n  0x20\n    /* \"#utility.yul\":5471:5474   */\n  dup3\n    /* \"#utility.yul\":5467:5479   */\n  add\n    /* \"#utility.yul\":5460:5479   */\n  swap1\n  pop\n    /* \"#utility.yul\":5119:5485   */\n  swap2\n  swap1\n  pop\n  jump\t// out\n    /* \"#utility.yul\":5491:5910   */\ntag_17:\n    /* \"#utility.yul\":5657:5661   */\n  0x00\n    /* \"#utility.yul\":5695:5697   */\n  0x20\n    /* \"#utility.yul\":5684:5693   */\n  dup3\n    /* \"#utility.yul\":5680:5698   */\n  add\n    /* \"#utility.yul\":5672:5698   */\n  swap1\n  pop\n    /* \"#utility.yul\":5744:5753   */\n  dup2\n    /* \"#utility.yul\":5738:5742   */\n  dup2\n    /* \"#utility.yul\":5734:5754   */\n  sub\n    /* \"#utility.yul\":5730:5731   */\n  0x00\n    /* \"#utility.yul\":5719:5728   */\n  dup4\n    /* \"#utility.yul\":5715:5732   */\n  add\n    /* \"#utility.yul\":5708:5755   */\n  mstore\n    /* \"#utility.yul\":5772:5903   */\n  tag_96\n    /* \"#utility.yul\":5898:5902   */\n  dup2\n    /* \"#utility.yul\":5772:5903   */\n  tag_45\n  jump\t// in\ntag_96:\n    /* \"#utility.yul\":5764:5903   */\n  swap1\n  pop\n    /* \"#utility.yul\":5491:5910   */\n  swap2\n  swap1\n  pop\n  jump\t// out\n    /* \"#utility.yul\":5916:6088   */\ntag_46:\n    /* \"#utility.yul\":6056:6080   */\n  0x6465706f7369742064656d61736961646f20616c746f00000000000000000000\n    /* \"#utility.yul\":6052:6053   */\n  0x00\n    /* \"#utility.yul\":6044:6050   */\n  dup3\n    /* \"#utility.yul\":6040:6054   */\n  add\n    /* \"#utility.yul\":6033:6081   */\n  mstore\n    /* \"#utility.yul\":5916:6088   */\n  pop\n  jump\t// out\n    /* \"#utility.yul\":6094:6460   */\ntag_47:\n    /* \"#utility.yul\":6236:6239   */\n  0x00\n    /* \"#utility.yul\":6257:6324   */\n  tag_99\n    /* \"#utility.yul\":6321:6323   */\n  0x16\n    /* \"#utility.yul\":6316:6319   */\n  dup4\n    /* \"#utility.yul\":6257:6324   */\n  tag_37\n  jump\t// in\ntag_99:\n    /* \"#utility.yul\":6250:6324   */\n  swap2\n  pop\n    /* \"#utility.yul\":6333:6426   */\n  tag_100\n    /* \"#utility.yul\":6422:6425   */\n  dup3\n    /* \"#utility.yul\":6333:6426   */\n  tag_46\n  jump\t// in\ntag_100:\n    /* \"#utility.yul\":6451:6453   */\n  0x20\n    /* \"#utility.yul\":6446:6449   */\n  dup3\n    /* \"#utility.yul\":6442:6454   */\n  add\n    /* \"#utility.yul\":6435:6454   */\n  swap1\n  pop\n    /* \"#utility.yul\":6094:6460   */\n  swap2\n  swap1\n  pop\n  jump\t// out\n    /* \"#utility.yul\":6466:6885   */\ntag_20:\n    /* \"#utility.yul\":6632:6636   */\n  0x00\n    /* \"#utility.yul\":6670:6672   */\n  0x20\n    /* \"#utility.yul\":6659:6668   */\n  dup3\n    /* \"#utility.yul\":6655:6673   */\n  add\n    /* \"#utility.yul\":6647:6673   */\n  swap1\n  pop\n    /* \"#utility.yul\":6719:6728   */\n  dup2\n    /* \"#utility.yul\":6713:6717   */\n  dup2\n    /* \"#utility.yul\":6709:6729   */\n  sub\n    /* \"#utility.yul\":6705:6706   */\n  0x00\n    /* \"#utility.yul\":6694:6703   */\n  dup4\n    /* \"#utility.yul\":6690:6707   */\n  add\n    /* \"#utility.yul\":6683:6730   */\n  mstore\n    /* \"#utility.yul\":6747:6878   */\n  tag_102\n    /* \"#utility.yul\":6873:6877   */\n  dup2\n    /* \"#utility.yul\":6747:6878   */\n  tag_47\n  jump\t// in\ntag_102:\n    /* \"#utility.yul\":6739:6878   */\n  swap1\n  pop\n    /* \"#utility.yul\":6466:6885   */\n  swap2\n  swap1\n  pop\n  jump\t// out\n    /* \"#utility.yul\":6891:7066   */\ntag_48:\n    /* \"#utility.yul\":7031:7058   */\n  0x6d6178426964646572732064656d61736961646f2062616a6f00000000000000\n    /* \"#utility.yul\":7027:7028   */\n  0x00\n    /* \"#utility.yul\":7019:7025   */\n  dup3\n    /* \"#utility.yul\":7015:7029   */\n  add\n    /* \"#utility.yul\":7008:7059   */\n  mstore\n    /* \"#utility.yul\":6891:7066   */\n  pop\n  jump\t// out\n    /* \"#utility.yul\":7072:7438   */\ntag_49:\n    /* \"#utility.yul\":7214:7217   */\n  0x00\n    /* \"#utility.yul\":7235:7302   */\n  tag_105\n    /* \"#utility.yul\":7299:7301   */\n  0x19\n    /* \"#utility.yul\":7294:7297   */\n  dup4\n    /* \"#utility.yul\":7235:7302   */\n  tag_37\n  jump\t// in\ntag_105:\n    /* \"#utility.yul\":7228:7302   */\n  swap2\n  pop\n    /* \"#utility.yul\":7311:7404   */\n  tag_106\n    /* \"#utility.yul\":7400:7403   */\n  dup3\n    /* \"#utility.yul\":7311:7404   */\n  tag_48\n  jump\t// in\ntag_106:\n    /* \"#utility.yul\":7429:7431   */\n  0x20\n    /* \"#utility.yul\":7424:7427   */\n  dup3\n    /* \"#utility.yul\":7420:7432   */\n  add\n    /* \"#utility.yul\":7413:7432   */\n  swap1\n  pop\n    /* \"#utility.yul\":7072:7438   */\n  swap2\n  swap1\n  pop\n  jump\t// out\n    /* \"#utility.yul\":7444:7863   */\ntag_23:\n    /* \"#utility.yul\":7610:7614   */\n  0x00\n    /* \"#utility.yul\":7648:7650   */\n  0x20\n    /* \"#utility.yul\":7637:7646   */\n  dup3\n    /* \"#utility.yul\":7633:7651   */\n  add\n    /* \"#utility.yul\":7625:7651   */\n  swap1\n  pop\n    /* \"#utility.yul\":7697:7706   */\n  dup2\n    /* \"#utility.yul\":7691:7695   */\n  dup2\n    /* \"#utility.yul\":7687:7707   */\n  sub\n    /* \"#utility.yul\":7683:7684   */\n  0x00\n    /* \"#utility.yul\":7672:7681   */\n  dup4\n    /* \"#utility.yul\":7668:7685   */\n  add\n    /* \"#utility.yul\":7661:7708   */\n  mstore\n    /* \"#utility.yul\":7725:7856   */\n  tag_108\n    /* \"#utility.yul\":7851:7855   */\n  dup2\n    /* \"#utility.yul\":7725:7856   */\n  tag_49\n  jump\t// in\ntag_108:\n    /* \"#utility.yul\":7717:7856   */\n  swap1\n  pop\n    /* \"#utility.yul\":7444:7863   */\n  swap2\n  swap1\n  pop\n  jump\t// out\n    /* \"#utility.yul\":7869:8044   */\ntag_50:\n    /* \"#utility.yul\":8009:8036   */\n  0x6d6178426964646572732064656d61736961646f20616c746f00000000000000\n    /* \"#utility.yul\":8005:8006   */\n  0x00\n    /* \"#utility.yul\":7997:8003   */\n  dup3\n    /* \"#utility.yul\":7993:8007   */\n  add\n    /* \"#utility.yul\":7986:8037   */\n  mstore\n    /* \"#utility.yul\":7869:8044   */\n  pop\n  jump\t// out\n    /* \"#utility.yul\":8050:8416   */\ntag_51:\n    /* \"#utility.yul\":8192:8195   */\n  0x00\n    /* \"#utility.yul\":8213:8280   */\n  tag_111\n    /* \"#utility.yul\":8277:8279   */\n  0x19\n    /* \"#utility.yul\":8272:8275   */\n  dup4\n    /* \"#utility.yul\":8213:8280   */\n  tag_37\n  jump\t// in\ntag_111:\n    /* \"#utility.yul\":8206:8280   */\n  swap2\n  pop\n    /* \"#utility.yul\":8289:8382   */\n  tag_112\n    /* \"#utility.yul\":8378:8381   */\n  dup3\n    /* \"#utility.yul\":8289:8382   */\n  tag_50\n  jump\t// in\ntag_112:\n    /* \"#utility.yul\":8407:8409   */\n  0x20\n    /* \"#utility.yul\":8402:8405   */\n  dup3\n    /* \"#utility.yul\":8398:8410   */\n  add\n    /* \"#utility.yul\":8391:8410   */\n  swap1\n  pop\n    /* \"#utility.yul\":8050:8416   */\n  swap2\n  swap1\n  pop\n  jump\t// out\n    /* \"#utility.yul\":8422:8841   */\ntag_26:\n    /* \"#utility.yul\":8588:8592   */\n  0x00\n    /* \"#utility.yul\":8626:8628   */\n  0x20\n    /* \"#utility.yul\":8615:8624   */\n  dup3\n    /* \"#utility.yul\":8611:8629   */\n  add\n    /* \"#utility.yul\":8603:8629   */\n  swap1\n  pop\n    /* \"#utility.yul\":8675:8684   */\n  dup2\n    /* \"#utility.yul\":8669:8673   */\n  dup2\n    /* \"#utility.yul\":8665:8685   */\n  sub\n    /* \"#utility.yul\":8661:8662   */\n  0x00\n    /* \"#utility.yul\":8650:8659   */\n  dup4\n    /* \"#utility.yul\":8646:8663   */\n  add\n    /* \"#utility.yul\":8639:8686   */\n  mstore\n    /* \"#utility.yul\":8703:8834   */\n  tag_114\n    /* \"#utility.yul\":8829:8833   */\n  dup2\n    /* \"#utility.yul\":8703:8834   */\n  tag_51\n  jump\t// in\ntag_114:\n    /* \"#utility.yul\":8695:8834   */\n  swap1\n  pop\n    /* \"#utility.yul\":8422:8841   */\n  swap2\n  swap1\n  pop\n  jump\t// out\n    /* \"#utility.yul\":8847:9027   */\ntag_52:\n    /* \"#utility.yul\":8895:8972   */\n  0x4e487b7100000000000000000000000000000000000000000000000000000000\n    /* \"#utility.yul\":8892:8893   */\n  0x00\n    /* \"#utility.yul\":8885:8973   */\n  mstore\n    /* \"#utility.yul\":8992:8996   */\n  0x11\n    /* \"#utility.yul\":8989:8990   */\n  0x04\n    /* \"#utility.yul\":8982:8997   */\n  mstore\n    /* \"#utility.yul\":9016:9020   */\n  0x24\n    /* \"#utility.yul\":9013:9014   */\n  0x00\n    /* \"#utility.yul\":9006:9021   */\n  revert\n    /* \"#utility.yul\":9033:9224   */\ntag_28:\n    /* \"#utility.yul\":9073:9076   */\n  0x00\n    /* \"#utility.yul\":9092:9112   */\n  tag_117\n    /* \"#utility.yul\":9110:9111   */\n  dup3\n    /* \"#utility.yul\":9092:9112   */\n  tag_34\n  jump\t// in\ntag_117:\n    /* \"#utility.yul\":9087:9112   */\n  swap2\n  pop\n    /* \"#utility.yul\":9126:9146   */\n  tag_118\n    /* \"#utility.yul\":9144:9145   */\n  dup4\n    /* \"#utility.yul\":9126:9146   */\n  tag_34\n  jump\t// in\ntag_118:\n    /* \"#utility.yul\":9121:9146   */\n  swap3\n  pop\n    /* \"#utility.yul\":9169:9170   */\n  dup3\n    /* \"#utility.yul\":9166:9167   */\n  dup3\n    /* \"#utility.yul\":9162:9171   */\n  add\n    /* \"#utility.yul\":9155:9171   */\n  swap1\n  pop\n    /* \"#utility.yul\":9190:9193   */\n  dup1\n    /* \"#utility.yul\":9187:9188   */\n  dup3\n    /* \"#utility.yul\":9184:9194   */\n  gt\n    /* \"#utility.yul\":9181:9217   */\n  iszero\n  tag_119\n  jumpi\n    /* \"#utility.yul\":9197:9215   */\n  tag_120\n  tag_52\n  jump\t// in\ntag_120:\n    /* \"#utility.yul\":9181:9217   */\ntag_119:\n    /* \"#utility.yul\":9033:9224   */\n  swap3\n  swap2\n  pop\n  pop\n  jump\t// out\n    /* \"blindAuctionDEF.sol\":719:23955  contract BlindAuctionFinalV2 {... */\ntag_30:\n  mload(0x80)\n  mload(0xa0)\n  mload(0xc0)\n  mload(0xe0)\n  mload(0x0100)\n  mload(0x0120)\n  mload(0x0140)\n  codecopy(0x00, dataOffset(sub_0), dataSize(sub_0))\n  0x00\n  assignImmutable(\"0x4dfb3440902001bce9b7ebf7be7d95fe9e2056bd5ce309ceb83b32f4e00e21ed\")\n  0x00\n  assignImmutable(\"0x6bcaf047ba4c8ac400fca43393035242dd1aabda2d6068a0c51242b97224de8d\")\n  0x00\n  assignImmutable(\"0x318a541463286d7584b45438601196fbc1a55628e303a0613eb6d46e60640c95\")\n  0x00\n  assignImmutable(\"0x5bc0457d8881b800fd1bc0d6df907345b3bf287e43a5790ded3d08dbacf9c03a\")\n  0x00\n  assignImmutable(\"0x5ca7b081b8c6c57b0469c340dba43ec8d33c0b898c69e55c4f74ff7ed9ac71ea\")\n  0x00\n  assignImmutable(\"0xed93c67e1a9b7f09d3b44ee593360f0073603a8e45415e2c3c69afc994a1103d\")\n  0x00\n  assignImmutable(\"0x933c48a61c3bad621ebc5d57117f9e773fefae4468bceaf9d3198a3bf7c1d678\")\n  return(0x00, dataSize(sub_0))\nstop\n\nsub_0: assembly {\n        /* \"blindAuctionDEF.sol\":719:23955  contract BlindAuctionFinalV2 {... */\n      mstore(0x40, 0x80)\n      jumpi(tag_1, lt(calldatasize, 0x04))\n      shr(0xe0, calldataload(0x00))\n      dup1\n      0xae0ab2ba\n      gt\n      tag_43\n      jumpi\n      dup1\n      0xd4daf77a\n      gt\n      tag_44\n      jumpi\n      dup1\n      0xf14fcbc8\n      gt\n      tag_45\n      jumpi\n      dup1\n      0xf14fcbc8\n      eq\n      tag_38\n      jumpi\n      dup1\n      0xf156b57c\n      eq\n      tag_39\n      jumpi\n      dup1\n      0xf2224795\n      eq\n      tag_40\n      jumpi\n      dup1\n      0xf776bd06\n      eq\n      tag_41\n      jumpi\n      dup1\n      0xfcc8f793\n      eq\n      tag_42\n      jumpi\n      jump(tag_2)\n    tag_45:\n      dup1\n      0xd4daf77a\n      eq\n      tag_33\n      jumpi\n      dup1\n      0xdd5967c3\n      eq\n      tag_34\n      jumpi\n      dup1\n      0xe1e158a5\n      eq\n      tag_35\n      jumpi\n      dup1\n      0xe35a70d9\n      eq\n      tag_36\n      jumpi\n      dup1\n      0xeaac5564\n      eq\n      tag_37\n      jumpi\n      jump(tag_2)\n    tag_44:\n      dup1\n      0xc87da02d\n      gt\n      tag_46\n      jumpi\n      dup1\n      0xc87da02d\n      eq\n      tag_28\n      jumpi\n      dup1\n      0xc8a58ab7\n      eq\n      tag_29\n      jumpi\n      dup1\n      0xd0e30db0\n      eq\n      tag_30\n      jumpi\n      dup1\n      0xd329db8f\n      eq\n      tag_31\n      jumpi\n      dup1\n      0xd3584e84\n      eq\n      tag_32\n      jumpi\n      jump(tag_2)\n    tag_46:\n      dup1\n      0xae0ab2ba\n      eq\n      tag_23\n      jumpi\n      dup1\n      0xb14b28a3\n      eq\n      tag_24\n      jumpi\n      dup1\n      0xb3f05b97\n      eq\n      tag_25\n      jumpi\n      dup1\n      0xb9e42385\n      eq\n      tag_26\n      jumpi\n      dup1\n      0xc3f6afd7\n      eq\n      tag_27\n      jumpi\n      jump(tag_2)\n    tag_43:\n      dup1\n      0x4c72e066\n      gt\n      tag_47\n      jumpi\n      dup1\n      0x7e278310\n      gt\n      tag_48\n      jumpi\n      dup1\n      0x7e278310\n      eq\n      tag_18\n      jumpi\n      dup1\n      0x8da5cb5b\n      eq\n      tag_19\n      jumpi\n      dup1\n      0xa097f3ac\n      eq\n      tag_20\n      jumpi\n      dup1\n      0xa2ff0209\n      eq\n      tag_21\n      jumpi\n      dup1\n      0xaabe2fe3\n      eq\n      tag_22\n      jumpi\n      jump(tag_2)\n    tag_48:\n      dup1\n      0x4c72e066\n      eq\n      tag_13\n      jumpi\n      dup1\n      0x523a3f08\n      eq\n      tag_14\n      jumpi\n      dup1\n      0x56845ef7\n      eq\n      tag_15\n      jumpi\n      dup1\n      0x6d929f23\n      eq\n      tag_16\n      jumpi\n      dup1\n      0x76b9148f\n      eq\n      tag_17\n      jumpi\n      jump(tag_2)\n    tag_47:\n      dup1\n      0x36d0054b\n      gt\n      tag_49\n      jumpi\n      dup1\n      0x36d0054b\n      eq\n      tag_8\n      jumpi\n      dup1\n      0x3c454e40\n      eq\n      tag_9\n      jumpi\n      dup1\n      0x4036778f\n      eq\n      tag_10\n      jumpi\n      dup1\n      0x474b7525\n      eq\n      tag_11\n      jumpi\n      dup1\n      0x4bb278f3\n      eq\n      tag_12\n      jumpi\n      jump(tag_2)\n    tag_49:\n      dup1\n      0x0700037d\n      eq\n      tag_3\n      jumpi\n      dup1\n      0x117df088\n      eq\n      tag_4\n      jumpi\n      dup1\n      0x1300a6d1\n      eq\n      tag_5\n      jumpi\n      dup1\n      0x176069e9\n      eq\n      tag_6\n      jumpi\n      dup1\n      0x25bd0b9a\n      eq\n      tag_7\n      jumpi\n      jump(tag_2)\n    tag_1:\n      jumpi(tag_2, calldatasize)\n      stop\n    tag_2:\n      0x00\n      dup1\n      revert\n        /* \"blindAuctionDEF.sol\":4923:4965  mapping(address => uint256) public rewards */\n    tag_3:\n      callvalue\n      dup1\n      iszero\n      tag_52\n      jumpi\n      0x00\n      dup1\n      revert\n    tag_52:\n      pop\n      tag_53\n      0x04\n      dup1\n      calldatasize\n      sub\n      dup2\n      add\n      swap1\n      tag_54\n      swap2\n      swap1\n      tag_55\n      jump\t// in\n    tag_54:\n      tag_56\n      jump\t// in\n    tag_53:\n      mload(0x40)\n      tag_57\n      swap2\n      swap1\n      tag_58\n      jump\t// in\n    tag_57:\n      mload(0x40)\n      dup1\n      swap2\n      sub\n      swap1\n      return\n        /* \"blindAuctionDEF.sol\":17899:19338  function withdrawDeposit() external isFinalized {... */\n    tag_4:\n      callvalue\n      dup1\n      iszero\n      tag_59\n      jumpi\n      0x00\n      dup1\n      revert\n    tag_59:\n      pop\n      tag_60\n      tag_61\n      jump\t// in\n    tag_60:\n      stop\n        /* \"blindAuctionDEF.sol\":23436:23911  function timeLeft() external view returns (uint256 commitLeft, uint256 revealLeft, uint256 payLeft) {... */\n    tag_5:\n      callvalue\n      dup1\n      iszero\n      tag_62\n      jumpi\n      0x00\n      dup1\n      revert\n    tag_62:\n      pop\n      tag_63\n      tag_64\n      jump\t// in\n    tag_63:\n      mload(0x40)\n      tag_65\n      swap4\n      swap3\n      swap2\n      swap1\n      tag_66\n      jump\t// in\n    tag_65:\n      mload(0x40)\n      dup1\n      swap2\n      sub\n      swap1\n      return\n        /* \"blindAuctionDEF.sol\":22730:22915  function hashBid(uint256 bidAmount, bytes32 salt, address bidder) external view returns (bytes32) {... */\n    tag_6:\n      callvalue\n      dup1\n      iszero\n      tag_67\n      jumpi\n      0x00\n      dup1\n      revert\n    tag_67:\n      pop\n      tag_68\n      0x04\n      dup1\n      calldatasize\n      sub\n      dup2\n      add\n      swap1\n      tag_69\n      swap2\n      swap1\n      tag_70\n      jump\t// in\n    tag_69:\n      tag_71\n      jump\t// in\n    tag_68:\n      mload(0x40)\n      tag_72\n      swap2\n      swap1\n      tag_73\n      jump\t// in\n    tag_72:\n      mload(0x40)\n      dup1\n      swap2\n      sub\n      swap1\n      return\n        /* \"blindAuctionDEF.sol\":1742:1787  uint256 public constant MAX_MAX_BIDDERS = 200 */\n    tag_7:\n      callvalue\n      dup1\n      iszero\n      tag_74\n      jumpi\n      0x00\n      dup1\n      revert\n    tag_74:\n      pop\n      tag_75\n      tag_76\n      jump\t// in\n    tag_75:\n      mload(0x40)\n      tag_77\n      swap2\n      swap1\n      tag_58\n      jump\t// in\n    tag_77:\n      mload(0x40)\n      dup1\n      swap2\n      sub\n      swap1\n      return\n        /* \"blindAuctionDEF.sol\":4662:4691  bool public auctionSuccessful */\n    tag_8:\n      callvalue\n      dup1\n      iszero\n      tag_78\n      jumpi\n      0x00\n      dup1\n      revert\n    tag_78:\n      pop\n      tag_79\n      tag_80\n      jump\t// in\n    tag_79:\n      mload(0x40)\n      tag_81\n      swap2\n      swap1\n      tag_82\n      jump\t// in\n    tag_81:\n      mload(0x40)\n      dup1\n      swap2\n      sub\n      swap1\n      return\n        /* \"blindAuctionDEF.sol\":1691:1735  uint256 public constant MIN_MAX_BIDDERS = 10 */\n    tag_9:\n      callvalue\n      dup1\n      iszero\n      tag_83\n      jumpi\n      0x00\n      dup1\n      revert\n    tag_83:\n      pop\n      tag_84\n      tag_85\n      jump\t// in\n    tag_84:\n      mload(0x40)\n      tag_86\n      swap2\n      swap1\n      tag_58\n      jump\t// in\n    tag_86:\n      mload(0x40)\n      dup1\n      swap2\n      sub\n      swap1\n      return\n        /* \"blindAuctionDEF.sol\":10836:11574  function reveal(uint256 _bidAmount, bytes32 _salt) external inRevealPhase {... */\n    tag_10:\n      callvalue\n      dup1\n      iszero\n      tag_87\n      jumpi\n      0x00\n      dup1\n      revert\n    tag_87:\n      pop\n      tag_88\n      0x04\n      dup1\n      calldatasize\n      sub\n      dup2\n      add\n      swap1\n      tag_89\n      swap2\n      swap1\n      tag_90\n      jump\t// in\n    tag_89:\n      tag_91\n      jump\t// in\n    tag_88:\n      stop\n        /* \"blindAuctionDEF.sol\":4888:4916  uint256 public ownerProceeds */\n    tag_11:\n      callvalue\n      dup1\n      iszero\n      tag_92\n      jumpi\n      0x00\n      dup1\n      revert\n    tag_92:\n      pop\n      tag_93\n      tag_94\n      jump\t// in\n    tag_93:\n      mload(0x40)\n      tag_95\n      swap2\n      swap1\n      tag_58\n      jump\t// in\n    tag_95:\n      mload(0x40)\n      dup1\n      swap2\n      sub\n      swap1\n      return\n        /* \"blindAuctionDEF.sol\":12161:12876  function finalize() external afterReveal {... */\n    tag_12:\n      callvalue\n      dup1\n      iszero\n      tag_96\n      jumpi\n      0x00\n      dup1\n      revert\n    tag_96:\n      pop\n      tag_97\n      tag_98\n      jump\t// in\n    tag_97:\n      stop\n        /* \"blindAuctionDEF.sol\":4185:4215  address[] public rankedBidders */\n    tag_13:\n      callvalue\n      dup1\n      iszero\n      tag_99\n      jumpi\n      0x00\n      dup1\n      revert\n    tag_99:\n      pop\n      tag_100\n      0x04\n      dup1\n      calldatasize\n      sub\n      dup2\n      add\n      swap1\n      tag_101\n      swap2\n      swap1\n      tag_102\n      jump\t// in\n    tag_101:\n      tag_103\n      jump\t// in\n    tag_100:\n      mload(0x40)\n      tag_104\n      swap2\n      swap1\n      tag_105\n      jump\t// in\n    tag_104:\n      mload(0x40)\n      dup1\n      swap2\n      sub\n      swap1\n      return\n        /* \"blindAuctionDEF.sol\":20142:20511  function withdrawReward(uint256 amount) external {... */\n    tag_14:\n      callvalue\n      dup1\n      iszero\n      tag_106\n      jumpi\n      0x00\n      dup1\n      revert\n    tag_106:\n      pop\n      tag_107\n      0x04\n      dup1\n      calldatasize\n      sub\n      dup2\n      add\n      swap1\n      tag_108\n      swap2\n      swap1\n      tag_102\n      jump\t// in\n    tag_108:\n      tag_109\n      jump\t// in\n    tag_107:\n      stop\n        /* \"blindAuctionDEF.sol\":2917:2957  uint256 public immutable paymentDuration */\n    tag_15:\n      callvalue\n      dup1\n      iszero\n      tag_110\n      jumpi\n      0x00\n      dup1\n      revert\n    tag_110:\n      pop\n      tag_111\n      tag_112\n      jump\t// in\n    tag_111:\n      mload(0x40)\n      tag_113\n      swap2\n      swap1\n      tag_58\n      jump\t// in\n    tag_113:\n      mload(0x40)\n      dup1\n      swap2\n      sub\n      swap1\n      return\n        /* \"blindAuctionDEF.sol\":4774:4804  uint256 public paymentDeadline */\n    tag_16:\n      callvalue\n      dup1\n      iszero\n      tag_114\n      jumpi\n      0x00\n      dup1\n      revert\n    tag_114:\n      pop\n      tag_115\n      tag_116\n      jump\t// in\n    tag_115:\n      mload(0x40)\n      tag_117\n      swap2\n      swap1\n      tag_58\n      jump\t// in\n    tag_117:\n      mload(0x40)\n      dup1\n      swap2\n      sub\n      swap1\n      return\n        /* \"blindAuctionDEF.sol\":19778:20134  function withdrawOwnerProceeds(uint256 amount) external onlyOwner {... */\n    tag_17:\n      callvalue\n      dup1\n      iszero\n      tag_118\n      jumpi\n      0x00\n      dup1\n      revert\n    tag_118:\n      pop\n      tag_119\n      0x04\n      dup1\n      calldatasize\n      sub\n      dup2\n      add\n      swap1\n      tag_120\n      swap2\n      swap1\n      tag_102\n      jump\t// in\n    tag_120:\n      tag_121\n      jump\t// in\n    tag_119:\n      stop\n        /* \"blindAuctionDEF.sol\":1575:1631  uint256 public constant MIN_PAYMENT_DURATION = 5 minutes */\n    tag_18:\n      callvalue\n      dup1\n      iszero\n      tag_122\n      jumpi\n      0x00\n      dup1\n      revert\n    tag_122:\n      pop\n      tag_123\n      tag_124\n      jump\t// in\n    tag_123:\n      mload(0x40)\n      tag_125\n      swap2\n      swap1\n      tag_58\n      jump\t// in\n    tag_125:\n      mload(0x40)\n      dup1\n      swap2\n      sub\n      swap1\n      return\n        /* \"blindAuctionDEF.sol\":2706:2736  address public immutable owner */\n    tag_19:\n      callvalue\n      dup1\n      iszero\n      tag_126\n      jumpi\n      0x00\n      dup1\n      revert\n    tag_126:\n      pop\n      tag_127\n      tag_128\n      jump\t// in\n    tag_127:\n      mload(0x40)\n      tag_129\n      swap2\n      swap1\n      tag_105\n      jump\t// in\n    tag_129:\n      mload(0x40)\n      dup1\n      swap2\n      sub\n      swap1\n      return\n        /* \"blindAuctionDEF.sol\":2984:3019  uint256 public immutable maxBidders */\n    tag_20:\n      callvalue\n      dup1\n      iszero\n      tag_130\n      jumpi\n      0x00\n      dup1\n      revert\n    tag_130:\n      pop\n      tag_131\n      tag_132\n      jump\t// in\n    tag_131:\n      mload(0x40)\n      tag_133\n      swap2\n      swap1\n      tag_58\n      jump\t// in\n    tag_133:\n      mload(0x40)\n      dup1\n      swap2\n      sub\n      swap1\n      return\n        /* \"blindAuctionDEF.sol\":2745:2784  uint256 public immutable commitDeadline */\n    tag_21:\n      callvalue\n      dup1\n      iszero\n      tag_134\n      jumpi\n      0x00\n      dup1\n      revert\n    tag_134:\n      pop\n      tag_135\n      tag_136\n      jump\t// in\n    tag_135:\n      mload(0x40)\n      tag_137\n      swap2\n      swap1\n      tag_58\n      jump\t// in\n    tag_137:\n      mload(0x40)\n      dup1\n      swap2\n      sub\n      swap1\n      return\n        /* \"blindAuctionDEF.sol\":23144:23428  function currentWinner() external view returns (address) {... */\n    tag_22:\n      callvalue\n      dup1\n      iszero\n      tag_138\n      jumpi\n      0x00\n      dup1\n      revert\n    tag_138:\n      pop\n      tag_139\n      tag_140\n      jump\t// in\n    tag_139:\n      mload(0x40)\n      tag_141\n      swap2\n      swap1\n      tag_105\n      jump\t// in\n    tag_141:\n      mload(0x40)\n      dup1\n      swap2\n      sub\n      swap1\n      return\n        /* \"blindAuctionDEF.sol\":23032:23136  function getRankedCount() external view returns (uint256) {... */\n    tag_23:\n      callvalue\n      dup1\n      iszero\n      tag_142\n      jumpi\n      0x00\n      dup1\n      revert\n    tag_142:\n      pop\n      tag_143\n      tag_144\n      jump\t// in\n    tag_143:\n      mload(0x40)\n      tag_145\n      swap2\n      swap1\n      tag_58\n      jump\t// in\n    tag_145:\n      mload(0x40)\n      dup1\n      swap2\n      sub\n      swap1\n      return\n        /* \"blindAuctionDEF.sol\":2791:2830  uint256 public immutable revealDeadline */\n    tag_24:\n      callvalue\n      dup1\n      iszero\n      tag_146\n      jumpi\n      0x00\n      dup1\n      revert\n    tag_146:\n      pop\n      tag_147\n      tag_148\n      jump\t// in\n    tag_147:\n      mload(0x40)\n      tag_149\n      swap2\n      swap1\n      tag_58\n      jump\t// in\n    tag_149:\n      mload(0x40)\n      dup1\n      swap2\n      sub\n      swap1\n      return\n        /* \"blindAuctionDEF.sol\":4634:4655  bool public finalized */\n    tag_25:\n      callvalue\n      dup1\n      iszero\n      tag_150\n      jumpi\n      0x00\n      dup1\n      revert\n    tag_150:\n      pop\n      tag_151\n      tag_152\n      jump\t// in\n    tag_151:\n      mload(0x40)\n      tag_153\n      swap2\n      swap1\n      tag_82\n      jump\t// in\n    tag_153:\n      mload(0x40)\n      dup1\n      swap2\n      sub\n      swap1\n      return\n        /* \"blindAuctionDEF.sol\":1949:2002  uint256 public constant UNREVEALED_PENALTY_BPS = 2000 */\n    tag_26:\n      callvalue\n      dup1\n      iszero\n      tag_154\n      jumpi\n      0x00\n      dup1\n      revert\n    tag_154:\n      pop\n      tag_155\n      tag_156\n      jump\t// in\n    tag_155:\n      mload(0x40)\n      tag_157\n      swap2\n      swap1\n      tag_58\n      jump\t// in\n    tag_157:\n      mload(0x40)\n      dup1\n      swap2\n      sub\n      swap1\n      return\n        /* \"blindAuctionDEF.sol\":1449:1505  uint256 public constant MIN_COMMIT_DURATION  = 5 minutes */\n    tag_27:\n      callvalue\n      dup1\n      iszero\n      tag_158\n      jumpi\n      0x00\n      dup1\n      revert\n    tag_158:\n      pop\n      tag_159\n      tag_160\n      jump\t// in\n    tag_159:\n      mload(0x40)\n      tag_161\n      swap2\n      swap1\n      tag_58\n      jump\t// in\n    tag_161:\n      mload(0x40)\n      dup1\n      swap2\n      sub\n      swap1\n      return\n        /* \"blindAuctionDEF.sol\":22923:23024  function getBidderCount() external view returns (uint256) {... */\n    tag_28:\n      callvalue\n      dup1\n      iszero\n      tag_162\n      jumpi\n      0x00\n      dup1\n      revert\n    tag_162:\n      pop\n      tag_163\n      tag_164\n      jump\t// in\n    tag_163:\n      mload(0x40)\n      tag_165\n      swap2\n      swap1\n      tag_58\n      jump\t// in\n    tag_165:\n      mload(0x40)\n      dup1\n      swap2\n      sub\n      swap1\n      return\n        /* \"blindAuctionDEF.sol\":4734:4767  uint256 public currentWinnerIndex */\n    tag_29:\n      callvalue\n      dup1\n      iszero\n      tag_166\n      jumpi\n      0x00\n      dup1\n      revert\n    tag_166:\n      pop\n      tag_167\n      tag_168\n      jump\t// in\n    tag_167:\n      mload(0x40)\n      tag_169\n      swap2\n      swap1\n      tag_58\n      jump\t// in\n    tag_169:\n      mload(0x40)\n      dup1\n      swap2\n      sub\n      swap1\n      return\n        /* \"blindAuctionDEF.sol\":2839:2871  uint256 public immutable deposit */\n    tag_30:\n      callvalue\n      dup1\n      iszero\n      tag_170\n      jumpi\n      0x00\n      dup1\n      revert\n    tag_170:\n      pop\n      tag_171\n      tag_172\n      jump\t// in\n    tag_171:\n      mload(0x40)\n      tag_173\n      swap2\n      swap1\n      tag_58\n      jump\t// in\n    tag_173:\n      mload(0x40)\n      dup1\n      swap2\n      sub\n      swap1\n      return\n        /* \"blindAuctionDEF.sol\":1512:1568  uint256 public constant MIN_REVEAL_DURATION  = 5 minutes */\n    tag_31:\n      callvalue\n      dup1\n      iszero\n      tag_174\n      jumpi\n      0x00\n      dup1\n      revert\n    tag_174:\n      pop\n      tag_175\n      tag_176\n      jump\t// in\n    tag_175:\n      mload(0x40)\n      tag_177\n      swap2\n      swap1\n      tag_58\n      jump\t// in\n    tag_177:\n      mload(0x40)\n      dup1\n      swap2\n      sub\n      swap1\n      return\n        /* \"blindAuctionDEF.sol\":4077:4104  address[] public bidderList */\n    tag_32:\n      callvalue\n      dup1\n      iszero\n      tag_178\n      jumpi\n      0x00\n      dup1\n      revert\n    tag_178:\n      pop\n      tag_179\n      0x04\n      dup1\n      calldatasize\n      sub\n      dup2\n      add\n      swap1\n      tag_180\n      swap2\n      swap1\n      tag_102\n      jump\t// in\n    tag_180:\n      tag_181\n      jump\t// in\n    tag_179:\n      mload(0x40)\n      tag_182\n      swap2\n      swap1\n      tag_105\n      jump\t// in\n    tag_182:\n      mload(0x40)\n      dup1\n      swap2\n      sub\n      swap1\n      return\n        /* \"blindAuctionDEF.sol\":15172:16836  function advanceWinnerIfUnpaid() external isFinalized {... */\n    tag_33:\n      callvalue\n      dup1\n      iszero\n      tag_183\n      jumpi\n      0x00\n      dup1\n      revert\n    tag_183:\n      pop\n      tag_184\n      tag_185\n      jump\t// in\n    tag_184:\n      stop\n        /* \"blindAuctionDEF.sol\":1335:1381  uint256 public constant MAX_DEPOSIT = 10 ether */\n    tag_34:\n      callvalue\n      dup1\n      iszero\n      tag_186\n      jumpi\n      0x00\n      dup1\n      revert\n    tag_186:\n      pop\n      tag_187\n      tag_188\n      jump\t// in\n    tag_187:\n      mload(0x40)\n      tag_189\n      swap2\n      swap1\n      tag_58\n      jump\t// in\n    tag_189:\n      mload(0x40)\n      dup1\n      swap2\n      sub\n      swap1\n      return\n        /* \"blindAuctionDEF.sol\":1279:1328  uint256 public constant MIN_DEPOSIT = 0.001 ether */\n    tag_35:\n      callvalue\n      dup1\n      iszero\n      tag_190\n      jumpi\n      0x00\n      dup1\n      revert\n    tag_190:\n      pop\n      tag_191\n      tag_192\n      jump\t// in\n    tag_191:\n      mload(0x40)\n      tag_193\n      swap2\n      swap1\n      tag_58\n      jump\t// in\n    tag_193:\n      mload(0x40)\n      dup1\n      swap2\n      sub\n      swap1\n      return\n        /* \"blindAuctionDEF.sol\":13321:14388  function payWinningBid() external payable isFinalized {... */\n    tag_36:\n      tag_194\n      tag_195\n      jump\t// in\n    tag_194:\n      stop\n        /* \"blindAuctionDEF.sol\":2189:2244  uint256 public constant ADVANCE_CALLER_BOUNTY_BPS = 500 */\n    tag_37:\n      callvalue\n      dup1\n      iszero\n      tag_196\n      jumpi\n      0x00\n      dup1\n      revert\n    tag_196:\n      pop\n      tag_197\n      tag_198\n      jump\t// in\n    tag_197:\n      mload(0x40)\n      tag_199\n      swap2\n      swap1\n      tag_58\n      jump\t// in\n    tag_199:\n      mload(0x40)\n      dup1\n      swap2\n      sub\n      swap1\n      return\n        /* \"blindAuctionDEF.sol\":9608:10236  function commit(bytes32 _commitment) external payable inCommitPhase {... */\n    tag_38:\n      tag_200\n      0x04\n      dup1\n      calldatasize\n      sub\n      dup2\n      add\n      swap1\n      tag_201\n      swap2\n      swap1\n      tag_202\n      jump\t// in\n    tag_201:\n      tag_203\n      jump\t// in\n    tag_200:\n      stop\n        /* \"blindAuctionDEF.sol\":4698:4725  bool public auctionDeserted */\n    tag_39:\n      callvalue\n      dup1\n      iszero\n      tag_204\n      jumpi\n      0x00\n      dup1\n      revert\n    tag_204:\n      pop\n      tag_205\n      tag_206\n      jump\t// in\n    tag_205:\n      mload(0x40)\n      tag_207\n      swap2\n      swap1\n      tag_82\n      jump\t// in\n    tag_207:\n      mload(0x40)\n      dup1\n      swap2\n      sub\n      swap1\n      return\n        /* \"blindAuctionDEF.sol\":3060:3097  uint256 public immutable maxFallbacks */\n    tag_40:\n      callvalue\n      dup1\n      iszero\n      tag_208\n      jumpi\n      0x00\n      dup1\n      revert\n    tag_208:\n      pop\n      tag_209\n      tag_210\n      jump\t// in\n    tag_209:\n      mload(0x40)\n      tag_211\n      swap2\n      swap1\n      tag_58\n      jump\t// in\n    tag_211:\n      mload(0x40)\n      dup1\n      swap2\n      sub\n      swap1\n      return\n        /* \"blindAuctionDEF.sol\":4811:4839  uint256 public fallbackCount */\n    tag_41:\n      callvalue\n      dup1\n      iszero\n      tag_212\n      jumpi\n      0x00\n      dup1\n      revert\n    tag_212:\n      pop\n      tag_213\n      tag_214\n      jump\t// in\n    tag_213:\n      mload(0x40)\n      tag_215\n      swap2\n      swap1\n      tag_58\n      jump\t// in\n    tag_215:\n      mload(0x40)\n      dup1\n      swap2\n      sub\n      swap1\n      return\n        /* \"blindAuctionDEF.sol\":4029:4070  mapping(address => Bidder) public bidders */\n    tag_42:\n      callvalue\n      dup1\n      iszero\n      tag_216\n      jumpi\n      0x00\n      dup1\n      revert\n    tag_216:\n      pop\n      tag_217\n      0x04\n      dup1\n      calldatasize\n      sub\n      dup2\n      add\n      swap1\n      tag_218\n      swap2\n      swap1\n      tag_55\n      jump\t// in\n    tag_218:\n      tag_219\n      jump\t// in\n    tag_217:\n      mload(0x40)\n      tag_220\n      swap9\n      swap8\n      swap7\n      swap6\n      swap5\n      swap4\n      swap3\n      swap2\n      swap1\n      tag_221\n      jump\t// in\n    tag_220:\n      mload(0x40)\n      dup1\n      swap2\n      sub\n      swap1\n      return\n        /* \"blindAuctionDEF.sol\":4923:4965  mapping(address => uint256) public rewards */\n    tag_56:\n      mstore(0x20, 0x08)\n      dup1\n      0x00\n      mstore\n      keccak256(0x00, 0x40)\n      0x00\n      swap2\n      pop\n      swap1\n      pop\n      sload\n      dup2\n      jump\t// out\n        /* \"blindAuctionDEF.sol\":17899:19338  function withdrawDeposit() external isFinalized {... */\n    tag_61:\n        /* \"blindAuctionDEF.sol\":7059:7068  finalized */\n      0x03\n      0x00\n      swap1\n      sload\n      swap1\n      0x0100\n      exp\n      swap1\n      div\n      0xff\n      and\n        /* \"blindAuctionDEF.sol\":7051:7086  require(finalized, \"No finalizado\") */\n      tag_223\n      jumpi\n      mload(0x40)\n      0x08c379a000000000000000000000000000000000000000000000000000000000\n      dup2\n      mstore\n      0x04\n      add\n      tag_224\n      swap1\n      tag_225\n      jump\t// in\n    tag_224:\n      mload(0x40)\n      dup1\n      swap2\n      sub\n      swap1\n      revert\n    tag_223:\n        /* \"blindAuctionDEF.sol\":17958:17974  Bidder storage b */\n      0x00\n        /* \"blindAuctionDEF.sol\":17977:17984  bidders */\n      dup1\n        /* \"blindAuctionDEF.sol\":17977:17996  bidders[msg.sender] */\n      0x00\n        /* \"blindAuctionDEF.sol\":17985:17995  msg.sender */\n      caller\n        /* \"blindAuctionDEF.sol\":17977:17996  bidders[msg.sender] */\n      0xffffffffffffffffffffffffffffffffffffffff\n      and\n      0xffffffffffffffffffffffffffffffffffffffff\n      and\n      dup2\n      mstore\n      0x20\n      add\n      swap1\n      dup2\n      mstore\n      0x20\n      add\n      0x00\n      keccak256\n        /* \"blindAuctionDEF.sol\":17958:17996  Bidder storage b = bidders[msg.sender] */\n      swap1\n      pop\n        /* \"blindAuctionDEF.sol\":18015:18016  b */\n      dup1\n        /* \"blindAuctionDEF.sol\":18015:18029  b.hasCommitted */\n      0x03\n      add\n      0x00\n      swap1\n      sload\n      swap1\n      0x0100\n      exp\n      swap1\n      div\n      0xff\n      and\n        /* \"blindAuctionDEF.sol\":18007:18049  require(b.hasCommitted, \"No participaste\") */\n      tag_227\n      jumpi\n      mload(0x40)\n      0x08c379a000000000000000000000000000000000000000000000000000000000\n      dup2\n      mstore\n      0x04\n      add\n      tag_228\n      swap1\n      tag_229\n      jump\t// in\n    tag_228:\n      mload(0x40)\n      dup1\n      swap2\n      sub\n      swap1\n      revert\n    tag_227:\n        /* \"blindAuctionDEF.sol\":18069:18070  b */\n      dup1\n        /* \"blindAuctionDEF.sol\":18069:18080  b.withdrawn */\n      0x03\n      add\n      0x02\n      swap1\n      sload\n      swap1\n      0x0100\n      exp\n      swap1\n      div\n      0xff\n      and\n        /* \"blindAuctionDEF.sol\":18068:18080  !b.withdrawn */\n      iszero\n        /* \"blindAuctionDEF.sol\":18060:18107  require(!b.withdrawn, \"Ya retirado/gestionado\") */\n      tag_230\n      jumpi\n      mload(0x40)\n      0x08c379a000000000000000000000000000000000000000000000000000000000\n      dup2\n      mstore\n      0x04\n      add\n      tag_231\n      swap1\n      tag_232\n      jump\t// in\n    tag_231:\n      mload(0x40)\n      dup1\n      swap2\n      sub\n      swap1\n      revert\n    tag_230:\n        /* \"blindAuctionDEF.sol\":18157:18174  auctionSuccessful */\n      0x03\n      0x01\n      swap1\n      sload\n      swap1\n      0x0100\n      exp\n      swap1\n      div\n      0xff\n      and\n        /* \"blindAuctionDEF.sol\":18153:18312  if (auctionSuccessful) {... */\n      iszero\n      tag_233\n      jumpi\n        /* \"blindAuctionDEF.sol\":18191:18202  address win */\n      0x00\n        /* \"blindAuctionDEF.sol\":18205:18218  rankedBidders */\n      0x02\n        /* \"blindAuctionDEF.sol\":18219:18237  currentWinnerIndex */\n      sload(0x04)\n        /* \"blindAuctionDEF.sol\":18205:18238  rankedBidders[currentWinnerIndex] */\n      dup2\n      sload\n      dup2\n      lt\n      tag_234\n      jumpi\n      tag_235\n      tag_236\n      jump\t// in\n    tag_235:\n    tag_234:\n      swap1\n      0x00\n      mstore\n      keccak256(0x00, 0x20)\n      add\n      0x00\n      swap1\n      sload\n      swap1\n      0x0100\n      exp\n      swap1\n      div\n      0xffffffffffffffffffffffffffffffffffffffff\n      and\n        /* \"blindAuctionDEF.sol\":18191:18238  address win = rankedBidders[currentWinnerIndex] */\n      swap1\n      pop\n        /* \"blindAuctionDEF.sol\":18275:18278  win */\n      dup1\n        /* \"blindAuctionDEF.sol\":18261:18278  msg.sender != win */\n      0xffffffffffffffffffffffffffffffffffffffff\n      and\n        /* \"blindAuctionDEF.sol\":18261:18271  msg.sender */\n      caller\n        /* \"blindAuctionDEF.sol\":18261:18278  msg.sender != win */\n      0xffffffffffffffffffffffffffffffffffffffff\n      and\n      sub\n        /* \"blindAuctionDEF.sol\":18253:18300  require(msg.sender != win, \"Ganador no retira\") */\n      tag_238\n      jumpi\n      mload(0x40)\n      0x08c379a000000000000000000000000000000000000000000000000000000000\n      dup2\n      mstore\n      0x04\n      add\n      tag_239\n      swap1\n      tag_240\n      jump\t// in\n    tag_239:\n      mload(0x40)\n      dup1\n      swap2\n      sub\n      swap1\n      revert\n    tag_238:\n        /* \"blindAuctionDEF.sol\":18176:18312  {... */\n      pop\n        /* \"blindAuctionDEF.sol\":18153:18312  if (auctionSuccessful) {... */\n    tag_233:\n        /* \"blindAuctionDEF.sol\":18380:18381  b */\n      dup1\n        /* \"blindAuctionDEF.sol\":18380:18391  b.defaulted */\n      0x03\n      add\n      0x04\n      swap1\n      sload\n      swap1\n      0x0100\n      exp\n      swap1\n      div\n      0xff\n      and\n        /* \"blindAuctionDEF.sol\":18379:18391  !b.defaulted */\n      iszero\n        /* \"blindAuctionDEF.sol\":18371:18419  require(!b.defaulted, \"Default: fianza perdida\") */\n      tag_241\n      jumpi\n      mload(0x40)\n      0x08c379a000000000000000000000000000000000000000000000000000000000\n      dup2\n      mstore\n      0x04\n      add\n      tag_242\n      swap1\n      tag_243\n      jump\t// in\n    tag_242:\n      mload(0x40)\n      dup1\n      swap2\n      sub\n      swap1\n      revert\n    tag_241:\n        /* \"blindAuctionDEF.sol\":18507:18508  b */\n      dup1\n        /* \"blindAuctionDEF.sol\":18507:18522  b.depositLocked */\n      0x03\n      add\n      0x03\n      swap1\n      sload\n      swap1\n      0x0100\n      exp\n      swap1\n      div\n      0xff\n      and\n        /* \"blindAuctionDEF.sol\":18506:18522  !b.depositLocked */\n      iszero\n        /* \"blindAuctionDEF.sol\":18498:18550  require(!b.depositLocked, \"Aun bloqueado (ranking)\") */\n      tag_244\n      jumpi\n      mload(0x40)\n      0x08c379a000000000000000000000000000000000000000000000000000000000\n      dup2\n      mstore\n      0x04\n      add\n      tag_245\n      swap1\n      tag_246\n      jump\t// in\n    tag_245:\n      mload(0x40)\n      dup1\n      swap2\n      sub\n      swap1\n      revert\n    tag_244:\n        /* \"blindAuctionDEF.sol\":18563:18577  uint256 amount */\n      0x00\n        /* \"blindAuctionDEF.sol\":18594:18595  b */\n      dup2\n        /* \"blindAuctionDEF.sol\":18594:18607  b.hasRevealed */\n      0x03\n      add\n      0x01\n      swap1\n      sload\n      swap1\n      0x0100\n      exp\n      swap1\n      div\n      0xff\n      and\n        /* \"blindAuctionDEF.sol\":18590:19136  if (b.hasRevealed) {... */\n      iszero\n      tag_247\n      jumpi\n        /* \"blindAuctionDEF.sol\":18699:18706  deposit */\n      immutable(\"0x5bc0457d8881b800fd1bc0d6df907345b3bf287e43a5790ded3d08dbacf9c03a\")\n        /* \"blindAuctionDEF.sol\":18690:18706  amount = deposit */\n      swap1\n      pop\n        /* \"blindAuctionDEF.sol\":18590:19136  if (b.hasRevealed) {... */\n      jump(tag_248)\n    tag_247:\n        /* \"blindAuctionDEF.sol\":18865:18880  uint256 penalty */\n      0x00\n        /* \"blindAuctionDEF.sol\":18920:18925  10000 */\n      0x2710\n        /* \"blindAuctionDEF.sol\":1998:2002  2000 */\n      0x07d0\n        /* \"blindAuctionDEF.sol\":18884:18891  deposit */\n      immutable(\"0x5bc0457d8881b800fd1bc0d6df907345b3bf287e43a5790ded3d08dbacf9c03a\")\n        /* \"blindAuctionDEF.sol\":18884:18916  deposit * UNREVEALED_PENALTY_BPS */\n      tag_249\n      swap2\n      swap1\n      tag_250\n      jump\t// in\n    tag_249:\n        /* \"blindAuctionDEF.sol\":18883:18925  (deposit * UNREVEALED_PENALTY_BPS) / 10000 */\n      tag_251\n      swap2\n      swap1\n      tag_252\n      jump\t// in\n    tag_251:\n        /* \"blindAuctionDEF.sol\":18865:18925  uint256 penalty = (deposit * UNREVEALED_PENALTY_BPS) / 10000 */\n      swap1\n      pop\n        /* \"blindAuctionDEF.sol\":18940:18954  uint256 refund */\n      0x00\n        /* \"blindAuctionDEF.sol\":18967:18974  penalty */\n      dup2\n        /* \"blindAuctionDEF.sol\":18957:18964  deposit */\n      immutable(\"0x5bc0457d8881b800fd1bc0d6df907345b3bf287e43a5790ded3d08dbacf9c03a\")\n        /* \"blindAuctionDEF.sol\":18957:18974  deposit - penalty */\n      tag_253\n      swap2\n      swap1\n      tag_254\n      jump\t// in\n    tag_253:\n        /* \"blindAuctionDEF.sol\":18940:18974  uint256 refund = deposit - penalty */\n      swap1\n      pop\n        /* \"blindAuctionDEF.sol\":19008:19015  penalty */\n      dup2\n        /* \"blindAuctionDEF.sol\":18991:19004  ownerProceeds */\n      0x07\n      0x00\n        /* \"blindAuctionDEF.sol\":18991:19015  ownerProceeds += penalty */\n      dup3\n      dup3\n      sload\n      tag_255\n      swap2\n      swap1\n      tag_256\n      jump\t// in\n    tag_255:\n      swap3\n      pop\n      pop\n      dup2\n      swap1\n      sstore\n      pop\n        /* \"blindAuctionDEF.sol\":19054:19064  msg.sender */\n      caller\n        /* \"blindAuctionDEF.sol\":19035:19092  DepositConfiscated(msg.sender, penalty, \"did not reveal\") */\n      0xffffffffffffffffffffffffffffffffffffffff\n      and\n      0x1fb16dd9688950cb1ed4e1ef4eb31ef7aa2b66802a519a8936389e4e6e4b0d71\n        /* \"blindAuctionDEF.sol\":19066:19073  penalty */\n      dup4\n        /* \"blindAuctionDEF.sol\":19035:19092  DepositConfiscated(msg.sender, penalty, \"did not reveal\") */\n      mload(0x40)\n      tag_257\n      swap2\n      swap1\n      tag_258\n      jump\t// in\n    tag_257:\n      mload(0x40)\n      dup1\n      swap2\n      sub\n      swap1\n      log2\n        /* \"blindAuctionDEF.sol\":19118:19124  refund */\n      dup1\n        /* \"blindAuctionDEF.sol\":19109:19124  amount = refund */\n      swap3\n      pop\n        /* \"blindAuctionDEF.sol\":18724:19136  {... */\n      pop\n      pop\n        /* \"blindAuctionDEF.sol\":18590:19136  if (b.hasRevealed) {... */\n    tag_248:\n        /* \"blindAuctionDEF.sol\":19162:19166  true */\n      0x01\n        /* \"blindAuctionDEF.sol\":19148:19149  b */\n      dup3\n        /* \"blindAuctionDEF.sol\":19148:19159  b.withdrawn */\n      0x03\n      add\n      0x02\n        /* \"blindAuctionDEF.sol\":19148:19166  b.withdrawn = true */\n      0x0100\n      exp\n      dup2\n      sload\n      dup2\n      0xff\n      mul\n      not\n      and\n      swap1\n      dup4\n      iszero\n      iszero\n      mul\n      or\n      swap1\n      sstore\n      pop\n        /* \"blindAuctionDEF.sol\":19180:19187  bool ok */\n      0x00\n        /* \"blindAuctionDEF.sol\":19201:19211  msg.sender */\n      caller\n        /* \"blindAuctionDEF.sol\":19193:19217  payable(msg.sender).call */\n      0xffffffffffffffffffffffffffffffffffffffff\n      and\n        /* \"blindAuctionDEF.sol\":19225:19231  amount */\n      dup3\n        /* \"blindAuctionDEF.sol\":19193:19236  payable(msg.sender).call{value: amount}(\"\") */\n      mload(0x40)\n      tag_259\n      swap1\n      tag_260\n      jump\t// in\n    tag_259:\n      0x00\n      mload(0x40)\n      dup1\n      dup4\n      sub\n      dup2\n      dup6\n      dup8\n      gas\n      call\n      swap3\n      pop\n      pop\n      pop\n      returndatasize\n      dup1\n      0x00\n      dup2\n      eq\n      tag_263\n      jumpi\n      mload(0x40)\n      swap2\n      pop\n      and(add(returndatasize, 0x3f), not(0x1f))\n      dup3\n      add\n      0x40\n      mstore\n      returndatasize\n      dup3\n      mstore\n      returndatasize\n      0x00\n      0x20\n      dup5\n      add\n      returndatacopy\n      jump(tag_262)\n    tag_263:\n      0x60\n      swap2\n      pop\n    tag_262:\n      pop\n        /* \"blindAuctionDEF.sol\":19179:19236  (bool ok, ) = payable(msg.sender).call{value: amount}(\"\") */\n      pop\n      swap1\n      pop\n        /* \"blindAuctionDEF.sol\":19255:19257  ok */\n      dup1\n        /* \"blindAuctionDEF.sol\":19247:19276  require(ok, \"Transfer fallo\") */\n      tag_264\n      jumpi\n      mload(0x40)\n      0x08c379a000000000000000000000000000000000000000000000000000000000\n      dup2\n      mstore\n      0x04\n      add\n      tag_265\n      swap1\n      tag_266\n      jump\t// in\n    tag_265:\n      mload(0x40)\n      dup1\n      swap2\n      sub\n      swap1\n      revert\n    tag_264:\n        /* \"blindAuctionDEF.sol\":19311:19321  msg.sender */\n      caller\n        /* \"blindAuctionDEF.sol\":19294:19330  DepositWithdrawn(msg.sender, amount) */\n      0xffffffffffffffffffffffffffffffffffffffff\n      and\n      0x4482101800a5c2e900f4156e57e05e19ffd7b366cde579553d723fd3abb2180e\n        /* \"blindAuctionDEF.sol\":19323:19329  amount */\n      dup4\n        /* \"blindAuctionDEF.sol\":19294:19330  DepositWithdrawn(msg.sender, amount) */\n      mload(0x40)\n      tag_267\n      swap2\n      swap1\n      tag_58\n      jump\t// in\n    tag_267:\n      mload(0x40)\n      dup1\n      swap2\n      sub\n      swap1\n      log2\n        /* \"blindAuctionDEF.sol\":17947:19338  {... */\n      pop\n      pop\n      pop\n        /* \"blindAuctionDEF.sol\":17899:19338  function withdrawDeposit() external isFinalized {... */\n      jump\t// out\n        /* \"blindAuctionDEF.sol\":23436:23911  function timeLeft() external view returns (uint256 commitLeft, uint256 revealLeft, uint256 payLeft) {... */\n    tag_64:\n        /* \"blindAuctionDEF.sol\":23479:23497  uint256 commitLeft */\n      0x00\n        /* \"blindAuctionDEF.sol\":23499:23517  uint256 revealLeft */\n      dup1\n        /* \"blindAuctionDEF.sol\":23519:23534  uint256 payLeft */\n      0x00\n        /* \"blindAuctionDEF.sol\":23578:23592  commitDeadline */\n      immutable(\"0xed93c67e1a9b7f09d3b44ee593360f0073603a8e45415e2c3c69afc994a1103d\")\n        /* \"blindAuctionDEF.sol\":23560:23575  block.timestamp */\n      timestamp\n        /* \"blindAuctionDEF.sol\":23560:23592  block.timestamp < commitDeadline */\n      lt\n        /* \"blindAuctionDEF.sol\":23560:23631  block.timestamp < commitDeadline ? commitDeadline - block.timestamp : 0 */\n      tag_269\n      jumpi\n        /* \"blindAuctionDEF.sol\":23630:23631  0 */\n      0x00\n        /* \"blindAuctionDEF.sol\":23560:23631  block.timestamp < commitDeadline ? commitDeadline - block.timestamp : 0 */\n      jump(tag_270)\n    tag_269:\n        /* \"blindAuctionDEF.sol\":23612:23627  block.timestamp */\n      timestamp\n        /* \"blindAuctionDEF.sol\":23595:23609  commitDeadline */\n      immutable(\"0xed93c67e1a9b7f09d3b44ee593360f0073603a8e45415e2c3c69afc994a1103d\")\n        /* \"blindAuctionDEF.sol\":23595:23627  commitDeadline - block.timestamp */\n      tag_271\n      swap2\n      swap1\n      tag_254\n      jump\t// in\n    tag_271:\n        /* \"blindAuctionDEF.sol\":23560:23631  block.timestamp < commitDeadline ? commitDeadline - block.timestamp : 0 */\n    tag_270:\n        /* \"blindAuctionDEF.sol\":23547:23631  commitLeft = block.timestamp < commitDeadline ? commitDeadline - block.timestamp : 0 */\n      swap3\n      pop\n        /* \"blindAuctionDEF.sol\":23673:23687  revealDeadline */\n      immutable(\"0x5ca7b081b8c6c57b0469c340dba43ec8d33c0b898c69e55c4f74ff7ed9ac71ea\")\n        /* \"blindAuctionDEF.sol\":23655:23670  block.timestamp */\n      timestamp\n        /* \"blindAuctionDEF.sol\":23655:23687  block.timestamp < revealDeadline */\n      lt\n        /* \"blindAuctionDEF.sol\":23655:23726  block.timestamp < revealDeadline ? revealDeadline - block.timestamp : 0 */\n      tag_272\n      jumpi\n        /* \"blindAuctionDEF.sol\":23725:23726  0 */\n      0x00\n        /* \"blindAuctionDEF.sol\":23655:23726  block.timestamp < revealDeadline ? revealDeadline - block.timestamp : 0 */\n      jump(tag_273)\n    tag_272:\n        /* \"blindAuctionDEF.sol\":23707:23722  block.timestamp */\n      timestamp\n        /* \"blindAuctionDEF.sol\":23690:23704  revealDeadline */\n      immutable(\"0x5ca7b081b8c6c57b0469c340dba43ec8d33c0b898c69e55c4f74ff7ed9ac71ea\")\n        /* \"blindAuctionDEF.sol\":23690:23722  revealDeadline - block.timestamp */\n      tag_274\n      swap2\n      swap1\n      tag_254\n      jump\t// in\n    tag_274:\n        /* \"blindAuctionDEF.sol\":23655:23726  block.timestamp < revealDeadline ? revealDeadline - block.timestamp : 0 */\n    tag_273:\n        /* \"blindAuctionDEF.sol\":23642:23726  revealLeft = block.timestamp < revealDeadline ? revealDeadline - block.timestamp : 0 */\n      swap2\n      pop\n        /* \"blindAuctionDEF.sol\":23748:23757  finalized */\n      0x03\n      0x00\n      swap1\n      sload\n      swap1\n      0x0100\n      exp\n      swap1\n      div\n      0xff\n      and\n        /* \"blindAuctionDEF.sol\":23748:23777  finalized && !auctionDeserted */\n      dup1\n      iszero\n      tag_275\n      jumpi\n      pop\n        /* \"blindAuctionDEF.sol\":23762:23777  auctionDeserted */\n      0x03\n      0x02\n      swap1\n      sload\n      swap1\n      0x0100\n      exp\n      swap1\n      div\n      0xff\n      and\n        /* \"blindAuctionDEF.sol\":23761:23777  !auctionDeserted */\n      iszero\n        /* \"blindAuctionDEF.sol\":23748:23777  finalized && !auctionDeserted */\n    tag_275:\n        /* \"blindAuctionDEF.sol\":23748:23799  finalized && !auctionDeserted && !auctionSuccessful */\n      dup1\n      iszero\n      tag_276\n      jumpi\n      pop\n        /* \"blindAuctionDEF.sol\":23782:23799  auctionSuccessful */\n      0x03\n      0x01\n      swap1\n      sload\n      swap1\n      0x0100\n      exp\n      swap1\n      div\n      0xff\n      and\n        /* \"blindAuctionDEF.sol\":23781:23799  !auctionSuccessful */\n      iszero\n        /* \"blindAuctionDEF.sol\":23748:23799  finalized && !auctionDeserted && !auctionSuccessful */\n    tag_276:\n        /* \"blindAuctionDEF.sol\":23748:23836  finalized && !auctionDeserted && !auctionSuccessful && block.timestamp < paymentDeadline */\n      dup1\n      iszero\n      tag_277\n      jumpi\n      pop\n        /* \"blindAuctionDEF.sol\":23821:23836  paymentDeadline */\n      sload(0x05)\n        /* \"blindAuctionDEF.sol\":23803:23818  block.timestamp */\n      timestamp\n        /* \"blindAuctionDEF.sol\":23803:23836  block.timestamp < paymentDeadline */\n      lt\n        /* \"blindAuctionDEF.sol\":23748:23836  finalized && !auctionDeserted && !auctionSuccessful && block.timestamp < paymentDeadline */\n    tag_277:\n        /* \"blindAuctionDEF.sol\":23747:23903  (finalized && !auctionDeserted && !auctionSuccessful && block.timestamp < paymentDeadline)... */\n      tag_278\n      jumpi\n        /* \"blindAuctionDEF.sol\":23902:23903  0 */\n      0x00\n        /* \"blindAuctionDEF.sol\":23747:23903  (finalized && !auctionDeserted && !auctionSuccessful && block.timestamp < paymentDeadline)... */\n      jump(tag_279)\n    tag_278:\n        /* \"blindAuctionDEF.sol\":23871:23886  block.timestamp */\n      timestamp\n        /* \"blindAuctionDEF.sol\":23853:23868  paymentDeadline */\n      sload(0x05)\n        /* \"blindAuctionDEF.sol\":23853:23886  paymentDeadline - block.timestamp */\n      tag_280\n      swap2\n      swap1\n      tag_254\n      jump\t// in\n    tag_280:\n        /* \"blindAuctionDEF.sol\":23747:23903  (finalized && !auctionDeserted && !auctionSuccessful && block.timestamp < paymentDeadline)... */\n    tag_279:\n        /* \"blindAuctionDEF.sol\":23737:23903  payLeft = (finalized && !auctionDeserted && !auctionSuccessful && block.timestamp < paymentDeadline)... */\n      swap1\n      pop\n        /* \"blindAuctionDEF.sol\":23436:23911  function timeLeft() external view returns (uint256 commitLeft, uint256 revealLeft, uint256 payLeft) {... */\n      swap1\n      swap2\n      swap3\n      jump\t// out\n        /* \"blindAuctionDEF.sol\":22730:22915  function hashBid(uint256 bidAmount, bytes32 salt, address bidder) external view returns (bytes32) {... */\n    tag_71:\n        /* \"blindAuctionDEF.sol\":22819:22826  bytes32 */\n      0x00\n        /* \"blindAuctionDEF.sol\":22867:22876  bidAmount */\n      dup4\n        /* \"blindAuctionDEF.sol\":22878:22882  salt */\n      dup4\n        /* \"blindAuctionDEF.sol\":22884:22890  bidder */\n      dup4\n        /* \"blindAuctionDEF.sol\":22900:22904  this */\n      address\n        /* \"blindAuctionDEF.sol\":22856:22906  abi.encode(bidAmount, salt, bidder, address(this)) */\n      add(0x20, mload(0x40))\n      tag_282\n      swap5\n      swap4\n      swap3\n      swap2\n      swap1\n      tag_283\n      jump\t// in\n    tag_282:\n      mload(0x40)\n      0x20\n      dup2\n      dup4\n      sub\n      sub\n      dup2\n      mstore\n      swap1\n      0x40\n      mstore\n        /* \"blindAuctionDEF.sol\":22846:22907  keccak256(abi.encode(bidAmount, salt, bidder, address(this))) */\n      dup1\n      mload\n      swap1\n      0x20\n      add\n      keccak256\n        /* \"blindAuctionDEF.sol\":22839:22907  return keccak256(abi.encode(bidAmount, salt, bidder, address(this))) */\n      swap1\n      pop\n        /* \"blindAuctionDEF.sol\":22730:22915  function hashBid(uint256 bidAmount, bytes32 salt, address bidder) external view returns (bytes32) {... */\n      swap4\n      swap3\n      pop\n      pop\n      pop\n      jump\t// out\n        /* \"blindAuctionDEF.sol\":1742:1787  uint256 public constant MAX_MAX_BIDDERS = 200 */\n    tag_76:\n        /* \"blindAuctionDEF.sol\":1784:1787  200 */\n      0xc8\n        /* \"blindAuctionDEF.sol\":1742:1787  uint256 public constant MAX_MAX_BIDDERS = 200 */\n      dup2\n      jump\t// out\n        /* \"blindAuctionDEF.sol\":4662:4691  bool public auctionSuccessful */\n    tag_80:\n      0x03\n      0x01\n      swap1\n      sload\n      swap1\n      0x0100\n      exp\n      swap1\n      div\n      0xff\n      and\n      dup2\n      jump\t// out\n        /* \"blindAuctionDEF.sol\":1691:1735  uint256 public constant MIN_MAX_BIDDERS = 10 */\n    tag_85:\n        /* \"blindAuctionDEF.sol\":1733:1735  10 */\n      0x0a\n        /* \"blindAuctionDEF.sol\":1691:1735  uint256 public constant MIN_MAX_BIDDERS = 10 */\n      dup2\n      jump\t// out\n        /* \"blindAuctionDEF.sol\":10836:11574  function reveal(uint256 _bidAmount, bytes32 _salt) external inRevealPhase {... */\n    tag_91:\n        /* \"blindAuctionDEF.sol\":6755:6769  commitDeadline */\n      immutable(\"0xed93c67e1a9b7f09d3b44ee593360f0073603a8e45415e2c3c69afc994a1103d\")\n        /* \"blindAuctionDEF.sol\":6736:6751  block.timestamp */\n      timestamp\n        /* \"blindAuctionDEF.sol\":6736:6769  block.timestamp >= commitDeadline */\n      lt\n      iszero\n        /* \"blindAuctionDEF.sol\":6728:6792  require(block.timestamp >= commitDeadline, \"Reveal no iniciada\") */\n      tag_285\n      jumpi\n      mload(0x40)\n      0x08c379a000000000000000000000000000000000000000000000000000000000\n      dup2\n      mstore\n      0x04\n      add\n      tag_286\n      swap1\n      tag_287\n      jump\t// in\n    tag_286:\n      mload(0x40)\n      dup1\n      swap2\n      sub\n      swap1\n      revert\n    tag_285:\n        /* \"blindAuctionDEF.sol\":6829:6843  revealDeadline */\n      immutable(\"0x5ca7b081b8c6c57b0469c340dba43ec8d33c0b898c69e55c4f74ff7ed9ac71ea\")\n        /* \"blindAuctionDEF.sol\":6811:6826  block.timestamp */\n      timestamp\n        /* \"blindAuctionDEF.sol\":6811:6843  block.timestamp < revealDeadline */\n      lt\n        /* \"blindAuctionDEF.sol\":6803:6862  require(block.timestamp < revealDeadline, \"Reveal cerrada\") */\n      tag_288\n      jumpi\n      mload(0x40)\n      0x08c379a000000000000000000000000000000000000000000000000000000000\n      dup2\n      mstore\n      0x04\n      add\n      tag_289\n      swap1\n      tag_290\n      jump\t// in\n    tag_289:\n      mload(0x40)\n      dup1\n      swap2\n      sub\n      swap1\n      revert\n    tag_288:\n        /* \"blindAuctionDEF.sol\":10921:10937  Bidder storage b */\n      0x00\n        /* \"blindAuctionDEF.sol\":10940:10947  bidders */\n      dup1\n        /* \"blindAuctionDEF.sol\":10940:10959  bidders[msg.sender] */\n      0x00\n        /* \"blindAuctionDEF.sol\":10948:10958  msg.sender */\n      caller\n        /* \"blindAuctionDEF.sol\":10940:10959  bidders[msg.sender] */\n      0xffffffffffffffffffffffffffffffffffffffff\n      and\n      0xffffffffffffffffffffffffffffffffffffffff\n      and\n      dup2\n      mstore\n      0x20\n      add\n      swap1\n      dup2\n      mstore\n      0x20\n      add\n      0x00\n      keccak256\n        /* \"blindAuctionDEF.sol\":10921:10959  Bidder storage b = bidders[msg.sender] */\n      swap1\n      pop\n        /* \"blindAuctionDEF.sol\":10978:10979  b */\n      dup1\n        /* \"blindAuctionDEF.sol\":10978:10992  b.hasCommitted */\n      0x03\n      add\n      0x00\n      swap1\n      sload\n      swap1\n      0x0100\n      exp\n      swap1\n      div\n      0xff\n      and\n        /* \"blindAuctionDEF.sol\":10970:11012  require(b.hasCommitted, \"No participaste\") */\n      tag_292\n      jumpi\n      mload(0x40)\n      0x08c379a000000000000000000000000000000000000000000000000000000000\n      dup2\n      mstore\n      0x04\n      add\n      tag_293\n      swap1\n      tag_229\n      jump\t// in\n    tag_293:\n      mload(0x40)\n      dup1\n      swap2\n      sub\n      swap1\n      revert\n    tag_292:\n        /* \"blindAuctionDEF.sol\":11032:11033  b */\n      dup1\n        /* \"blindAuctionDEF.sol\":11032:11045  b.hasRevealed */\n      0x03\n      add\n      0x01\n      swap1\n      sload\n      swap1\n      0x0100\n      exp\n      swap1\n      div\n      0xff\n      and\n        /* \"blindAuctionDEF.sol\":11031:11045  !b.hasRevealed */\n      iszero\n        /* \"blindAuctionDEF.sol\":11023:11062  require(!b.hasRevealed, \"Ya revelaste\") */\n      tag_294\n      jumpi\n      mload(0x40)\n      0x08c379a000000000000000000000000000000000000000000000000000000000\n      dup2\n      mstore\n      0x04\n      add\n      tag_295\n      swap1\n      tag_296\n      jump\t// in\n    tag_295:\n      mload(0x40)\n      dup1\n      swap2\n      sub\n      swap1\n      revert\n    tag_294:\n        /* \"blindAuctionDEF.sol\":11131:11138  deposit */\n      immutable(\"0x5bc0457d8881b800fd1bc0d6df907345b3bf287e43a5790ded3d08dbacf9c03a\")\n        /* \"blindAuctionDEF.sol\":11117:11127  _bidAmount */\n      dup4\n        /* \"blindAuctionDEF.sol\":11117:11138  _bidAmount >= deposit */\n      lt\n      iszero\n        /* \"blindAuctionDEF.sol\":11109:11155  require(_bidAmount >= deposit, \"Bid < fianza\") */\n      tag_297\n      jumpi\n      mload(0x40)\n      0x08c379a000000000000000000000000000000000000000000000000000000000\n      dup2\n      mstore\n      0x04\n      add\n      tag_298\n      swap1\n      tag_299\n      jump\t// in\n    tag_298:\n      mload(0x40)\n      dup1\n      swap2\n      sub\n      swap1\n      revert\n    tag_297:\n        /* \"blindAuctionDEF.sol\":11254:11270  bytes32 expected */\n      0x00\n        /* \"blindAuctionDEF.sol\":11294:11304  _bidAmount */\n      dup4\n        /* \"blindAuctionDEF.sol\":11306:11311  _salt */\n      dup4\n        /* \"blindAuctionDEF.sol\":11313:11323  msg.sender */\n      caller\n        /* \"blindAuctionDEF.sol\":11333:11337  this */\n      address\n        /* \"blindAuctionDEF.sol\":11283:11339  abi.encode(_bidAmount, _salt, msg.sender, address(this)) */\n      add(0x20, mload(0x40))\n      tag_300\n      swap5\n      swap4\n      swap3\n      swap2\n      swap1\n      tag_283\n      jump\t// in\n    tag_300:\n      mload(0x40)\n      0x20\n      dup2\n      dup4\n      sub\n      sub\n      dup2\n      mstore\n      swap1\n      0x40\n      mstore\n        /* \"blindAuctionDEF.sol\":11273:11340  keccak256(abi.encode(_bidAmount, _salt, msg.sender, address(this))) */\n      dup1\n      mload\n      swap1\n      0x20\n      add\n      keccak256\n        /* \"blindAuctionDEF.sol\":11254:11340  bytes32 expected = keccak256(abi.encode(_bidAmount, _salt, msg.sender, address(this))) */\n      swap1\n      pop\n        /* \"blindAuctionDEF.sol\":11371:11372  b */\n      dup2\n        /* \"blindAuctionDEF.sol\":11371:11383  b.commitment */\n      0x00\n      add\n      sload\n        /* \"blindAuctionDEF.sol\":11359:11367  expected */\n      dup2\n        /* \"blindAuctionDEF.sol\":11359:11383  expected == b.commitment */\n      eq\n        /* \"blindAuctionDEF.sol\":11351:11403  require(expected == b.commitment, \"Reveal invalido\") */\n      tag_301\n      jumpi\n      mload(0x40)\n      0x08c379a000000000000000000000000000000000000000000000000000000000\n      dup2\n      mstore\n      0x04\n      add\n      tag_302\n      swap1\n      tag_303\n      jump\t// in\n    tag_302:\n      mload(0x40)\n      dup1\n      swap2\n      sub\n      swap1\n      revert\n    tag_301:\n        /* \"blindAuctionDEF.sol\":11432:11436  true */\n      0x01\n        /* \"blindAuctionDEF.sol\":11416:11417  b */\n      dup3\n        /* \"blindAuctionDEF.sol\":11416:11429  b.hasRevealed */\n      0x03\n      add\n      0x01\n        /* \"blindAuctionDEF.sol\":11416:11436  b.hasRevealed = true */\n      0x0100\n      exp\n      dup2\n      sload\n      dup2\n      0xff\n      mul\n      not\n      and\n      swap1\n      dup4\n      iszero\n      iszero\n      mul\n      or\n      swap1\n      sstore\n      pop\n        /* \"blindAuctionDEF.sol\":11463:11473  _bidAmount */\n      dup4\n        /* \"blindAuctionDEF.sol\":11447:11448  b */\n      dup3\n        /* \"blindAuctionDEF.sol\":11447:11460  b.revealedBid */\n      0x02\n      add\n        /* \"blindAuctionDEF.sol\":11447:11473  b.revealedBid = _bidAmount */\n      dup2\n      swap1\n      sstore\n      pop\n        /* \"blindAuctionDEF.sol\":11486:11516  _insertIntoRanking(msg.sender) */\n      tag_304\n        /* \"blindAuctionDEF.sol\":11505:11515  msg.sender */\n      caller\n        /* \"blindAuctionDEF.sol\":11486:11504  _insertIntoRanking */\n      tag_305\n        /* \"blindAuctionDEF.sol\":11486:11516  _insertIntoRanking(msg.sender) */\n      jump\t// in\n    tag_304:\n        /* \"blindAuctionDEF.sol\":11543:11553  msg.sender */\n      caller\n        /* \"blindAuctionDEF.sol\":11534:11566  Revealed(msg.sender, _bidAmount) */\n      0xffffffffffffffffffffffffffffffffffffffff\n      and\n      0x36cb84e26ec058ba1aadcd698199fa19568d3c52427b175bd593b94ce83f67c0\n        /* \"blindAuctionDEF.sol\":11555:11565  _bidAmount */\n      dup6\n        /* \"blindAuctionDEF.sol\":11534:11566  Revealed(msg.sender, _bidAmount) */\n      mload(0x40)\n      tag_306\n      swap2\n      swap1\n      tag_58\n      jump\t// in\n    tag_306:\n      mload(0x40)\n      dup1\n      swap2\n      sub\n      swap1\n      log2\n        /* \"blindAuctionDEF.sol\":10910:11574  {... */\n      pop\n      pop\n        /* \"blindAuctionDEF.sol\":10836:11574  function reveal(uint256 _bidAmount, bytes32 _salt) external inRevealPhase {... */\n      pop\n      pop\n      jump\t// out\n        /* \"blindAuctionDEF.sol\":4888:4916  uint256 public ownerProceeds */\n    tag_94:\n      sload(0x07)\n      dup2\n      jump\t// out\n        /* \"blindAuctionDEF.sol\":12161:12876  function finalize() external afterReveal {... */\n    tag_98:\n        /* \"blindAuctionDEF.sol\":6951:6965  revealDeadline */\n      immutable(\"0x5ca7b081b8c6c57b0469c340dba43ec8d33c0b898c69e55c4f74ff7ed9ac71ea\")\n        /* \"blindAuctionDEF.sol\":6932:6947  block.timestamp */\n      timestamp\n        /* \"blindAuctionDEF.sol\":6932:6965  block.timestamp >= revealDeadline */\n      lt\n      iszero\n        /* \"blindAuctionDEF.sol\":6924:6989  require(block.timestamp >= revealDeadline, \"Reveal no terminado\") */\n      tag_308\n      jumpi\n      mload(0x40)\n      0x08c379a000000000000000000000000000000000000000000000000000000000\n      dup2\n      mstore\n      0x04\n      add\n      tag_309\n      swap1\n      tag_310\n      jump\t// in\n    tag_309:\n      mload(0x40)\n      dup1\n      swap2\n      sub\n      swap1\n      revert\n    tag_308:\n        /* \"blindAuctionDEF.sol\":12222:12231  finalized */\n      0x03\n      0x00\n      swap1\n      sload\n      swap1\n      0x0100\n      exp\n      swap1\n      div\n      0xff\n      and\n        /* \"blindAuctionDEF.sol\":12221:12231  !finalized */\n      iszero\n        /* \"blindAuctionDEF.sol\":12213:12249  require(!finalized, \"Ya finalizado\") */\n      tag_312\n      jumpi\n      mload(0x40)\n      0x08c379a000000000000000000000000000000000000000000000000000000000\n      dup2\n      mstore\n      0x04\n      add\n      tag_313\n      swap1\n      tag_314\n      jump\t// in\n    tag_313:\n      mload(0x40)\n      dup1\n      swap2\n      sub\n      swap1\n      revert\n    tag_312:\n        /* \"blindAuctionDEF.sol\":12272:12276  true */\n      0x01\n        /* \"blindAuctionDEF.sol\":12260:12269  finalized */\n      0x03\n      0x00\n        /* \"blindAuctionDEF.sol\":12260:12276  finalized = true */\n      0x0100\n      exp\n      dup2\n      sload\n      dup2\n      0xff\n      mul\n      not\n      and\n      swap1\n      dup4\n      iszero\n      iszero\n      mul\n      or\n      swap1\n      sstore\n      pop\n        /* \"blindAuctionDEF.sol\":12317:12318  0 */\n      0x00\n        /* \"blindAuctionDEF.sol\":12293:12306  rankedBidders */\n      0x02\n        /* \"blindAuctionDEF.sol\":12293:12313  rankedBidders.length */\n      dup1\n      sload\n      swap1\n      pop\n        /* \"blindAuctionDEF.sol\":12293:12318  rankedBidders.length == 0 */\n      sub\n        /* \"blindAuctionDEF.sol\":12289:12420  if (rankedBidders.length == 0) {... */\n      tag_315\n      jumpi\n        /* \"blindAuctionDEF.sol\":12353:12357  true */\n      0x01\n        /* \"blindAuctionDEF.sol\":12335:12350  auctionDeserted */\n      0x03\n      0x02\n        /* \"blindAuctionDEF.sol\":12335:12357  auctionDeserted = true */\n      0x0100\n      exp\n      dup2\n      sload\n      dup2\n      0xff\n      mul\n      not\n      and\n      swap1\n      dup4\n      iszero\n      iszero\n      mul\n      or\n      swap1\n      sstore\n      pop\n        /* \"blindAuctionDEF.sol\":12377:12387  Deserted() */\n      0x9427ab050d1cdff5b941bc297ad5e113728d69972e8c69aa27c13e2d1b63fa19\n      mload(0x40)\n      mload(0x40)\n      dup1\n      swap2\n      sub\n      swap1\n      log1\n        /* \"blindAuctionDEF.sol\":12402:12409  return; */\n      jump(tag_311)\n        /* \"blindAuctionDEF.sol\":12289:12420  if (rankedBidders.length == 0) {... */\n    tag_315:\n        /* \"blindAuctionDEF.sol\":12531:12540  uint256 i */\n      0x00\n        /* \"blindAuctionDEF.sol\":12526:12650  for (uint256 i = 0; i < rankedBidders.length; i++) {... */\n    tag_316:\n        /* \"blindAuctionDEF.sol\":12550:12563  rankedBidders */\n      0x02\n        /* \"blindAuctionDEF.sol\":12550:12570  rankedBidders.length */\n      dup1\n      sload\n      swap1\n      pop\n        /* \"blindAuctionDEF.sol\":12546:12547  i */\n      dup2\n        /* \"blindAuctionDEF.sol\":12546:12570  i < rankedBidders.length */\n      lt\n        /* \"blindAuctionDEF.sol\":12526:12650  for (uint256 i = 0; i < rankedBidders.length; i++) {... */\n      iszero\n      tag_317\n      jumpi\n        /* \"blindAuctionDEF.sol\":12634:12638  true */\n      0x01\n        /* \"blindAuctionDEF.sol\":12592:12599  bidders */\n      0x00\n        /* \"blindAuctionDEF.sol\":12592:12617  bidders[rankedBidders[i]] */\n      dup1\n        /* \"blindAuctionDEF.sol\":12600:12613  rankedBidders */\n      0x02\n        /* \"blindAuctionDEF.sol\":12614:12615  i */\n      dup5\n        /* \"blindAuctionDEF.sol\":12600:12616  rankedBidders[i] */\n      dup2\n      sload\n      dup2\n      lt\n      tag_319\n      jumpi\n      tag_320\n      tag_236\n      jump\t// in\n    tag_320:\n    tag_319:\n      swap1\n      0x00\n      mstore\n      keccak256(0x00, 0x20)\n      add\n      0x00\n      swap1\n      sload\n      swap1\n      0x0100\n      exp\n      swap1\n      div\n      0xffffffffffffffffffffffffffffffffffffffff\n      and\n        /* \"blindAuctionDEF.sol\":12592:12617  bidders[rankedBidders[i]] */\n      0xffffffffffffffffffffffffffffffffffffffff\n      and\n      0xffffffffffffffffffffffffffffffffffffffff\n      and\n      dup2\n      mstore\n      0x20\n      add\n      swap1\n      dup2\n      mstore\n      0x20\n      add\n      0x00\n      keccak256\n        /* \"blindAuctionDEF.sol\":12592:12631  bidders[rankedBidders[i]].depositLocked */\n      0x03\n      add\n      0x03\n        /* \"blindAuctionDEF.sol\":12592:12638  bidders[rankedBidders[i]].depositLocked = true */\n      0x0100\n      exp\n      dup2\n      sload\n      dup2\n      0xff\n      mul\n      not\n      and\n      swap1\n      dup4\n      iszero\n      iszero\n      mul\n      or\n      swap1\n      sstore\n      pop\n        /* \"blindAuctionDEF.sol\":12572:12575  i++ */\n      dup1\n      dup1\n      0x01\n      add\n      swap2\n      pop\n      pop\n        /* \"blindAuctionDEF.sol\":12526:12650  for (uint256 i = 0; i < rankedBidders.length; i++) {... */\n      jump(tag_316)\n    tag_317:\n      pop\n        /* \"blindAuctionDEF.sol\":12683:12684  0 */\n      0x00\n        /* \"blindAuctionDEF.sol\":12662:12680  currentWinnerIndex */\n      0x04\n        /* \"blindAuctionDEF.sol\":12662:12684  currentWinnerIndex = 0 */\n      dup2\n      swap1\n      sstore\n      pop\n        /* \"blindAuctionDEF.sol\":12731:12746  paymentDuration */\n      immutable(\"0x318a541463286d7584b45438601196fbc1a55628e303a0613eb6d46e60640c95\")\n        /* \"blindAuctionDEF.sol\":12713:12728  block.timestamp */\n      timestamp\n        /* \"blindAuctionDEF.sol\":12713:12746  block.timestamp + paymentDuration */\n      tag_322\n      swap2\n      swap1\n      tag_256\n      jump\t// in\n    tag_322:\n        /* \"blindAuctionDEF.sol\":12695:12710  paymentDeadline */\n      0x05\n        /* \"blindAuctionDEF.sol\":12695:12746  paymentDeadline = block.timestamp + paymentDuration */\n      dup2\n      swap1\n      sstore\n      pop\n        /* \"blindAuctionDEF.sol\":12759:12772  address first */\n      0x00\n        /* \"blindAuctionDEF.sol\":12775:12788  rankedBidders */\n      0x02\n        /* \"blindAuctionDEF.sol\":12789:12790  0 */\n      0x00\n        /* \"blindAuctionDEF.sol\":12775:12791  rankedBidders[0] */\n      dup2\n      sload\n      dup2\n      lt\n      tag_323\n      jumpi\n      tag_324\n      tag_236\n      jump\t// in\n    tag_324:\n    tag_323:\n      swap1\n      0x00\n      mstore\n      keccak256(0x00, 0x20)\n      add\n      0x00\n      swap1\n      sload\n      swap1\n      0x0100\n      exp\n      swap1\n      div\n      0xffffffffffffffffffffffffffffffffffffffff\n      and\n        /* \"blindAuctionDEF.sol\":12759:12791  address first = rankedBidders[0] */\n      swap1\n      pop\n        /* \"blindAuctionDEF.sol\":12817:12822  first */\n      dup1\n        /* \"blindAuctionDEF.sol\":12807:12868  Finalized(first, bidders[first].revealedBid, paymentDeadline) */\n      0xffffffffffffffffffffffffffffffffffffffff\n      and\n      0x616c9469db50815ae0f1d0a020d9fc9060da7c57f03559afb0d4ebdaa0a3a05e\n        /* \"blindAuctionDEF.sol\":12824:12831  bidders */\n      0x00\n        /* \"blindAuctionDEF.sol\":12824:12838  bidders[first] */\n      dup1\n        /* \"blindAuctionDEF.sol\":12832:12837  first */\n      dup5\n        /* \"blindAuctionDEF.sol\":12824:12838  bidders[first] */\n      0xffffffffffffffffffffffffffffffffffffffff\n      and\n      0xffffffffffffffffffffffffffffffffffffffff\n      and\n      dup2\n      mstore\n      0x20\n      add\n      swap1\n      dup2\n      mstore\n      0x20\n      add\n      0x00\n      keccak256\n        /* \"blindAuctionDEF.sol\":12824:12850  bidders[first].revealedBid */\n      0x02\n      add\n      sload\n        /* \"blindAuctionDEF.sol\":12852:12867  paymentDeadline */\n      sload(0x05)\n        /* \"blindAuctionDEF.sol\":12807:12868  Finalized(first, bidders[first].revealedBid, paymentDeadline) */\n      mload(0x40)\n      tag_326\n      swap3\n      swap2\n      swap1\n      tag_327\n      jump\t// in\n    tag_326:\n      mload(0x40)\n      dup1\n      swap2\n      sub\n      swap1\n      log2\n        /* \"blindAuctionDEF.sol\":12202:12876  {... */\n      pop\n        /* \"blindAuctionDEF.sol\":7000:7001  _ */\n    tag_311:\n        /* \"blindAuctionDEF.sol\":12161:12876  function finalize() external afterReveal {... */\n      jump\t// out\n        /* \"blindAuctionDEF.sol\":4185:4215  address[] public rankedBidders */\n    tag_103:\n      0x02\n      dup2\n      dup2\n      sload\n      dup2\n      lt\n      tag_328\n      jumpi\n      0x00\n      dup1\n      revert\n    tag_328:\n      swap1\n      0x00\n      mstore\n      keccak256(0x00, 0x20)\n      add\n      0x00\n      swap2\n      pop\n      sload\n      swap1\n      0x0100\n      exp\n      swap1\n      div\n      0xffffffffffffffffffffffffffffffffffffffff\n      and\n      dup2\n      jump\t// out\n        /* \"blindAuctionDEF.sol\":20142:20511  function withdrawReward(uint256 amount) external {... */\n    tag_109:\n        /* \"blindAuctionDEF.sol\":20219:20220  0 */\n      0x00\n        /* \"blindAuctionDEF.sol\":20210:20216  amount */\n      dup2\n        /* \"blindAuctionDEF.sol\":20210:20220  amount > 0 */\n      gt\n        /* \"blindAuctionDEF.sol\":20202:20233  require(amount > 0, \"amount=0\") */\n      tag_331\n      jumpi\n      mload(0x40)\n      0x08c379a000000000000000000000000000000000000000000000000000000000\n      dup2\n      mstore\n      0x04\n      add\n      tag_332\n      swap1\n      tag_333\n      jump\t// in\n    tag_332:\n      mload(0x40)\n      dup1\n      swap2\n      sub\n      swap1\n      revert\n    tag_331:\n        /* \"blindAuctionDEF.sol\":20262:20269  rewards */\n      0x08\n        /* \"blindAuctionDEF.sol\":20262:20281  rewards[msg.sender] */\n      0x00\n        /* \"blindAuctionDEF.sol\":20270:20280  msg.sender */\n      caller\n        /* \"blindAuctionDEF.sol\":20262:20281  rewards[msg.sender] */\n      0xffffffffffffffffffffffffffffffffffffffff\n      and\n      0xffffffffffffffffffffffffffffffffffffffff\n      and\n      dup2\n      mstore\n      0x20\n      add\n      swap1\n      dup2\n      mstore\n      0x20\n      add\n      0x00\n      keccak256\n      sload\n        /* \"blindAuctionDEF.sol\":20252:20258  amount */\n      dup2\n        /* \"blindAuctionDEF.sol\":20252:20281  amount <= rewards[msg.sender] */\n      gt\n      iszero\n        /* \"blindAuctionDEF.sol\":20244:20298  require(amount <= rewards[msg.sender], \"Insuficiente\") */\n      tag_334\n      jumpi\n      mload(0x40)\n      0x08c379a000000000000000000000000000000000000000000000000000000000\n      dup2\n      mstore\n      0x04\n      add\n      tag_335\n      swap1\n      tag_336\n      jump\t// in\n    tag_335:\n      mload(0x40)\n      dup1\n      swap2\n      sub\n      swap1\n      revert\n    tag_334:\n        /* \"blindAuctionDEF.sol\":20334:20340  amount */\n      dup1\n        /* \"blindAuctionDEF.sol\":20311:20318  rewards */\n      0x08\n        /* \"blindAuctionDEF.sol\":20311:20330  rewards[msg.sender] */\n      0x00\n        /* \"blindAuctionDEF.sol\":20319:20329  msg.sender */\n      caller\n        /* \"blindAuctionDEF.sol\":20311:20330  rewards[msg.sender] */\n      0xffffffffffffffffffffffffffffffffffffffff\n      and\n      0xffffffffffffffffffffffffffffffffffffffff\n      and\n      dup2\n      mstore\n      0x20\n      add\n      swap1\n      dup2\n      mstore\n      0x20\n      add\n      0x00\n      keccak256\n      0x00\n        /* \"blindAuctionDEF.sol\":20311:20340  rewards[msg.sender] -= amount */\n      dup3\n      dup3\n      sload\n      tag_337\n      swap2\n      swap1\n      tag_254\n      jump\t// in\n    tag_337:\n      swap3\n      pop\n      pop\n      dup2\n      swap1\n      sstore\n      pop\n        /* \"blindAuctionDEF.sol\":20354:20361  bool ok */\n      0x00\n        /* \"blindAuctionDEF.sol\":20375:20385  msg.sender */\n      caller\n        /* \"blindAuctionDEF.sol\":20367:20391  payable(msg.sender).call */\n      0xffffffffffffffffffffffffffffffffffffffff\n      and\n        /* \"blindAuctionDEF.sol\":20399:20405  amount */\n      dup3\n        /* \"blindAuctionDEF.sol\":20367:20410  payable(msg.sender).call{value: amount}(\"\") */\n      mload(0x40)\n      tag_338\n      swap1\n      tag_260\n      jump\t// in\n    tag_338:\n      0x00\n      mload(0x40)\n      dup1\n      dup4\n      sub\n      dup2\n      dup6\n      dup8\n      gas\n      call\n      swap3\n      pop\n      pop\n      pop\n      returndatasize\n      dup1\n      0x00\n      dup2\n      eq\n      tag_341\n      jumpi\n      mload(0x40)\n      swap2\n      pop\n      and(add(returndatasize, 0x3f), not(0x1f))\n      dup3\n      add\n      0x40\n      mstore\n      returndatasize\n      dup3\n      mstore\n      returndatasize\n      0x00\n      0x20\n      dup5\n      add\n      returndatacopy\n      jump(tag_340)\n    tag_341:\n      0x60\n      swap2\n      pop\n    tag_340:\n      pop\n        /* \"blindAuctionDEF.sol\":20353:20410  (bool ok, ) = payable(msg.sender).call{value: amount}(\"\") */\n      pop\n      swap1\n      pop\n        /* \"blindAuctionDEF.sol\":20429:20431  ok */\n      dup1\n        /* \"blindAuctionDEF.sol\":20421:20450  require(ok, \"Transfer fallo\") */\n      tag_342\n      jumpi\n      mload(0x40)\n      0x08c379a000000000000000000000000000000000000000000000000000000000\n      dup2\n      mstore\n      0x04\n      add\n      tag_343\n      swap1\n      tag_266\n      jump\t// in\n    tag_343:\n      mload(0x40)\n      dup1\n      swap2\n      sub\n      swap1\n      revert\n    tag_342:\n        /* \"blindAuctionDEF.sol\":20484:20494  msg.sender */\n      caller\n        /* \"blindAuctionDEF.sol\":20468:20503  RewardWithdrawn(msg.sender, amount) */\n      0xffffffffffffffffffffffffffffffffffffffff\n      and\n      0x1d3eee4ca001cff39eec6ec7615aacf2f2bd61791273830728ba00ccbd6e1337\n        /* \"blindAuctionDEF.sol\":20496:20502  amount */\n      dup4\n        /* \"blindAuctionDEF.sol\":20468:20503  RewardWithdrawn(msg.sender, amount) */\n      mload(0x40)\n      tag_344\n      swap2\n      swap1\n      tag_58\n      jump\t// in\n    tag_344:\n      mload(0x40)\n      dup1\n      swap2\n      sub\n      swap1\n      log2\n        /* \"blindAuctionDEF.sol\":20191:20511  {... */\n      pop\n        /* \"blindAuctionDEF.sol\":20142:20511  function withdrawReward(uint256 amount) external {... */\n      pop\n      jump\t// out\n        /* \"blindAuctionDEF.sol\":2917:2957  uint256 public immutable paymentDuration */\n    tag_112:\n      immutable(\"0x318a541463286d7584b45438601196fbc1a55628e303a0613eb6d46e60640c95\")\n      dup2\n      jump\t// out\n        /* \"blindAuctionDEF.sol\":4774:4804  uint256 public paymentDeadline */\n    tag_116:\n      sload(0x05)\n      dup2\n      jump\t// out\n        /* \"blindAuctionDEF.sol\":19778:20134  function withdrawOwnerProceeds(uint256 amount) external onlyOwner {... */\n    tag_121:\n        /* \"blindAuctionDEF.sol\":7168:7173  owner */\n      immutable(\"0x933c48a61c3bad621ebc5d57117f9e773fefae4468bceaf9d3198a3bf7c1d678\")\n        /* \"blindAuctionDEF.sol\":7154:7173  msg.sender == owner */\n      0xffffffffffffffffffffffffffffffffffffffff\n      and\n        /* \"blindAuctionDEF.sol\":7154:7164  msg.sender */\n      caller\n        /* \"blindAuctionDEF.sol\":7154:7173  msg.sender == owner */\n      0xffffffffffffffffffffffffffffffffffffffff\n      and\n      eq\n        /* \"blindAuctionDEF.sol\":7146:7188  require(msg.sender == owner, \"Solo owner\") */\n      tag_346\n      jumpi\n      mload(0x40)\n      0x08c379a000000000000000000000000000000000000000000000000000000000\n      dup2\n      mstore\n      0x04\n      add\n      tag_347\n      swap1\n      tag_348\n      jump\t// in\n    tag_347:\n      mload(0x40)\n      dup1\n      swap2\n      sub\n      swap1\n      revert\n    tag_346:\n        /* \"blindAuctionDEF.sol\":19872:19873  0 */\n      0x00\n        /* \"blindAuctionDEF.sol\":19863:19869  amount */\n      dup2\n        /* \"blindAuctionDEF.sol\":19863:19873  amount > 0 */\n      gt\n        /* \"blindAuctionDEF.sol\":19855:19886  require(amount > 0, \"amount=0\") */\n      tag_350\n      jumpi\n      mload(0x40)\n      0x08c379a000000000000000000000000000000000000000000000000000000000\n      dup2\n      mstore\n      0x04\n      add\n      tag_351\n      swap1\n      tag_333\n      jump\t// in\n    tag_351:\n      mload(0x40)\n      dup1\n      swap2\n      sub\n      swap1\n      revert\n    tag_350:\n        /* \"blindAuctionDEF.sol\":19915:19928  ownerProceeds */\n      sload(0x07)\n        /* \"blindAuctionDEF.sol\":19905:19911  amount */\n      dup2\n        /* \"blindAuctionDEF.sol\":19905:19928  amount <= ownerProceeds */\n      gt\n      iszero\n        /* \"blindAuctionDEF.sol\":19897:19945  require(amount <= ownerProceeds, \"Insuficiente\") */\n      tag_352\n      jumpi\n      mload(0x40)\n      0x08c379a000000000000000000000000000000000000000000000000000000000\n      dup2\n      mstore\n      0x04\n      add\n      tag_353\n      swap1\n      tag_336\n      jump\t// in\n    tag_353:\n      mload(0x40)\n      dup1\n      swap2\n      sub\n      swap1\n      revert\n    tag_352:\n        /* \"blindAuctionDEF.sol\":19975:19981  amount */\n      dup1\n        /* \"blindAuctionDEF.sol\":19958:19971  ownerProceeds */\n      0x07\n      0x00\n        /* \"blindAuctionDEF.sol\":19958:19981  ownerProceeds -= amount */\n      dup3\n      dup3\n      sload\n      tag_354\n      swap2\n      swap1\n      tag_254\n      jump\t// in\n    tag_354:\n      swap3\n      pop\n      pop\n      dup2\n      swap1\n      sstore\n      pop\n        /* \"blindAuctionDEF.sol\":19995:20002  bool ok */\n      0x00\n        /* \"blindAuctionDEF.sol\":20016:20021  owner */\n      immutable(\"0x933c48a61c3bad621ebc5d57117f9e773fefae4468bceaf9d3198a3bf7c1d678\")\n        /* \"blindAuctionDEF.sol\":20008:20027  payable(owner).call */\n      0xffffffffffffffffffffffffffffffffffffffff\n      and\n        /* \"blindAuctionDEF.sol\":20035:20041  amount */\n      dup3\n        /* \"blindAuctionDEF.sol\":20008:20046  payable(owner).call{value: amount}(\"\") */\n      mload(0x40)\n      tag_355\n      swap1\n      tag_260\n      jump\t// in\n    tag_355:\n      0x00\n      mload(0x40)\n      dup1\n      dup4\n      sub\n      dup2\n      dup6\n      dup8\n      gas\n      call\n      swap3\n      pop\n      pop\n      pop\n      returndatasize\n      dup1\n      0x00\n      dup2\n      eq\n      tag_358\n      jumpi\n      mload(0x40)\n      swap2\n      pop\n      and(add(returndatasize, 0x3f), not(0x1f))\n      dup3\n      add\n      0x40\n      mstore\n      returndatasize\n      dup3\n      mstore\n      returndatasize\n      0x00\n      0x20\n      dup5\n      add\n      returndatacopy\n      jump(tag_357)\n    tag_358:\n      0x60\n      swap2\n      pop\n    tag_357:\n      pop\n        /* \"blindAuctionDEF.sol\":19994:20046  (bool ok, ) = payable(owner).call{value: amount}(\"\") */\n      pop\n      swap1\n      pop\n        /* \"blindAuctionDEF.sol\":20065:20067  ok */\n      dup1\n        /* \"blindAuctionDEF.sol\":20057:20086  require(ok, \"Transfer fallo\") */\n      tag_359\n      jumpi\n      mload(0x40)\n      0x08c379a000000000000000000000000000000000000000000000000000000000\n      dup2\n      mstore\n      0x04\n      add\n      tag_360\n      swap1\n      tag_266\n      jump\t// in\n    tag_360:\n      mload(0x40)\n      dup1\n      swap2\n      sub\n      swap1\n      revert\n    tag_359:\n        /* \"blindAuctionDEF.sol\":20104:20126  OwnerWithdrawn(amount) */\n      0xe1ba612886c314bab269521f17316b07e06593a8fbe87c52802306c8c6f77865\n        /* \"blindAuctionDEF.sol\":20119:20125  amount */\n      dup3\n        /* \"blindAuctionDEF.sol\":20104:20126  OwnerWithdrawn(amount) */\n      mload(0x40)\n      tag_361\n      swap2\n      swap1\n      tag_58\n      jump\t// in\n    tag_361:\n      mload(0x40)\n      dup1\n      swap2\n      sub\n      swap1\n      log1\n        /* \"blindAuctionDEF.sol\":19844:20134  {... */\n      pop\n        /* \"blindAuctionDEF.sol\":19778:20134  function withdrawOwnerProceeds(uint256 amount) external onlyOwner {... */\n      pop\n      jump\t// out\n        /* \"blindAuctionDEF.sol\":1575:1631  uint256 public constant MIN_PAYMENT_DURATION = 5 minutes */\n    tag_124:\n        /* \"blindAuctionDEF.sol\":1622:1631  5 minutes */\n      0x012c\n        /* \"blindAuctionDEF.sol\":1575:1631  uint256 public constant MIN_PAYMENT_DURATION = 5 minutes */\n      dup2\n      jump\t// out\n        /* \"blindAuctionDEF.sol\":2706:2736  address public immutable owner */\n    tag_128:\n      immutable(\"0x933c48a61c3bad621ebc5d57117f9e773fefae4468bceaf9d3198a3bf7c1d678\")\n      dup2\n      jump\t// out\n        /* \"blindAuctionDEF.sol\":2984:3019  uint256 public immutable maxBidders */\n    tag_132:\n      immutable(\"0x6bcaf047ba4c8ac400fca43393035242dd1aabda2d6068a0c51242b97224de8d\")\n      dup2\n      jump\t// out\n        /* \"blindAuctionDEF.sol\":2745:2784  uint256 public immutable commitDeadline */\n    tag_136:\n      immutable(\"0xed93c67e1a9b7f09d3b44ee593360f0073603a8e45415e2c3c69afc994a1103d\")\n      dup2\n      jump\t// out\n        /* \"blindAuctionDEF.sol\":23144:23428  function currentWinner() external view returns (address) {... */\n    tag_140:\n        /* \"blindAuctionDEF.sol\":23192:23199  address */\n      0x00\n        /* \"blindAuctionDEF.sol\":23217:23226  finalized */\n      0x03\n      0x00\n      swap1\n      sload\n      swap1\n      0x0100\n      exp\n      swap1\n      div\n      0xff\n      and\n        /* \"blindAuctionDEF.sol\":23216:23226  !finalized */\n      iszero\n        /* \"blindAuctionDEF.sol\":23216:23245  !finalized || auctionDeserted */\n      dup1\n      tag_363\n      jumpi\n      pop\n        /* \"blindAuctionDEF.sol\":23230:23245  auctionDeserted */\n      0x03\n      0x02\n      swap1\n      sload\n      swap1\n      0x0100\n      exp\n      swap1\n      div\n      0xff\n      and\n        /* \"blindAuctionDEF.sol\":23216:23245  !finalized || auctionDeserted */\n    tag_363:\n        /* \"blindAuctionDEF.sol\":23216:23274  !finalized || auctionDeserted || rankedBidders.length == 0 */\n      dup1\n      tag_364\n      jumpi\n      pop\n        /* \"blindAuctionDEF.sol\":23273:23274  0 */\n      0x00\n        /* \"blindAuctionDEF.sol\":23249:23262  rankedBidders */\n      0x02\n        /* \"blindAuctionDEF.sol\":23249:23269  rankedBidders.length */\n      dup1\n      sload\n      swap1\n      pop\n        /* \"blindAuctionDEF.sol\":23249:23274  rankedBidders.length == 0 */\n      eq\n        /* \"blindAuctionDEF.sol\":23216:23274  !finalized || auctionDeserted || rankedBidders.length == 0 */\n    tag_364:\n        /* \"blindAuctionDEF.sol\":23212:23293  if (!finalized || auctionDeserted || rankedBidders.length == 0) return address(0) */\n      iszero\n      tag_365\n      jumpi\n        /* \"blindAuctionDEF.sol\":23291:23292  0 */\n      0x00\n        /* \"blindAuctionDEF.sol\":23276:23293  return address(0) */\n      swap1\n      pop\n      jump(tag_362)\n        /* \"blindAuctionDEF.sol\":23212:23293  if (!finalized || auctionDeserted || rankedBidders.length == 0) return address(0) */\n    tag_365:\n        /* \"blindAuctionDEF.sol\":23330:23343  rankedBidders */\n      0x02\n        /* \"blindAuctionDEF.sol\":23330:23350  rankedBidders.length */\n      dup1\n      sload\n      swap1\n      pop\n        /* \"blindAuctionDEF.sol\":23308:23326  currentWinnerIndex */\n      sload(0x04)\n        /* \"blindAuctionDEF.sol\":23308:23350  currentWinnerIndex >= rankedBidders.length */\n      lt\n        /* \"blindAuctionDEF.sol\":23304:23369  if (currentWinnerIndex >= rankedBidders.length) return address(0) */\n      tag_366\n      jumpi\n        /* \"blindAuctionDEF.sol\":23367:23368  0 */\n      0x00\n        /* \"blindAuctionDEF.sol\":23352:23369  return address(0) */\n      swap1\n      pop\n      jump(tag_362)\n        /* \"blindAuctionDEF.sol\":23304:23369  if (currentWinnerIndex >= rankedBidders.length) return address(0) */\n    tag_366:\n        /* \"blindAuctionDEF.sol\":23387:23400  rankedBidders */\n      0x02\n        /* \"blindAuctionDEF.sol\":23401:23419  currentWinnerIndex */\n      sload(0x04)\n        /* \"blindAuctionDEF.sol\":23387:23420  rankedBidders[currentWinnerIndex] */\n      dup2\n      sload\n      dup2\n      lt\n      tag_367\n      jumpi\n      tag_368\n      tag_236\n      jump\t// in\n    tag_368:\n    tag_367:\n      swap1\n      0x00\n      mstore\n      keccak256(0x00, 0x20)\n      add\n      0x00\n      swap1\n      sload\n      swap1\n      0x0100\n      exp\n      swap1\n      div\n      0xffffffffffffffffffffffffffffffffffffffff\n      and\n        /* \"blindAuctionDEF.sol\":23380:23420  return rankedBidders[currentWinnerIndex] */\n      swap1\n      pop\n        /* \"blindAuctionDEF.sol\":23144:23428  function currentWinner() external view returns (address) {... */\n    tag_362:\n      swap1\n      jump\t// out\n        /* \"blindAuctionDEF.sol\":23032:23136  function getRankedCount() external view returns (uint256) {... */\n    tag_144:\n        /* \"blindAuctionDEF.sol\":23081:23088  uint256 */\n      0x00\n        /* \"blindAuctionDEF.sol\":23108:23121  rankedBidders */\n      0x02\n        /* \"blindAuctionDEF.sol\":23108:23128  rankedBidders.length */\n      dup1\n      sload\n      swap1\n      pop\n        /* \"blindAuctionDEF.sol\":23101:23128  return rankedBidders.length */\n      swap1\n      pop\n        /* \"blindAuctionDEF.sol\":23032:23136  function getRankedCount() external view returns (uint256) {... */\n      swap1\n      jump\t// out\n        /* \"blindAuctionDEF.sol\":2791:2830  uint256 public immutable revealDeadline */\n    tag_148:\n      immutable(\"0x5ca7b081b8c6c57b0469c340dba43ec8d33c0b898c69e55c4f74ff7ed9ac71ea\")\n      dup2\n      jump\t// out\n        /* \"blindAuctionDEF.sol\":4634:4655  bool public finalized */\n    tag_152:\n      0x03\n      0x00\n      swap1\n      sload\n      swap1\n      0x0100\n      exp\n      swap1\n      div\n      0xff\n      and\n      dup2\n      jump\t// out\n        /* \"blindAuctionDEF.sol\":1949:2002  uint256 public constant UNREVEALED_PENALTY_BPS = 2000 */\n    tag_156:\n        /* \"blindAuctionDEF.sol\":1998:2002  2000 */\n      0x07d0\n        /* \"blindAuctionDEF.sol\":1949:2002  uint256 public constant UNREVEALED_PENALTY_BPS = 2000 */\n      dup2\n      jump\t// out\n        /* \"blindAuctionDEF.sol\":1449:1505  uint256 public constant MIN_COMMIT_DURATION  = 5 minutes */\n    tag_160:\n        /* \"blindAuctionDEF.sol\":1496:1505  5 minutes */\n      0x012c\n        /* \"blindAuctionDEF.sol\":1449:1505  uint256 public constant MIN_COMMIT_DURATION  = 5 minutes */\n      dup2\n      jump\t// out\n        /* \"blindAuctionDEF.sol\":22923:23024  function getBidderCount() external view returns (uint256) {... */\n    tag_164:\n        /* \"blindAuctionDEF.sol\":22972:22979  uint256 */\n      0x00\n        /* \"blindAuctionDEF.sol\":22999:23009  bidderList */\n      0x01\n        /* \"blindAuctionDEF.sol\":22999:23016  bidderList.length */\n      dup1\n      sload\n      swap1\n      pop\n        /* \"blindAuctionDEF.sol\":22992:23016  return bidderList.length */\n      swap1\n      pop\n        /* \"blindAuctionDEF.sol\":22923:23024  function getBidderCount() external view returns (uint256) {... */\n      swap1\n      jump\t// out\n        /* \"blindAuctionDEF.sol\":4734:4767  uint256 public currentWinnerIndex */\n    tag_168:\n      sload(0x04)\n      dup2\n      jump\t// out\n        /* \"blindAuctionDEF.sol\":2839:2871  uint256 public immutable deposit */\n    tag_172:\n      immutable(\"0x5bc0457d8881b800fd1bc0d6df907345b3bf287e43a5790ded3d08dbacf9c03a\")\n      dup2\n      jump\t// out\n        /* \"blindAuctionDEF.sol\":1512:1568  uint256 public constant MIN_REVEAL_DURATION  = 5 minutes */\n    tag_176:\n        /* \"blindAuctionDEF.sol\":1559:1568  5 minutes */\n      0x012c\n        /* \"blindAuctionDEF.sol\":1512:1568  uint256 public constant MIN_REVEAL_DURATION  = 5 minutes */\n      dup2\n      jump\t// out\n        /* \"blindAuctionDEF.sol\":4077:4104  address[] public bidderList */\n    tag_181:\n      0x01\n      dup2\n      dup2\n      sload\n      dup2\n      lt\n      tag_372\n      jumpi\n      0x00\n      dup1\n      revert\n    tag_372:\n      swap1\n      0x00\n      mstore\n      keccak256(0x00, 0x20)\n      add\n      0x00\n      swap2\n      pop\n      sload\n      swap1\n      0x0100\n      exp\n      swap1\n      div\n      0xffffffffffffffffffffffffffffffffffffffff\n      and\n      dup2\n      jump\t// out\n        /* \"blindAuctionDEF.sol\":15172:16836  function advanceWinnerIfUnpaid() external isFinalized {... */\n    tag_185:\n        /* \"blindAuctionDEF.sol\":7059:7068  finalized */\n      0x03\n      0x00\n      swap1\n      sload\n      swap1\n      0x0100\n      exp\n      swap1\n      div\n      0xff\n      and\n        /* \"blindAuctionDEF.sol\":7051:7086  require(finalized, \"No finalizado\") */\n      tag_375\n      jumpi\n      mload(0x40)\n      0x08c379a000000000000000000000000000000000000000000000000000000000\n      dup2\n      mstore\n      0x04\n      add\n      tag_376\n      swap1\n      tag_225\n      jump\t// in\n    tag_376:\n      mload(0x40)\n      dup1\n      swap2\n      sub\n      swap1\n      revert\n    tag_375:\n        /* \"blindAuctionDEF.sol\":15246:15261  auctionDeserted */\n      0x03\n      0x02\n      swap1\n      sload\n      swap1\n      0x0100\n      exp\n      swap1\n      div\n      0xff\n      and\n        /* \"blindAuctionDEF.sol\":15245:15261  !auctionDeserted */\n      iszero\n        /* \"blindAuctionDEF.sol\":15237:15277  require(!auctionDeserted, \"Ya desierta\") */\n      tag_378\n      jumpi\n      mload(0x40)\n      0x08c379a000000000000000000000000000000000000000000000000000000000\n      dup2\n      mstore\n      0x04\n      add\n      tag_379\n      swap1\n      tag_380\n      jump\t// in\n    tag_379:\n      mload(0x40)\n      dup1\n      swap2\n      sub\n      swap1\n      revert\n    tag_378:\n        /* \"blindAuctionDEF.sol\":15297:15314  auctionSuccessful */\n      0x03\n      0x01\n      swap1\n      sload\n      swap1\n      0x0100\n      exp\n      swap1\n      div\n      0xff\n      and\n        /* \"blindAuctionDEF.sol\":15296:15314  !auctionSuccessful */\n      iszero\n        /* \"blindAuctionDEF.sol\":15288:15332  require(!auctionSuccessful, \"Ya completada\") */\n      tag_381\n      jumpi\n      mload(0x40)\n      0x08c379a000000000000000000000000000000000000000000000000000000000\n      dup2\n      mstore\n      0x04\n      add\n      tag_382\n      swap1\n      tag_383\n      jump\t// in\n    tag_382:\n      mload(0x40)\n      dup1\n      swap2\n      sub\n      swap1\n      revert\n    tag_381:\n        /* \"blindAuctionDEF.sol\":15372:15385  rankedBidders */\n      0x02\n        /* \"blindAuctionDEF.sol\":15372:15392  rankedBidders.length */\n      dup1\n      sload\n      swap1\n      pop\n        /* \"blindAuctionDEF.sol\":15351:15369  currentWinnerIndex */\n      sload(0x04)\n        /* \"blindAuctionDEF.sol\":15351:15392  currentWinnerIndex < rankedBidders.length */\n      lt\n        /* \"blindAuctionDEF.sol\":15343:15408  require(currentWinnerIndex < rankedBidders.length, \"Sin ganador\") */\n      tag_384\n      jumpi\n      mload(0x40)\n      0x08c379a000000000000000000000000000000000000000000000000000000000\n      dup2\n      mstore\n      0x04\n      add\n      tag_385\n      swap1\n      tag_386\n      jump\t// in\n    tag_385:\n      mload(0x40)\n      dup1\n      swap2\n      sub\n      swap1\n      revert\n    tag_384:\n        /* \"blindAuctionDEF.sol\":15445:15460  paymentDeadline */\n      sload(0x05)\n        /* \"blindAuctionDEF.sol\":15427:15442  block.timestamp */\n      timestamp\n        /* \"blindAuctionDEF.sol\":15427:15460  block.timestamp > paymentDeadline */\n      gt\n        /* \"blindAuctionDEF.sol\":15419:15481  require(block.timestamp > paymentDeadline, \"Plazo aun activo\") */\n      tag_387\n      jumpi\n      mload(0x40)\n      0x08c379a000000000000000000000000000000000000000000000000000000000\n      dup2\n      mstore\n      0x04\n      add\n      tag_388\n      swap1\n      tag_389\n      jump\t// in\n    tag_388:\n      mload(0x40)\n      dup1\n      swap2\n      sub\n      swap1\n      revert\n    tag_387:\n        /* \"blindAuctionDEF.sol\":15494:15511  address defaulter */\n      0x00\n        /* \"blindAuctionDEF.sol\":15514:15527  rankedBidders */\n      0x02\n        /* \"blindAuctionDEF.sol\":15528:15546  currentWinnerIndex */\n      sload(0x04)\n        /* \"blindAuctionDEF.sol\":15514:15547  rankedBidders[currentWinnerIndex] */\n      dup2\n      sload\n      dup2\n      lt\n      tag_390\n      jumpi\n      tag_391\n      tag_236\n      jump\t// in\n    tag_391:\n    tag_390:\n      swap1\n      0x00\n      mstore\n      keccak256(0x00, 0x20)\n      add\n      0x00\n      swap1\n      sload\n      swap1\n      0x0100\n      exp\n      swap1\n      div\n      0xffffffffffffffffffffffffffffffffffffffff\n      and\n        /* \"blindAuctionDEF.sol\":15494:15547  address defaulter = rankedBidders[currentWinnerIndex] */\n      swap1\n      pop\n        /* \"blindAuctionDEF.sol\":15558:15575  Bidder storage bd */\n      0x00\n        /* \"blindAuctionDEF.sol\":15578:15585  bidders */\n      dup1\n        /* \"blindAuctionDEF.sol\":15578:15596  bidders[defaulter] */\n      0x00\n        /* \"blindAuctionDEF.sol\":15586:15595  defaulter */\n      dup4\n        /* \"blindAuctionDEF.sol\":15578:15596  bidders[defaulter] */\n      0xffffffffffffffffffffffffffffffffffffffff\n      and\n      0xffffffffffffffffffffffffffffffffffffffff\n      and\n      dup2\n      mstore\n      0x20\n      add\n      swap1\n      dup2\n      mstore\n      0x20\n      add\n      0x00\n      keccak256\n        /* \"blindAuctionDEF.sol\":15558:15596  Bidder storage bd = bidders[defaulter] */\n      swap1\n      pop\n        /* \"blindAuctionDEF.sol\":15616:15618  bd */\n      dup1\n        /* \"blindAuctionDEF.sol\":15616:15628  bd.withdrawn */\n      0x03\n      add\n      0x02\n      swap1\n      sload\n      swap1\n      0x0100\n      exp\n      swap1\n      div\n      0xff\n      and\n        /* \"blindAuctionDEF.sol\":15615:15628  !bd.withdrawn */\n      iszero\n        /* \"blindAuctionDEF.sol\":15607:15646  require(!bd.withdrawn, \"Ya gestionado\") */\n      tag_393\n      jumpi\n      mload(0x40)\n      0x08c379a000000000000000000000000000000000000000000000000000000000\n      dup2\n      mstore\n      0x04\n      add\n      tag_394\n      swap1\n      tag_395\n      jump\t// in\n    tag_394:\n      mload(0x40)\n      dup1\n      swap2\n      sub\n      swap1\n      revert\n    tag_393:\n        /* \"blindAuctionDEF.sol\":15723:15727  true */\n      0x01\n        /* \"blindAuctionDEF.sol\":15708:15710  bd */\n      dup2\n        /* \"blindAuctionDEF.sol\":15708:15720  bd.withdrawn */\n      0x03\n      add\n      0x02\n        /* \"blindAuctionDEF.sol\":15708:15727  bd.withdrawn = true */\n      0x0100\n      exp\n      dup2\n      sload\n      dup2\n      0xff\n      mul\n      not\n      and\n      swap1\n      dup4\n      iszero\n      iszero\n      mul\n      or\n      swap1\n      sstore\n      pop\n        /* \"blindAuctionDEF.sol\":15757:15762  false */\n      0x00\n        /* \"blindAuctionDEF.sol\":15738:15740  bd */\n      dup2\n        /* \"blindAuctionDEF.sol\":15738:15754  bd.depositLocked */\n      0x03\n      add\n      0x03\n        /* \"blindAuctionDEF.sol\":15738:15762  bd.depositLocked = false */\n      0x0100\n      exp\n      dup2\n      sload\n      dup2\n      0xff\n      mul\n      not\n      and\n      swap1\n      dup4\n      iszero\n      iszero\n      mul\n      or\n      swap1\n      sstore\n      pop\n        /* \"blindAuctionDEF.sol\":15788:15792  true */\n      0x01\n        /* \"blindAuctionDEF.sol\":15773:15775  bd */\n      dup2\n        /* \"blindAuctionDEF.sol\":15773:15785  bd.defaulted */\n      0x03\n      add\n      0x04\n        /* \"blindAuctionDEF.sol\":15773:15792  bd.defaulted = true */\n      0x0100\n      exp\n      dup2\n      sload\n      dup2\n      0xff\n      mul\n      not\n      and\n      swap1\n      dup4\n      iszero\n      iszero\n      mul\n      or\n      swap1\n      sstore\n      pop\n        /* \"blindAuctionDEF.sol\":15872:15886  uint256 bounty */\n      0x00\n        /* \"blindAuctionDEF.sol\":15929:15934  10000 */\n      0x2710\n        /* \"blindAuctionDEF.sol\":2241:2244  500 */\n      0x01f4\n        /* \"blindAuctionDEF.sol\":15890:15897  deposit */\n      immutable(\"0x5bc0457d8881b800fd1bc0d6df907345b3bf287e43a5790ded3d08dbacf9c03a\")\n        /* \"blindAuctionDEF.sol\":15890:15925  deposit * ADVANCE_CALLER_BOUNTY_BPS */\n      tag_396\n      swap2\n      swap1\n      tag_250\n      jump\t// in\n    tag_396:\n        /* \"blindAuctionDEF.sol\":15889:15934  (deposit * ADVANCE_CALLER_BOUNTY_BPS) / 10000 */\n      tag_397\n      swap2\n      swap1\n      tag_252\n      jump\t// in\n    tag_397:\n        /* \"blindAuctionDEF.sol\":15872:15934  uint256 bounty = (deposit * ADVANCE_CALLER_BOUNTY_BPS) / 10000 */\n      swap1\n      pop\n        /* \"blindAuctionDEF.sol\":15945:15957  uint256 rest */\n      0x00\n        /* \"blindAuctionDEF.sol\":15970:15976  bounty */\n      dup2\n        /* \"blindAuctionDEF.sol\":15960:15967  deposit */\n      immutable(\"0x5bc0457d8881b800fd1bc0d6df907345b3bf287e43a5790ded3d08dbacf9c03a\")\n        /* \"blindAuctionDEF.sol\":15960:15976  deposit - bounty */\n      tag_398\n      swap2\n      swap1\n      tag_254\n      jump\t// in\n    tag_398:\n        /* \"blindAuctionDEF.sol\":15945:15976  uint256 rest = deposit - bounty */\n      swap1\n      pop\n        /* \"blindAuctionDEF.sol\":16012:16018  bounty */\n      dup2\n        /* \"blindAuctionDEF.sol\":15989:15996  rewards */\n      0x08\n        /* \"blindAuctionDEF.sol\":15989:16008  rewards[msg.sender] */\n      0x00\n        /* \"blindAuctionDEF.sol\":15997:16007  msg.sender */\n      caller\n        /* \"blindAuctionDEF.sol\":15989:16008  rewards[msg.sender] */\n      0xffffffffffffffffffffffffffffffffffffffff\n      and\n      0xffffffffffffffffffffffffffffffffffffffff\n      and\n      dup2\n      mstore\n      0x20\n      add\n      swap1\n      dup2\n      mstore\n      0x20\n      add\n      0x00\n      keccak256\n      0x00\n        /* \"blindAuctionDEF.sol\":15989:16018  rewards[msg.sender] += bounty */\n      dup3\n      dup3\n      sload\n      tag_399\n      swap2\n      swap1\n      tag_256\n      jump\t// in\n    tag_399:\n      swap3\n      pop\n      pop\n      dup2\n      swap1\n      sstore\n      pop\n        /* \"blindAuctionDEF.sol\":16046:16050  rest */\n      dup1\n        /* \"blindAuctionDEF.sol\":16029:16042  ownerProceeds */\n      0x07\n      0x00\n        /* \"blindAuctionDEF.sol\":16029:16050  ownerProceeds += rest */\n      dup3\n      dup3\n      sload\n      tag_400\n      swap2\n      swap1\n      tag_256\n      jump\t// in\n    tag_400:\n      swap3\n      pop\n      pop\n      dup2\n      swap1\n      sstore\n      pop\n        /* \"blindAuctionDEF.sol\":16082:16092  msg.sender */\n      caller\n        /* \"blindAuctionDEF.sol\":16068:16101  RewardAccrued(msg.sender, bounty) */\n      0xffffffffffffffffffffffffffffffffffffffff\n      and\n      0x578afab8065b30a5e9827120e4905b8a1810e180d2f793ca54af6f7633f4e57a\n        /* \"blindAuctionDEF.sol\":16094:16100  bounty */\n      dup4\n        /* \"blindAuctionDEF.sol\":16068:16101  RewardAccrued(msg.sender, bounty) */\n      mload(0x40)\n      tag_401\n      swap2\n      swap1\n      tag_58\n      jump\t// in\n    tag_401:\n      mload(0x40)\n      dup1\n      swap2\n      sub\n      swap1\n      log2\n        /* \"blindAuctionDEF.sol\":16136:16145  defaulter */\n      dup4\n        /* \"blindAuctionDEF.sol\":16117:16177  DepositConfiscated(defaulter, deposit, \"winner did not pay\") */\n      0xffffffffffffffffffffffffffffffffffffffff\n      and\n      0x1fb16dd9688950cb1ed4e1ef4eb31ef7aa2b66802a519a8936389e4e6e4b0d71\n        /* \"blindAuctionDEF.sol\":16147:16154  deposit */\n      immutable(\"0x5bc0457d8881b800fd1bc0d6df907345b3bf287e43a5790ded3d08dbacf9c03a\")\n        /* \"blindAuctionDEF.sol\":16117:16177  DepositConfiscated(defaulter, deposit, \"winner did not pay\") */\n      mload(0x40)\n      tag_402\n      swap2\n      swap1\n      tag_403\n      jump\t// in\n    tag_402:\n      mload(0x40)\n      dup1\n      swap2\n      sub\n      swap1\n      log2\n        /* \"blindAuctionDEF.sol\":16207:16208  1 */\n      0x01\n        /* \"blindAuctionDEF.sol\":16190:16203  fallbackCount */\n      0x06\n      0x00\n        /* \"blindAuctionDEF.sol\":16190:16208  fallbackCount += 1 */\n      dup3\n      dup3\n      sload\n      tag_404\n      swap2\n      swap1\n      tag_256\n      jump\t// in\n    tag_404:\n      swap3\n      pop\n      pop\n      dup2\n      swap1\n      sstore\n      pop\n        /* \"blindAuctionDEF.sol\":16241:16242  1 */\n      0x01\n        /* \"blindAuctionDEF.sol\":16219:16237  currentWinnerIndex */\n      0x04\n      0x00\n        /* \"blindAuctionDEF.sol\":16219:16242  currentWinnerIndex += 1 */\n      dup3\n      dup3\n      sload\n      tag_405\n      swap2\n      swap1\n      tag_256\n      jump\t// in\n    tag_405:\n      swap3\n      pop\n      pop\n      dup2\n      swap1\n      sstore\n      pop\n        /* \"blindAuctionDEF.sol\":16255:16266  bool noMore */\n      0x00\n        /* \"blindAuctionDEF.sol\":16291:16304  rankedBidders */\n      0x02\n        /* \"blindAuctionDEF.sol\":16291:16311  rankedBidders.length */\n      dup1\n      sload\n      swap1\n      pop\n        /* \"blindAuctionDEF.sol\":16269:16287  currentWinnerIndex */\n      sload(0x04)\n        /* \"blindAuctionDEF.sol\":16269:16311  currentWinnerIndex >= rankedBidders.length */\n      lt\n      iszero\n        /* \"blindAuctionDEF.sol\":16255:16311  bool noMore = currentWinnerIndex >= rankedBidders.length */\n      swap1\n      pop\n        /* \"blindAuctionDEF.sol\":16322:16337  bool maxReached */\n      0x00\n        /* \"blindAuctionDEF.sol\":16357:16358  0 */\n      dup1\n        /* \"blindAuctionDEF.sol\":16341:16353  maxFallbacks */\n      immutable(\"0x4dfb3440902001bce9b7ebf7be7d95fe9e2056bd5ce309ceb83b32f4e00e21ed\")\n        /* \"blindAuctionDEF.sol\":16341:16358  maxFallbacks != 0 */\n      eq\n      iszero\n        /* \"blindAuctionDEF.sol\":16341:16391  maxFallbacks != 0 && fallbackCount >= maxFallbacks */\n      dup1\n      iszero\n      tag_406\n      jumpi\n      pop\n        /* \"blindAuctionDEF.sol\":16379:16391  maxFallbacks */\n      immutable(\"0x4dfb3440902001bce9b7ebf7be7d95fe9e2056bd5ce309ceb83b32f4e00e21ed\")\n        /* \"blindAuctionDEF.sol\":16362:16375  fallbackCount */\n      sload(0x06)\n        /* \"blindAuctionDEF.sol\":16362:16391  fallbackCount >= maxFallbacks */\n      lt\n      iszero\n        /* \"blindAuctionDEF.sol\":16341:16391  maxFallbacks != 0 && fallbackCount >= maxFallbacks */\n    tag_406:\n        /* \"blindAuctionDEF.sol\":16322:16392  bool maxReached = (maxFallbacks != 0 && fallbackCount >= maxFallbacks) */\n      swap1\n      pop\n        /* \"blindAuctionDEF.sol\":16409:16415  noMore */\n      dup2\n        /* \"blindAuctionDEF.sol\":16409:16429  noMore || maxReached */\n      dup1\n      tag_407\n      jumpi\n      pop\n        /* \"blindAuctionDEF.sol\":16419:16429  maxReached */\n      dup1\n        /* \"blindAuctionDEF.sol\":16409:16429  noMore || maxReached */\n    tag_407:\n        /* \"blindAuctionDEF.sol\":16405:16594  if (noMore || maxReached) {... */\n      iszero\n      tag_408\n      jumpi\n        /* \"blindAuctionDEF.sol\":16464:16468  true */\n      0x01\n        /* \"blindAuctionDEF.sol\":16446:16461  auctionDeserted */\n      0x03\n      0x02\n        /* \"blindAuctionDEF.sol\":16446:16468  auctionDeserted = true */\n      0x0100\n      exp\n      dup2\n      sload\n      dup2\n      0xff\n      mul\n      not\n      and\n      swap1\n      dup4\n      iszero\n      iszero\n      mul\n      or\n      swap1\n      sstore\n      pop\n        /* \"blindAuctionDEF.sol\":16483:16531  _unlockAllRankedDepositsExceptWinner(address(0)) */\n      tag_409\n        /* \"blindAuctionDEF.sol\":16528:16529  0 */\n      0x00\n        /* \"blindAuctionDEF.sol\":16483:16519  _unlockAllRankedDepositsExceptWinner */\n      tag_410\n        /* \"blindAuctionDEF.sol\":16483:16531  _unlockAllRankedDepositsExceptWinner(address(0)) */\n      jump\t// in\n    tag_409:\n        /* \"blindAuctionDEF.sol\":16551:16561  Deserted() */\n      0x9427ab050d1cdff5b941bc297ad5e113728d69972e8c69aa27c13e2d1b63fa19\n      mload(0x40)\n      mload(0x40)\n      dup1\n      swap2\n      sub\n      swap1\n      log1\n        /* \"blindAuctionDEF.sol\":16576:16583  return; */\n      pop\n      pop\n      pop\n      pop\n      pop\n      pop\n      jump(tag_377)\n        /* \"blindAuctionDEF.sol\":16405:16594  if (noMore || maxReached) {... */\n    tag_408:\n        /* \"blindAuctionDEF.sol\":16642:16657  paymentDuration */\n      immutable(\"0x318a541463286d7584b45438601196fbc1a55628e303a0613eb6d46e60640c95\")\n        /* \"blindAuctionDEF.sol\":16624:16639  block.timestamp */\n      timestamp\n        /* \"blindAuctionDEF.sol\":16624:16657  block.timestamp + paymentDuration */\n      tag_411\n      swap2\n      swap1\n      tag_256\n      jump\t// in\n    tag_411:\n        /* \"blindAuctionDEF.sol\":16606:16621  paymentDeadline */\n      0x05\n        /* \"blindAuctionDEF.sol\":16606:16657  paymentDeadline = block.timestamp + paymentDuration */\n      dup2\n      swap1\n      sstore\n      pop\n        /* \"blindAuctionDEF.sol\":16670:16687  address newWinner */\n      0x00\n        /* \"blindAuctionDEF.sol\":16690:16703  rankedBidders */\n      0x02\n        /* \"blindAuctionDEF.sol\":16704:16722  currentWinnerIndex */\n      sload(0x04)\n        /* \"blindAuctionDEF.sol\":16690:16723  rankedBidders[currentWinnerIndex] */\n      dup2\n      sload\n      dup2\n      lt\n      tag_412\n      jumpi\n      tag_413\n      tag_236\n      jump\t// in\n    tag_413:\n    tag_412:\n      swap1\n      0x00\n      mstore\n      keccak256(0x00, 0x20)\n      add\n      0x00\n      swap1\n      sload\n      swap1\n      0x0100\n      exp\n      swap1\n      div\n      0xffffffffffffffffffffffffffffffffffffffff\n      and\n        /* \"blindAuctionDEF.sol\":16670:16723  address newWinner = rankedBidders[currentWinnerIndex] */\n      swap1\n      pop\n        /* \"blindAuctionDEF.sol\":16754:16763  newWinner */\n      dup1\n        /* \"blindAuctionDEF.sol\":16739:16828  WinnerAdvanced(newWinner, bidders[newWinner].revealedBid, paymentDeadline, fallbackCount) */\n      0xffffffffffffffffffffffffffffffffffffffff\n      and\n      0x6a05c8de3f1f9f35b92c0552a95c5fa9328cc1854919ec31893524194dc6eb46\n        /* \"blindAuctionDEF.sol\":16765:16772  bidders */\n      0x00\n        /* \"blindAuctionDEF.sol\":16765:16783  bidders[newWinner] */\n      dup1\n        /* \"blindAuctionDEF.sol\":16773:16782  newWinner */\n      dup5\n        /* \"blindAuctionDEF.sol\":16765:16783  bidders[newWinner] */\n      0xffffffffffffffffffffffffffffffffffffffff\n      and\n      0xffffffffffffffffffffffffffffffffffffffff\n      and\n      dup2\n      mstore\n      0x20\n      add\n      swap1\n      dup2\n      mstore\n      0x20\n      add\n      0x00\n      keccak256\n        /* \"blindAuctionDEF.sol\":16765:16795  bidders[newWinner].revealedBid */\n      0x02\n      add\n      sload\n        /* \"blindAuctionDEF.sol\":16797:16812  paymentDeadline */\n      sload(0x05)\n        /* \"blindAuctionDEF.sol\":16814:16827  fallbackCount */\n      sload(0x06)\n        /* \"blindAuctionDEF.sol\":16739:16828  WinnerAdvanced(newWinner, bidders[newWinner].revealedBid, paymentDeadline, fallbackCount) */\n      mload(0x40)\n      tag_415\n      swap4\n      swap3\n      swap2\n      swap1\n      tag_66\n      jump\t// in\n    tag_415:\n      mload(0x40)\n      dup1\n      swap2\n      sub\n      swap1\n      log2\n        /* \"blindAuctionDEF.sol\":15226:16836  {... */\n      pop\n      pop\n      pop\n      pop\n      pop\n      pop\n      pop\n        /* \"blindAuctionDEF.sol\":7097:7098  _ */\n    tag_377:\n        /* \"blindAuctionDEF.sol\":15172:16836  function advanceWinnerIfUnpaid() external isFinalized {... */\n      jump\t// out\n        /* \"blindAuctionDEF.sol\":1335:1381  uint256 public constant MAX_DEPOSIT = 10 ether */\n    tag_188:\n        /* \"blindAuctionDEF.sol\":1373:1381  10 ether */\n      0x8ac7230489e80000\n        /* \"blindAuctionDEF.sol\":1335:1381  uint256 public constant MAX_DEPOSIT = 10 ether */\n      dup2\n      jump\t// out\n        /* \"blindAuctionDEF.sol\":1279:1328  uint256 public constant MIN_DEPOSIT = 0.001 ether */\n    tag_192:\n        /* \"blindAuctionDEF.sol\":1317:1328  0.001 ether */\n      0x038d7ea4c68000\n        /* \"blindAuctionDEF.sol\":1279:1328  uint256 public constant MIN_DEPOSIT = 0.001 ether */\n      dup2\n      jump\t// out\n        /* \"blindAuctionDEF.sol\":13321:14388  function payWinningBid() external payable isFinalized {... */\n    tag_195:\n        /* \"blindAuctionDEF.sol\":7059:7068  finalized */\n      0x03\n      0x00\n      swap1\n      sload\n      swap1\n      0x0100\n      exp\n      swap1\n      div\n      0xff\n      and\n        /* \"blindAuctionDEF.sol\":7051:7086  require(finalized, \"No finalizado\") */\n      tag_417\n      jumpi\n      mload(0x40)\n      0x08c379a000000000000000000000000000000000000000000000000000000000\n      dup2\n      mstore\n      0x04\n      add\n      tag_418\n      swap1\n      tag_225\n      jump\t// in\n    tag_418:\n      mload(0x40)\n      dup1\n      swap2\n      sub\n      swap1\n      revert\n    tag_417:\n        /* \"blindAuctionDEF.sol\":13395:13410  auctionDeserted */\n      0x03\n      0x02\n      swap1\n      sload\n      swap1\n      0x0100\n      exp\n      swap1\n      div\n      0xff\n      and\n        /* \"blindAuctionDEF.sol\":13394:13410  !auctionDeserted */\n      iszero\n        /* \"blindAuctionDEF.sol\":13386:13431  require(!auctionDeserted, \"Subasta desierta\") */\n      tag_420\n      jumpi\n      mload(0x40)\n      0x08c379a000000000000000000000000000000000000000000000000000000000\n      dup2\n      mstore\n      0x04\n      add\n      tag_421\n      swap1\n      tag_422\n      jump\t// in\n    tag_421:\n      mload(0x40)\n      dup1\n      swap2\n      sub\n      swap1\n      revert\n    tag_420:\n        /* \"blindAuctionDEF.sol\":13451:13468  auctionSuccessful */\n      0x03\n      0x01\n      swap1\n      sload\n      swap1\n      0x0100\n      exp\n      swap1\n      div\n      0xff\n      and\n        /* \"blindAuctionDEF.sol\":13450:13468  !auctionSuccessful */\n      iszero\n        /* \"blindAuctionDEF.sol\":13442:13486  require(!auctionSuccessful, \"Ya completada\") */\n      tag_423\n      jumpi\n      mload(0x40)\n      0x08c379a000000000000000000000000000000000000000000000000000000000\n      dup2\n      mstore\n      0x04\n      add\n      tag_424\n      swap1\n      tag_383\n      jump\t// in\n    tag_424:\n      mload(0x40)\n      dup1\n      swap2\n      sub\n      swap1\n      revert\n    tag_423:\n        /* \"blindAuctionDEF.sol\":13526:13539  rankedBidders */\n      0x02\n        /* \"blindAuctionDEF.sol\":13526:13546  rankedBidders.length */\n      dup1\n      sload\n      swap1\n      pop\n        /* \"blindAuctionDEF.sol\":13505:13523  currentWinnerIndex */\n      sload(0x04)\n        /* \"blindAuctionDEF.sol\":13505:13546  currentWinnerIndex < rankedBidders.length */\n      lt\n        /* \"blindAuctionDEF.sol\":13497:13562  require(currentWinnerIndex < rankedBidders.length, \"Sin ganador\") */\n      tag_425\n      jumpi\n      mload(0x40)\n      0x08c379a000000000000000000000000000000000000000000000000000000000\n      dup2\n      mstore\n      0x04\n      add\n      tag_426\n      swap1\n      tag_386\n      jump\t// in\n    tag_426:\n      mload(0x40)\n      dup1\n      swap2\n      sub\n      swap1\n      revert\n    tag_425:\n        /* \"blindAuctionDEF.sol\":13600:13615  paymentDeadline */\n      sload(0x05)\n        /* \"blindAuctionDEF.sol\":13581:13596  block.timestamp */\n      timestamp\n        /* \"blindAuctionDEF.sol\":13581:13615  block.timestamp <= paymentDeadline */\n      gt\n      iszero\n        /* \"blindAuctionDEF.sol\":13573:13634  require(block.timestamp <= paymentDeadline, \"Plazo expirado\") */\n      tag_427\n      jumpi\n      mload(0x40)\n      0x08c379a000000000000000000000000000000000000000000000000000000000\n      dup2\n      mstore\n      0x04\n      add\n      tag_428\n      swap1\n      tag_429\n      jump\t// in\n    tag_428:\n      mload(0x40)\n      dup1\n      swap2\n      sub\n      swap1\n      revert\n    tag_427:\n        /* \"blindAuctionDEF.sol\":13647:13656  address w */\n      0x00\n        /* \"blindAuctionDEF.sol\":13659:13672  rankedBidders */\n      0x02\n        /* \"blindAuctionDEF.sol\":13673:13691  currentWinnerIndex */\n      sload(0x04)\n        /* \"blindAuctionDEF.sol\":13659:13692  rankedBidders[currentWinnerIndex] */\n      dup2\n      sload\n      dup2\n      lt\n      tag_430\n      jumpi\n      tag_431\n      tag_236\n      jump\t// in\n    tag_431:\n    tag_430:\n      swap1\n      0x00\n      mstore\n      keccak256(0x00, 0x20)\n      add\n      0x00\n      swap1\n      sload\n      swap1\n      0x0100\n      exp\n      swap1\n      div\n      0xffffffffffffffffffffffffffffffffffffffff\n      and\n        /* \"blindAuctionDEF.sol\":13647:13692  address w = rankedBidders[currentWinnerIndex] */\n      swap1\n      pop\n        /* \"blindAuctionDEF.sol\":13725:13726  w */\n      dup1\n        /* \"blindAuctionDEF.sol\":13711:13726  msg.sender == w */\n      0xffffffffffffffffffffffffffffffffffffffff\n      and\n        /* \"blindAuctionDEF.sol\":13711:13721  msg.sender */\n      caller\n        /* \"blindAuctionDEF.sol\":13711:13726  msg.sender == w */\n      0xffffffffffffffffffffffffffffffffffffffff\n      and\n      eq\n        /* \"blindAuctionDEF.sol\":13703:13756  require(msg.sender == w, \"No eres el ganador actual\") */\n      tag_433\n      jumpi\n      mload(0x40)\n      0x08c379a000000000000000000000000000000000000000000000000000000000\n      dup2\n      mstore\n      0x04\n      add\n      tag_434\n      swap1\n      tag_435\n      jump\t// in\n    tag_434:\n      mload(0x40)\n      dup1\n      swap2\n      sub\n      swap1\n      revert\n    tag_433:\n        /* \"blindAuctionDEF.sol\":13769:13786  uint256 bidAmount */\n      0x00\n        /* \"blindAuctionDEF.sol\":13789:13796  bidders */\n      dup1\n        /* \"blindAuctionDEF.sol\":13789:13799  bidders[w] */\n      0x00\n        /* \"blindAuctionDEF.sol\":13797:13798  w */\n      dup4\n        /* \"blindAuctionDEF.sol\":13789:13799  bidders[w] */\n      0xffffffffffffffffffffffffffffffffffffffff\n      and\n      0xffffffffffffffffffffffffffffffffffffffff\n      and\n      dup2\n      mstore\n      0x20\n      add\n      swap1\n      dup2\n      mstore\n      0x20\n      add\n      0x00\n      keccak256\n        /* \"blindAuctionDEF.sol\":13789:13811  bidders[w].revealedBid */\n      0x02\n      add\n      sload\n        /* \"blindAuctionDEF.sol\":13769:13811  uint256 bidAmount = bidders[w].revealedBid */\n      swap1\n      pop\n        /* \"blindAuctionDEF.sol\":13822:13839  uint256 remaining */\n      0x00\n        /* \"blindAuctionDEF.sol\":13854:13861  deposit */\n      immutable(\"0x5bc0457d8881b800fd1bc0d6df907345b3bf287e43a5790ded3d08dbacf9c03a\")\n        /* \"blindAuctionDEF.sol\":13842:13851  bidAmount */\n      dup3\n        /* \"blindAuctionDEF.sol\":13842:13861  bidAmount > deposit */\n      gt\n        /* \"blindAuctionDEF.sol\":13842:13887  bidAmount > deposit ? bidAmount - deposit : 0 */\n      tag_436\n      jumpi\n        /* \"blindAuctionDEF.sol\":13886:13887  0 */\n      0x00\n        /* \"blindAuctionDEF.sol\":13842:13887  bidAmount > deposit ? bidAmount - deposit : 0 */\n      jump(tag_437)\n    tag_436:\n        /* \"blindAuctionDEF.sol\":13876:13883  deposit */\n      immutable(\"0x5bc0457d8881b800fd1bc0d6df907345b3bf287e43a5790ded3d08dbacf9c03a\")\n        /* \"blindAuctionDEF.sol\":13864:13873  bidAmount */\n      dup3\n        /* \"blindAuctionDEF.sol\":13864:13883  bidAmount - deposit */\n      tag_438\n      swap2\n      swap1\n      tag_254\n      jump\t// in\n    tag_438:\n        /* \"blindAuctionDEF.sol\":13842:13887  bidAmount > deposit ? bidAmount - deposit : 0 */\n    tag_437:\n        /* \"blindAuctionDEF.sol\":13822:13887  uint256 remaining = bidAmount > deposit ? bidAmount - deposit : 0 */\n      swap1\n      pop\n        /* \"blindAuctionDEF.sol\":13919:13928  remaining */\n      dup1\n        /* \"blindAuctionDEF.sol\":13906:13915  msg.value */\n      callvalue\n        /* \"blindAuctionDEF.sol\":13906:13928  msg.value == remaining */\n      eq\n        /* \"blindAuctionDEF.sol\":13898:13952  require(msg.value == remaining, \"Cantidad incorrecta\") */\n      tag_439\n      jumpi\n      mload(0x40)\n      0x08c379a000000000000000000000000000000000000000000000000000000000\n      dup2\n      mstore\n      0x04\n      add\n      tag_440\n      swap1\n      tag_441\n      jump\t// in\n    tag_440:\n      mload(0x40)\n      dup1\n      swap2\n      sub\n      swap1\n      revert\n    tag_439:\n        /* \"blindAuctionDEF.sol\":14068:14077  msg.value */\n      callvalue\n        /* \"blindAuctionDEF.sol\":14058:14065  deposit */\n      immutable(\"0x5bc0457d8881b800fd1bc0d6df907345b3bf287e43a5790ded3d08dbacf9c03a\")\n        /* \"blindAuctionDEF.sol\":14058:14077  deposit + msg.value */\n      tag_442\n      swap2\n      swap1\n      tag_256\n      jump\t// in\n    tag_442:\n        /* \"blindAuctionDEF.sol\":14040:14053  ownerProceeds */\n      0x07\n      0x00\n        /* \"blindAuctionDEF.sol\":14040:14078  ownerProceeds += (deposit + msg.value) */\n      dup3\n      dup3\n      sload\n      tag_443\n      swap2\n      swap1\n      tag_256\n      jump\t// in\n    tag_443:\n      swap3\n      pop\n      pop\n      dup2\n      swap1\n      sstore\n      pop\n        /* \"blindAuctionDEF.sol\":14111:14115  true */\n      0x01\n        /* \"blindAuctionDEF.sol\":14091:14108  auctionSuccessful */\n      0x03\n      0x01\n        /* \"blindAuctionDEF.sol\":14091:14115  auctionSuccessful = true */\n      0x0100\n      exp\n      dup2\n      sload\n      dup2\n      0xff\n      mul\n      not\n      and\n      swap1\n      dup4\n      iszero\n      iszero\n      mul\n      or\n      swap1\n      sstore\n      pop\n        /* \"blindAuctionDEF.sol\":14213:14252  _unlockAllRankedDepositsExceptWinner(w) */\n      tag_444\n        /* \"blindAuctionDEF.sol\":14250:14251  w */\n      dup4\n        /* \"blindAuctionDEF.sol\":14213:14249  _unlockAllRankedDepositsExceptWinner */\n      tag_410\n        /* \"blindAuctionDEF.sol\":14213:14252  _unlockAllRankedDepositsExceptWinner(w) */\n      jump\t// in\n    tag_444:\n        /* \"blindAuctionDEF.sol\":14324:14328  true */\n      0x01\n        /* \"blindAuctionDEF.sol\":14301:14308  bidders */\n      0x00\n        /* \"blindAuctionDEF.sol\":14301:14311  bidders[w] */\n      dup1\n        /* \"blindAuctionDEF.sol\":14309:14310  w */\n      dup6\n        /* \"blindAuctionDEF.sol\":14301:14311  bidders[w] */\n      0xffffffffffffffffffffffffffffffffffffffff\n      and\n      0xffffffffffffffffffffffffffffffffffffffff\n      and\n      dup2\n      mstore\n      0x20\n      add\n      swap1\n      dup2\n      mstore\n      0x20\n      add\n      0x00\n      keccak256\n        /* \"blindAuctionDEF.sol\":14301:14321  bidders[w].withdrawn */\n      0x03\n      add\n      0x02\n        /* \"blindAuctionDEF.sol\":14301:14328  bidders[w].withdrawn = true */\n      0x0100\n      exp\n      dup2\n      sload\n      dup2\n      0xff\n      mul\n      not\n      and\n      swap1\n      dup4\n      iszero\n      iszero\n      mul\n      or\n      swap1\n      sstore\n      pop\n        /* \"blindAuctionDEF.sol\":14357:14358  w */\n      dup3\n        /* \"blindAuctionDEF.sol\":14346:14380  WinnerPaid(w, deposit + msg.value) */\n      0xffffffffffffffffffffffffffffffffffffffff\n      and\n      0x8cbbe5cd65720098fc8ce6e99a5deb232085117dd486475b49cb11604b528f30\n        /* \"blindAuctionDEF.sol\":14370:14379  msg.value */\n      callvalue\n        /* \"blindAuctionDEF.sol\":14360:14367  deposit */\n      immutable(\"0x5bc0457d8881b800fd1bc0d6df907345b3bf287e43a5790ded3d08dbacf9c03a\")\n        /* \"blindAuctionDEF.sol\":14360:14379  deposit + msg.value */\n      tag_445\n      swap2\n      swap1\n      tag_256\n      jump\t// in\n    tag_445:\n        /* \"blindAuctionDEF.sol\":14346:14380  WinnerPaid(w, deposit + msg.value) */\n      mload(0x40)\n      tag_446\n      swap2\n      swap1\n      tag_58\n      jump\t// in\n    tag_446:\n      mload(0x40)\n      dup1\n      swap2\n      sub\n      swap1\n      log2\n        /* \"blindAuctionDEF.sol\":13375:14388  {... */\n      pop\n      pop\n      pop\n        /* \"blindAuctionDEF.sol\":13321:14388  function payWinningBid() external payable isFinalized {... */\n      jump\t// out\n        /* \"blindAuctionDEF.sol\":2189:2244  uint256 public constant ADVANCE_CALLER_BOUNTY_BPS = 500 */\n    tag_198:\n        /* \"blindAuctionDEF.sol\":2241:2244  500 */\n      0x01f4\n        /* \"blindAuctionDEF.sol\":2189:2244  uint256 public constant ADVANCE_CALLER_BOUNTY_BPS = 500 */\n      dup2\n      jump\t// out\n        /* \"blindAuctionDEF.sol\":9608:10236  function commit(bytes32 _commitment) external payable inCommitPhase {... */\n    tag_203:\n        /* \"blindAuctionDEF.sol\":6631:6645  commitDeadline */\n      immutable(\"0xed93c67e1a9b7f09d3b44ee593360f0073603a8e45415e2c3c69afc994a1103d\")\n        /* \"blindAuctionDEF.sol\":6613:6628  block.timestamp */\n      timestamp\n        /* \"blindAuctionDEF.sol\":6613:6645  block.timestamp < commitDeadline */\n      lt\n        /* \"blindAuctionDEF.sol\":6605:6664  require(block.timestamp < commitDeadline, \"Commit cerrada\") */\n      tag_448\n      jumpi\n      mload(0x40)\n      0x08c379a000000000000000000000000000000000000000000000000000000000\n      dup2\n      mstore\n      0x04\n      add\n      tag_449\n      swap1\n      tag_450\n      jump\t// in\n    tag_449:\n      mload(0x40)\n      dup1\n      swap2\n      sub\n      swap1\n      revert\n    tag_448:\n        /* \"blindAuctionDEF.sol\":9718:9719  0 */\n      0x00\n        /* \"blindAuctionDEF.sol\":9710:9720  bytes32(0) */\n      dup1\n      shl\n        /* \"blindAuctionDEF.sol\":9695:9706  _commitment */\n      dup2\n        /* \"blindAuctionDEF.sol\":9695:9720  _commitment != bytes32(0) */\n      sub\n        /* \"blindAuctionDEF.sol\":9687:9744  require(_commitment != bytes32(0), \"Commitment invalido\") */\n      tag_452\n      jumpi\n      mload(0x40)\n      0x08c379a000000000000000000000000000000000000000000000000000000000\n      dup2\n      mstore\n      0x04\n      add\n      tag_453\n      swap1\n      tag_454\n      jump\t// in\n    tag_453:\n      mload(0x40)\n      dup1\n      swap2\n      sub\n      swap1\n      revert\n    tag_452:\n        /* \"blindAuctionDEF.sol\":9783:9793  maxBidders */\n      immutable(\"0x6bcaf047ba4c8ac400fca43393035242dd1aabda2d6068a0c51242b97224de8d\")\n        /* \"blindAuctionDEF.sol\":9763:9773  bidderList */\n      0x01\n        /* \"blindAuctionDEF.sol\":9763:9780  bidderList.length */\n      dup1\n      sload\n      swap1\n      pop\n        /* \"blindAuctionDEF.sol\":9763:9793  bidderList.length < maxBidders */\n      lt\n        /* \"blindAuctionDEF.sol\":9755:9811  require(bidderList.length < maxBidders, \"Subasta llena\") */\n      tag_455\n      jumpi\n      mload(0x40)\n      0x08c379a000000000000000000000000000000000000000000000000000000000\n      dup2\n      mstore\n      0x04\n      add\n      tag_456\n      swap1\n      tag_457\n      jump\t// in\n    tag_456:\n      mload(0x40)\n      dup1\n      swap2\n      sub\n      swap1\n      revert\n    tag_455:\n        /* \"blindAuctionDEF.sol\":9843:9850  deposit */\n      immutable(\"0x5bc0457d8881b800fd1bc0d6df907345b3bf287e43a5790ded3d08dbacf9c03a\")\n        /* \"blindAuctionDEF.sol\":9830:9839  msg.value */\n      callvalue\n        /* \"blindAuctionDEF.sol\":9830:9850  msg.value == deposit */\n      eq\n        /* \"blindAuctionDEF.sol\":9822:9883  require(msg.value == deposit, \"Debes pagar la fianza exacta\") */\n      tag_458\n      jumpi\n      mload(0x40)\n      0x08c379a000000000000000000000000000000000000000000000000000000000\n      dup2\n      mstore\n      0x04\n      add\n      tag_459\n      swap1\n      tag_460\n      jump\t// in\n    tag_459:\n      mload(0x40)\n      dup1\n      swap2\n      sub\n      swap1\n      revert\n    tag_458:\n        /* \"blindAuctionDEF.sol\":9896:9912  Bidder storage b */\n      0x00\n        /* \"blindAuctionDEF.sol\":9915:9922  bidders */\n      dup1\n        /* \"blindAuctionDEF.sol\":9915:9934  bidders[msg.sender] */\n      0x00\n        /* \"blindAuctionDEF.sol\":9923:9933  msg.sender */\n      caller\n        /* \"blindAuctionDEF.sol\":9915:9934  bidders[msg.sender] */\n      0xffffffffffffffffffffffffffffffffffffffff\n      and\n      0xffffffffffffffffffffffffffffffffffffffff\n      and\n      dup2\n      mstore\n      0x20\n      add\n      swap1\n      dup2\n      mstore\n      0x20\n      add\n      0x00\n      keccak256\n        /* \"blindAuctionDEF.sol\":9896:9934  Bidder storage b = bidders[msg.sender] */\n      swap1\n      pop\n        /* \"blindAuctionDEF.sol\":9954:9955  b */\n      dup1\n        /* \"blindAuctionDEF.sol\":9954:9968  b.hasCommitted */\n      0x03\n      add\n      0x00\n      swap1\n      sload\n      swap1\n      0x0100\n      exp\n      swap1\n      div\n      0xff\n      and\n        /* \"blindAuctionDEF.sol\":9953:9968  !b.hasCommitted */\n      iszero\n        /* \"blindAuctionDEF.sol\":9945:9990  require(!b.hasCommitted, \"Ya hiciste commit\") */\n      tag_461\n      jumpi\n      mload(0x40)\n      0x08c379a000000000000000000000000000000000000000000000000000000000\n      dup2\n      mstore\n      0x04\n      add\n      tag_462\n      swap1\n      tag_463\n      jump\t// in\n    tag_462:\n      mload(0x40)\n      dup1\n      swap2\n      sub\n      swap1\n      revert\n    tag_461:\n        /* \"blindAuctionDEF.sol\":10018:10029  _commitment */\n      dup2\n        /* \"blindAuctionDEF.sol\":10003:10004  b */\n      dup2\n        /* \"blindAuctionDEF.sol\":10003:10015  b.commitment */\n      0x00\n      add\n        /* \"blindAuctionDEF.sol\":10003:10029  b.commitment = _commitment */\n      dup2\n      swap1\n      sstore\n      pop\n        /* \"blindAuctionDEF.sol\":10055:10070  block.timestamp */\n      timestamp\n        /* \"blindAuctionDEF.sol\":10040:10041  b */\n      dup2\n        /* \"blindAuctionDEF.sol\":10040:10052  b.commitTime */\n      0x01\n      add\n        /* \"blindAuctionDEF.sol\":10040:10070  b.commitTime = block.timestamp */\n      dup2\n      swap1\n      sstore\n      pop\n        /* \"blindAuctionDEF.sol\":10132:10136  true */\n      0x01\n        /* \"blindAuctionDEF.sol\":10115:10116  b */\n      dup2\n        /* \"blindAuctionDEF.sol\":10115:10129  b.hasCommitted */\n      0x03\n      add\n      0x00\n        /* \"blindAuctionDEF.sol\":10115:10136  b.hasCommitted = true */\n      0x0100\n      exp\n      dup2\n      sload\n      dup2\n      0xff\n      mul\n      not\n      and\n      swap1\n      dup4\n      iszero\n      iszero\n      mul\n      or\n      swap1\n      sstore\n      pop\n        /* \"blindAuctionDEF.sol\":10149:10159  bidderList */\n      0x01\n        /* \"blindAuctionDEF.sol\":10165:10175  msg.sender */\n      caller\n        /* \"blindAuctionDEF.sol\":10149:10176  bidderList.push(msg.sender) */\n      swap1\n      dup1\n      0x01\n      dup2\n      sload\n      add\n      dup1\n      dup3\n      sstore\n      dup1\n      swap2\n      pop\n      pop\n      0x01\n      swap1\n      sub\n      swap1\n      0x00\n      mstore\n      keccak256(0x00, 0x20)\n      add\n      0x00\n      swap1\n      swap2\n      swap1\n      swap2\n      swap1\n      swap2\n      0x0100\n      exp\n      dup2\n      sload\n      dup2\n      0xffffffffffffffffffffffffffffffffffffffff\n      mul\n      not\n      and\n      swap1\n      dup4\n      0xffffffffffffffffffffffffffffffffffffffff\n      and\n      mul\n      or\n      swap1\n      sstore\n      pop\n        /* \"blindAuctionDEF.sol\":10204:10214  msg.sender */\n      caller\n        /* \"blindAuctionDEF.sol\":10194:10228  Committed(msg.sender, _commitment) */\n      0xffffffffffffffffffffffffffffffffffffffff\n      and\n      0x4d7787535441abadf1feb20a4be6ef748ae9c25c03364e195afc8bcc8816d980\n        /* \"blindAuctionDEF.sol\":10216:10227  _commitment */\n      dup4\n        /* \"blindAuctionDEF.sol\":10194:10228  Committed(msg.sender, _commitment) */\n      mload(0x40)\n      tag_465\n      swap2\n      swap1\n      tag_73\n      jump\t// in\n    tag_465:\n      mload(0x40)\n      dup1\n      swap2\n      sub\n      swap1\n      log2\n        /* \"blindAuctionDEF.sol\":9676:10236  {... */\n      pop\n        /* \"blindAuctionDEF.sol\":9608:10236  function commit(bytes32 _commitment) external payable inCommitPhase {... */\n      pop\n      jump\t// out\n        /* \"blindAuctionDEF.sol\":4698:4725  bool public auctionDeserted */\n    tag_206:\n      0x03\n      0x02\n      swap1\n      sload\n      swap1\n      0x0100\n      exp\n      swap1\n      div\n      0xff\n      and\n      dup2\n      jump\t// out\n        /* \"blindAuctionDEF.sol\":3060:3097  uint256 public immutable maxFallbacks */\n    tag_210:\n      immutable(\"0x4dfb3440902001bce9b7ebf7be7d95fe9e2056bd5ce309ceb83b32f4e00e21ed\")\n      dup2\n      jump\t// out\n        /* \"blindAuctionDEF.sol\":4811:4839  uint256 public fallbackCount */\n    tag_214:\n      sload(0x06)\n      dup2\n      jump\t// out\n        /* \"blindAuctionDEF.sol\":4029:4070  mapping(address => Bidder) public bidders */\n    tag_219:\n      mstore(0x20, 0x00)\n      dup1\n      0x00\n      mstore\n      keccak256(0x00, 0x40)\n      0x00\n      swap2\n      pop\n      swap1\n      pop\n      dup1\n      0x00\n      add\n      sload\n      swap1\n      dup1\n      0x01\n      add\n      sload\n      swap1\n      dup1\n      0x02\n      add\n      sload\n      swap1\n      dup1\n      0x03\n      add\n      0x00\n      swap1\n      sload\n      swap1\n      0x0100\n      exp\n      swap1\n      div\n      0xff\n      and\n      swap1\n      dup1\n      0x03\n      add\n      0x01\n      swap1\n      sload\n      swap1\n      0x0100\n      exp\n      swap1\n      div\n      0xff\n      and\n      swap1\n      dup1\n      0x03\n      add\n      0x02\n      swap1\n      sload\n      swap1\n      0x0100\n      exp\n      swap1\n      div\n      0xff\n      and\n      swap1\n      dup1\n      0x03\n      add\n      0x03\n      swap1\n      sload\n      swap1\n      0x0100\n      exp\n      swap1\n      div\n      0xff\n      and\n      swap1\n      dup1\n      0x03\n      add\n      0x04\n      swap1\n      sload\n      swap1\n      0x0100\n      exp\n      swap1\n      div\n      0xff\n      and\n      swap1\n      pop\n      dup9\n      jump\t// out\n        /* \"blindAuctionDEF.sol\":21094:22013  function _insertIntoRanking(address bidder) internal {... */\n    tag_305:\n        /* \"blindAuctionDEF.sol\":21158:21171  rankedBidders */\n      0x02\n        /* \"blindAuctionDEF.sol\":21177:21183  bidder */\n      dup2\n        /* \"blindAuctionDEF.sol\":21158:21184  rankedBidders.push(bidder) */\n      swap1\n      dup1\n      0x01\n      dup2\n      sload\n      add\n      dup1\n      dup3\n      sstore\n      dup1\n      swap2\n      pop\n      pop\n      0x01\n      swap1\n      sub\n      swap1\n      0x00\n      mstore\n      keccak256(0x00, 0x20)\n      add\n      0x00\n      swap1\n      swap2\n      swap1\n      swap2\n      swap1\n      swap2\n      0x0100\n      exp\n      dup2\n      sload\n      dup2\n      0xffffffffffffffffffffffffffffffffffffffff\n      mul\n      not\n      and\n      swap1\n      dup4\n      0xffffffffffffffffffffffffffffffffffffffff\n      and\n      mul\n      or\n      swap1\n      sstore\n      pop\n        /* \"blindAuctionDEF.sol\":21195:21204  uint256 i */\n      0x00\n        /* \"blindAuctionDEF.sol\":21230:21231  1 */\n      0x01\n        /* \"blindAuctionDEF.sol\":21207:21220  rankedBidders */\n      0x02\n        /* \"blindAuctionDEF.sol\":21207:21227  rankedBidders.length */\n      dup1\n      sload\n      swap1\n      pop\n        /* \"blindAuctionDEF.sol\":21207:21231  rankedBidders.length - 1 */\n      tag_468\n      swap2\n      swap1\n      tag_254\n      jump\t// in\n    tag_468:\n        /* \"blindAuctionDEF.sol\":21195:21231  uint256 i = rankedBidders.length - 1 */\n      swap1\n      pop\n        /* \"blindAuctionDEF.sol\":21244:22006  while (i > 0) {... */\n    tag_469:\n        /* \"blindAuctionDEF.sol\":21255:21256  0 */\n      0x00\n        /* \"blindAuctionDEF.sol\":21251:21252  i */\n      dup2\n        /* \"blindAuctionDEF.sol\":21251:21256  i > 0 */\n      gt\n        /* \"blindAuctionDEF.sol\":21244:22006  while (i > 0) {... */\n      iszero\n      tag_470\n      jumpi\n        /* \"blindAuctionDEF.sol\":21273:21285  address prev */\n      0x00\n        /* \"blindAuctionDEF.sol\":21288:21301  rankedBidders */\n      0x02\n        /* \"blindAuctionDEF.sol\":21306:21307  1 */\n      0x01\n        /* \"blindAuctionDEF.sol\":21302:21303  i */\n      dup4\n        /* \"blindAuctionDEF.sol\":21302:21307  i - 1 */\n      tag_471\n      swap2\n      swap1\n      tag_254\n      jump\t// in\n    tag_471:\n        /* \"blindAuctionDEF.sol\":21288:21308  rankedBidders[i - 1] */\n      dup2\n      sload\n      dup2\n      lt\n      tag_472\n      jumpi\n      tag_473\n      tag_236\n      jump\t// in\n    tag_473:\n    tag_472:\n      swap1\n      0x00\n      mstore\n      keccak256(0x00, 0x20)\n      add\n      0x00\n      swap1\n      sload\n      swap1\n      0x0100\n      exp\n      swap1\n      div\n      0xffffffffffffffffffffffffffffffffffffffff\n      and\n        /* \"blindAuctionDEF.sol\":21273:21308  address prev = rankedBidders[i - 1] */\n      swap1\n      pop\n        /* \"blindAuctionDEF.sol\":21325:21337  uint256 bidI */\n      0x00\n        /* \"blindAuctionDEF.sol\":21340:21347  bidders */\n      dup1\n        /* \"blindAuctionDEF.sol\":21340:21355  bidders[bidder] */\n      0x00\n        /* \"blindAuctionDEF.sol\":21348:21354  bidder */\n      dup6\n        /* \"blindAuctionDEF.sol\":21340:21355  bidders[bidder] */\n      0xffffffffffffffffffffffffffffffffffffffff\n      and\n      0xffffffffffffffffffffffffffffffffffffffff\n      and\n      dup2\n      mstore\n      0x20\n      add\n      swap1\n      dup2\n      mstore\n      0x20\n      add\n      0x00\n      keccak256\n        /* \"blindAuctionDEF.sol\":21340:21367  bidders[bidder].revealedBid */\n      0x02\n      add\n      sload\n        /* \"blindAuctionDEF.sol\":21325:21367  uint256 bidI = bidders[bidder].revealedBid */\n      swap1\n      pop\n        /* \"blindAuctionDEF.sol\":21382:21394  uint256 bidP */\n      0x00\n        /* \"blindAuctionDEF.sol\":21397:21404  bidders */\n      dup1\n        /* \"blindAuctionDEF.sol\":21397:21410  bidders[prev] */\n      0x00\n        /* \"blindAuctionDEF.sol\":21405:21409  prev */\n      dup5\n        /* \"blindAuctionDEF.sol\":21397:21410  bidders[prev] */\n      0xffffffffffffffffffffffffffffffffffffffff\n      and\n      0xffffffffffffffffffffffffffffffffffffffff\n      and\n      dup2\n      mstore\n      0x20\n      add\n      swap1\n      dup2\n      mstore\n      0x20\n      add\n      0x00\n      keccak256\n        /* \"blindAuctionDEF.sol\":21397:21422  bidders[prev].revealedBid */\n      0x02\n      add\n      sload\n        /* \"blindAuctionDEF.sol\":21382:21422  uint256 bidP = bidders[prev].revealedBid */\n      swap1\n      pop\n        /* \"blindAuctionDEF.sol\":21450:21454  bidP */\n      dup1\n        /* \"blindAuctionDEF.sol\":21443:21447  bidI */\n      dup3\n        /* \"blindAuctionDEF.sol\":21443:21454  bidI > bidP */\n      gt\n        /* \"blindAuctionDEF.sol\":21439:21872  if (bidI > bidP) {... */\n      tag_476\n      jumpi\n        /* \"blindAuctionDEF.sol\":21529:21533  bidP */\n      dup1\n        /* \"blindAuctionDEF.sol\":21521:21525  bidI */\n      dup3\n        /* \"blindAuctionDEF.sol\":21521:21533  bidI == bidP */\n      sub\n        /* \"blindAuctionDEF.sol\":21517:21872  if (bidI == bidP) {... */\n      tag_477\n      jumpi\n        /* \"blindAuctionDEF.sol\":21636:21643  bidders */\n      0x00\n        /* \"blindAuctionDEF.sol\":21636:21649  bidders[prev] */\n      dup1\n        /* \"blindAuctionDEF.sol\":21644:21648  prev */\n      dup5\n        /* \"blindAuctionDEF.sol\":21636:21649  bidders[prev] */\n      0xffffffffffffffffffffffffffffffffffffffff\n      and\n      0xffffffffffffffffffffffffffffffffffffffff\n      and\n      dup2\n      mstore\n      0x20\n      add\n      swap1\n      dup2\n      mstore\n      0x20\n      add\n      0x00\n      keccak256\n        /* \"blindAuctionDEF.sol\":21636:21660  bidders[prev].commitTime */\n      0x01\n      add\n      sload\n        /* \"blindAuctionDEF.sol\":21606:21613  bidders */\n      0x00\n        /* \"blindAuctionDEF.sol\":21606:21621  bidders[bidder] */\n      dup1\n        /* \"blindAuctionDEF.sol\":21614:21620  bidder */\n      dup8\n        /* \"blindAuctionDEF.sol\":21606:21621  bidders[bidder] */\n      0xffffffffffffffffffffffffffffffffffffffff\n      and\n      0xffffffffffffffffffffffffffffffffffffffff\n      and\n      dup2\n      mstore\n      0x20\n      add\n      swap1\n      dup2\n      mstore\n      0x20\n      add\n      0x00\n      keccak256\n        /* \"blindAuctionDEF.sol\":21606:21632  bidders[bidder].commitTime */\n      0x01\n      add\n      sload\n        /* \"blindAuctionDEF.sol\":21606:21660  bidders[bidder].commitTime >= bidders[prev].commitTime */\n      lt\n        /* \"blindAuctionDEF.sol\":21602:21743  if (bidders[bidder].commitTime >= bidders[prev].commitTime) {... */\n      tag_478\n      jumpi\n        /* \"blindAuctionDEF.sol\":21685:21690  break */\n      pop\n      pop\n      pop\n      jump(tag_470)\n        /* \"blindAuctionDEF.sol\":21602:21743  if (bidders[bidder].commitTime >= bidders[prev].commitTime) {... */\n    tag_478:\n        /* \"blindAuctionDEF.sol\":21517:21872  if (bidI == bidP) {... */\n      jump(tag_479)\n    tag_477:\n        /* \"blindAuctionDEF.sol\":21829:21834  break */\n      pop\n      pop\n      pop\n      jump(tag_470)\n        /* \"blindAuctionDEF.sol\":21517:21872  if (bidI == bidP) {... */\n    tag_479:\n        /* \"blindAuctionDEF.sol\":21439:21872  if (bidI > bidP) {... */\n    tag_476:\n        /* \"blindAuctionDEF.sol\":21928:21932  prev */\n      dup3\n        /* \"blindAuctionDEF.sol\":21909:21922  rankedBidders */\n      0x02\n        /* \"blindAuctionDEF.sol\":21923:21924  i */\n      dup6\n        /* \"blindAuctionDEF.sol\":21909:21925  rankedBidders[i] */\n      dup2\n      sload\n      dup2\n      lt\n      tag_480\n      jumpi\n      tag_481\n      tag_236\n      jump\t// in\n    tag_481:\n    tag_480:\n      swap1\n      0x00\n      mstore\n      keccak256(0x00, 0x20)\n      add\n      0x00\n        /* \"blindAuctionDEF.sol\":21909:21932  rankedBidders[i] = prev */\n      0x0100\n      exp\n      dup2\n      sload\n      dup2\n      0xffffffffffffffffffffffffffffffffffffffff\n      mul\n      not\n      and\n      swap1\n      dup4\n      0xffffffffffffffffffffffffffffffffffffffff\n      and\n      mul\n      or\n      swap1\n      sstore\n      pop\n        /* \"blindAuctionDEF.sol\":21970:21976  bidder */\n      dup5\n        /* \"blindAuctionDEF.sol\":21947:21960  rankedBidders */\n      0x02\n        /* \"blindAuctionDEF.sol\":21965:21966  1 */\n      0x01\n        /* \"blindAuctionDEF.sol\":21961:21962  i */\n      dup7\n        /* \"blindAuctionDEF.sol\":21961:21966  i - 1 */\n      tag_483\n      swap2\n      swap1\n      tag_254\n      jump\t// in\n    tag_483:\n        /* \"blindAuctionDEF.sol\":21947:21967  rankedBidders[i - 1] */\n      dup2\n      sload\n      dup2\n      lt\n      tag_484\n      jumpi\n      tag_485\n      tag_236\n      jump\t// in\n    tag_485:\n    tag_484:\n      swap1\n      0x00\n      mstore\n      keccak256(0x00, 0x20)\n      add\n      0x00\n        /* \"blindAuctionDEF.sol\":21947:21976  rankedBidders[i - 1] = bidder */\n      0x0100\n      exp\n      dup2\n      sload\n      dup2\n      0xffffffffffffffffffffffffffffffffffffffff\n      mul\n      not\n      and\n      swap1\n      dup4\n      0xffffffffffffffffffffffffffffffffffffffff\n      and\n      mul\n      or\n      swap1\n      sstore\n      pop\n        /* \"blindAuctionDEF.sol\":21991:21994  i-- */\n      dup4\n      dup1\n      tag_487\n      swap1\n      tag_488\n      jump\t// in\n    tag_487:\n      swap5\n      pop\n      pop\n        /* \"blindAuctionDEF.sol\":21258:22006  {... */\n      pop\n      pop\n      pop\n        /* \"blindAuctionDEF.sol\":21244:22006  while (i > 0) {... */\n      jump(tag_469)\n    tag_470:\n        /* \"blindAuctionDEF.sol\":21147:22013  {... */\n      pop\n        /* \"blindAuctionDEF.sol\":21094:22013  function _insertIntoRanking(address bidder) internal {... */\n      pop\n      jump\t// out\n        /* \"blindAuctionDEF.sol\":22021:22312  function _unlockAllRankedDepositsExceptWinner(address winner) internal {... */\n    tag_410:\n        /* \"blindAuctionDEF.sol\":22108:22117  uint256 i */\n      0x00\n        /* \"blindAuctionDEF.sol\":22103:22305  for (uint256 i = 0; i < rankedBidders.length; i++) {... */\n    tag_490:\n        /* \"blindAuctionDEF.sol\":22127:22140  rankedBidders */\n      0x02\n        /* \"blindAuctionDEF.sol\":22127:22147  rankedBidders.length */\n      dup1\n      sload\n      swap1\n      pop\n        /* \"blindAuctionDEF.sol\":22123:22124  i */\n      dup2\n        /* \"blindAuctionDEF.sol\":22123:22147  i < rankedBidders.length */\n      lt\n        /* \"blindAuctionDEF.sol\":22103:22305  for (uint256 i = 0; i < rankedBidders.length; i++) {... */\n      iszero\n      tag_491\n      jumpi\n        /* \"blindAuctionDEF.sol\":22169:22181  address addr */\n      0x00\n        /* \"blindAuctionDEF.sol\":22184:22197  rankedBidders */\n      0x02\n        /* \"blindAuctionDEF.sol\":22198:22199  i */\n      dup3\n        /* \"blindAuctionDEF.sol\":22184:22200  rankedBidders[i] */\n      dup2\n      sload\n      dup2\n      lt\n      tag_493\n      jumpi\n      tag_494\n      tag_236\n      jump\t// in\n    tag_494:\n    tag_493:\n      swap1\n      0x00\n      mstore\n      keccak256(0x00, 0x20)\n      add\n      0x00\n      swap1\n      sload\n      swap1\n      0x0100\n      exp\n      swap1\n      div\n      0xffffffffffffffffffffffffffffffffffffffff\n      and\n        /* \"blindAuctionDEF.sol\":22169:22200  address addr = rankedBidders[i] */\n      swap1\n      pop\n        /* \"blindAuctionDEF.sol\":22227:22233  winner */\n      dup3\n        /* \"blindAuctionDEF.sol\":22219:22233  addr == winner */\n      0xffffffffffffffffffffffffffffffffffffffff\n      and\n        /* \"blindAuctionDEF.sol\":22219:22223  addr */\n      dup2\n        /* \"blindAuctionDEF.sol\":22219:22233  addr == winner */\n      0xffffffffffffffffffffffffffffffffffffffff\n      and\n      sub\n        /* \"blindAuctionDEF.sol\":22215:22243  if (addr == winner) continue */\n      tag_496\n      jumpi\n        /* \"blindAuctionDEF.sol\":22235:22243  continue */\n      pop\n      jump(tag_492)\n        /* \"blindAuctionDEF.sol\":22215:22243  if (addr == winner) continue */\n    tag_496:\n        /* \"blindAuctionDEF.sol\":22288:22293  false */\n      0x00\n        /* \"blindAuctionDEF.sol\":22258:22265  bidders */\n      dup1\n        /* \"blindAuctionDEF.sol\":22258:22271  bidders[addr] */\n      0x00\n        /* \"blindAuctionDEF.sol\":22266:22270  addr */\n      dup4\n        /* \"blindAuctionDEF.sol\":22258:22271  bidders[addr] */\n      0xffffffffffffffffffffffffffffffffffffffff\n      and\n      0xffffffffffffffffffffffffffffffffffffffff\n      and\n      dup2\n      mstore\n      0x20\n      add\n      swap1\n      dup2\n      mstore\n      0x20\n      add\n      0x00\n      keccak256\n        /* \"blindAuctionDEF.sol\":22258:22285  bidders[addr].depositLocked */\n      0x03\n      add\n      0x03\n        /* \"blindAuctionDEF.sol\":22258:22293  bidders[addr].depositLocked = false */\n      0x0100\n      exp\n      dup2\n      sload\n      dup2\n      0xff\n      mul\n      not\n      and\n      swap1\n      dup4\n      iszero\n      iszero\n      mul\n      or\n      swap1\n      sstore\n      pop\n        /* \"blindAuctionDEF.sol\":22154:22305  {... */\n      pop\n        /* \"blindAuctionDEF.sol\":22103:22305  for (uint256 i = 0; i < rankedBidders.length; i++) {... */\n    tag_492:\n        /* \"blindAuctionDEF.sol\":22149:22152  i++ */\n      dup1\n      dup1\n      0x01\n      add\n      swap2\n      pop\n      pop\n        /* \"blindAuctionDEF.sol\":22103:22305  for (uint256 i = 0; i < rankedBidders.length; i++) {... */\n      jump(tag_490)\n    tag_491:\n      pop\n        /* \"blindAuctionDEF.sol\":22021:22312  function _unlockAllRankedDepositsExceptWinner(address winner) internal {... */\n      pop\n      jump\t// out\n        /* \"#utility.yul\":88:205   */\n    tag_498:\n        /* \"#utility.yul\":197:198   */\n      0x00\n        /* \"#utility.yul\":194:195   */\n      dup1\n        /* \"#utility.yul\":187:199   */\n      revert\n        /* \"#utility.yul\":334:460   */\n    tag_500:\n        /* \"#utility.yul\":371:378   */\n      0x00\n        /* \"#utility.yul\":411:453   */\n      0xffffffffffffffffffffffffffffffffffffffff\n        /* \"#utility.yul\":404:409   */\n      dup3\n        /* \"#utility.yul\":400:454   */\n      and\n        /* \"#utility.yul\":389:454   */\n      swap1\n      pop\n        /* \"#utility.yul\":334:460   */\n      swap2\n      swap1\n      pop\n      jump\t// out\n        /* \"#utility.yul\":466:562   */\n    tag_501:\n        /* \"#utility.yul\":503:510   */\n      0x00\n        /* \"#utility.yul\":532:556   */\n      tag_593\n        /* \"#utility.yul\":550:555   */\n      dup3\n        /* \"#utility.yul\":532:556   */\n      tag_500\n      jump\t// in\n    tag_593:\n        /* \"#utility.yul\":521:556   */\n      swap1\n      pop\n        /* \"#utility.yul\":466:562   */\n      swap2\n      swap1\n      pop\n      jump\t// out\n        /* \"#utility.yul\":568:690   */\n    tag_502:\n        /* \"#utility.yul\":641:665   */\n      tag_595\n        /* \"#utility.yul\":659:664   */\n      dup2\n        /* \"#utility.yul\":641:665   */\n      tag_501\n      jump\t// in\n    tag_595:\n        /* \"#utility.yul\":634:639   */\n      dup2\n        /* \"#utility.yul\":631:666   */\n      eq\n        /* \"#utility.yul\":621:684   */\n      tag_596\n      jumpi\n        /* \"#utility.yul\":680:681   */\n      0x00\n        /* \"#utility.yul\":677:678   */\n      dup1\n        /* \"#utility.yul\":670:682   */\n      revert\n        /* \"#utility.yul\":621:684   */\n    tag_596:\n        /* \"#utility.yul\":568:690   */\n      pop\n      jump\t// out\n        /* \"#utility.yul\":696:835   */\n    tag_503:\n        /* \"#utility.yul\":742:747   */\n      0x00\n        /* \"#utility.yul\":780:786   */\n      dup2\n        /* \"#utility.yul\":767:787   */\n      calldataload\n        /* \"#utility.yul\":758:787   */\n      swap1\n      pop\n        /* \"#utility.yul\":796:829   */\n      tag_598\n        /* \"#utility.yul\":823:828   */\n      dup2\n        /* \"#utility.yul\":796:829   */\n      tag_502\n      jump\t// in\n    tag_598:\n        /* \"#utility.yul\":696:835   */\n      swap3\n      swap2\n      pop\n      pop\n      jump\t// out\n        /* \"#utility.yul\":841:1170   */\n    tag_55:\n        /* \"#utility.yul\":900:906   */\n      0x00\n        /* \"#utility.yul\":949:951   */\n      0x20\n        /* \"#utility.yul\":937:946   */\n      dup3\n        /* \"#utility.yul\":928:935   */\n      dup5\n        /* \"#utility.yul\":924:947   */\n      sub\n        /* \"#utility.yul\":920:952   */\n      slt\n        /* \"#utility.yul\":917:1036   */\n      iszero\n      tag_600\n      jumpi\n        /* \"#utility.yul\":955:1034   */\n      tag_601\n      tag_498\n      jump\t// in\n    tag_601:\n        /* \"#utility.yul\":917:1036   */\n    tag_600:\n        /* \"#utility.yul\":1075:1076   */\n      0x00\n        /* \"#utility.yul\":1100:1153   */\n      tag_602\n        /* \"#utility.yul\":1145:1152   */\n      dup5\n        /* \"#utility.yul\":1136:1142   */\n      dup3\n        /* \"#utility.yul\":1125:1134   */\n      dup6\n        /* \"#utility.yul\":1121:1143   */\n      add\n        /* \"#utility.yul\":1100:1153   */\n      tag_503\n      jump\t// in\n    tag_602:\n        /* \"#utility.yul\":1090:1153   */\n      swap2\n      pop\n        /* \"#utility.yul\":1046:1163   */\n      pop\n        /* \"#utility.yul\":841:1170   */\n      swap3\n      swap2\n      pop\n      pop\n      jump\t// out\n        /* \"#utility.yul\":1176:1253   */\n    tag_504:\n        /* \"#utility.yul\":1213:1220   */\n      0x00\n        /* \"#utility.yul\":1242:1247   */\n      dup2\n        /* \"#utility.yul\":1231:1247   */\n      swap1\n      pop\n        /* \"#utility.yul\":1176:1253   */\n      swap2\n      swap1\n      pop\n      jump\t// out\n        /* \"#utility.yul\":1259:1377   */\n    tag_505:\n        /* \"#utility.yul\":1346:1370   */\n      tag_605\n        /* \"#utility.yul\":1364:1369   */\n      dup2\n        /* \"#utility.yul\":1346:1370   */\n      tag_504\n      jump\t// in\n    tag_605:\n        /* \"#utility.yul\":1341:1344   */\n      dup3\n        /* \"#utility.yul\":1334:1371   */\n      mstore\n        /* \"#utility.yul\":1259:1377   */\n      pop\n      pop\n      jump\t// out\n        /* \"#utility.yul\":1383:1605   */\n    tag_58:\n        /* \"#utility.yul\":1476:1480   */\n      0x00\n        /* \"#utility.yul\":1514:1516   */\n      0x20\n        /* \"#utility.yul\":1503:1512   */\n      dup3\n        /* \"#utility.yul\":1499:1517   */\n      add\n        /* \"#utility.yul\":1491:1517   */\n      swap1\n      pop\n        /* \"#utility.yul\":1527:1598   */\n      tag_607\n        /* \"#utility.yul\":1595:1596   */\n      0x00\n        /* \"#utility.yul\":1584:1593   */\n      dup4\n        /* \"#utility.yul\":1580:1597   */\n      add\n        /* \"#utility.yul\":1571:1577   */\n      dup5\n        /* \"#utility.yul\":1527:1598   */\n      tag_505\n      jump\t// in\n    tag_607:\n        /* \"#utility.yul\":1383:1605   */\n      swap3\n      swap2\n      pop\n      pop\n      jump\t// out\n        /* \"#utility.yul\":1611:2053   */\n    tag_66:\n        /* \"#utility.yul\":1760:1764   */\n      0x00\n        /* \"#utility.yul\":1798:1800   */\n      0x60\n        /* \"#utility.yul\":1787:1796   */\n      dup3\n        /* \"#utility.yul\":1783:1801   */\n      add\n        /* \"#utility.yul\":1775:1801   */\n      swap1\n      pop\n        /* \"#utility.yul\":1811:1882   */\n      tag_609\n        /* \"#utility.yul\":1879:1880   */\n      0x00\n        /* \"#utility.yul\":1868:1877   */\n      dup4\n        /* \"#utility.yul\":1864:1881   */\n      add\n        /* \"#utility.yul\":1855:1861   */\n      dup7\n        /* \"#utility.yul\":1811:1882   */\n      tag_505\n      jump\t// in\n    tag_609:\n        /* \"#utility.yul\":1892:1964   */\n      tag_610\n        /* \"#utility.yul\":1960:1962   */\n      0x20\n        /* \"#utility.yul\":1949:1958   */\n      dup4\n        /* \"#utility.yul\":1945:1963   */\n      add\n        /* \"#utility.yul\":1936:1942   */\n      dup6\n        /* \"#utility.yul\":1892:1964   */\n      tag_505\n      jump\t// in\n    tag_610:\n        /* \"#utility.yul\":1974:2046   */\n      tag_611\n        /* \"#utility.yul\":2042:2044   */\n      0x40\n        /* \"#utility.yul\":2031:2040   */\n      dup4\n        /* \"#utility.yul\":2027:2045   */\n      add\n        /* \"#utility.yul\":2018:2024   */\n      dup5\n        /* \"#utility.yul\":1974:2046   */\n      tag_505\n      jump\t// in\n    tag_611:\n        /* \"#utility.yul\":1611:2053   */\n      swap5\n      swap4\n      pop\n      pop\n      pop\n      pop\n      jump\t// out\n        /* \"#utility.yul\":2059:2181   */\n    tag_506:\n        /* \"#utility.yul\":2132:2156   */\n      tag_613\n        /* \"#utility.yul\":2150:2155   */\n      dup2\n        /* \"#utility.yul\":2132:2156   */\n      tag_504\n      jump\t// in\n    tag_613:\n        /* \"#utility.yul\":2125:2130   */\n      dup2\n        /* \"#utility.yul\":2122:2157   */\n      eq\n        /* \"#utility.yul\":2112:2175   */\n      tag_614\n      jumpi\n        /* \"#utility.yul\":2171:2172   */\n      0x00\n        /* \"#utility.yul\":2168:2169   */\n      dup1\n        /* \"#utility.yul\":2161:2173   */\n      revert\n        /* \"#utility.yul\":2112:2175   */\n    tag_614:\n        /* \"#utility.yul\":2059:2181   */\n      pop\n      jump\t// out\n        /* \"#utility.yul\":2187:2326   */\n    tag_507:\n        /* \"#utility.yul\":2233:2238   */\n      0x00\n        /* \"#utility.yul\":2271:2277   */\n      dup2\n        /* \"#utility.yul\":2258:2278   */\n      calldataload\n        /* \"#utility.yul\":2249:2278   */\n      swap1\n      pop\n        /* \"#utility.yul\":2287:2320   */\n      tag_616\n        /* \"#utility.yul\":2314:2319   */\n      dup2\n        /* \"#utility.yul\":2287:2320   */\n      tag_506\n      jump\t// in\n    tag_616:\n        /* \"#utility.yul\":2187:2326   */\n      swap3\n      swap2\n      pop\n      pop\n      jump\t// out\n        /* \"#utility.yul\":2332:2409   */\n    tag_508:\n        /* \"#utility.yul\":2369:2376   */\n      0x00\n        /* \"#utility.yul\":2398:2403   */\n      dup2\n        /* \"#utility.yul\":2387:2403   */\n      swap1\n      pop\n        /* \"#utility.yul\":2332:2409   */\n      swap2\n      swap1\n      pop\n      jump\t// out\n        /* \"#utility.yul\":2415:2537   */\n    tag_509:\n        /* \"#utility.yul\":2488:2512   */\n      tag_619\n        /* \"#utility.yul\":2506:2511   */\n      dup2\n        /* \"#utility.yul\":2488:2512   */\n      tag_508\n      jump\t// in\n    tag_619:\n        /* \"#utility.yul\":2481:2486   */\n      dup2\n        /* \"#utility.yul\":2478:2513   */\n      eq\n        /* \"#utility.yul\":2468:2531   */\n      tag_620\n      jumpi\n        /* \"#utility.yul\":2527:2528   */\n      0x00\n        /* \"#utility.yul\":2524:2525   */\n      dup1\n        /* \"#utility.yul\":2517:2529   */\n      revert\n        /* \"#utility.yul\":2468:2531   */\n    tag_620:\n        /* \"#utility.yul\":2415:2537   */\n      pop\n      jump\t// out\n        /* \"#utility.yul\":2543:2682   */\n    tag_510:\n        /* \"#utility.yul\":2589:2594   */\n      0x00\n        /* \"#utility.yul\":2627:2633   */\n      dup2\n        /* \"#utility.yul\":2614:2634   */\n      calldataload\n        /* \"#utility.yul\":2605:2634   */\n      swap1\n      pop\n        /* \"#utility.yul\":2643:2676   */\n      tag_622\n        /* \"#utility.yul\":2670:2675   */\n      dup2\n        /* \"#utility.yul\":2643:2676   */\n      tag_509\n      jump\t// in\n    tag_622:\n        /* \"#utility.yul\":2543:2682   */\n      swap3\n      swap2\n      pop\n      pop\n      jump\t// out\n        /* \"#utility.yul\":2688:3307   */\n    tag_70:\n        /* \"#utility.yul\":2765:2771   */\n      0x00\n        /* \"#utility.yul\":2773:2779   */\n      dup1\n        /* \"#utility.yul\":2781:2787   */\n      0x00\n        /* \"#utility.yul\":2830:2832   */\n      0x60\n        /* \"#utility.yul\":2818:2827   */\n      dup5\n        /* \"#utility.yul\":2809:2816   */\n      dup7\n        /* \"#utility.yul\":2805:2828   */\n      sub\n        /* \"#utility.yul\":2801:2833   */\n      slt\n        /* \"#utility.yul\":2798:2917   */\n      iszero\n      tag_624\n      jumpi\n        /* \"#utility.yul\":2836:2915   */\n      tag_625\n      tag_498\n      jump\t// in\n    tag_625:\n        /* \"#utility.yul\":2798:2917   */\n    tag_624:\n        /* \"#utility.yul\":2956:2957   */\n      0x00\n        /* \"#utility.yul\":2981:3034   */\n      tag_626\n        /* \"#utility.yul\":3026:3033   */\n      dup7\n        /* \"#utility.yul\":3017:3023   */\n      dup3\n        /* \"#utility.yul\":3006:3015   */\n      dup8\n        /* \"#utility.yul\":3002:3024   */\n      add\n        /* \"#utility.yul\":2981:3034   */\n      tag_507\n      jump\t// in\n    tag_626:\n        /* \"#utility.yul\":2971:3034   */\n      swap4\n      pop\n        /* \"#utility.yul\":2927:3044   */\n      pop\n        /* \"#utility.yul\":3083:3085   */\n      0x20\n        /* \"#utility.yul\":3109:3162   */\n      tag_627\n        /* \"#utility.yul\":3154:3161   */\n      dup7\n        /* \"#utility.yul\":3145:3151   */\n      dup3\n        /* \"#utility.yul\":3134:3143   */\n      dup8\n        /* \"#utility.yul\":3130:3152   */\n      add\n        /* \"#utility.yul\":3109:3162   */\n      tag_510\n      jump\t// in\n    tag_627:\n        /* \"#utility.yul\":3099:3162   */\n      swap3\n      pop\n        /* \"#utility.yul\":3054:3172   */\n      pop\n        /* \"#utility.yul\":3211:3213   */\n      0x40\n        /* \"#utility.yul\":3237:3290   */\n      tag_628\n        /* \"#utility.yul\":3282:3289   */\n      dup7\n        /* \"#utility.yul\":3273:3279   */\n      dup3\n        /* \"#utility.yul\":3262:3271   */\n      dup8\n        /* \"#utility.yul\":3258:3280   */\n      add\n        /* \"#utility.yul\":3237:3290   */\n      tag_503\n      jump\t// in\n    tag_628:\n        /* \"#utility.yul\":3227:3290   */\n      swap2\n      pop\n        /* \"#utility.yul\":3182:3300   */\n      pop\n        /* \"#utility.yul\":2688:3307   */\n      swap3\n      pop\n      swap3\n      pop\n      swap3\n      jump\t// out\n        /* \"#utility.yul\":3313:3431   */\n    tag_511:\n        /* \"#utility.yul\":3400:3424   */\n      tag_630\n        /* \"#utility.yul\":3418:3423   */\n      dup2\n        /* \"#utility.yul\":3400:3424   */\n      tag_508\n      jump\t// in\n    tag_630:\n        /* \"#utility.yul\":3395:3398   */\n      dup3\n        /* \"#utility.yul\":3388:3425   */\n      mstore\n        /* \"#utility.yul\":3313:3431   */\n      pop\n      pop\n      jump\t// out\n        /* \"#utility.yul\":3437:3659   */\n    tag_73:\n        /* \"#utility.yul\":3530:3534   */\n      0x00\n        /* \"#utility.yul\":3568:3570   */\n      0x20\n        /* \"#utility.yul\":3557:3566   */\n      dup3\n        /* \"#utility.yul\":3553:3571   */\n      add\n        /* \"#utility.yul\":3545:3571   */\n      swap1\n      pop\n        /* \"#utility.yul\":3581:3652   */\n      tag_632\n        /* \"#utility.yul\":3649:3650   */\n      0x00\n        /* \"#utility.yul\":3638:3647   */\n      dup4\n        /* \"#utility.yul\":3634:3651   */\n      add\n        /* \"#utility.yul\":3625:3631   */\n      dup5\n        /* \"#utility.yul\":3581:3652   */\n      tag_511\n      jump\t// in\n    tag_632:\n        /* \"#utility.yul\":3437:3659   */\n      swap3\n      swap2\n      pop\n      pop\n      jump\t// out\n        /* \"#utility.yul\":3665:3755   */\n    tag_512:\n        /* \"#utility.yul\":3699:3706   */\n      0x00\n        /* \"#utility.yul\":3742:3747   */\n      dup2\n        /* \"#utility.yul\":3735:3748   */\n      iszero\n        /* \"#utility.yul\":3728:3749   */\n      iszero\n        /* \"#utility.yul\":3717:3749   */\n      swap1\n      pop\n        /* \"#utility.yul\":3665:3755   */\n      swap2\n      swap1\n      pop\n      jump\t// out\n        /* \"#utility.yul\":3761:3870   */\n    tag_513:\n        /* \"#utility.yul\":3842:3863   */\n      tag_635\n        /* \"#utility.yul\":3857:3862   */\n      dup2\n        /* \"#utility.yul\":3842:3863   */\n      tag_512\n      jump\t// in\n    tag_635:\n        /* \"#utility.yul\":3837:3840   */\n      dup3\n        /* \"#utility.yul\":3830:3864   */\n      mstore\n        /* \"#utility.yul\":3761:3870   */\n      pop\n      pop\n      jump\t// out\n        /* \"#utility.yul\":3876:4086   */\n    tag_82:\n        /* \"#utility.yul\":3963:3967   */\n      0x00\n        /* \"#utility.yul\":4001:4003   */\n      0x20\n        /* \"#utility.yul\":3990:3999   */\n      dup3\n        /* \"#utility.yul\":3986:4004   */\n      add\n        /* \"#utility.yul\":3978:4004   */\n      swap1\n      pop\n        /* \"#utility.yul\":4014:4079   */\n      tag_637\n        /* \"#utility.yul\":4076:4077   */\n      0x00\n        /* \"#utility.yul\":4065:4074   */\n      dup4\n        /* \"#utility.yul\":4061:4078   */\n      add\n        /* \"#utility.yul\":4052:4058   */\n      dup5\n        /* \"#utility.yul\":4014:4079   */\n      tag_513\n      jump\t// in\n    tag_637:\n        /* \"#utility.yul\":3876:4086   */\n      swap3\n      swap2\n      pop\n      pop\n      jump\t// out\n        /* \"#utility.yul\":4092:4566   */\n    tag_90:\n        /* \"#utility.yul\":4160:4166   */\n      0x00\n        /* \"#utility.yul\":4168:4174   */\n      dup1\n        /* \"#utility.yul\":4217:4219   */\n      0x40\n        /* \"#utility.yul\":4205:4214   */\n      dup4\n        /* \"#utility.yul\":4196:4203   */\n      dup6\n        /* \"#utility.yul\":4192:4215   */\n      sub\n        /* \"#utility.yul\":4188:4220   */\n      slt\n        /* \"#utility.yul\":4185:4304   */\n      iszero\n      tag_639\n      jumpi\n        /* \"#utility.yul\":4223:4302   */\n      tag_640\n      tag_498\n      jump\t// in\n    tag_640:\n        /* \"#utility.yul\":4185:4304   */\n    tag_639:\n        /* \"#utility.yul\":4343:4344   */\n      0x00\n        /* \"#utility.yul\":4368:4421   */\n      tag_641\n        /* \"#utility.yul\":4413:4420   */\n      dup6\n        /* \"#utility.yul\":4404:4410   */\n      dup3\n        /* \"#utility.yul\":4393:4402   */\n      dup7\n        /* \"#utility.yul\":4389:4411   */\n      add\n        /* \"#utility.yul\":4368:4421   */\n      tag_507\n      jump\t// in\n    tag_641:\n        /* \"#utility.yul\":4358:4421   */\n      swap3\n      pop\n        /* \"#utility.yul\":4314:4431   */\n      pop\n        /* \"#utility.yul\":4470:4472   */\n      0x20\n        /* \"#utility.yul\":4496:4549   */\n      tag_642\n        /* \"#utility.yul\":4541:4548   */\n      dup6\n        /* \"#utility.yul\":4532:4538   */\n      dup3\n        /* \"#utility.yul\":4521:4530   */\n      dup7\n        /* \"#utility.yul\":4517:4539   */\n      add\n        /* \"#utility.yul\":4496:4549   */\n      tag_510\n      jump\t// in\n    tag_642:\n        /* \"#utility.yul\":4486:4549   */\n      swap2\n      pop\n        /* \"#utility.yul\":4441:4559   */\n      pop\n        /* \"#utility.yul\":4092:4566   */\n      swap3\n      pop\n      swap3\n      swap1\n      pop\n      jump\t// out\n        /* \"#utility.yul\":4572:4901   */\n    tag_102:\n        /* \"#utility.yul\":4631:4637   */\n      0x00\n        /* \"#utility.yul\":4680:4682   */\n      0x20\n        /* \"#utility.yul\":4668:4677   */\n      dup3\n        /* \"#utility.yul\":4659:4666   */\n      dup5\n        /* \"#utility.yul\":4655:4678   */\n      sub\n        /* \"#utility.yul\":4651:4683   */\n      slt\n        /* \"#utility.yul\":4648:4767   */\n      iszero\n      tag_644\n      jumpi\n        /* \"#utility.yul\":4686:4765   */\n      tag_645\n      tag_498\n      jump\t// in\n    tag_645:\n        /* \"#utility.yul\":4648:4767   */\n    tag_644:\n        /* \"#utility.yul\":4806:4807   */\n      0x00\n        /* \"#utility.yul\":4831:4884   */\n      tag_646\n        /* \"#utility.yul\":4876:4883   */\n      dup5\n        /* \"#utility.yul\":4867:4873   */\n      dup3\n        /* \"#utility.yul\":4856:4865   */\n      dup6\n        /* \"#utility.yul\":4852:4874   */\n      add\n        /* \"#utility.yul\":4831:4884   */\n      tag_507\n      jump\t// in\n    tag_646:\n        /* \"#utility.yul\":4821:4884   */\n      swap2\n      pop\n        /* \"#utility.yul\":4777:4894   */\n      pop\n        /* \"#utility.yul\":4572:4901   */\n      swap3\n      swap2\n      pop\n      pop\n      jump\t// out\n        /* \"#utility.yul\":4907:5025   */\n    tag_514:\n        /* \"#utility.yul\":4994:5018   */\n      tag_648\n        /* \"#utility.yul\":5012:5017   */\n      dup2\n        /* \"#utility.yul\":4994:5018   */\n      tag_501\n      jump\t// in\n    tag_648:\n        /* \"#utility.yul\":4989:4992   */\n      dup3\n        /* \"#utility.yul\":4982:5019   */\n      mstore\n        /* \"#utility.yul\":4907:5025   */\n      pop\n      pop\n      jump\t// out\n        /* \"#utility.yul\":5031:5253   */\n    tag_105:\n        /* \"#utility.yul\":5124:5128   */\n      0x00\n        /* \"#utility.yul\":5162:5164   */\n      0x20\n        /* \"#utility.yul\":5151:5160   */\n      dup3\n        /* \"#utility.yul\":5147:5165   */\n      add\n        /* \"#utility.yul\":5139:5165   */\n      swap1\n      pop\n        /* \"#utility.yul\":5175:5246   */\n      tag_650\n        /* \"#utility.yul\":5243:5244   */\n      0x00\n        /* \"#utility.yul\":5232:5241   */\n      dup4\n        /* \"#utility.yul\":5228:5245   */\n      add\n        /* \"#utility.yul\":5219:5225   */\n      dup5\n        /* \"#utility.yul\":5175:5246   */\n      tag_514\n      jump\t// in\n    tag_650:\n        /* \"#utility.yul\":5031:5253   */\n      swap3\n      swap2\n      pop\n      pop\n      jump\t// out\n        /* \"#utility.yul\":5259:5588   */\n    tag_202:\n        /* \"#utility.yul\":5318:5324   */\n      0x00\n        /* \"#utility.yul\":5367:5369   */\n      0x20\n        /* \"#utility.yul\":5355:5364   */\n      dup3\n        /* \"#utility.yul\":5346:5353   */\n      dup5\n        /* \"#utility.yul\":5342:5365   */\n      sub\n        /* \"#utility.yul\":5338:5370   */\n      slt\n        /* \"#utility.yul\":5335:5454   */\n      iszero\n      tag_652\n      jumpi\n        /* \"#utility.yul\":5373:5452   */\n      tag_653\n      tag_498\n      jump\t// in\n    tag_653:\n        /* \"#utility.yul\":5335:5454   */\n    tag_652:\n        /* \"#utility.yul\":5493:5494   */\n      0x00\n        /* \"#utility.yul\":5518:5571   */\n      tag_654\n        /* \"#utility.yul\":5563:5570   */\n      dup5\n        /* \"#utility.yul\":5554:5560   */\n      dup3\n        /* \"#utility.yul\":5543:5552   */\n      dup6\n        /* \"#utility.yul\":5539:5561   */\n      add\n        /* \"#utility.yul\":5518:5571   */\n      tag_510\n      jump\t// in\n    tag_654:\n        /* \"#utility.yul\":5508:5571   */\n      swap2\n      pop\n        /* \"#utility.yul\":5464:5581   */\n      pop\n        /* \"#utility.yul\":5259:5588   */\n      swap3\n      swap2\n      pop\n      pop\n      jump\t// out\n        /* \"#utility.yul\":5594:6531   */\n    tag_221:\n        /* \"#utility.yul\":5853:5857   */\n      0x00\n        /* \"#utility.yul\":5891:5894   */\n      0x0100\n        /* \"#utility.yul\":5880:5889   */\n      dup3\n        /* \"#utility.yul\":5876:5895   */\n      add\n        /* \"#utility.yul\":5868:5895   */\n      swap1\n      pop\n        /* \"#utility.yul\":5905:5976   */\n      tag_656\n        /* \"#utility.yul\":5973:5974   */\n      0x00\n        /* \"#utility.yul\":5962:5971   */\n      dup4\n        /* \"#utility.yul\":5958:5975   */\n      add\n        /* \"#utility.yul\":5949:5955   */\n      dup12\n        /* \"#utility.yul\":5905:5976   */\n      tag_511\n      jump\t// in\n    tag_656:\n        /* \"#utility.yul\":5986:6058   */\n      tag_657\n        /* \"#utility.yul\":6054:6056   */\n      0x20\n        /* \"#utility.yul\":6043:6052   */\n      dup4\n        /* \"#utility.yul\":6039:6057   */\n      add\n        /* \"#utility.yul\":6030:6036   */\n      dup11\n        /* \"#utility.yul\":5986:6058   */\n      tag_505\n      jump\t// in\n    tag_657:\n        /* \"#utility.yul\":6068:6140   */\n      tag_658\n        /* \"#utility.yul\":6136:6138   */\n      0x40\n        /* \"#utility.yul\":6125:6134   */\n      dup4\n        /* \"#utility.yul\":6121:6139   */\n      add\n        /* \"#utility.yul\":6112:6118   */\n      dup10\n        /* \"#utility.yul\":6068:6140   */\n      tag_505\n      jump\t// in\n    tag_658:\n        /* \"#utility.yul\":6150:6216   */\n      tag_659\n        /* \"#utility.yul\":6212:6214   */\n      0x60\n        /* \"#utility.yul\":6201:6210   */\n      dup4\n        /* \"#utility.yul\":6197:6215   */\n      add\n        /* \"#utility.yul\":6188:6194   */\n      dup9\n        /* \"#utility.yul\":6150:6216   */\n      tag_513\n      jump\t// in\n    tag_659:\n        /* \"#utility.yul\":6226:6293   */\n      tag_660\n        /* \"#utility.yul\":6288:6291   */\n      0x80\n        /* \"#utility.yul\":6277:6286   */\n      dup4\n        /* \"#utility.yul\":6273:6292   */\n      add\n        /* \"#utility.yul\":6264:6270   */\n      dup8\n        /* \"#utility.yul\":6226:6293   */\n      tag_513\n      jump\t// in\n    tag_660:\n        /* \"#utility.yul\":6303:6370   */\n      tag_661\n        /* \"#utility.yul\":6365:6368   */\n      0xa0\n        /* \"#utility.yul\":6354:6363   */\n      dup4\n        /* \"#utility.yul\":6350:6369   */\n      add\n        /* \"#utility.yul\":6341:6347   */\n      dup7\n        /* \"#utility.yul\":6303:6370   */\n      tag_513\n      jump\t// in\n    tag_661:\n        /* \"#utility.yul\":6380:6447   */\n      tag_662\n        /* \"#utility.yul\":6442:6445   */\n      0xc0\n        /* \"#utility.yul\":6431:6440   */\n      dup4\n        /* \"#utility.yul\":6427:6446   */\n      add\n        /* \"#utility.yul\":6418:6424   */\n      dup6\n        /* \"#utility.yul\":6380:6447   */\n      tag_513\n      jump\t// in\n    tag_662:\n        /* \"#utility.yul\":6457:6524   */\n      tag_663\n        /* \"#utility.yul\":6519:6522   */\n      0xe0\n        /* \"#utility.yul\":6508:6517   */\n      dup4\n        /* \"#utility.yul\":6504:6523   */\n      add\n        /* \"#utility.yul\":6495:6501   */\n      dup5\n        /* \"#utility.yul\":6457:6524   */\n      tag_513\n      jump\t// in\n    tag_663:\n        /* \"#utility.yul\":5594:6531   */\n      swap10\n      swap9\n      pop\n      pop\n      pop\n      pop\n      pop\n      pop\n      pop\n      pop\n      pop\n      jump\t// out\n        /* \"#utility.yul\":6537:6706   */\n    tag_515:\n        /* \"#utility.yul\":6621:6632   */\n      0x00\n        /* \"#utility.yul\":6655:6661   */\n      dup3\n        /* \"#utility.yul\":6650:6653   */\n      dup3\n        /* \"#utility.yul\":6643:6662   */\n      mstore\n        /* \"#utility.yul\":6695:6699   */\n      0x20\n        /* \"#utility.yul\":6690:6693   */\n      dup3\n        /* \"#utility.yul\":6686:6700   */\n      add\n        /* \"#utility.yul\":6671:6700   */\n      swap1\n      pop\n        /* \"#utility.yul\":6537:6706   */\n      swap3\n      swap2\n      pop\n      pop\n      jump\t// out\n        /* \"#utility.yul\":6712:6875   */\n    tag_516:\n        /* \"#utility.yul\":6852:6867   */\n      0x4e6f2066696e616c697a61646f00000000000000000000000000000000000000\n        /* \"#utility.yul\":6848:6849   */\n      0x00\n        /* \"#utility.yul\":6840:6846   */\n      dup3\n        /* \"#utility.yul\":6836:6850   */\n      add\n        /* \"#utility.yul\":6829:6868   */\n      mstore\n        /* \"#utility.yul\":6712:6875   */\n      pop\n      jump\t// out\n        /* \"#utility.yul\":6881:7247   */\n    tag_517:\n        /* \"#utility.yul\":7023:7026   */\n      0x00\n        /* \"#utility.yul\":7044:7111   */\n      tag_667\n        /* \"#utility.yul\":7108:7110   */\n      0x0d\n        /* \"#utility.yul\":7103:7106   */\n      dup4\n        /* \"#utility.yul\":7044:7111   */\n      tag_515\n      jump\t// in\n    tag_667:\n        /* \"#utility.yul\":7037:7111   */\n      swap2\n      pop\n        /* \"#utility.yul\":7120:7213   */\n      tag_668\n        /* \"#utility.yul\":7209:7212   */\n      dup3\n        /* \"#utility.yul\":7120:7213   */\n      tag_516\n      jump\t// in\n    tag_668:\n        /* \"#utility.yul\":7238:7240   */\n      0x20\n        /* \"#utility.yul\":7233:7236   */\n      dup3\n        /* \"#utility.yul\":7229:7241   */\n      add\n        /* \"#utility.yul\":7222:7241   */\n      swap1\n      pop\n        /* \"#utility.yul\":6881:7247   */\n      swap2\n      swap1\n      pop\n      jump\t// out\n        /* \"#utility.yul\":7253:7672   */\n    tag_225:\n        /* \"#utility.yul\":7419:7423   */\n      0x00\n        /* \"#utility.yul\":7457:7459   */\n      0x20\n        /* \"#utility.yul\":7446:7455   */\n      dup3\n        /* \"#utility.yul\":7442:7460   */\n      add\n        /* \"#utility.yul\":7434:7460   */\n      swap1\n      pop\n        /* \"#utility.yul\":7506:7515   */\n      dup2\n        /* \"#utility.yul\":7500:7504   */\n      dup2\n        /* \"#utility.yul\":7496:7516   */\n      sub\n        /* \"#utility.yul\":7492:7493   */\n      0x00\n        /* \"#utility.yul\":7481:7490   */\n      dup4\n        /* \"#utility.yul\":7477:7494   */\n      add\n        /* \"#utility.yul\":7470:7517   */\n      mstore\n        /* \"#utility.yul\":7534:7665   */\n      tag_670\n        /* \"#utility.yul\":7660:7664   */\n      dup2\n        /* \"#utility.yul\":7534:7665   */\n      tag_517\n      jump\t// in\n    tag_670:\n        /* \"#utility.yul\":7526:7665   */\n      swap1\n      pop\n        /* \"#utility.yul\":7253:7672   */\n      swap2\n      swap1\n      pop\n      jump\t// out\n        /* \"#utility.yul\":7678:7843   */\n    tag_518:\n        /* \"#utility.yul\":7818:7835   */\n      0x4e6f207061727469636970617374650000000000000000000000000000000000\n        /* \"#utility.yul\":7814:7815   */\n      0x00\n        /* \"#utility.yul\":7806:7812   */\n      dup3\n        /* \"#utility.yul\":7802:7816   */\n      add\n        /* \"#utility.yul\":7795:7836   */\n      mstore\n        /* \"#utility.yul\":7678:7843   */\n      pop\n      jump\t// out\n        /* \"#utility.yul\":7849:8215   */\n    tag_519:\n        /* \"#utility.yul\":7991:7994   */\n      0x00\n        /* \"#utility.yul\":8012:8079   */\n      tag_673\n        /* \"#utility.yul\":8076:8078   */\n      0x0f\n        /* \"#utility.yul\":8071:8074   */\n      dup4\n        /* \"#utility.yul\":8012:8079   */\n      tag_515\n      jump\t// in\n    tag_673:\n        /* \"#utility.yul\":8005:8079   */\n      swap2\n      pop\n        /* \"#utility.yul\":8088:8181   */\n      tag_674\n        /* \"#utility.yul\":8177:8180   */\n      dup3\n        /* \"#utility.yul\":8088:8181   */\n      tag_518\n      jump\t// in\n    tag_674:\n        /* \"#utility.yul\":8206:8208   */\n      0x20\n        /* \"#utility.yul\":8201:8204   */\n      dup3\n        /* \"#utility.yul\":8197:8209   */\n      add\n        /* \"#utility.yul\":8190:8209   */\n      swap1\n      pop\n        /* \"#utility.yul\":7849:8215   */\n      swap2\n      swap1\n      pop\n      jump\t// out\n        /* \"#utility.yul\":8221:8640   */\n    tag_229:\n        /* \"#utility.yul\":8387:8391   */\n      0x00\n        /* \"#utility.yul\":8425:8427   */\n      0x20\n        /* \"#utility.yul\":8414:8423   */\n      dup3\n        /* \"#utility.yul\":8410:8428   */\n      add\n        /* \"#utility.yul\":8402:8428   */\n      swap1\n      pop\n        /* \"#utility.yul\":8474:8483   */\n      dup2\n        /* \"#utility.yul\":8468:8472   */\n      dup2\n        /* \"#utility.yul\":8464:8484   */\n      sub\n        /* \"#utility.yul\":8460:8461   */\n      0x00\n        /* \"#utility.yul\":8449:8458   */\n      dup4\n        /* \"#utility.yul\":8445:8462   */\n      add\n        /* \"#utility.yul\":8438:8485   */\n      mstore\n        /* \"#utility.yul\":8502:8633   */\n      tag_676\n        /* \"#utility.yul\":8628:8632   */\n      dup2\n        /* \"#utility.yul\":8502:8633   */\n      tag_519\n      jump\t// in\n    tag_676:\n        /* \"#utility.yul\":8494:8633   */\n      swap1\n      pop\n        /* \"#utility.yul\":8221:8640   */\n      swap2\n      swap1\n      pop\n      jump\t// out\n        /* \"#utility.yul\":8646:8818   */\n    tag_520:\n        /* \"#utility.yul\":8786:8810   */\n      0x596120726574697261646f2f67657374696f6e61646f00000000000000000000\n        /* \"#utility.yul\":8782:8783   */\n      0x00\n        /* \"#utility.yul\":8774:8780   */\n      dup3\n        /* \"#utility.yul\":8770:8784   */\n      add\n        /* \"#utility.yul\":8763:8811   */\n      mstore\n        /* \"#utility.yul\":8646:8818   */\n      pop\n      jump\t// out\n        /* \"#utility.yul\":8824:9190   */\n    tag_521:\n        /* \"#utility.yul\":8966:8969   */\n      0x00\n        /* \"#utility.yul\":8987:9054   */\n      tag_679\n        /* \"#utility.yul\":9051:9053   */\n      0x16\n        /* \"#utility.yul\":9046:9049   */\n      dup4\n        /* \"#utility.yul\":8987:9054   */\n      tag_515\n      jump\t// in\n    tag_679:\n        /* \"#utility.yul\":8980:9054   */\n      swap2\n      pop\n        /* \"#utility.yul\":9063:9156   */\n      tag_680\n        /* \"#utility.yul\":9152:9155   */\n      dup3\n        /* \"#utility.yul\":9063:9156   */\n      tag_520\n      jump\t// in\n    tag_680:\n        /* \"#utility.yul\":9181:9183   */\n      0x20\n        /* \"#utility.yul\":9176:9179   */\n      dup3\n        /* \"#utility.yul\":9172:9184   */\n      add\n        /* \"#utility.yul\":9165:9184   */\n      swap1\n      pop\n        /* \"#utility.yul\":8824:9190   */\n      swap2\n      swap1\n      pop\n      jump\t// out\n        /* \"#utility.yul\":9196:9615   */\n    tag_232:\n        /* \"#utility.yul\":9362:9366   */\n      0x00\n        /* \"#utility.yul\":9400:9402   */\n      0x20\n        /* \"#utility.yul\":9389:9398   */\n      dup3\n        /* \"#utility.yul\":9385:9403   */\n      add\n        /* \"#utility.yul\":9377:9403   */\n      swap1\n      pop\n        /* \"#utility.yul\":9449:9458   */\n      dup2\n        /* \"#utility.yul\":9443:9447   */\n      dup2\n        /* \"#utility.yul\":9439:9459   */\n      sub\n        /* \"#utility.yul\":9435:9436   */\n      0x00\n        /* \"#utility.yul\":9424:9433   */\n      dup4\n        /* \"#utility.yul\":9420:9437   */\n      add\n        /* \"#utility.yul\":9413:9460   */\n      mstore\n        /* \"#utility.yul\":9477:9608   */\n      tag_682\n        /* \"#utility.yul\":9603:9607   */\n      dup2\n        /* \"#utility.yul\":9477:9608   */\n      tag_521\n      jump\t// in\n    tag_682:\n        /* \"#utility.yul\":9469:9608   */\n      swap1\n      pop\n        /* \"#utility.yul\":9196:9615   */\n      swap2\n      swap1\n      pop\n      jump\t// out\n        /* \"#utility.yul\":9621:9801   */\n    tag_236:\n        /* \"#utility.yul\":9669:9746   */\n      0x4e487b7100000000000000000000000000000000000000000000000000000000\n        /* \"#utility.yul\":9666:9667   */\n      0x00\n        /* \"#utility.yul\":9659:9747   */\n      mstore\n        /* \"#utility.yul\":9766:9770   */\n      0x32\n        /* \"#utility.yul\":9763:9764   */\n      0x04\n        /* \"#utility.yul\":9756:9771   */\n      mstore\n        /* \"#utility.yul\":9790:9794   */\n      0x24\n        /* \"#utility.yul\":9787:9788   */\n      0x00\n        /* \"#utility.yul\":9780:9795   */\n      revert\n        /* \"#utility.yul\":9807:9974   */\n    tag_522:\n        /* \"#utility.yul\":9947:9966   */\n      0x47616e61646f72206e6f20726574697261000000000000000000000000000000\n        /* \"#utility.yul\":9943:9944   */\n      0x00\n        /* \"#utility.yul\":9935:9941   */\n      dup3\n        /* \"#utility.yul\":9931:9945   */\n      add\n        /* \"#utility.yul\":9924:9967   */\n      mstore\n        /* \"#utility.yul\":9807:9974   */\n      pop\n      jump\t// out\n        /* \"#utility.yul\":9980:10346   */\n    tag_523:\n        /* \"#utility.yul\":10122:10125   */\n      0x00\n        /* \"#utility.yul\":10143:10210   */\n      tag_686\n        /* \"#utility.yul\":10207:10209   */\n      0x11\n        /* \"#utility.yul\":10202:10205   */\n      dup4\n        /* \"#utility.yul\":10143:10210   */\n      tag_515\n      jump\t// in\n    tag_686:\n        /* \"#utility.yul\":10136:10210   */\n      swap2\n      pop\n        /* \"#utility.yul\":10219:10312   */\n      tag_687\n        /* \"#utility.yul\":10308:10311   */\n      dup3\n        /* \"#utility.yul\":10219:10312   */\n      tag_522\n      jump\t// in\n    tag_687:\n        /* \"#utility.yul\":10337:10339   */\n      0x20\n        /* \"#utility.yul\":10332:10335   */\n      dup3\n        /* \"#utility.yul\":10328:10340   */\n      add\n        /* \"#utility.yul\":10321:10340   */\n      swap1\n      pop\n        /* \"#utility.yul\":9980:10346   */\n      swap2\n      swap1\n      pop\n      jump\t// out\n        /* \"#utility.yul\":10352:10771   */\n    tag_240:\n        /* \"#utility.yul\":10518:10522   */\n      0x00\n        /* \"#utility.yul\":10556:10558   */\n      0x20\n        /* \"#utility.yul\":10545:10554   */\n      dup3\n        /* \"#utility.yul\":10541:10559   */\n      add\n        /* \"#utility.yul\":10533:10559   */\n      swap1\n      pop\n        /* \"#utility.yul\":10605:10614   */\n      dup2\n        /* \"#utility.yul\":10599:10603   */\n      dup2\n        /* \"#utility.yul\":10595:10615   */\n      sub\n        /* \"#utility.yul\":10591:10592   */\n      0x00\n        /* \"#utility.yul\":10580:10589   */\n      dup4\n        /* \"#utility.yul\":10576:10593   */\n      add\n        /* \"#utility.yul\":10569:10616   */\n      mstore\n        /* \"#utility.yul\":10633:10764   */\n      tag_689\n        /* \"#utility.yul\":10759:10763   */\n      dup2\n        /* \"#utility.yul\":10633:10764   */\n      tag_523\n      jump\t// in\n    tag_689:\n        /* \"#utility.yul\":10625:10764   */\n      swap1\n      pop\n        /* \"#utility.yul\":10352:10771   */\n      swap2\n      swap1\n      pop\n      jump\t// out\n        /* \"#utility.yul\":10777:10950   */\n    tag_524:\n        /* \"#utility.yul\":10917:10942   */\n      0x44656661756c743a206669616e7a612070657264696461000000000000000000\n        /* \"#utility.yul\":10913:10914   */\n      0x00\n        /* \"#utility.yul\":10905:10911   */\n      dup3\n        /* \"#utility.yul\":10901:10915   */\n      add\n        /* \"#utility.yul\":10894:10943   */\n      mstore\n        /* \"#utility.yul\":10777:10950   */\n      pop\n      jump\t// out\n        /* \"#utility.yul\":10956:11322   */\n    tag_525:\n        /* \"#utility.yul\":11098:11101   */\n      0x00\n        /* \"#utility.yul\":11119:11186   */\n      tag_692\n        /* \"#utility.yul\":11183:11185   */\n      0x17\n        /* \"#utility.yul\":11178:11181   */\n      dup4\n        /* \"#utility.yul\":11119:11186   */\n      tag_515\n      jump\t// in\n    tag_692:\n        /* \"#utility.yul\":11112:11186   */\n      swap2\n      pop\n        /* \"#utility.yul\":11195:11288   */\n      tag_693\n        /* \"#utility.yul\":11284:11287   */\n      dup3\n        /* \"#utility.yul\":11195:11288   */\n      tag_524\n      jump\t// in\n    tag_693:\n        /* \"#utility.yul\":11313:11315   */\n      0x20\n        /* \"#utility.yul\":11308:11311   */\n      dup3\n        /* \"#utility.yul\":11304:11316   */\n      add\n        /* \"#utility.yul\":11297:11316   */\n      swap1\n      pop\n        /* \"#utility.yul\":10956:11322   */\n      swap2\n      swap1\n      pop\n      jump\t// out\n        /* \"#utility.yul\":11328:11747   */\n    tag_243:\n        /* \"#utility.yul\":11494:11498   */\n      0x00\n        /* \"#utility.yul\":11532:11534   */\n      0x20\n        /* \"#utility.yul\":11521:11530   */\n      dup3\n        /* \"#utility.yul\":11517:11535   */\n      add\n        /* \"#utility.yul\":11509:11535   */\n      swap1\n      pop\n        /* \"#utility.yul\":11581:11590   */\n      dup2\n        /* \"#utility.yul\":11575:11579   */\n      dup2\n        /* \"#utility.yul\":11571:11591   */\n      sub\n        /* \"#utility.yul\":11567:11568   */\n      0x00\n        /* \"#utility.yul\":11556:11565   */\n      dup4\n        /* \"#utility.yul\":11552:11569   */\n      add\n        /* \"#utility.yul\":11545:11592   */\n      mstore\n        /* \"#utility.yul\":11609:11740   */\n      tag_695\n        /* \"#utility.yul\":11735:11739   */\n      dup2\n        /* \"#utility.yul\":11609:11740   */\n      tag_525\n      jump\t// in\n    tag_695:\n        /* \"#utility.yul\":11601:11740   */\n      swap1\n      pop\n        /* \"#utility.yul\":11328:11747   */\n      swap2\n      swap1\n      pop\n      jump\t// out\n        /* \"#utility.yul\":11753:11926   */\n    tag_526:\n        /* \"#utility.yul\":11893:11918   */\n      0x41756e20626c6f71756561646f202872616e6b696e6729000000000000000000\n        /* \"#utility.yul\":11889:11890   */\n      0x00\n        /* \"#utility.yul\":11881:11887   */\n      dup3\n        /* \"#utility.yul\":11877:11891   */\n      add\n        /* \"#utility.yul\":11870:11919   */\n      mstore\n        /* \"#utility.yul\":11753:11926   */\n      pop\n      jump\t// out\n        /* \"#utility.yul\":11932:12298   */\n    tag_527:\n        /* \"#utility.yul\":12074:12077   */\n      0x00\n        /* \"#utility.yul\":12095:12162   */\n      tag_698\n        /* \"#utility.yul\":12159:12161   */\n      0x17\n        /* \"#utility.yul\":12154:12157   */\n      dup4\n        /* \"#utility.yul\":12095:12162   */\n      tag_515\n      jump\t// in\n    tag_698:\n        /* \"#utility.yul\":12088:12162   */\n      swap2\n      pop\n        /* \"#utility.yul\":12171:12264   */\n      tag_699\n        /* \"#utility.yul\":12260:12263   */\n      dup3\n        /* \"#utility.yul\":12171:12264   */\n      tag_526\n      jump\t// in\n    tag_699:\n        /* \"#utility.yul\":12289:12291   */\n      0x20\n        /* \"#utility.yul\":12284:12287   */\n      dup3\n        /* \"#utility.yul\":12280:12292   */\n      add\n        /* \"#utility.yul\":12273:12292   */\n      swap1\n      pop\n        /* \"#utility.yul\":11932:12298   */\n      swap2\n      swap1\n      pop\n      jump\t// out\n        /* \"#utility.yul\":12304:12723   */\n    tag_246:\n        /* \"#utility.yul\":12470:12474   */\n      0x00\n        /* \"#utility.yul\":12508:12510   */\n      0x20\n        /* \"#utility.yul\":12497:12506   */\n      dup3\n        /* \"#utility.yul\":12493:12511   */\n      add\n        /* \"#utility.yul\":12485:12511   */\n      swap1\n      pop\n        /* \"#utility.yul\":12557:12566   */\n      dup2\n        /* \"#utility.yul\":12551:12555   */\n      dup2\n        /* \"#utility.yul\":12547:12567   */\n      sub\n        /* \"#utility.yul\":12543:12544   */\n      0x00\n        /* \"#utility.yul\":12532:12541   */\n      dup4\n        /* \"#utility.yul\":12528:12545   */\n      add\n        /* \"#utility.yul\":12521:12568   */\n      mstore\n        /* \"#utility.yul\":12585:12716   */\n      tag_701\n        /* \"#utility.yul\":12711:12715   */\n      dup2\n        /* \"#utility.yul\":12585:12716   */\n      tag_527\n      jump\t// in\n    tag_701:\n        /* \"#utility.yul\":12577:12716   */\n      swap1\n      pop\n        /* \"#utility.yul\":12304:12723   */\n      swap2\n      swap1\n      pop\n      jump\t// out\n        /* \"#utility.yul\":12729:12909   */\n    tag_528:\n        /* \"#utility.yul\":12777:12854   */\n      0x4e487b7100000000000000000000000000000000000000000000000000000000\n        /* \"#utility.yul\":12774:12775   */\n      0x00\n        /* \"#utility.yul\":12767:12855   */\n      mstore\n        /* \"#utility.yul\":12874:12878   */\n      0x11\n        /* \"#utility.yul\":12871:12872   */\n      0x04\n        /* \"#utility.yul\":12864:12879   */\n      mstore\n        /* \"#utility.yul\":12898:12902   */\n      0x24\n        /* \"#utility.yul\":12895:12896   */\n      0x00\n        /* \"#utility.yul\":12888:12903   */\n      revert\n        /* \"#utility.yul\":12915:13325   */\n    tag_250:\n        /* \"#utility.yul\":12955:12962   */\n      0x00\n        /* \"#utility.yul\":12978:12998   */\n      tag_704\n        /* \"#utility.yul\":12996:12997   */\n      dup3\n        /* \"#utility.yul\":12978:12998   */\n      tag_504\n      jump\t// in\n    tag_704:\n        /* \"#utility.yul\":12973:12998   */\n      swap2\n      pop\n        /* \"#utility.yul\":13012:13032   */\n      tag_705\n        /* \"#utility.yul\":13030:13031   */\n      dup4\n        /* \"#utility.yul\":13012:13032   */\n      tag_504\n      jump\t// in\n    tag_705:\n        /* \"#utility.yul\":13007:13032   */\n      swap3\n      pop\n        /* \"#utility.yul\":13067:13068   */\n      dup3\n        /* \"#utility.yul\":13064:13065   */\n      dup3\n        /* \"#utility.yul\":13060:13069   */\n      mul\n        /* \"#utility.yul\":13089:13119   */\n      tag_706\n        /* \"#utility.yul\":13107:13118   */\n      dup2\n        /* \"#utility.yul\":13089:13119   */\n      tag_504\n      jump\t// in\n    tag_706:\n        /* \"#utility.yul\":13078:13119   */\n      swap2\n      pop\n        /* \"#utility.yul\":13268:13269   */\n      dup3\n        /* \"#utility.yul\":13259:13266   */\n      dup3\n        /* \"#utility.yul\":13255:13270   */\n      div\n        /* \"#utility.yul\":13252:13253   */\n      dup5\n        /* \"#utility.yul\":13249:13271   */\n      eq\n        /* \"#utility.yul\":13229:13230   */\n      dup4\n        /* \"#utility.yul\":13222:13231   */\n      iszero\n        /* \"#utility.yul\":13202:13285   */\n      or\n        /* \"#utility.yul\":13179:13318   */\n      tag_707\n      jumpi\n        /* \"#utility.yul\":13298:13316   */\n      tag_708\n      tag_528\n      jump\t// in\n    tag_708:\n        /* \"#utility.yul\":13179:13318   */\n    tag_707:\n        /* \"#utility.yul\":12963:13325   */\n      pop\n        /* \"#utility.yul\":12915:13325   */\n      swap3\n      swap2\n      pop\n      pop\n      jump\t// out\n        /* \"#utility.yul\":13331:13511   */\n    tag_529:\n        /* \"#utility.yul\":13379:13456   */\n      0x4e487b7100000000000000000000000000000000000000000000000000000000\n        /* \"#utility.yul\":13376:13377   */\n      0x00\n        /* \"#utility.yul\":13369:13457   */\n      mstore\n        /* \"#utility.yul\":13476:13480   */\n      0x12\n        /* \"#utility.yul\":13473:13474   */\n      0x04\n        /* \"#utility.yul\":13466:13481   */\n      mstore\n        /* \"#utility.yul\":13500:13504   */\n      0x24\n        /* \"#utility.yul\":13497:13498   */\n      0x00\n        /* \"#utility.yul\":13490:13505   */\n      revert\n        /* \"#utility.yul\":13517:13702   */\n    tag_252:\n        /* \"#utility.yul\":13557:13558   */\n      0x00\n        /* \"#utility.yul\":13574:13594   */\n      tag_711\n        /* \"#utility.yul\":13592:13593   */\n      dup3\n        /* \"#utility.yul\":13574:13594   */\n      tag_504\n      jump\t// in\n    tag_711:\n        /* \"#utility.yul\":13569:13594   */\n      swap2\n      pop\n        /* \"#utility.yul\":13608:13628   */\n      tag_712\n        /* \"#utility.yul\":13626:13627   */\n      dup4\n        /* \"#utility.yul\":13608:13628   */\n      tag_504\n      jump\t// in\n    tag_712:\n        /* \"#utility.yul\":13603:13628   */\n      swap3\n      pop\n        /* \"#utility.yul\":13647:13648   */\n      dup3\n        /* \"#utility.yul\":13637:13672   */\n      tag_713\n      jumpi\n        /* \"#utility.yul\":13652:13670   */\n      tag_714\n      tag_529\n      jump\t// in\n    tag_714:\n        /* \"#utility.yul\":13637:13672   */\n    tag_713:\n        /* \"#utility.yul\":13694:13695   */\n      dup3\n        /* \"#utility.yul\":13691:13692   */\n      dup3\n        /* \"#utility.yul\":13687:13696   */\n      div\n        /* \"#utility.yul\":13682:13696   */\n      swap1\n      pop\n        /* \"#utility.yul\":13517:13702   */\n      swap3\n      swap2\n      pop\n      pop\n      jump\t// out\n        /* \"#utility.yul\":13708:13902   */\n    tag_254:\n        /* \"#utility.yul\":13748:13752   */\n      0x00\n        /* \"#utility.yul\":13768:13788   */\n      tag_716\n        /* \"#utility.yul\":13786:13787   */\n      dup3\n        /* \"#utility.yul\":13768:13788   */\n      tag_504\n      jump\t// in\n    tag_716:\n        /* \"#utility.yul\":13763:13788   */\n      swap2\n      pop\n        /* \"#utility.yul\":13802:13822   */\n      tag_717\n        /* \"#utility.yul\":13820:13821   */\n      dup4\n        /* \"#utility.yul\":13802:13822   */\n      tag_504\n      jump\t// in\n    tag_717:\n        /* \"#utility.yul\":13797:13822   */\n      swap3\n      pop\n        /* \"#utility.yul\":13846:13847   */\n      dup3\n        /* \"#utility.yul\":13843:13844   */\n      dup3\n        /* \"#utility.yul\":13839:13848   */\n      sub\n        /* \"#utility.yul\":13831:13848   */\n      swap1\n      pop\n        /* \"#utility.yul\":13870:13871   */\n      dup2\n        /* \"#utility.yul\":13864:13868   */\n      dup2\n        /* \"#utility.yul\":13861:13872   */\n      gt\n        /* \"#utility.yul\":13858:13895   */\n      iszero\n      tag_718\n      jumpi\n        /* \"#utility.yul\":13875:13893   */\n      tag_719\n      tag_528\n      jump\t// in\n    tag_719:\n        /* \"#utility.yul\":13858:13895   */\n    tag_718:\n        /* \"#utility.yul\":13708:13902   */\n      swap3\n      swap2\n      pop\n      pop\n      jump\t// out\n        /* \"#utility.yul\":13908:14099   */\n    tag_256:\n        /* \"#utility.yul\":13948:13951   */\n      0x00\n        /* \"#utility.yul\":13967:13987   */\n      tag_721\n        /* \"#utility.yul\":13985:13986   */\n      dup3\n        /* \"#utility.yul\":13967:13987   */\n      tag_504\n      jump\t// in\n    tag_721:\n        /* \"#utility.yul\":13962:13987   */\n      swap2\n      pop\n        /* \"#utility.yul\":14001:14021   */\n      tag_722\n        /* \"#utility.yul\":14019:14020   */\n      dup4\n        /* \"#utility.yul\":14001:14021   */\n      tag_504\n      jump\t// in\n    tag_722:\n        /* \"#utility.yul\":13996:14021   */\n      swap3\n      pop\n        /* \"#utility.yul\":14044:14045   */\n      dup3\n        /* \"#utility.yul\":14041:14042   */\n      dup3\n        /* \"#utility.yul\":14037:14046   */\n      add\n        /* \"#utility.yul\":14030:14046   */\n      swap1\n      pop\n        /* \"#utility.yul\":14065:14068   */\n      dup1\n        /* \"#utility.yul\":14062:14063   */\n      dup3\n        /* \"#utility.yul\":14059:14069   */\n      gt\n        /* \"#utility.yul\":14056:14092   */\n      iszero\n      tag_723\n      jumpi\n        /* \"#utility.yul\":14072:14090   */\n      tag_724\n      tag_528\n      jump\t// in\n    tag_724:\n        /* \"#utility.yul\":14056:14092   */\n    tag_723:\n        /* \"#utility.yul\":13908:14099   */\n      swap3\n      swap2\n      pop\n      pop\n      jump\t// out\n        /* \"#utility.yul\":14105:14269   */\n    tag_530:\n        /* \"#utility.yul\":14245:14261   */\n      0x646964206e6f742072657665616c000000000000000000000000000000000000\n        /* \"#utility.yul\":14241:14242   */\n      0x00\n        /* \"#utility.yul\":14233:14239   */\n      dup3\n        /* \"#utility.yul\":14229:14243   */\n      add\n        /* \"#utility.yul\":14222:14262   */\n      mstore\n        /* \"#utility.yul\":14105:14269   */\n      pop\n      jump\t// out\n        /* \"#utility.yul\":14275:14641   */\n    tag_531:\n        /* \"#utility.yul\":14417:14420   */\n      0x00\n        /* \"#utility.yul\":14438:14505   */\n      tag_727\n        /* \"#utility.yul\":14502:14504   */\n      0x0e\n        /* \"#utility.yul\":14497:14500   */\n      dup4\n        /* \"#utility.yul\":14438:14505   */\n      tag_515\n      jump\t// in\n    tag_727:\n        /* \"#utility.yul\":14431:14505   */\n      swap2\n      pop\n        /* \"#utility.yul\":14514:14607   */\n      tag_728\n        /* \"#utility.yul\":14603:14606   */\n      dup3\n        /* \"#utility.yul\":14514:14607   */\n      tag_530\n      jump\t// in\n    tag_728:\n        /* \"#utility.yul\":14632:14634   */\n      0x20\n        /* \"#utility.yul\":14627:14630   */\n      dup3\n        /* \"#utility.yul\":14623:14635   */\n      add\n        /* \"#utility.yul\":14616:14635   */\n      swap1\n      pop\n        /* \"#utility.yul\":14275:14641   */\n      swap2\n      swap1\n      pop\n      jump\t// out\n        /* \"#utility.yul\":14647:15176   */\n    tag_258:\n        /* \"#utility.yul\":14841:14845   */\n      0x00\n        /* \"#utility.yul\":14879:14881   */\n      0x40\n        /* \"#utility.yul\":14868:14877   */\n      dup3\n        /* \"#utility.yul\":14864:14882   */\n      add\n        /* \"#utility.yul\":14856:14882   */\n      swap1\n      pop\n        /* \"#utility.yul\":14892:14963   */\n      tag_730\n        /* \"#utility.yul\":14960:14961   */\n      0x00\n        /* \"#utility.yul\":14949:14958   */\n      dup4\n        /* \"#utility.yul\":14945:14962   */\n      add\n        /* \"#utility.yul\":14936:14942   */\n      dup5\n        /* \"#utility.yul\":14892:14963   */\n      tag_505\n      jump\t// in\n    tag_730:\n        /* \"#utility.yul\":15010:15019   */\n      dup2\n        /* \"#utility.yul\":15004:15008   */\n      dup2\n        /* \"#utility.yul\":15000:15020   */\n      sub\n        /* \"#utility.yul\":14995:14997   */\n      0x20\n        /* \"#utility.yul\":14984:14993   */\n      dup4\n        /* \"#utility.yul\":14980:14998   */\n      add\n        /* \"#utility.yul\":14973:15021   */\n      mstore\n        /* \"#utility.yul\":15038:15169   */\n      tag_731\n        /* \"#utility.yul\":15164:15168   */\n      dup2\n        /* \"#utility.yul\":15038:15169   */\n      tag_531\n      jump\t// in\n    tag_731:\n        /* \"#utility.yul\":15030:15169   */\n      swap1\n      pop\n        /* \"#utility.yul\":14647:15176   */\n      swap3\n      swap2\n      pop\n      pop\n      jump\t// out\n        /* \"#utility.yul\":15182:15329   */\n    tag_532:\n        /* \"#utility.yul\":15283:15294   */\n      0x00\n        /* \"#utility.yul\":15320:15323   */\n      dup2\n        /* \"#utility.yul\":15305:15323   */\n      swap1\n      pop\n        /* \"#utility.yul\":15182:15329   */\n      swap3\n      swap2\n      pop\n      pop\n      jump\t// out\n        /* \"#utility.yul\":15335:15449   */\n    tag_533:\n      pop\n      jump\t// out\n        /* \"#utility.yul\":15455:15853   */\n    tag_534:\n        /* \"#utility.yul\":15614:15617   */\n      0x00\n        /* \"#utility.yul\":15635:15718   */\n      tag_735\n        /* \"#utility.yul\":15716:15717   */\n      0x00\n        /* \"#utility.yul\":15711:15714   */\n      dup4\n        /* \"#utility.yul\":15635:15718   */\n      tag_532\n      jump\t// in\n    tag_735:\n        /* \"#utility.yul\":15628:15718   */\n      swap2\n      pop\n        /* \"#utility.yul\":15727:15820   */\n      tag_736\n        /* \"#utility.yul\":15816:15819   */\n      dup3\n        /* \"#utility.yul\":15727:15820   */\n      tag_533\n      jump\t// in\n    tag_736:\n        /* \"#utility.yul\":15845:15846   */\n      0x00\n        /* \"#utility.yul\":15840:15843   */\n      dup3\n        /* \"#utility.yul\":15836:15847   */\n      add\n        /* \"#utility.yul\":15829:15847   */\n      swap1\n      pop\n        /* \"#utility.yul\":15455:15853   */\n      swap2\n      swap1\n      pop\n      jump\t// out\n        /* \"#utility.yul\":15859:16238   */\n    tag_260:\n        /* \"#utility.yul\":16043:16046   */\n      0x00\n        /* \"#utility.yul\":16065:16212   */\n      tag_738\n        /* \"#utility.yul\":16208:16211   */\n      dup3\n        /* \"#utility.yul\":16065:16212   */\n      tag_534\n      jump\t// in\n    tag_738:\n        /* \"#utility.yul\":16058:16212   */\n      swap2\n      pop\n        /* \"#utility.yul\":16229:16232   */\n      dup2\n        /* \"#utility.yul\":16222:16232   */\n      swap1\n      pop\n        /* \"#utility.yul\":15859:16238   */\n      swap2\n      swap1\n      pop\n      jump\t// out\n        /* \"#utility.yul\":16244:16408   */\n    tag_535:\n        /* \"#utility.yul\":16384:16400   */\n      0x5472616e736665722066616c6c6f000000000000000000000000000000000000\n        /* \"#utility.yul\":16380:16381   */\n      0x00\n        /* \"#utility.yul\":16372:16378   */\n      dup3\n        /* \"#utility.yul\":16368:16382   */\n      add\n        /* \"#utility.yul\":16361:16401   */\n      mstore\n        /* \"#utility.yul\":16244:16408   */\n      pop\n      jump\t// out\n        /* \"#utility.yul\":16414:16780   */\n    tag_536:\n        /* \"#utility.yul\":16556:16559   */\n      0x00\n        /* \"#utility.yul\":16577:16644   */\n      tag_741\n        /* \"#utility.yul\":16641:16643   */\n      0x0e\n        /* \"#utility.yul\":16636:16639   */\n      dup4\n        /* \"#utility.yul\":16577:16644   */\n      tag_515\n      jump\t// in\n    tag_741:\n        /* \"#utility.yul\":16570:16644   */\n      swap2\n      pop\n        /* \"#utility.yul\":16653:16746   */\n      tag_742\n        /* \"#utility.yul\":16742:16745   */\n      dup3\n        /* \"#utility.yul\":16653:16746   */\n      tag_535\n      jump\t// in\n    tag_742:\n        /* \"#utility.yul\":16771:16773   */\n      0x20\n        /* \"#utility.yul\":16766:16769   */\n      dup3\n        /* \"#utility.yul\":16762:16774   */\n      add\n        /* \"#utility.yul\":16755:16774   */\n      swap1\n      pop\n        /* \"#utility.yul\":16414:16780   */\n      swap2\n      swap1\n      pop\n      jump\t// out\n        /* \"#utility.yul\":16786:17205   */\n    tag_266:\n        /* \"#utility.yul\":16952:16956   */\n      0x00\n        /* \"#utility.yul\":16990:16992   */\n      0x20\n        /* \"#utility.yul\":16979:16988   */\n      dup3\n        /* \"#utility.yul\":16975:16993   */\n      add\n        /* \"#utility.yul\":16967:16993   */\n      swap1\n      pop\n        /* \"#utility.yul\":17039:17048   */\n      dup2\n        /* \"#utility.yul\":17033:17037   */\n      dup2\n        /* \"#utility.yul\":17029:17049   */\n      sub\n        /* \"#utility.yul\":17025:17026   */\n      0x00\n        /* \"#utility.yul\":17014:17023   */\n      dup4\n        /* \"#utility.yul\":17010:17027   */\n      add\n        /* \"#utility.yul\":17003:17050   */\n      mstore\n        /* \"#utility.yul\":17067:17198   */\n      tag_744\n        /* \"#utility.yul\":17193:17197   */\n      dup2\n        /* \"#utility.yul\":17067:17198   */\n      tag_536\n      jump\t// in\n    tag_744:\n        /* \"#utility.yul\":17059:17198   */\n      swap1\n      pop\n        /* \"#utility.yul\":16786:17205   */\n      swap2\n      swap1\n      pop\n      jump\t// out\n        /* \"#utility.yul\":17211:17764   */\n    tag_283:\n        /* \"#utility.yul\":17388:17392   */\n      0x00\n        /* \"#utility.yul\":17426:17429   */\n      0x80\n        /* \"#utility.yul\":17415:17424   */\n      dup3\n        /* \"#utility.yul\":17411:17430   */\n      add\n        /* \"#utility.yul\":17403:17430   */\n      swap1\n      pop\n        /* \"#utility.yul\":17440:17511   */\n      tag_746\n        /* \"#utility.yul\":17508:17509   */\n      0x00\n        /* \"#utility.yul\":17497:17506   */\n      dup4\n        /* \"#utility.yul\":17493:17510   */\n      add\n        /* \"#utility.yul\":17484:17490   */\n      dup8\n        /* \"#utility.yul\":17440:17511   */\n      tag_505\n      jump\t// in\n    tag_746:\n        /* \"#utility.yul\":17521:17593   */\n      tag_747\n        /* \"#utility.yul\":17589:17591   */\n      0x20\n        /* \"#utility.yul\":17578:17587   */\n      dup4\n        /* \"#utility.yul\":17574:17592   */\n      add\n        /* \"#utility.yul\":17565:17571   */\n      dup7\n        /* \"#utility.yul\":17521:17593   */\n      tag_511\n      jump\t// in\n    tag_747:\n        /* \"#utility.yul\":17603:17675   */\n      tag_748\n        /* \"#utility.yul\":17671:17673   */\n      0x40\n        /* \"#utility.yul\":17660:17669   */\n      dup4\n        /* \"#utility.yul\":17656:17674   */\n      add\n        /* \"#utility.yul\":17647:17653   */\n      dup6\n        /* \"#utility.yul\":17603:17675   */\n      tag_514\n      jump\t// in\n    tag_748:\n        /* \"#utility.yul\":17685:17757   */\n      tag_749\n        /* \"#utility.yul\":17753:17755   */\n      0x60\n        /* \"#utility.yul\":17742:17751   */\n      dup4\n        /* \"#utility.yul\":17738:17756   */\n      add\n        /* \"#utility.yul\":17729:17735   */\n      dup5\n        /* \"#utility.yul\":17685:17757   */\n      tag_514\n      jump\t// in\n    tag_749:\n        /* \"#utility.yul\":17211:17764   */\n      swap6\n      swap5\n      pop\n      pop\n      pop\n      pop\n      pop\n      jump\t// out\n        /* \"#utility.yul\":17770:17938   */\n    tag_537:\n        /* \"#utility.yul\":17910:17930   */\n      0x52657665616c206e6f20696e6963696164610000000000000000000000000000\n        /* \"#utility.yul\":17906:17907   */\n      0x00\n        /* \"#utility.yul\":17898:17904   */\n      dup3\n        /* \"#utility.yul\":17894:17908   */\n      add\n        /* \"#utility.yul\":17887:17931   */\n      mstore\n        /* \"#utility.yul\":17770:17938   */\n      pop\n      jump\t// out\n        /* \"#utility.yul\":17944:18310   */\n    tag_538:\n        /* \"#utility.yul\":18086:18089   */\n      0x00\n        /* \"#utility.yul\":18107:18174   */\n      tag_752\n        /* \"#utility.yul\":18171:18173   */\n      0x12\n        /* \"#utility.yul\":18166:18169   */\n      dup4\n        /* \"#utility.yul\":18107:18174   */\n      tag_515\n      jump\t// in\n    tag_752:\n        /* \"#utility.yul\":18100:18174   */\n      swap2\n      pop\n        /* \"#utility.yul\":18183:18276   */\n      tag_753\n        /* \"#utility.yul\":18272:18275   */\n      dup3\n        /* \"#utility.yul\":18183:18276   */\n      tag_537\n      jump\t// in\n    tag_753:\n        /* \"#utility.yul\":18301:18303   */\n      0x20\n        /* \"#utility.yul\":18296:18299   */\n      dup3\n        /* \"#utility.yul\":18292:18304   */\n      add\n        /* \"#utility.yul\":18285:18304   */\n      swap1\n      pop\n        /* \"#utility.yul\":17944:18310   */\n      swap2\n      swap1\n      pop\n      jump\t// out\n        /* \"#utility.yul\":18316:18735   */\n    tag_287:\n        /* \"#utility.yul\":18482:18486   */\n      0x00\n        /* \"#utility.yul\":18520:18522   */\n      0x20\n        /* \"#utility.yul\":18509:18518   */\n      dup3\n        /* \"#utility.yul\":18505:18523   */\n      add\n        /* \"#utility.yul\":18497:18523   */\n      swap1\n      pop\n        /* \"#utility.yul\":18569:18578   */\n      dup2\n        /* \"#utility.yul\":18563:18567   */\n      dup2\n        /* \"#utility.yul\":18559:18579   */\n      sub\n        /* \"#utility.yul\":18555:18556   */\n      0x00\n        /* \"#utility.yul\":18544:18553   */\n      dup4\n        /* \"#utility.yul\":18540:18557   */\n      add\n        /* \"#utility.yul\":18533:18580   */\n      mstore\n        /* \"#utility.yul\":18597:18728   */\n      tag_755\n        /* \"#utility.yul\":18723:18727   */\n      dup2\n        /* \"#utility.yul\":18597:18728   */\n      tag_538\n      jump\t// in\n    tag_755:\n        /* \"#utility.yul\":18589:18728   */\n      swap1\n      pop\n        /* \"#utility.yul\":18316:18735   */\n      swap2\n      swap1\n      pop\n      jump\t// out\n        /* \"#utility.yul\":18741:18905   */\n    tag_539:\n        /* \"#utility.yul\":18881:18897   */\n      0x52657665616c2063657272616461000000000000000000000000000000000000\n        /* \"#utility.yul\":18877:18878   */\n      0x00\n        /* \"#utility.yul\":18869:18875   */\n      dup3\n        /* \"#utility.yul\":18865:18879   */\n      add\n        /* \"#utility.yul\":18858:18898   */\n      mstore\n        /* \"#utility.yul\":18741:18905   */\n      pop\n      jump\t// out\n        /* \"#utility.yul\":18911:19277   */\n    tag_540:\n        /* \"#utility.yul\":19053:19056   */\n      0x00\n        /* \"#utility.yul\":19074:19141   */\n      tag_758\n        /* \"#utility.yul\":19138:19140   */\n      0x0e\n        /* \"#utility.yul\":19133:19136   */\n      dup4\n        /* \"#utility.yul\":19074:19141   */\n      tag_515\n      jump\t// in\n    tag_758:\n        /* \"#utility.yul\":19067:19141   */\n      swap2\n      pop\n        /* \"#utility.yul\":19150:19243   */\n      tag_759\n        /* \"#utility.yul\":19239:19242   */\n      dup3\n        /* \"#utility.yul\":19150:19243   */\n      tag_539\n      jump\t// in\n    tag_759:\n        /* \"#utility.yul\":19268:19270   */\n      0x20\n        /* \"#utility.yul\":19263:19266   */\n      dup3\n        /* \"#utility.yul\":19259:19271   */\n      add\n        /* \"#utility.yul\":19252:19271   */\n      swap1\n      pop\n        /* \"#utility.yul\":18911:19277   */\n      swap2\n      swap1\n      pop\n      jump\t// out\n        /* \"#utility.yul\":19283:19702   */\n    tag_290:\n        /* \"#utility.yul\":19449:19453   */\n      0x00\n        /* \"#utility.yul\":19487:19489   */\n      0x20\n        /* \"#utility.yul\":19476:19485   */\n      dup3\n        /* \"#utility.yul\":19472:19490   */\n      add\n        /* \"#utility.yul\":19464:19490   */\n      swap1\n      pop\n        /* \"#utility.yul\":19536:19545   */\n      dup2\n        /* \"#utility.yul\":19530:19534   */\n      dup2\n        /* \"#utility.yul\":19526:19546   */\n      sub\n        /* \"#utility.yul\":19522:19523   */\n      0x00\n        /* \"#utility.yul\":19511:19520   */\n      dup4\n        /* \"#utility.yul\":19507:19524   */\n      add\n        /* \"#utility.yul\":19500:19547   */\n      mstore\n        /* \"#utility.yul\":19564:19695   */\n      tag_761\n        /* \"#utility.yul\":19690:19694   */\n      dup2\n        /* \"#utility.yul\":19564:19695   */\n      tag_540\n      jump\t// in\n    tag_761:\n        /* \"#utility.yul\":19556:19695   */\n      swap1\n      pop\n        /* \"#utility.yul\":19283:19702   */\n      swap2\n      swap1\n      pop\n      jump\t// out\n        /* \"#utility.yul\":19708:19870   */\n    tag_541:\n        /* \"#utility.yul\":19848:19862   */\n      0x596120726576656c617374650000000000000000000000000000000000000000\n        /* \"#utility.yul\":19844:19845   */\n      0x00\n        /* \"#utility.yul\":19836:19842   */\n      dup3\n        /* \"#utility.yul\":19832:19846   */\n      add\n        /* \"#utility.yul\":19825:19863   */\n      mstore\n        /* \"#utility.yul\":19708:19870   */\n      pop\n      jump\t// out\n        /* \"#utility.yul\":19876:20242   */\n    tag_542:\n        /* \"#utility.yul\":20018:20021   */\n      0x00\n        /* \"#utility.yul\":20039:20106   */\n      tag_764\n        /* \"#utility.yul\":20103:20105   */\n      0x0c\n        /* \"#utility.yul\":20098:20101   */\n      dup4\n        /* \"#utility.yul\":20039:20106   */\n      tag_515\n      jump\t// in\n    tag_764:\n        /* \"#utility.yul\":20032:20106   */\n      swap2\n      pop\n        /* \"#utility.yul\":20115:20208   */\n      tag_765\n        /* \"#utility.yul\":20204:20207   */\n      dup3\n        /* \"#utility.yul\":20115:20208   */\n      tag_541\n      jump\t// in\n    tag_765:\n        /* \"#utility.yul\":20233:20235   */\n      0x20\n        /* \"#utility.yul\":20228:20231   */\n      dup3\n        /* \"#utility.yul\":20224:20236   */\n      add\n        /* \"#utility.yul\":20217:20236   */\n      swap1\n      pop\n        /* \"#utility.yul\":19876:20242   */\n      swap2\n      swap1\n      pop\n      jump\t// out\n        /* \"#utility.yul\":20248:20667   */\n    tag_296:\n        /* \"#utility.yul\":20414:20418   */\n      0x00\n        /* \"#utility.yul\":20452:20454   */\n      0x20\n        /* \"#utility.yul\":20441:20450   */\n      dup3\n        /* \"#utility.yul\":20437:20455   */\n      add\n        /* \"#utility.yul\":20429:20455   */\n      swap1\n      pop\n        /* \"#utility.yul\":20501:20510   */\n      dup2\n        /* \"#utility.yul\":20495:20499   */\n      dup2\n        /* \"#utility.yul\":20491:20511   */\n      sub\n        /* \"#utility.yul\":20487:20488   */\n      0x00\n        /* \"#utility.yul\":20476:20485   */\n      dup4\n        /* \"#utility.yul\":20472:20489   */\n      add\n        /* \"#utility.yul\":20465:20512   */\n      mstore\n        /* \"#utility.yul\":20529:20660   */\n      tag_767\n        /* \"#utility.yul\":20655:20659   */\n      dup2\n        /* \"#utility.yul\":20529:20660   */\n      tag_542\n      jump\t// in\n    tag_767:\n        /* \"#utility.yul\":20521:20660   */\n      swap1\n      pop\n        /* \"#utility.yul\":20248:20667   */\n      swap2\n      swap1\n      pop\n      jump\t// out\n        /* \"#utility.yul\":20673:20835   */\n    tag_543:\n        /* \"#utility.yul\":20813:20827   */\n      0x426964203c206669616e7a610000000000000000000000000000000000000000\n        /* \"#utility.yul\":20809:20810   */\n      0x00\n        /* \"#utility.yul\":20801:20807   */\n      dup3\n        /* \"#utility.yul\":20797:20811   */\n      add\n        /* \"#utility.yul\":20790:20828   */\n      mstore\n        /* \"#utility.yul\":20673:20835   */\n      pop\n      jump\t// out\n        /* \"#utility.yul\":20841:21207   */\n    tag_544:\n        /* \"#utility.yul\":20983:20986   */\n      0x00\n        /* \"#utility.yul\":21004:21071   */\n      tag_770\n        /* \"#utility.yul\":21068:21070   */\n      0x0c\n        /* \"#utility.yul\":21063:21066   */\n      dup4\n        /* \"#utility.yul\":21004:21071   */\n      tag_515\n      jump\t// in\n    tag_770:\n        /* \"#utility.yul\":20997:21071   */\n      swap2\n      pop\n        /* \"#utility.yul\":21080:21173   */\n      tag_771\n        /* \"#utility.yul\":21169:21172   */\n      dup3\n        /* \"#utility.yul\":21080:21173   */\n      tag_543\n      jump\t// in\n    tag_771:\n        /* \"#utility.yul\":21198:21200   */\n      0x20\n        /* \"#utility.yul\":21193:21196   */\n      dup3\n        /* \"#utility.yul\":21189:21201   */\n      add\n        /* \"#utility.yul\":21182:21201   */\n      swap1\n      pop\n        /* \"#utility.yul\":20841:21207   */\n      swap2\n      swap1\n      pop\n      jump\t// out\n        /* \"#utility.yul\":21213:21632   */\n    tag_299:\n        /* \"#utility.yul\":21379:21383   */\n      0x00\n        /* \"#utility.yul\":21417:21419   */\n      0x20\n        /* \"#utility.yul\":21406:21415   */\n      dup3\n        /* \"#utility.yul\":21402:21420   */\n      add\n        /* \"#utility.yul\":21394:21420   */\n      swap1\n      pop\n        /* \"#utility.yul\":21466:21475   */\n      dup2\n        /* \"#utility.yul\":21460:21464   */\n      dup2\n        /* \"#utility.yul\":21456:21476   */\n      sub\n        /* \"#utility.yul\":21452:21453   */\n      0x00\n        /* \"#utility.yul\":21441:21450   */\n      dup4\n        /* \"#utility.yul\":21437:21454   */\n      add\n        /* \"#utility.yul\":21430:21477   */\n      mstore\n        /* \"#utility.yul\":21494:21625   */\n      tag_773\n        /* \"#utility.yul\":21620:21624   */\n      dup2\n        /* \"#utility.yul\":21494:21625   */\n      tag_544\n      jump\t// in\n    tag_773:\n        /* \"#utility.yul\":21486:21625   */\n      swap1\n      pop\n        /* \"#utility.yul\":21213:21632   */\n      swap2\n      swap1\n      pop\n      jump\t// out\n        /* \"#utility.yul\":21638:21803   */\n    tag_545:\n        /* \"#utility.yul\":21778:21795   */\n      0x52657665616c20696e76616c69646f0000000000000000000000000000000000\n        /* \"#utility.yul\":21774:21775   */\n      0x00\n        /* \"#utility.yul\":21766:21772   */\n      dup3\n        /* \"#utility.yul\":21762:21776   */\n      add\n        /* \"#utility.yul\":21755:21796   */\n      mstore\n        /* \"#utility.yul\":21638:21803   */\n      pop\n      jump\t// out\n        /* \"#utility.yul\":21809:22175   */\n    tag_546:\n        /* \"#utility.yul\":21951:21954   */\n      0x00\n        /* \"#utility.yul\":21972:22039   */\n      tag_776\n        /* \"#utility.yul\":22036:22038   */\n      0x0f\n        /* \"#utility.yul\":22031:22034   */\n      dup4\n        /* \"#utility.yul\":21972:22039   */\n      tag_515\n      jump\t// in\n    tag_776:\n        /* \"#utility.yul\":21965:22039   */\n      swap2\n      pop\n        /* \"#utility.yul\":22048:22141   */\n      tag_777\n        /* \"#utility.yul\":22137:22140   */\n      dup3\n        /* \"#utility.yul\":22048:22141   */\n      tag_545\n      jump\t// in\n    tag_777:\n        /* \"#utility.yul\":22166:22168   */\n      0x20\n        /* \"#utility.yul\":22161:22164   */\n      dup3\n        /* \"#utility.yul\":22157:22169   */\n      add\n        /* \"#utility.yul\":22150:22169   */\n      swap1\n      pop\n        /* \"#utility.yul\":21809:22175   */\n      swap2\n      swap1\n      pop\n      jump\t// out\n        /* \"#utility.yul\":22181:22600   */\n    tag_303:\n        /* \"#utility.yul\":22347:22351   */\n      0x00\n        /* \"#utility.yul\":22385:22387   */\n      0x20\n        /* \"#utility.yul\":22374:22383   */\n      dup3\n        /* \"#utility.yul\":22370:22388   */\n      add\n        /* \"#utility.yul\":22362:22388   */\n      swap1\n      pop\n        /* \"#utility.yul\":22434:22443   */\n      dup2\n        /* \"#utility.yul\":22428:22432   */\n      dup2\n        /* \"#utility.yul\":22424:22444   */\n      sub\n        /* \"#utility.yul\":22420:22421   */\n      0x00\n        /* \"#utility.yul\":22409:22418   */\n      dup4\n        /* \"#utility.yul\":22405:22422   */\n      add\n        /* \"#utility.yul\":22398:22445   */\n      mstore\n        /* \"#utility.yul\":22462:22593   */\n      tag_779\n        /* \"#utility.yul\":22588:22592   */\n      dup2\n        /* \"#utility.yul\":22462:22593   */\n      tag_546\n      jump\t// in\n    tag_779:\n        /* \"#utility.yul\":22454:22593   */\n      swap1\n      pop\n        /* \"#utility.yul\":22181:22600   */\n      swap2\n      swap1\n      pop\n      jump\t// out\n        /* \"#utility.yul\":22606:22775   */\n    tag_547:\n        /* \"#utility.yul\":22746:22767   */\n      0x52657665616c206e6f207465726d696e61646f00000000000000000000000000\n        /* \"#utility.yul\":22742:22743   */\n      0x00\n        /* \"#utility.yul\":22734:22740   */\n      dup3\n        /* \"#utility.yul\":22730:22744   */\n      add\n        /* \"#utility.yul\":22723:22768   */\n      mstore\n        /* \"#utility.yul\":22606:22775   */\n      pop\n      jump\t// out\n        /* \"#utility.yul\":22781:23147   */\n    tag_548:\n        /* \"#utility.yul\":22923:22926   */\n      0x00\n        /* \"#utility.yul\":22944:23011   */\n      tag_782\n        /* \"#utility.yul\":23008:23010   */\n      0x13\n        /* \"#utility.yul\":23003:23006   */\n      dup4\n        /* \"#utility.yul\":22944:23011   */\n      tag_515\n      jump\t// in\n    tag_782:\n        /* \"#utility.yul\":22937:23011   */\n      swap2\n      pop\n        /* \"#utility.yul\":23020:23113   */\n      tag_783\n        /* \"#utility.yul\":23109:23112   */\n      dup3\n        /* \"#utility.yul\":23020:23113   */\n      tag_547\n      jump\t// in\n    tag_783:\n        /* \"#utility.yul\":23138:23140   */\n      0x20\n        /* \"#utility.yul\":23133:23136   */\n      dup3\n        /* \"#utility.yul\":23129:23141   */\n      add\n        /* \"#utility.yul\":23122:23141   */\n      swap1\n      pop\n        /* \"#utility.yul\":22781:23147   */\n      swap2\n      swap1\n      pop\n      jump\t// out\n        /* \"#utility.yul\":23153:23572   */\n    tag_310:\n        /* \"#utility.yul\":23319:23323   */\n      0x00\n        /* \"#utility.yul\":23357:23359   */\n      0x20\n        /* \"#utility.yul\":23346:23355   */\n      dup3\n        /* \"#utility.yul\":23342:23360   */\n      add\n        /* \"#utility.yul\":23334:23360   */\n      swap1\n      pop\n        /* \"#utility.yul\":23406:23415   */\n      dup2\n        /* \"#utility.yul\":23400:23404   */\n      dup2\n        /* \"#utility.yul\":23396:23416   */\n      sub\n        /* \"#utility.yul\":23392:23393   */\n      0x00\n        /* \"#utility.yul\":23381:23390   */\n      dup4\n        /* \"#utility.yul\":23377:23394   */\n      add\n        /* \"#utility.yul\":23370:23417   */\n      mstore\n        /* \"#utility.yul\":23434:23565   */\n      tag_785\n        /* \"#utility.yul\":23560:23564   */\n      dup2\n        /* \"#utility.yul\":23434:23565   */\n      tag_548\n      jump\t// in\n    tag_785:\n        /* \"#utility.yul\":23426:23565   */\n      swap1\n      pop\n        /* \"#utility.yul\":23153:23572   */\n      swap2\n      swap1\n      pop\n      jump\t// out\n        /* \"#utility.yul\":23578:23741   */\n    tag_549:\n        /* \"#utility.yul\":23718:23733   */\n      0x59612066696e616c697a61646f00000000000000000000000000000000000000\n        /* \"#utility.yul\":23714:23715   */\n      0x00\n        /* \"#utility.yul\":23706:23712   */\n      dup3\n        /* \"#utility.yul\":23702:23716   */\n      add\n        /* \"#utility.yul\":23695:23734   */\n      mstore\n        /* \"#utility.yul\":23578:23741   */\n      pop\n      jump\t// out\n        /* \"#utility.yul\":23747:24113   */\n    tag_550:\n        /* \"#utility.yul\":23889:23892   */\n      0x00\n        /* \"#utility.yul\":23910:23977   */\n      tag_788\n        /* \"#utility.yul\":23974:23976   */\n      0x0d\n        /* \"#utility.yul\":23969:23972   */\n      dup4\n        /* \"#utility.yul\":23910:23977   */\n      tag_515\n      jump\t// in\n    tag_788:\n        /* \"#utility.yul\":23903:23977   */\n      swap2\n      pop\n        /* \"#utility.yul\":23986:24079   */\n      tag_789\n        /* \"#utility.yul\":24075:24078   */\n      dup3\n        /* \"#utility.yul\":23986:24079   */\n      tag_549\n      jump\t// in\n    tag_789:\n        /* \"#utility.yul\":24104:24106   */\n      0x20\n        /* \"#utility.yul\":24099:24102   */\n      dup3\n        /* \"#utility.yul\":24095:24107   */\n      add\n        /* \"#utility.yul\":24088:24107   */\n      swap1\n      pop\n        /* \"#utility.yul\":23747:24113   */\n      swap2\n      swap1\n      pop\n      jump\t// out\n        /* \"#utility.yul\":24119:24538   */\n    tag_314:\n        /* \"#utility.yul\":24285:24289   */\n      0x00\n        /* \"#utility.yul\":24323:24325   */\n      0x20\n        /* \"#utility.yul\":24312:24321   */\n      dup3\n        /* \"#utility.yul\":24308:24326   */\n      add\n        /* \"#utility.yul\":24300:24326   */\n      swap1\n      pop\n        /* \"#utility.yul\":24372:24381   */\n      dup2\n        /* \"#utility.yul\":24366:24370   */\n      dup2\n        /* \"#utility.yul\":24362:24382   */\n      sub\n        /* \"#utility.yul\":24358:24359   */\n      0x00\n        /* \"#utility.yul\":24347:24356   */\n      dup4\n        /* \"#utility.yul\":24343:24360   */\n      add\n        /* \"#utility.yul\":24336:24383   */\n      mstore\n        /* \"#utility.yul\":24400:24531   */\n      tag_791\n        /* \"#utility.yul\":24526:24530   */\n      dup2\n        /* \"#utility.yul\":24400:24531   */\n      tag_550\n      jump\t// in\n    tag_791:\n        /* \"#utility.yul\":24392:24531   */\n      swap1\n      pop\n        /* \"#utility.yul\":24119:24538   */\n      swap2\n      swap1\n      pop\n      jump\t// out\n        /* \"#utility.yul\":24544:24876   */\n    tag_327:\n        /* \"#utility.yul\":24665:24669   */\n      0x00\n        /* \"#utility.yul\":24703:24705   */\n      0x40\n        /* \"#utility.yul\":24692:24701   */\n      dup3\n        /* \"#utility.yul\":24688:24706   */\n      add\n        /* \"#utility.yul\":24680:24706   */\n      swap1\n      pop\n        /* \"#utility.yul\":24716:24787   */\n      tag_793\n        /* \"#utility.yul\":24784:24785   */\n      0x00\n        /* \"#utility.yul\":24773:24782   */\n      dup4\n        /* \"#utility.yul\":24769:24786   */\n      add\n        /* \"#utility.yul\":24760:24766   */\n      dup6\n        /* \"#utility.yul\":24716:24787   */\n      tag_505\n      jump\t// in\n    tag_793:\n        /* \"#utility.yul\":24797:24869   */\n      tag_794\n        /* \"#utility.yul\":24865:24867   */\n      0x20\n        /* \"#utility.yul\":24854:24863   */\n      dup4\n        /* \"#utility.yul\":24850:24868   */\n      add\n        /* \"#utility.yul\":24841:24847   */\n      dup5\n        /* \"#utility.yul\":24797:24869   */\n      tag_505\n      jump\t// in\n    tag_794:\n        /* \"#utility.yul\":24544:24876   */\n      swap4\n      swap3\n      pop\n      pop\n      pop\n      jump\t// out\n        /* \"#utility.yul\":24882:25040   */\n    tag_551:\n        /* \"#utility.yul\":25022:25032   */\n      0x616d6f756e743d30000000000000000000000000000000000000000000000000\n        /* \"#utility.yul\":25018:25019   */\n      0x00\n        /* \"#utility.yul\":25010:25016   */\n      dup3\n        /* \"#utility.yul\":25006:25020   */\n      add\n        /* \"#utility.yul\":24999:25033   */\n      mstore\n        /* \"#utility.yul\":24882:25040   */\n      pop\n      jump\t// out\n        /* \"#utility.yul\":25046:25411   */\n    tag_552:\n        /* \"#utility.yul\":25188:25191   */\n      0x00\n        /* \"#utility.yul\":25209:25275   */\n      tag_797\n        /* \"#utility.yul\":25273:25274   */\n      0x08\n        /* \"#utility.yul\":25268:25271   */\n      dup4\n        /* \"#utility.yul\":25209:25275   */\n      tag_515\n      jump\t// in\n    tag_797:\n        /* \"#utility.yul\":25202:25275   */\n      swap2\n      pop\n        /* \"#utility.yul\":25284:25377   */\n      tag_798\n        /* \"#utility.yul\":25373:25376   */\n      dup3\n        /* \"#utility.yul\":25284:25377   */\n      tag_551\n      jump\t// in\n    tag_798:\n        /* \"#utility.yul\":25402:25404   */\n      0x20\n        /* \"#utility.yul\":25397:25400   */\n      dup3\n        /* \"#utility.yul\":25393:25405   */\n      add\n        /* \"#utility.yul\":25386:25405   */\n      swap1\n      pop\n        /* \"#utility.yul\":25046:25411   */\n      swap2\n      swap1\n      pop\n      jump\t// out\n        /* \"#utility.yul\":25417:25836   */\n    tag_333:\n        /* \"#utility.yul\":25583:25587   */\n      0x00\n        /* \"#utility.yul\":25621:25623   */\n      0x20\n        /* \"#utility.yul\":25610:25619   */\n      dup3\n        /* \"#utility.yul\":25606:25624   */\n      add\n        /* \"#utility.yul\":25598:25624   */\n      swap1\n      pop\n        /* \"#utility.yul\":25670:25679   */\n      dup2\n        /* \"#utility.yul\":25664:25668   */\n      dup2\n        /* \"#utility.yul\":25660:25680   */\n      sub\n        /* \"#utility.yul\":25656:25657   */\n      0x00\n        /* \"#utility.yul\":25645:25654   */\n      dup4\n        /* \"#utility.yul\":25641:25658   */\n      add\n        /* \"#utility.yul\":25634:25681   */\n      mstore\n        /* \"#utility.yul\":25698:25829   */\n      tag_800\n        /* \"#utility.yul\":25824:25828   */\n      dup2\n        /* \"#utility.yul\":25698:25829   */\n      tag_552\n      jump\t// in\n    tag_800:\n        /* \"#utility.yul\":25690:25829   */\n      swap1\n      pop\n        /* \"#utility.yul\":25417:25836   */\n      swap2\n      swap1\n      pop\n      jump\t// out\n        /* \"#utility.yul\":25842:26004   */\n    tag_553:\n        /* \"#utility.yul\":25982:25996   */\n      0x496e737566696369656e74650000000000000000000000000000000000000000\n        /* \"#utility.yul\":25978:25979   */\n      0x00\n        /* \"#utility.yul\":25970:25976   */\n      dup3\n        /* \"#utility.yul\":25966:25980   */\n      add\n        /* \"#utility.yul\":25959:25997   */\n      mstore\n        /* \"#utility.yul\":25842:26004   */\n      pop\n      jump\t// out\n        /* \"#utility.yul\":26010:26376   */\n    tag_554:\n        /* \"#utility.yul\":26152:26155   */\n      0x00\n        /* \"#utility.yul\":26173:26240   */\n      tag_803\n        /* \"#utility.yul\":26237:26239   */\n      0x0c\n        /* \"#utility.yul\":26232:26235   */\n      dup4\n        /* \"#utility.yul\":26173:26240   */\n      tag_515\n      jump\t// in\n    tag_803:\n        /* \"#utility.yul\":26166:26240   */\n      swap2\n      pop\n        /* \"#utility.yul\":26249:26342   */\n      tag_804\n        /* \"#utility.yul\":26338:26341   */\n      dup3\n        /* \"#utility.yul\":26249:26342   */\n      tag_553\n      jump\t// in\n    tag_804:\n        /* \"#utility.yul\":26367:26369   */\n      0x20\n        /* \"#utility.yul\":26362:26365   */\n      dup3\n        /* \"#utility.yul\":26358:26370   */\n      add\n        /* \"#utility.yul\":26351:26370   */\n      swap1\n      pop\n        /* \"#utility.yul\":26010:26376   */\n      swap2\n      swap1\n      pop\n      jump\t// out\n        /* \"#utility.yul\":26382:26801   */\n    tag_336:\n        /* \"#utility.yul\":26548:26552   */\n      0x00\n        /* \"#utility.yul\":26586:26588   */\n      0x20\n        /* \"#utility.yul\":26575:26584   */\n      dup3\n        /* \"#utility.yul\":26571:26589   */\n      add\n        /* \"#utility.yul\":26563:26589   */\n      swap1\n      pop\n        /* \"#utility.yul\":26635:26644   */\n      dup2\n        /* \"#utility.yul\":26629:26633   */\n      dup2\n        /* \"#utility.yul\":26625:26645   */\n      sub\n        /* \"#utility.yul\":26621:26622   */\n      0x00\n        /* \"#utility.yul\":26610:26619   */\n      dup4\n        /* \"#utility.yul\":26606:26623   */\n      add\n        /* \"#utility.yul\":26599:26646   */\n      mstore\n        /* \"#utility.yul\":26663:26794   */\n      tag_806\n        /* \"#utility.yul\":26789:26793   */\n      dup2\n        /* \"#utility.yul\":26663:26794   */\n      tag_554\n      jump\t// in\n    tag_806:\n        /* \"#utility.yul\":26655:26794   */\n      swap1\n      pop\n        /* \"#utility.yul\":26382:26801   */\n      swap2\n      swap1\n      pop\n      jump\t// out\n        /* \"#utility.yul\":26807:26967   */\n    tag_555:\n        /* \"#utility.yul\":26947:26959   */\n      0x536f6c6f206f776e657200000000000000000000000000000000000000000000\n        /* \"#utility.yul\":26943:26944   */\n      0x00\n        /* \"#utility.yul\":26935:26941   */\n      dup3\n        /* \"#utility.yul\":26931:26945   */\n      add\n        /* \"#utility.yul\":26924:26960   */\n      mstore\n        /* \"#utility.yul\":26807:26967   */\n      pop\n      jump\t// out\n        /* \"#utility.yul\":26973:27339   */\n    tag_556:\n        /* \"#utility.yul\":27115:27118   */\n      0x00\n        /* \"#utility.yul\":27136:27203   */\n      tag_809\n        /* \"#utility.yul\":27200:27202   */\n      0x0a\n        /* \"#utility.yul\":27195:27198   */\n      dup4\n        /* \"#utility.yul\":27136:27203   */\n      tag_515\n      jump\t// in\n    tag_809:\n        /* \"#utility.yul\":27129:27203   */\n      swap2\n      pop\n        /* \"#utility.yul\":27212:27305   */\n      tag_810\n        /* \"#utility.yul\":27301:27304   */\n      dup3\n        /* \"#utility.yul\":27212:27305   */\n      tag_555\n      jump\t// in\n    tag_810:\n        /* \"#utility.yul\":27330:27332   */\n      0x20\n        /* \"#utility.yul\":27325:27328   */\n      dup3\n        /* \"#utility.yul\":27321:27333   */\n      add\n        /* \"#utility.yul\":27314:27333   */\n      swap1\n      pop\n        /* \"#utility.yul\":26973:27339   */\n      swap2\n      swap1\n      pop\n      jump\t// out\n        /* \"#utility.yul\":27345:27764   */\n    tag_348:\n        /* \"#utility.yul\":27511:27515   */\n      0x00\n        /* \"#utility.yul\":27549:27551   */\n      0x20\n        /* \"#utility.yul\":27538:27547   */\n      dup3\n        /* \"#utility.yul\":27534:27552   */\n      add\n        /* \"#utility.yul\":27526:27552   */\n      swap1\n      pop\n        /* \"#utility.yul\":27598:27607   */\n      dup2\n        /* \"#utility.yul\":27592:27596   */\n      dup2\n        /* \"#utility.yul\":27588:27608   */\n      sub\n        /* \"#utility.yul\":27584:27585   */\n      0x00\n        /* \"#utility.yul\":27573:27582   */\n      dup4\n        /* \"#utility.yul\":27569:27586   */\n      add\n        /* \"#utility.yul\":27562:27609   */\n      mstore\n        /* \"#utility.yul\":27626:27757   */\n      tag_812\n        /* \"#utility.yul\":27752:27756   */\n      dup2\n        /* \"#utility.yul\":27626:27757   */\n      tag_556\n      jump\t// in\n    tag_812:\n        /* \"#utility.yul\":27618:27757   */\n      swap1\n      pop\n        /* \"#utility.yul\":27345:27764   */\n      swap2\n      swap1\n      pop\n      jump\t// out\n        /* \"#utility.yul\":27770:27931   */\n    tag_557:\n        /* \"#utility.yul\":27910:27923   */\n      0x5961206465736965727461000000000000000000000000000000000000000000\n        /* \"#utility.yul\":27906:27907   */\n      0x00\n        /* \"#utility.yul\":27898:27904   */\n      dup3\n        /* \"#utility.yul\":27894:27908   */\n      add\n        /* \"#utility.yul\":27887:27924   */\n      mstore\n        /* \"#utility.yul\":27770:27931   */\n      pop\n      jump\t// out\n        /* \"#utility.yul\":27937:28303   */\n    tag_558:\n        /* \"#utility.yul\":28079:28082   */\n      0x00\n        /* \"#utility.yul\":28100:28167   */\n      tag_815\n        /* \"#utility.yul\":28164:28166   */\n      0x0b\n        /* \"#utility.yul\":28159:28162   */\n      dup4\n        /* \"#utility.yul\":28100:28167   */\n      tag_515\n      jump\t// in\n    tag_815:\n        /* \"#utility.yul\":28093:28167   */\n      swap2\n      pop\n        /* \"#utility.yul\":28176:28269   */\n      tag_816\n        /* \"#utility.yul\":28265:28268   */\n      dup3\n        /* \"#utility.yul\":28176:28269   */\n      tag_557\n      jump\t// in\n    tag_816:\n        /* \"#utility.yul\":28294:28296   */\n      0x20\n        /* \"#utility.yul\":28289:28292   */\n      dup3\n        /* \"#utility.yul\":28285:28297   */\n      add\n        /* \"#utility.yul\":28278:28297   */\n      swap1\n      pop\n        /* \"#utility.yul\":27937:28303   */\n      swap2\n      swap1\n      pop\n      jump\t// out\n        /* \"#utility.yul\":28309:28728   */\n    tag_380:\n        /* \"#utility.yul\":28475:28479   */\n      0x00\n        /* \"#utility.yul\":28513:28515   */\n      0x20\n        /* \"#utility.yul\":28502:28511   */\n      dup3\n        /* \"#utility.yul\":28498:28516   */\n      add\n        /* \"#utility.yul\":28490:28516   */\n      swap1\n      pop\n        /* \"#utility.yul\":28562:28571   */\n      dup2\n        /* \"#utility.yul\":28556:28560   */\n      dup2\n        /* \"#utility.yul\":28552:28572   */\n      sub\n        /* \"#utility.yul\":28548:28549   */\n      0x00\n        /* \"#utility.yul\":28537:28546   */\n      dup4\n        /* \"#utility.yul\":28533:28550   */\n      add\n        /* \"#utility.yul\":28526:28573   */\n      mstore\n        /* \"#utility.yul\":28590:28721   */\n      tag_818\n        /* \"#utility.yul\":28716:28720   */\n      dup2\n        /* \"#utility.yul\":28590:28721   */\n      tag_558\n      jump\t// in\n    tag_818:\n        /* \"#utility.yul\":28582:28721   */\n      swap1\n      pop\n        /* \"#utility.yul\":28309:28728   */\n      swap2\n      swap1\n      pop\n      jump\t// out\n        /* \"#utility.yul\":28734:28897   */\n    tag_559:\n        /* \"#utility.yul\":28874:28889   */\n      0x596120636f6d706c657461646100000000000000000000000000000000000000\n        /* \"#utility.yul\":28870:28871   */\n      0x00\n        /* \"#utility.yul\":28862:28868   */\n      dup3\n        /* \"#utility.yul\":28858:28872   */\n      add\n        /* \"#utility.yul\":28851:28890   */\n      mstore\n        /* \"#utility.yul\":28734:28897   */\n      pop\n      jump\t// out\n        /* \"#utility.yul\":28903:29269   */\n    tag_560:\n        /* \"#utility.yul\":29045:29048   */\n      0x00\n        /* \"#utility.yul\":29066:29133   */\n      tag_821\n        /* \"#utility.yul\":29130:29132   */\n      0x0d\n        /* \"#utility.yul\":29125:29128   */\n      dup4\n        /* \"#utility.yul\":29066:29133   */\n      tag_515\n      jump\t// in\n    tag_821:\n        /* \"#utility.yul\":29059:29133   */\n      swap2\n      pop\n        /* \"#utility.yul\":29142:29235   */\n      tag_822\n        /* \"#utility.yul\":29231:29234   */\n      dup3\n        /* \"#utility.yul\":29142:29235   */\n      tag_559\n      jump\t// in\n    tag_822:\n        /* \"#utility.yul\":29260:29262   */\n      0x20\n        /* \"#utility.yul\":29255:29258   */\n      dup3\n        /* \"#utility.yul\":29251:29263   */\n      add\n        /* \"#utility.yul\":29244:29263   */\n      swap1\n      pop\n        /* \"#utility.yul\":28903:29269   */\n      swap2\n      swap1\n      pop\n      jump\t// out\n        /* \"#utility.yul\":29275:29694   */\n    tag_383:\n        /* \"#utility.yul\":29441:29445   */\n      0x00\n        /* \"#utility.yul\":29479:29481   */\n      0x20\n        /* \"#utility.yul\":29468:29477   */\n      dup3\n        /* \"#utility.yul\":29464:29482   */\n      add\n        /* \"#utility.yul\":29456:29482   */\n      swap1\n      pop\n        /* \"#utility.yul\":29528:29537   */\n      dup2\n        /* \"#utility.yul\":29522:29526   */\n      dup2\n        /* \"#utility.yul\":29518:29538   */\n      sub\n        /* \"#utility.yul\":29514:29515   */\n      0x00\n        /* \"#utility.yul\":29503:29512   */\n      dup4\n        /* \"#utility.yul\":29499:29516   */\n      add\n        /* \"#utility.yul\":29492:29539   */\n      mstore\n        /* \"#utility.yul\":29556:29687   */\n      tag_824\n        /* \"#utility.yul\":29682:29686   */\n      dup2\n        /* \"#utility.yul\":29556:29687   */\n      tag_560\n      jump\t// in\n    tag_824:\n        /* \"#utility.yul\":29548:29687   */\n      swap1\n      pop\n        /* \"#utility.yul\":29275:29694   */\n      swap2\n      swap1\n      pop\n      jump\t// out\n        /* \"#utility.yul\":29700:29861   */\n    tag_561:\n        /* \"#utility.yul\":29840:29853   */\n      0x53696e2067616e61646f72000000000000000000000000000000000000000000\n        /* \"#utility.yul\":29836:29837   */\n      0x00\n        /* \"#utility.yul\":29828:29834   */\n      dup3\n        /* \"#utility.yul\":29824:29838   */\n      add\n        /* \"#utility.yul\":29817:29854   */\n      mstore\n        /* \"#utility.yul\":29700:29861   */\n      pop\n      jump\t// out\n        /* \"#utility.yul\":29867:30233   */\n    tag_562:\n        /* \"#utility.yul\":30009:30012   */\n      0x00\n        /* \"#utility.yul\":30030:30097   */\n      tag_827\n        /* \"#utility.yul\":30094:30096   */\n      0x0b\n        /* \"#utility.yul\":30089:30092   */\n      dup4\n        /* \"#utility.yul\":30030:30097   */\n      tag_515\n      jump\t// in\n    tag_827:\n        /* \"#utility.yul\":30023:30097   */\n      swap2\n      pop\n        /* \"#utility.yul\":30106:30199   */\n      tag_828\n        /* \"#utility.yul\":30195:30198   */\n      dup3\n        /* \"#utility.yul\":30106:30199   */\n      tag_561\n      jump\t// in\n    tag_828:\n        /* \"#utility.yul\":30224:30226   */\n      0x20\n        /* \"#utility.yul\":30219:30222   */\n      dup3\n        /* \"#utility.yul\":30215:30227   */\n      add\n        /* \"#utility.yul\":30208:30227   */\n      swap1\n      pop\n        /* \"#utility.yul\":29867:30233   */\n      swap2\n      swap1\n      pop\n      jump\t// out\n        /* \"#utility.yul\":30239:30658   */\n    tag_386:\n        /* \"#utility.yul\":30405:30409   */\n      0x00\n        /* \"#utility.yul\":30443:30445   */\n      0x20\n        /* \"#utility.yul\":30432:30441   */\n      dup3\n        /* \"#utility.yul\":30428:30446   */\n      add\n        /* \"#utility.yul\":30420:30446   */\n      swap1\n      pop\n        /* \"#utility.yul\":30492:30501   */\n      dup2\n        /* \"#utility.yul\":30486:30490   */\n      dup2\n        /* \"#utility.yul\":30482:30502   */\n      sub\n        /* \"#utility.yul\":30478:30479   */\n      0x00\n        /* \"#utility.yul\":30467:30476   */\n      dup4\n        /* \"#utility.yul\":30463:30480   */\n      add\n        /* \"#utility.yul\":30456:30503   */\n      mstore\n        /* \"#utility.yul\":30520:30651   */\n      tag_830\n        /* \"#utility.yul\":30646:30650   */\n      dup2\n        /* \"#utility.yul\":30520:30651   */\n      tag_562\n      jump\t// in\n    tag_830:\n        /* \"#utility.yul\":30512:30651   */\n      swap1\n      pop\n        /* \"#utility.yul\":30239:30658   */\n      swap2\n      swap1\n      pop\n      jump\t// out\n        /* \"#utility.yul\":30664:30830   */\n    tag_563:\n        /* \"#utility.yul\":30804:30822   */\n      0x506c617a6f2061756e2061637469766f00000000000000000000000000000000\n        /* \"#utility.yul\":30800:30801   */\n      0x00\n        /* \"#utility.yul\":30792:30798   */\n      dup3\n        /* \"#utility.yul\":30788:30802   */\n      add\n        /* \"#utility.yul\":30781:30823   */\n      mstore\n        /* \"#utility.yul\":30664:30830   */\n      pop\n      jump\t// out\n        /* \"#utility.yul\":30836:31202   */\n    tag_564:\n        /* \"#utility.yul\":30978:30981   */\n      0x00\n        /* \"#utility.yul\":30999:31066   */\n      tag_833\n        /* \"#utility.yul\":31063:31065   */\n      0x10\n        /* \"#utility.yul\":31058:31061   */\n      dup4\n        /* \"#utility.yul\":30999:31066   */\n      tag_515\n      jump\t// in\n    tag_833:\n        /* \"#utility.yul\":30992:31066   */\n      swap2\n      pop\n        /* \"#utility.yul\":31075:31168   */\n      tag_834\n        /* \"#utility.yul\":31164:31167   */\n      dup3\n        /* \"#utility.yul\":31075:31168   */\n      tag_563\n      jump\t// in\n    tag_834:\n        /* \"#utility.yul\":31193:31195   */\n      0x20\n        /* \"#utility.yul\":31188:31191   */\n      dup3\n        /* \"#utility.yul\":31184:31196   */\n      add\n        /* \"#utility.yul\":31177:31196   */\n      swap1\n      pop\n        /* \"#utility.yul\":30836:31202   */\n      swap2\n      swap1\n      pop\n      jump\t// out\n        /* \"#utility.yul\":31208:31627   */\n    tag_389:\n        /* \"#utility.yul\":31374:31378   */\n      0x00\n        /* \"#utility.yul\":31412:31414   */\n      0x20\n        /* \"#utility.yul\":31401:31410   */\n      dup3\n        /* \"#utility.yul\":31397:31415   */\n      add\n        /* \"#utility.yul\":31389:31415   */\n      swap1\n      pop\n        /* \"#utility.yul\":31461:31470   */\n      dup2\n        /* \"#utility.yul\":31455:31459   */\n      dup2\n        /* \"#utility.yul\":31451:31471   */\n      sub\n        /* \"#utility.yul\":31447:31448   */\n      0x00\n        /* \"#utility.yul\":31436:31445   */\n      dup4\n        /* \"#utility.yul\":31432:31449   */\n      add\n        /* \"#utility.yul\":31425:31472   */\n      mstore\n        /* \"#utility.yul\":31489:31620   */\n      tag_836\n        /* \"#utility.yul\":31615:31619   */\n      dup2\n        /* \"#utility.yul\":31489:31620   */\n      tag_564\n      jump\t// in\n    tag_836:\n        /* \"#utility.yul\":31481:31620   */\n      swap1\n      pop\n        /* \"#utility.yul\":31208:31627   */\n      swap2\n      swap1\n      pop\n      jump\t// out\n        /* \"#utility.yul\":31633:31796   */\n    tag_565:\n        /* \"#utility.yul\":31773:31788   */\n      0x59612067657374696f6e61646f00000000000000000000000000000000000000\n        /* \"#utility.yul\":31769:31770   */\n      0x00\n        /* \"#utility.yul\":31761:31767   */\n      dup3\n        /* \"#utility.yul\":31757:31771   */\n      add\n        /* \"#utility.yul\":31750:31789   */\n      mstore\n        /* \"#utility.yul\":31633:31796   */\n      pop\n      jump\t// out\n        /* \"#utility.yul\":31802:32168   */\n    tag_566:\n        /* \"#utility.yul\":31944:31947   */\n      0x00\n        /* \"#utility.yul\":31965:32032   */\n      tag_839\n        /* \"#utility.yul\":32029:32031   */\n      0x0d\n        /* \"#utility.yul\":32024:32027   */\n      dup4\n        /* \"#utility.yul\":31965:32032   */\n      tag_515\n      jump\t// in\n    tag_839:\n        /* \"#utility.yul\":31958:32032   */\n      swap2\n      pop\n        /* \"#utility.yul\":32041:32134   */\n      tag_840\n        /* \"#utility.yul\":32130:32133   */\n      dup3\n        /* \"#utility.yul\":32041:32134   */\n      tag_565\n      jump\t// in\n    tag_840:\n        /* \"#utility.yul\":32159:32161   */\n      0x20\n        /* \"#utility.yul\":32154:32157   */\n      dup3\n        /* \"#utility.yul\":32150:32162   */\n      add\n        /* \"#utility.yul\":32143:32162   */\n      swap1\n      pop\n        /* \"#utility.yul\":31802:32168   */\n      swap2\n      swap1\n      pop\n      jump\t// out\n        /* \"#utility.yul\":32174:32593   */\n    tag_395:\n        /* \"#utility.yul\":32340:32344   */\n      0x00\n        /* \"#utility.yul\":32378:32380   */\n      0x20\n        /* \"#utility.yul\":32367:32376   */\n      dup3\n        /* \"#utility.yul\":32363:32381   */\n      add\n        /* \"#utility.yul\":32355:32381   */\n      swap1\n      pop\n        /* \"#utility.yul\":32427:32436   */\n      dup2\n        /* \"#utility.yul\":32421:32425   */\n      dup2\n        /* \"#utility.yul\":32417:32437   */\n      sub\n        /* \"#utility.yul\":32413:32414   */\n      0x00\n        /* \"#utility.yul\":32402:32411   */\n      dup4\n        /* \"#utility.yul\":32398:32415   */\n      add\n        /* \"#utility.yul\":32391:32438   */\n      mstore\n        /* \"#utility.yul\":32455:32586   */\n      tag_842\n        /* \"#utility.yul\":32581:32585   */\n      dup2\n        /* \"#utility.yul\":32455:32586   */\n      tag_566\n      jump\t// in\n    tag_842:\n        /* \"#utility.yul\":32447:32586   */\n      swap1\n      pop\n        /* \"#utility.yul\":32174:32593   */\n      swap2\n      swap1\n      pop\n      jump\t// out\n        /* \"#utility.yul\":32599:32767   */\n    tag_567:\n        /* \"#utility.yul\":32739:32759   */\n      0x77696e6e657220646964206e6f74207061790000000000000000000000000000\n        /* \"#utility.yul\":32735:32736   */\n      0x00\n        /* \"#utility.yul\":32727:32733   */\n      dup3\n        /* \"#utility.yul\":32723:32737   */\n      add\n        /* \"#utility.yul\":32716:32760   */\n      mstore\n        /* \"#utility.yul\":32599:32767   */\n      pop\n      jump\t// out\n        /* \"#utility.yul\":32773:33139   */\n    tag_568:\n        /* \"#utility.yul\":32915:32918   */\n      0x00\n        /* \"#utility.yul\":32936:33003   */\n      tag_845\n        /* \"#utility.yul\":33000:33002   */\n      0x12\n        /* \"#utility.yul\":32995:32998   */\n      dup4\n        /* \"#utility.yul\":32936:33003   */\n      tag_515\n      jump\t// in\n    tag_845:\n        /* \"#utility.yul\":32929:33003   */\n      swap2\n      pop\n        /* \"#utility.yul\":33012:33105   */\n      tag_846\n        /* \"#utility.yul\":33101:33104   */\n      dup3\n        /* \"#utility.yul\":33012:33105   */\n      tag_567\n      jump\t// in\n    tag_846:\n        /* \"#utility.yul\":33130:33132   */\n      0x20\n        /* \"#utility.yul\":33125:33128   */\n      dup3\n        /* \"#utility.yul\":33121:33133   */\n      add\n        /* \"#utility.yul\":33114:33133   */\n      swap1\n      pop\n        /* \"#utility.yul\":32773:33139   */\n      swap2\n      swap1\n      pop\n      jump\t// out\n        /* \"#utility.yul\":33145:33674   */\n    tag_403:\n        /* \"#utility.yul\":33339:33343   */\n      0x00\n        /* \"#utility.yul\":33377:33379   */\n      0x40\n        /* \"#utility.yul\":33366:33375   */\n      dup3\n        /* \"#utility.yul\":33362:33380   */\n      add\n        /* \"#utility.yul\":33354:33380   */\n      swap1\n      pop\n        /* \"#utility.yul\":33390:33461   */\n      tag_848\n        /* \"#utility.yul\":33458:33459   */\n      0x00\n        /* \"#utility.yul\":33447:33456   */\n      dup4\n        /* \"#utility.yul\":33443:33460   */\n      add\n        /* \"#utility.yul\":33434:33440   */\n      dup5\n        /* \"#utility.yul\":33390:33461   */\n      tag_505\n      jump\t// in\n    tag_848:\n        /* \"#utility.yul\":33508:33517   */\n      dup2\n        /* \"#utility.yul\":33502:33506   */\n      dup2\n        /* \"#utility.yul\":33498:33518   */\n      sub\n        /* \"#utility.yul\":33493:33495   */\n      0x20\n        /* \"#utility.yul\":33482:33491   */\n      dup4\n        /* \"#utility.yul\":33478:33496   */\n      add\n        /* \"#utility.yul\":33471:33519   */\n      mstore\n        /* \"#utility.yul\":33536:33667   */\n      tag_849\n        /* \"#utility.yul\":33662:33666   */\n      dup2\n        /* \"#utility.yul\":33536:33667   */\n      tag_568\n      jump\t// in\n    tag_849:\n        /* \"#utility.yul\":33528:33667   */\n      swap1\n      pop\n        /* \"#utility.yul\":33145:33674   */\n      swap3\n      swap2\n      pop\n      pop\n      jump\t// out\n        /* \"#utility.yul\":33680:33846   */\n    tag_569:\n        /* \"#utility.yul\":33820:33838   */\n      0x5375626173746120646573696572746100000000000000000000000000000000\n        /* \"#utility.yul\":33816:33817   */\n      0x00\n        /* \"#utility.yul\":33808:33814   */\n      dup3\n        /* \"#utility.yul\":33804:33818   */\n      add\n        /* \"#utility.yul\":33797:33839   */\n      mstore\n        /* \"#utility.yul\":33680:33846   */\n      pop\n      jump\t// out\n        /* \"#utility.yul\":33852:34218   */\n    tag_570:\n        /* \"#utility.yul\":33994:33997   */\n      0x00\n        /* \"#utility.yul\":34015:34082   */\n      tag_852\n        /* \"#utility.yul\":34079:34081   */\n      0x10\n        /* \"#utility.yul\":34074:34077   */\n      dup4\n        /* \"#utility.yul\":34015:34082   */\n      tag_515\n      jump\t// in\n    tag_852:\n        /* \"#utility.yul\":34008:34082   */\n      swap2\n      pop\n        /* \"#utility.yul\":34091:34184   */\n      tag_853\n        /* \"#utility.yul\":34180:34183   */\n      dup3\n        /* \"#utility.yul\":34091:34184   */\n      tag_569\n      jump\t// in\n    tag_853:\n        /* \"#utility.yul\":34209:34211   */\n      0x20\n        /* \"#utility.yul\":34204:34207   */\n      dup3\n        /* \"#utility.yul\":34200:34212   */\n      add\n        /* \"#utility.yul\":34193:34212   */\n      swap1\n      pop\n        /* \"#utility.yul\":33852:34218   */\n      swap2\n      swap1\n      pop\n      jump\t// out\n        /* \"#utility.yul\":34224:34643   */\n    tag_422:\n        /* \"#utility.yul\":34390:34394   */\n      0x00\n        /* \"#utility.yul\":34428:34430   */\n      0x20\n        /* \"#utility.yul\":34417:34426   */\n      dup3\n        /* \"#utility.yul\":34413:34431   */\n      add\n        /* \"#utility.yul\":34405:34431   */\n      swap1\n      pop\n        /* \"#utility.yul\":34477:34486   */\n      dup2\n        /* \"#utility.yul\":34471:34475   */\n      dup2\n        /* \"#utility.yul\":34467:34487   */\n      sub\n        /* \"#utility.yul\":34463:34464   */\n      0x00\n        /* \"#utility.yul\":34452:34461   */\n      dup4\n        /* \"#utility.yul\":34448:34465   */\n      add\n        /* \"#utility.yul\":34441:34488   */\n      mstore\n        /* \"#utility.yul\":34505:34636   */\n      tag_855\n        /* \"#utility.yul\":34631:34635   */\n      dup2\n        /* \"#utility.yul\":34505:34636   */\n      tag_570\n      jump\t// in\n    tag_855:\n        /* \"#utility.yul\":34497:34636   */\n      swap1\n      pop\n        /* \"#utility.yul\":34224:34643   */\n      swap2\n      swap1\n      pop\n      jump\t// out\n        /* \"#utility.yul\":34649:34813   */\n    tag_571:\n        /* \"#utility.yul\":34789:34805   */\n      0x506c617a6f20657870697261646f000000000000000000000000000000000000\n        /* \"#utility.yul\":34785:34786   */\n      0x00\n        /* \"#utility.yul\":34777:34783   */\n      dup3\n        /* \"#utility.yul\":34773:34787   */\n      add\n        /* \"#utility.yul\":34766:34806   */\n      mstore\n        /* \"#utility.yul\":34649:34813   */\n      pop\n      jump\t// out\n        /* \"#utility.yul\":34819:35185   */\n    tag_572:\n        /* \"#utility.yul\":34961:34964   */\n      0x00\n        /* \"#utility.yul\":34982:35049   */\n      tag_858\n        /* \"#utility.yul\":35046:35048   */\n      0x0e\n        /* \"#utility.yul\":35041:35044   */\n      dup4\n        /* \"#utility.yul\":34982:35049   */\n      tag_515\n      jump\t// in\n    tag_858:\n        /* \"#utility.yul\":34975:35049   */\n      swap2\n      pop\n        /* \"#utility.yul\":35058:35151   */\n      tag_859\n        /* \"#utility.yul\":35147:35150   */\n      dup3\n        /* \"#utility.yul\":35058:35151   */\n      tag_571\n      jump\t// in\n    tag_859:\n        /* \"#utility.yul\":35176:35178   */\n      0x20\n        /* \"#utility.yul\":35171:35174   */\n      dup3\n        /* \"#utility.yul\":35167:35179   */\n      add\n        /* \"#utility.yul\":35160:35179   */\n      swap1\n      pop\n        /* \"#utility.yul\":34819:35185   */\n      swap2\n      swap1\n      pop\n      jump\t// out\n        /* \"#utility.yul\":35191:35610   */\n    tag_429:\n        /* \"#utility.yul\":35357:35361   */\n      0x00\n        /* \"#utility.yul\":35395:35397   */\n      0x20\n        /* \"#utility.yul\":35384:35393   */\n      dup3\n        /* \"#utility.yul\":35380:35398   */\n      add\n        /* \"#utility.yul\":35372:35398   */\n      swap1\n      pop\n        /* \"#utility.yul\":35444:35453   */\n      dup2\n        /* \"#utility.yul\":35438:35442   */\n      dup2\n        /* \"#utility.yul\":35434:35454   */\n      sub\n        /* \"#utility.yul\":35430:35431   */\n      0x00\n        /* \"#utility.yul\":35419:35428   */\n      dup4\n        /* \"#utility.yul\":35415:35432   */\n      add\n        /* \"#utility.yul\":35408:35455   */\n      mstore\n        /* \"#utility.yul\":35472:35603   */\n      tag_861\n        /* \"#utility.yul\":35598:35602   */\n      dup2\n        /* \"#utility.yul\":35472:35603   */\n      tag_572\n      jump\t// in\n    tag_861:\n        /* \"#utility.yul\":35464:35603   */\n      swap1\n      pop\n        /* \"#utility.yul\":35191:35610   */\n      swap2\n      swap1\n      pop\n      jump\t// out\n        /* \"#utility.yul\":35616:35791   */\n    tag_573:\n        /* \"#utility.yul\":35756:35783   */\n      0x4e6f206572657320656c2067616e61646f722061637475616c00000000000000\n        /* \"#utility.yul\":35752:35753   */\n      0x00\n        /* \"#utility.yul\":35744:35750   */\n      dup3\n        /* \"#utility.yul\":35740:35754   */\n      add\n        /* \"#utility.yul\":35733:35784   */\n      mstore\n        /* \"#utility.yul\":35616:35791   */\n      pop\n      jump\t// out\n        /* \"#utility.yul\":35797:36163   */\n    tag_574:\n        /* \"#utility.yul\":35939:35942   */\n      0x00\n        /* \"#utility.yul\":35960:36027   */\n      tag_864\n        /* \"#utility.yul\":36024:36026   */\n      0x19\n        /* \"#utility.yul\":36019:36022   */\n      dup4\n        /* \"#utility.yul\":35960:36027   */\n      tag_515\n      jump\t// in\n    tag_864:\n        /* \"#utility.yul\":35953:36027   */\n      swap2\n      pop\n        /* \"#utility.yul\":36036:36129   */\n      tag_865\n        /* \"#utility.yul\":36125:36128   */\n      dup3\n        /* \"#utility.yul\":36036:36129   */\n      tag_573\n      jump\t// in\n    tag_865:\n        /* \"#utility.yul\":36154:36156   */\n      0x20\n        /* \"#utility.yul\":36149:36152   */\n      dup3\n        /* \"#utility.yul\":36145:36157   */\n      add\n        /* \"#utility.yul\":36138:36157   */\n      swap1\n      pop\n        /* \"#utility.yul\":35797:36163   */\n      swap2\n      swap1\n      pop\n      jump\t// out\n        /* \"#utility.yul\":36169:36588   */\n    tag_435:\n        /* \"#utility.yul\":36335:36339   */\n      0x00\n        /* \"#utility.yul\":36373:36375   */\n      0x20\n        /* \"#utility.yul\":36362:36371   */\n      dup3\n        /* \"#utility.yul\":36358:36376   */\n      add\n        /* \"#utility.yul\":36350:36376   */\n      swap1\n      pop\n        /* \"#utility.yul\":36422:36431   */\n      dup2\n        /* \"#utility.yul\":36416:36420   */\n      dup2\n        /* \"#utility.yul\":36412:36432   */\n      sub\n        /* \"#utility.yul\":36408:36409   */\n      0x00\n        /* \"#utility.yul\":36397:36406   */\n      dup4\n        /* \"#utility.yul\":36393:36410   */\n      add\n        /* \"#utility.yul\":36386:36433   */\n      mstore\n        /* \"#utility.yul\":36450:36581   */\n      tag_867\n        /* \"#utility.yul\":36576:36580   */\n      dup2\n        /* \"#utility.yul\":36450:36581   */\n      tag_574\n      jump\t// in\n    tag_867:\n        /* \"#utility.yul\":36442:36581   */\n      swap1\n      pop\n        /* \"#utility.yul\":36169:36588   */\n      swap2\n      swap1\n      pop\n      jump\t// out\n        /* \"#utility.yul\":36594:36763   */\n    tag_575:\n        /* \"#utility.yul\":36734:36755   */\n      0x43616e746964616420696e636f72726563746100000000000000000000000000\n        /* \"#utility.yul\":36730:36731   */\n      0x00\n        /* \"#utility.yul\":36722:36728   */\n      dup3\n        /* \"#utility.yul\":36718:36732   */\n      add\n        /* \"#utility.yul\":36711:36756   */\n      mstore\n        /* \"#utility.yul\":36594:36763   */\n      pop\n      jump\t// out\n        /* \"#utility.yul\":36769:37135   */\n    tag_576:\n        /* \"#utility.yul\":36911:36914   */\n      0x00\n        /* \"#utility.yul\":36932:36999   */\n      tag_870\n        /* \"#utility.yul\":36996:36998   */\n      0x13\n        /* \"#utility.yul\":36991:36994   */\n      dup4\n        /* \"#utility.yul\":36932:36999   */\n      tag_515\n      jump\t// in\n    tag_870:\n        /* \"#utility.yul\":36925:36999   */\n      swap2\n      pop\n        /* \"#utility.yul\":37008:37101   */\n      tag_871\n        /* \"#utility.yul\":37097:37100   */\n      dup3\n        /* \"#utility.yul\":37008:37101   */\n      tag_575\n      jump\t// in\n    tag_871:\n        /* \"#utility.yul\":37126:37128   */\n      0x20\n        /* \"#utility.yul\":37121:37124   */\n      dup3\n        /* \"#utility.yul\":37117:37129   */\n      add\n        /* \"#utility.yul\":37110:37129   */\n      swap1\n      pop\n        /* \"#utility.yul\":36769:37135   */\n      swap2\n      swap1\n      pop\n      jump\t// out\n        /* \"#utility.yul\":37141:37560   */\n    tag_441:\n        /* \"#utility.yul\":37307:37311   */\n      0x00\n        /* \"#utility.yul\":37345:37347   */\n      0x20\n        /* \"#utility.yul\":37334:37343   */\n      dup3\n        /* \"#utility.yul\":37330:37348   */\n      add\n        /* \"#utility.yul\":37322:37348   */\n      swap1\n      pop\n        /* \"#utility.yul\":37394:37403   */\n      dup2\n        /* \"#utility.yul\":37388:37392   */\n      dup2\n        /* \"#utility.yul\":37384:37404   */\n      sub\n        /* \"#utility.yul\":37380:37381   */\n      0x00\n        /* \"#utility.yul\":37369:37378   */\n      dup4\n        /* \"#utility.yul\":37365:37382   */\n      add\n        /* \"#utility.yul\":37358:37405   */\n      mstore\n        /* \"#utility.yul\":37422:37553   */\n      tag_873\n        /* \"#utility.yul\":37548:37552   */\n      dup2\n        /* \"#utility.yul\":37422:37553   */\n      tag_576\n      jump\t// in\n    tag_873:\n        /* \"#utility.yul\":37414:37553   */\n      swap1\n      pop\n        /* \"#utility.yul\":37141:37560   */\n      swap2\n      swap1\n      pop\n      jump\t// out\n        /* \"#utility.yul\":37566:37730   */\n    tag_577:\n        /* \"#utility.yul\":37706:37722   */\n      0x436f6d6d69742063657272616461000000000000000000000000000000000000\n        /* \"#utility.yul\":37702:37703   */\n      0x00\n        /* \"#utility.yul\":37694:37700   */\n      dup3\n        /* \"#utility.yul\":37690:37704   */\n      add\n        /* \"#utility.yul\":37683:37723   */\n      mstore\n        /* \"#utility.yul\":37566:37730   */\n      pop\n      jump\t// out\n        /* \"#utility.yul\":37736:38102   */\n    tag_578:\n        /* \"#utility.yul\":37878:37881   */\n      0x00\n        /* \"#utility.yul\":37899:37966   */\n      tag_876\n        /* \"#utility.yul\":37963:37965   */\n      0x0e\n        /* \"#utility.yul\":37958:37961   */\n      dup4\n        /* \"#utility.yul\":37899:37966   */\n      tag_515\n      jump\t// in\n    tag_876:\n        /* \"#utility.yul\":37892:37966   */\n      swap2\n      pop\n        /* \"#utility.yul\":37975:38068   */\n      tag_877\n        /* \"#utility.yul\":38064:38067   */\n      dup3\n        /* \"#utility.yul\":37975:38068   */\n      tag_577\n      jump\t// in\n    tag_877:\n        /* \"#utility.yul\":38093:38095   */\n      0x20\n        /* \"#utility.yul\":38088:38091   */\n      dup3\n        /* \"#utility.yul\":38084:38096   */\n      add\n        /* \"#utility.yul\":38077:38096   */\n      swap1\n      pop\n        /* \"#utility.yul\":37736:38102   */\n      swap2\n      swap1\n      pop\n      jump\t// out\n        /* \"#utility.yul\":38108:38527   */\n    tag_450:\n        /* \"#utility.yul\":38274:38278   */\n      0x00\n        /* \"#utility.yul\":38312:38314   */\n      0x20\n        /* \"#utility.yul\":38301:38310   */\n      dup3\n        /* \"#utility.yul\":38297:38315   */\n      add\n        /* \"#utility.yul\":38289:38315   */\n      swap1\n      pop\n        /* \"#utility.yul\":38361:38370   */\n      dup2\n        /* \"#utility.yul\":38355:38359   */\n      dup2\n        /* \"#utility.yul\":38351:38371   */\n      sub\n        /* \"#utility.yul\":38347:38348   */\n      0x00\n        /* \"#utility.yul\":38336:38345   */\n      dup4\n        /* \"#utility.yul\":38332:38349   */\n      add\n        /* \"#utility.yul\":38325:38372   */\n      mstore\n        /* \"#utility.yul\":38389:38520   */\n      tag_879\n        /* \"#utility.yul\":38515:38519   */\n      dup2\n        /* \"#utility.yul\":38389:38520   */\n      tag_578\n      jump\t// in\n    tag_879:\n        /* \"#utility.yul\":38381:38520   */\n      swap1\n      pop\n        /* \"#utility.yul\":38108:38527   */\n      swap2\n      swap1\n      pop\n      jump\t// out\n        /* \"#utility.yul\":38533:38702   */\n    tag_579:\n        /* \"#utility.yul\":38673:38694   */\n      0x436f6d6d69746d656e7420696e76616c69646f00000000000000000000000000\n        /* \"#utility.yul\":38669:38670   */\n      0x00\n        /* \"#utility.yul\":38661:38667   */\n      dup3\n        /* \"#utility.yul\":38657:38671   */\n      add\n        /* \"#utility.yul\":38650:38695   */\n      mstore\n        /* \"#utility.yul\":38533:38702   */\n      pop\n      jump\t// out\n        /* \"#utility.yul\":38708:39074   */\n    tag_580:\n        /* \"#utility.yul\":38850:38853   */\n      0x00\n        /* \"#utility.yul\":38871:38938   */\n      tag_882\n        /* \"#utility.yul\":38935:38937   */\n      0x13\n        /* \"#utility.yul\":38930:38933   */\n      dup4\n        /* \"#utility.yul\":38871:38938   */\n      tag_515\n      jump\t// in\n    tag_882:\n        /* \"#utility.yul\":38864:38938   */\n      swap2\n      pop\n        /* \"#utility.yul\":38947:39040   */\n      tag_883\n        /* \"#utility.yul\":39036:39039   */\n      dup3\n        /* \"#utility.yul\":38947:39040   */\n      tag_579\n      jump\t// in\n    tag_883:\n        /* \"#utility.yul\":39065:39067   */\n      0x20\n        /* \"#utility.yul\":39060:39063   */\n      dup3\n        /* \"#utility.yul\":39056:39068   */\n      add\n        /* \"#utility.yul\":39049:39068   */\n      swap1\n      pop\n        /* \"#utility.yul\":38708:39074   */\n      swap2\n      swap1\n      pop\n      jump\t// out\n        /* \"#utility.yul\":39080:39499   */\n    tag_454:\n        /* \"#utility.yul\":39246:39250   */\n      0x00\n        /* \"#utility.yul\":39284:39286   */\n      0x20\n        /* \"#utility.yul\":39273:39282   */\n      dup3\n        /* \"#utility.yul\":39269:39287   */\n      add\n        /* \"#utility.yul\":39261:39287   */\n      swap1\n      pop\n        /* \"#utility.yul\":39333:39342   */\n      dup2\n        /* \"#utility.yul\":39327:39331   */\n      dup2\n        /* \"#utility.yul\":39323:39343   */\n      sub\n        /* \"#utility.yul\":39319:39320   */\n      0x00\n        /* \"#utility.yul\":39308:39317   */\n      dup4\n        /* \"#utility.yul\":39304:39321   */\n      add\n        /* \"#utility.yul\":39297:39344   */\n      mstore\n        /* \"#utility.yul\":39361:39492   */\n      tag_885\n        /* \"#utility.yul\":39487:39491   */\n      dup2\n        /* \"#utility.yul\":39361:39492   */\n      tag_580\n      jump\t// in\n    tag_885:\n        /* \"#utility.yul\":39353:39492   */\n      swap1\n      pop\n        /* \"#utility.yul\":39080:39499   */\n      swap2\n      swap1\n      pop\n      jump\t// out\n        /* \"#utility.yul\":39505:39668   */\n    tag_581:\n        /* \"#utility.yul\":39645:39660   */\n      0x53756261737461206c6c656e6100000000000000000000000000000000000000\n        /* \"#utility.yul\":39641:39642   */\n      0x00\n        /* \"#utility.yul\":39633:39639   */\n      dup3\n        /* \"#utility.yul\":39629:39643   */\n      add\n        /* \"#utility.yul\":39622:39661   */\n      mstore\n        /* \"#utility.yul\":39505:39668   */\n      pop\n      jump\t// out\n        /* \"#utility.yul\":39674:40040   */\n    tag_582:\n        /* \"#utility.yul\":39816:39819   */\n      0x00\n        /* \"#utility.yul\":39837:39904   */\n      tag_888\n        /* \"#utility.yul\":39901:39903   */\n      0x0d\n        /* \"#utility.yul\":39896:39899   */\n      dup4\n        /* \"#utility.yul\":39837:39904   */\n      tag_515\n      jump\t// in\n    tag_888:\n        /* \"#utility.yul\":39830:39904   */\n      swap2\n      pop\n        /* \"#utility.yul\":39913:40006   */\n      tag_889\n        /* \"#utility.yul\":40002:40005   */\n      dup3\n        /* \"#utility.yul\":39913:40006   */\n      tag_581\n      jump\t// in\n    tag_889:\n        /* \"#utility.yul\":40031:40033   */\n      0x20\n        /* \"#utility.yul\":40026:40029   */\n      dup3\n        /* \"#utility.yul\":40022:40034   */\n      add\n        /* \"#utility.yul\":40015:40034   */\n      swap1\n      pop\n        /* \"#utility.yul\":39674:40040   */\n      swap2\n      swap1\n      pop\n      jump\t// out\n        /* \"#utility.yul\":40046:40465   */\n    tag_457:\n        /* \"#utility.yul\":40212:40216   */\n      0x00\n        /* \"#utility.yul\":40250:40252   */\n      0x20\n        /* \"#utility.yul\":40239:40248   */\n      dup3\n        /* \"#utility.yul\":40235:40253   */\n      add\n        /* \"#utility.yul\":40227:40253   */\n      swap1\n      pop\n        /* \"#utility.yul\":40299:40308   */\n      dup2\n        /* \"#utility.yul\":40293:40297   */\n      dup2\n        /* \"#utility.yul\":40289:40309   */\n      sub\n        /* \"#utility.yul\":40285:40286   */\n      0x00\n        /* \"#utility.yul\":40274:40283   */\n      dup4\n        /* \"#utility.yul\":40270:40287   */\n      add\n        /* \"#utility.yul\":40263:40310   */\n      mstore\n        /* \"#utility.yul\":40327:40458   */\n      tag_891\n        /* \"#utility.yul\":40453:40457   */\n      dup2\n        /* \"#utility.yul\":40327:40458   */\n      tag_582\n      jump\t// in\n    tag_891:\n        /* \"#utility.yul\":40319:40458   */\n      swap1\n      pop\n        /* \"#utility.yul\":40046:40465   */\n      swap2\n      swap1\n      pop\n      jump\t// out\n        /* \"#utility.yul\":40471:40649   */\n    tag_583:\n        /* \"#utility.yul\":40611:40641   */\n      0x4465626573207061676172206c61206669616e7a612065786163746100000000\n        /* \"#utility.yul\":40607:40608   */\n      0x00\n        /* \"#utility.yul\":40599:40605   */\n      dup3\n        /* \"#utility.yul\":40595:40609   */\n      add\n        /* \"#utility.yul\":40588:40642   */\n      mstore\n        /* \"#utility.yul\":40471:40649   */\n      pop\n      jump\t// out\n        /* \"#utility.yul\":40655:41021   */\n    tag_584:\n        /* \"#utility.yul\":40797:40800   */\n      0x00\n        /* \"#utility.yul\":40818:40885   */\n      tag_894\n        /* \"#utility.yul\":40882:40884   */\n      0x1c\n        /* \"#utility.yul\":40877:40880   */\n      dup4\n        /* \"#utility.yul\":40818:40885   */\n      tag_515\n      jump\t// in\n    tag_894:\n        /* \"#utility.yul\":40811:40885   */\n      swap2\n      pop\n        /* \"#utility.yul\":40894:40987   */\n      tag_895\n        /* \"#utility.yul\":40983:40986   */\n      dup3\n        /* \"#utility.yul\":40894:40987   */\n      tag_583\n      jump\t// in\n    tag_895:\n        /* \"#utility.yul\":41012:41014   */\n      0x20\n        /* \"#utility.yul\":41007:41010   */\n      dup3\n        /* \"#utility.yul\":41003:41015   */\n      add\n        /* \"#utility.yul\":40996:41015   */\n      swap1\n      pop\n        /* \"#utility.yul\":40655:41021   */\n      swap2\n      swap1\n      pop\n      jump\t// out\n        /* \"#utility.yul\":41027:41446   */\n    tag_460:\n        /* \"#utility.yul\":41193:41197   */\n      0x00\n        /* \"#utility.yul\":41231:41233   */\n      0x20\n        /* \"#utility.yul\":41220:41229   */\n      dup3\n        /* \"#utility.yul\":41216:41234   */\n      add\n        /* \"#utility.yul\":41208:41234   */\n      swap1\n      pop\n        /* \"#utility.yul\":41280:41289   */\n      dup2\n        /* \"#utility.yul\":41274:41278   */\n      dup2\n        /* \"#utility.yul\":41270:41290   */\n      sub\n        /* \"#utility.yul\":41266:41267   */\n      0x00\n        /* \"#utility.yul\":41255:41264   */\n      dup4\n        /* \"#utility.yul\":41251:41268   */\n      add\n        /* \"#utility.yul\":41244:41291   */\n      mstore\n        /* \"#utility.yul\":41308:41439   */\n      tag_897\n        /* \"#utility.yul\":41434:41438   */\n      dup2\n        /* \"#utility.yul\":41308:41439   */\n      tag_584\n      jump\t// in\n    tag_897:\n        /* \"#utility.yul\":41300:41439   */\n      swap1\n      pop\n        /* \"#utility.yul\":41027:41446   */\n      swap2\n      swap1\n      pop\n      jump\t// out\n        /* \"#utility.yul\":41452:41619   */\n    tag_585:\n        /* \"#utility.yul\":41592:41611   */\n      0x5961206869636973746520636f6d6d6974000000000000000000000000000000\n        /* \"#utility.yul\":41588:41589   */\n      0x00\n        /* \"#utility.yul\":41580:41586   */\n      dup3\n        /* \"#utility.yul\":41576:41590   */\n      add\n        /* \"#utility.yul\":41569:41612   */\n      mstore\n        /* \"#utility.yul\":41452:41619   */\n      pop\n      jump\t// out\n        /* \"#utility.yul\":41625:41991   */\n    tag_586:\n        /* \"#utility.yul\":41767:41770   */\n      0x00\n        /* \"#utility.yul\":41788:41855   */\n      tag_900\n        /* \"#utility.yul\":41852:41854   */\n      0x11\n        /* \"#utility.yul\":41847:41850   */\n      dup4\n        /* \"#utility.yul\":41788:41855   */\n      tag_515\n      jump\t// in\n    tag_900:\n        /* \"#utility.yul\":41781:41855   */\n      swap2\n      pop\n        /* \"#utility.yul\":41864:41957   */\n      tag_901\n        /* \"#utility.yul\":41953:41956   */\n      dup3\n        /* \"#utility.yul\":41864:41957   */\n      tag_585\n      jump\t// in\n    tag_901:\n        /* \"#utility.yul\":41982:41984   */\n      0x20\n        /* \"#utility.yul\":41977:41980   */\n      dup3\n        /* \"#utility.yul\":41973:41985   */\n      add\n        /* \"#utility.yul\":41966:41985   */\n      swap1\n      pop\n        /* \"#utility.yul\":41625:41991   */\n      swap2\n      swap1\n      pop\n      jump\t// out\n        /* \"#utility.yul\":41997:42416   */\n    tag_463:\n        /* \"#utility.yul\":42163:42167   */\n      0x00\n        /* \"#utility.yul\":42201:42203   */\n      0x20\n        /* \"#utility.yul\":42190:42199   */\n      dup3\n        /* \"#utility.yul\":42186:42204   */\n      add\n        /* \"#utility.yul\":42178:42204   */\n      swap1\n      pop\n        /* \"#utility.yul\":42250:42259   */\n      dup2\n        /* \"#utility.yul\":42244:42248   */\n      dup2\n        /* \"#utility.yul\":42240:42260   */\n      sub\n        /* \"#utility.yul\":42236:42237   */\n      0x00\n        /* \"#utility.yul\":42225:42234   */\n      dup4\n        /* \"#utility.yul\":42221:42238   */\n      add\n        /* \"#utility.yul\":42214:42261   */\n      mstore\n        /* \"#utility.yul\":42278:42409   */\n      tag_903\n        /* \"#utility.yul\":42404:42408   */\n      dup2\n        /* \"#utility.yul\":42278:42409   */\n      tag_586\n      jump\t// in\n    tag_903:\n        /* \"#utility.yul\":42270:42409   */\n      swap1\n      pop\n        /* \"#utility.yul\":41997:42416   */\n      swap2\n      swap1\n      pop\n      jump\t// out\n        /* \"#utility.yul\":42422:42593   */\n    tag_488:\n        /* \"#utility.yul\":42461:42464   */\n      0x00\n        /* \"#utility.yul\":42484:42508   */\n      tag_905\n        /* \"#utility.yul\":42502:42507   */\n      dup3\n        /* \"#utility.yul\":42484:42508   */\n      tag_504\n      jump\t// in\n    tag_905:\n        /* \"#utility.yul\":42475:42508   */\n      swap2\n      pop\n        /* \"#utility.yul\":42530:42534   */\n      0x00\n        /* \"#utility.yul\":42523:42528   */\n      dup3\n        /* \"#utility.yul\":42520:42535   */\n      sub\n        /* \"#utility.yul\":42517:42558   */\n      tag_906\n      jumpi\n        /* \"#utility.yul\":42538:42556   */\n      tag_907\n      tag_528\n      jump\t// in\n    tag_907:\n        /* \"#utility.yul\":42517:42558   */\n    tag_906:\n        /* \"#utility.yul\":42585:42586   */\n      0x01\n        /* \"#utility.yul\":42578:42583   */\n      dup3\n        /* \"#utility.yul\":42574:42587   */\n      sub\n        /* \"#utility.yul\":42567:42587   */\n      swap1\n      pop\n        /* \"#utility.yul\":42422:42593   */\n      swap2\n      swap1\n      pop\n      jump\t// out\n\n    auxdata: 0xa264697066735822122071714615b3c5592e2444e46602d439e1c3b84ee2b2a196a06d9192aaa9ca79c964736f6c634300081e0033\n}\n",
				"bytecode": {
					"linkReferences": {},
					"object": "61016060405234801561001157600080fd5b50604051614a43380380614a43833981810160405281019061003391906102e4565b61012c861015610078576040517f08c379a000000000000000000000000000000000000000000000000000000000815260040161006f906103ce565b60405180910390fd5b61012c8510156100bd576040517f08c379a00000000000000000000000000000000000000000000000000000000081526004016100b49061043a565b60405180910390fd5b61012c831015610102576040517f08c379a00000000000000000000000000000000000000000000000000000000081526004016100f9906104a6565b60405180910390fd5b66038d7ea4c6800084101561014c576040517f08c379a000000000000000000000000000000000000000000000000000000000815260040161014390610512565b60405180910390fd5b678ac7230489e80000841115610197576040517f08c379a000000000000000000000000000000000000000000000000000000000815260040161018e9061057e565b60405180910390fd5b600a8210156101db576040517f08c379a00000000000000000000000000000000000000000000000000000000081526004016101d2906105ea565b60405180910390fd5b60c882111561021f576040517f08c379a000000000000000000000000000000000000000000000000000000000815260040161021690610656565b60405180910390fd5b3373ffffffffffffffffffffffffffffffffffffffff1660808173ffffffffffffffffffffffffffffffffffffffff1681525050854261025f91906106a5565b60a081815250508460a05161027491906106a5565b60c081815250508360e081815250508261010081815250508161012081815250508061014081815250505050505050506106d9565b600080fd5b6000819050919050565b6102c1816102ae565b81146102cc57600080fd5b50565b6000815190506102de816102b8565b92915050565b60008060008060008060c08789031215610301576103006102a9565b5b600061030f89828a016102cf565b965050602061032089828a016102cf565b955050604061033189828a016102cf565b945050606061034289828a016102cf565b935050608061035389828a016102cf565b92505060a061036489828a016102cf565b9150509295509295509295565b600082825260208201905092915050565b7f636f6d6d69744475726174696f6e206d757920636f72746f0000000000000000600082015250565b60006103b8601883610371565b91506103c382610382565b602082019050919050565b600060208201905081810360008301526103e7816103ab565b9050919050565b7f72657665616c4475726174696f6e206d757920636f72746f0000000000000000600082015250565b6000610424601883610371565b915061042f826103ee565b602082019050919050565b6000602082019050818103600083015261045381610417565b9050919050565b7f7061796d656e744475726174696f6e206d757920636f72746f00000000000000600082015250565b6000610490601983610371565b915061049b8261045a565b602082019050919050565b600060208201905081810360008301526104bf81610483565b9050919050565b7f6465706f7369742064656d61736961646f2062616a6f00000000000000000000600082015250565b60006104fc601683610371565b9150610507826104c6565b602082019050919050565b6000602082019050818103600083015261052b816104ef565b9050919050565b7f6465706f7369742064656d61736961646f20616c746f00000000000000000000600082015250565b6000610568601683610371565b915061057382610532565b602082019050919050565b600060208201905081810360008301526105978161055b565b9050919050565b7f6d6178426964646572732064656d61736961646f2062616a6f00000000000000600082015250565b60006105d4601983610371565b91506105df8261059e565b602082019050919050565b60006020820190508181036000830152610603816105c7565b9050919050565b7f6d6178426964646572732064656d61736961646f20616c746f00000000000000600082015250565b6000610640601983610371565b915061064b8261060a565b602082019050919050565b6000602082019050818103600083015261066f81610633565b9050919050565b7f4e487b7100000000000000000000000000000000000000000000000000000000600052601160045260246000fd5b60006106b0826102ae565b91506106bb836102ae565b92508282019050808211156106d3576106d2610676565b5b92915050565b60805160a05160c05160e0516101005161012051610140516142536107f060003960008181612094015281816120be01526129d8015260008181611a4e015261278401526000818161145f015281816117c40152612151015260008181610bc901528181610bf901528181610c330152818161111701528181611b9f01528181611ebc01528181611ef601528181612018015281816124f801528181612526015281816125980152818161269201526127eb015260008181610e4b01528181610e7a01528181610fd00152818161127a0152611b49015260008181610dee01528181610e1d01528181610f6d01528181611a7201526126dd0152600081816117ee0152818161191f0152611a2a01526142536000f3fe60806040526004361061023f5760003560e01c8063ae0ab2ba1161012e578063d4daf77a116100ab578063f14fcbc81161006f578063f14fcbc814610813578063f156b57c1461082f578063f22247951461085a578063f776bd0614610885578063fcc8f793146108b057610246565b8063d4daf77a14610771578063dd5967c314610788578063e1e158a5146107b3578063e35a70d9146107de578063eaac5564146107e857610246565b8063c87da02d116100f2578063c87da02d14610688578063c8a58ab7146106b3578063d0e30db0146106de578063d329db8f14610709578063d3584e841461073457610246565b8063ae0ab2ba146105b1578063b14b28a3146105dc578063b3f05b9714610607578063b9e4238514610632578063c3f6afd71461065d57610246565b80634c72e066116101bc5780637e278310116101805780637e278310146104da5780638da5cb5b14610505578063a097f3ac14610530578063a2ff02091461055b578063aabe2fe31461058657610246565b80634c72e066146103f5578063523a3f081461043257806356845ef71461045b5780636d929f231461048657806376b9148f146104b157610246565b806336d0054b1161020357806336d0054b146103345780633c454e401461035f5780634036778f1461038a578063474b7525146103b35780634bb278f3146103de57610246565b80630700037d1461024b578063117df088146102885780631300a6d11461029f578063176069e9146102cc57806325bd0b9a1461030957610246565b3661024657005b600080fd5b34801561025757600080fd5b50610272600480360381019061026d9190612ed0565b6108f4565b60405161027f9190612f16565b60405180910390f35b34801561029457600080fd5b5061029d61090c565b005b3480156102ab57600080fd5b506102b4610de7565b6040516102c393929190612f31565b60405180910390f35b3480156102d857600080fd5b506102f360048036038101906102ee9190612fca565b610f16565b604051610300919061302c565b60405180910390f35b34801561031557600080fd5b5061031e610f4e565b60405161032b9190612f16565b60405180910390f35b34801561034057600080fd5b50610349610f53565b6040516103569190613062565b60405180910390f35b34801561036b57600080fd5b50610374610f66565b6040516103819190612f16565b60405180910390f35b34801561039657600080fd5b506103b160048036038101906103ac919061307d565b610f6b565b005b3480156103bf57600080fd5b506103c8611272565b6040516103d59190612f16565b60405180910390f35b3480156103ea57600080fd5b506103f3611278565b005b34801561040157600080fd5b5061041c600480360381019061041791906130bd565b61156a565b60405161042991906130f9565b60405180910390f35b34801561043e57600080fd5b50610459600480360381019061045491906130bd565b6115a9565b005b34801561046757600080fd5b506104706117c2565b60405161047d9190612f16565b60405180910390f35b34801561049257600080fd5b5061049b6117e6565b6040516104a89190612f16565b60405180910390f35b3480156104bd57600080fd5b506104d860048036038101906104d391906130bd565b6117ec565b005b3480156104e657600080fd5b506104ef611a22565b6040516104fc9190612f16565b60405180910390f35b34801561051157600080fd5b5061051a611a28565b60405161052791906130f9565b60405180910390f35b34801561053c57600080fd5b50610545611a4c565b6040516105529190612f16565b60405180910390f35b34801561056757600080fd5b50610570611a70565b60405161057d9190612f16565b60405180910390f35b34801561059257600080fd5b5061059b611a94565b6040516105a891906130f9565b60405180910390f35b3480156105bd57600080fd5b506105c6611b3a565b6040516105d39190612f16565b60405180910390f35b3480156105e857600080fd5b506105f1611b47565b6040516105fe9190612f16565b60405180910390f35b34801561061357600080fd5b5061061c611b6b565b6040516106299190613062565b60405180910390f35b34801561063e57600080fd5b50610647611b7e565b6040516106549190612f16565b60405180910390f35b34801561066957600080fd5b50610672611b84565b60405161067f9190612f16565b60405180910390f35b34801561069457600080fd5b5061069d611b8a565b6040516106aa9190612f16565b60405180910390f35b3480156106bf57600080fd5b506106c8611b97565b6040516106d59190612f16565b60405180910390f35b3480156106ea57600080fd5b506106f3611b9d565b6040516107009190612f16565b60405180910390f35b34801561071557600080fd5b5061071e611bc1565b60405161072b9190612f16565b60405180910390f35b34801561074057600080fd5b5061075b600480360381019061075691906130bd565b611bc7565b60405161076891906130f9565b60405180910390f35b34801561077d57600080fd5b50610786611c06565b005b34801561079457600080fd5b5061079d612267565b6040516107aa9190612f16565b60405180910390f35b3480156107bf57600080fd5b506107c8612273565b6040516107d59190612f16565b60405180910390f35b6107e661227e565b005b3480156107f457600080fd5b506107fd6126d5565b60405161080a9190612f16565b60405180910390f35b61082d60048036038101906108289190613114565b6126db565b005b34801561083b57600080fd5b506108446129c3565b6040516108519190613062565b60405180910390f35b34801561086657600080fd5b5061086f6129d6565b60405161087c9190612f16565b60405180910390f35b34801561089157600080fd5b5061089a6129fa565b6040516108a79190612f16565b60405180910390f35b3480156108bc57600080fd5b506108d760048036038101906108d29190612ed0565b612a00565b6040516108eb989796959493929190613141565b60405180910390f35b60086020528060005260406000206000915090505481565b600360009054906101000a900460ff1661095b576040517f08c379a00000000000000000000000000000000000000000000000000000000081526004016109529061321c565b60405180910390fd5b60008060003373ffffffffffffffffffffffffffffffffffffffff1673ffffffffffffffffffffffffffffffffffffffff16815260200190815260200160002090508060030160009054906101000a900460ff166109ee576040517f08c379a00000000000000000000000000000000000000000000000000000000081526004016109e590613288565b60405180910390fd5b8060030160029054906101000a900460ff1615610a40576040517f08c379a0000000000000000000000000000000000000000000000000000000008152600401610a37906132f4565b60405180910390fd5b600360019054906101000a900460ff1615610b0a576000600260045481548110610a6d57610a6c613314565b5b9060005260206000200160009054906101000a900473ffffffffffffffffffffffffffffffffffffffff1690508073ffffffffffffffffffffffffffffffffffffffff163373ffffffffffffffffffffffffffffffffffffffff1603610b08576040517f08c379a0000000000000000000000000000000000000000000000000000000008152600401610aff9061338f565b60405180910390fd5b505b8060030160049054906101000a900460ff1615610b5c576040517f08c379a0000000000000000000000000000000000000000000000000000000008152600401610b53906133fb565b60405180910390fd5b8060030160039054906101000a900460ff1615610bae576040517f08c379a0000000000000000000000000000000000000000000000000000000008152600401610ba590613467565b60405180910390fd5b60008160030160019054906101000a900460ff1615610bef577f00000000000000000000000000000000000000000000000000000000000000009050610ccb565b60006127106107d07f0000000000000000000000000000000000000000000000000000000000000000610c2291906134b6565b610c2c9190613527565b90506000817f0000000000000000000000000000000000000000000000000000000000000000610c5c9190613558565b90508160076000828254610c70919061358c565b925050819055503373ffffffffffffffffffffffffffffffffffffffff167f1fb16dd9688950cb1ed4e1ef4eb31ef7aa2b66802a519a8936389e4e6e4b0d7183604051610cbd919061360c565b60405180910390a280925050505b60018260030160026101000a81548160ff02191690831515021790555060003373ffffffffffffffffffffffffffffffffffffffff1682604051610d0e9061366b565b60006040518083038185875af1925050503d8060008114610d4b576040519150601f19603f3d011682016040523d82523d6000602084013e610d50565b606091505b5050905080610d94576040517f08c379a0000000000000000000000000000000000000000000000000000000008152600401610d8b906136cc565b60405180910390fd5b3373ffffffffffffffffffffffffffffffffffffffff167f4482101800a5c2e900f4156e57e05e19ffd7b366cde579553d723fd3abb2180e83604051610dda9190612f16565b60405180910390a2505050565b60008060007f00000000000000000000000000000000000000000000000000000000000000004210610e1a576000610e47565b427f0000000000000000000000000000000000000000000000000000000000000000610e469190613558565b5b92507f00000000000000000000000000000000000000000000000000000000000000004210610e77576000610ea4565b427f0000000000000000000000000000000000000000000000000000000000000000610ea39190613558565b5b9150600360009054906101000a900460ff168015610ecf5750600360029054906101000a900460ff16155b8015610ee85750600360019054906101000a900460ff16155b8015610ef5575060055442105b610f00576000610f0f565b42600554610f0e9190613558565b5b9050909192565b600083838330604051602001610f2f94939291906136ec565b6040516020818303038152906040528051906020012090509392505050565b60c881565b600360019054906101000a900460ff1681565b600a81565b7f0000000000000000000000000000000000000000000000000000000000000000421015610fce576040517f08c379a0000000000000000000000000000000000000000000000000000000008152600401610fc59061377d565b60405180910390fd5b7f00000000000000000000000000000000000000000000000000000000000000004210611030576040517f08c379a0000000000000000000000000000000000000000000000000000000008152600401611027906137e9565b60405180910390fd5b60008060003373ffffffffffffffffffffffffffffffffffffffff1673ffffffffffffffffffffffffffffffffffffffff16815260200190815260200160002090508060030160009054906101000a900460ff166110c3576040517f08c379a00000000000000000000000000000000000000000000000000000000081526004016110ba90613288565b60405180910390fd5b8060030160019054906101000a900460ff1615611115576040517f08c379a000000000000000000000000000000000000000000000000000000000815260040161110c90613855565b60405180910390fd5b7f0000000000000000000000000000000000000000000000000000000000000000831015611178576040517f08c379a000000000000000000000000000000000000000000000000000000000815260040161116f906138c1565b60405180910390fd5b60008383333060405160200161119194939291906136ec565b604051602081830303815290604052805190602001209050816000015481146111ef576040517f08c379a00000000000000000000000000000000000000000000000000000000081526004016111e69061392d565b60405180910390fd5b60018260030160016101000a81548160ff02191690831515021790555083826002018190555061121e33612a89565b3373ffffffffffffffffffffffffffffffffffffffff167f36cb84e26ec058ba1aadcd698199fa19568d3c52427b175bd593b94ce83f67c0856040516112649190612f16565b60405180910390a250505050565b60075481565b7f00000000000000000000000000000000000000000000000000000000000000004210156112db576040517f08c379a00000000000000000000000000000000000000000000000000000000081526004016112d290613999565b60405180910390fd5b600360009054906101000a900460ff161561132b576040517f08c379a000000000000000000000000000000000000000000000000000000000815260040161132290613a05565b60405180910390fd5b6001600360006101000a81548160ff02191690831515021790555060006002805490500361139f576001600360026101000a81548160ff0219169083151502179055507f9427ab050d1cdff5b941bc297ad5e113728d69972e8c69aa27c13e2d1b63fa1960405160405180910390a1611568565b60005b600280549050811015611454576001600080600284815481106113c8576113c7613314565b5b9060005260206000200160009054906101000a900473ffffffffffffffffffffffffffffffffffffffff1673ffffffffffffffffffffffffffffffffffffffff1673ffffffffffffffffffffffffffffffffffffffff16815260200190815260200160002060030160036101000a81548160ff02191690831515021790555080806001019150506113a2565b5060006004819055507f000000000000000000000000000000000000000000000000000000000000000042611489919061358c565b600581905550600060026000815481106114a6576114a5613314565b5b9060005260206000200160009054906101000a900473ffffffffffffffffffffffffffffffffffffffff1690508073ffffffffffffffffffffffffffffffffffffffff167f616c9469db50815ae0f1d0a020d9fc9060da7c57f03559afb0d4ebdaa0a3a05e6000808473ffffffffffffffffffffffffffffffffffffffff1673ffffffffffffffffffffffffffffffffffffffff1681526020019081526020016000206002015460055460405161155e929190613a25565b60405180910390a2505b565b6002818154811061157a57600080fd5b906000526020600020016000915054906101000a900473ffffffffffffffffffffffffffffffffffffffff1681565b600081116115ec576040517f08c379a00000000000000000000000000000000000000000000000000000000081526004016115e390613a9a565b60405180910390fd5b600860003373ffffffffffffffffffffffffffffffffffffffff1673ffffffffffffffffffffffffffffffffffffffff1681526020019081526020016000205481111561166e576040517f08c379a000000000000000000000000000000000000000000000000000000000815260040161166590613b06565b60405180910390fd5b80600860003373ffffffffffffffffffffffffffffffffffffffff1673ffffffffffffffffffffffffffffffffffffffff16815260200190815260200160002060008282546116bd9190613558565b9250508190555060003373ffffffffffffffffffffffffffffffffffffffff16826040516116ea9061366b565b60006040518083038185875af1925050503d8060008114611727576040519150601f19603f3d011682016040523d82523d6000602084013e61172c565b606091505b5050905080611770576040517f08c379a0000000000000000000000000000000000000000000000000000000008152600401611767906136cc565b60405180910390fd5b3373ffffffffffffffffffffffffffffffffffffffff167f1d3eee4ca001cff39eec6ec7615aacf2f2bd61791273830728ba00ccbd6e1337836040516117b69190612f16565b60405180910390a25050565b7f000000000000000000000000000000000000000000000000000000000000000081565b60055481565b7f000000000000000000000000000000000000000000000000000000000000000073ffffffffffffffffffffffffffffffffffffffff163373ffffffffffffffffffffffffffffffffffffffff161461187a576040517f08c379a000000000000000000000000000000000000000000000000000000000815260040161187190613b72565b60405180910390fd5b600081116118bd576040517f08c379a00000000000000000000000000000000000000000000000000000000081526004016118b490613a9a565b60405180910390fd5b600754811115611902576040517f08c379a00000000000000000000000000000000000000000000000000000000081526004016118f990613b06565b60405180910390fd5b80600760008282546119149190613558565b9250508190555060007f000000000000000000000000000000000000000000000000000000000000000073ffffffffffffffffffffffffffffffffffffffff16826040516119619061366b565b60006040518083038185875af1925050503d806000811461199e576040519150601f19603f3d011682016040523d82523d6000602084013e6119a3565b606091505b50509050806119e7576040517f08c379a00000000000000000000000000000000000000000000000000000000081526004016119de906136cc565b60405180910390fd5b7fe1ba612886c314bab269521f17316b07e06593a8fbe87c52802306c8c6f7786582604051611a169190612f16565b60405180910390a15050565b61012c81565b7f000000000000000000000000000000000000000000000000000000000000000081565b7f000000000000000000000000000000000000000000000000000000000000000081565b7f000000000000000000000000000000000000000000000000000000000000000081565b6000600360009054906101000a900460ff161580611abe5750600360029054906101000a900460ff165b80611ace57506000600280549050145b15611adc5760009050611b37565b60028054905060045410611af35760009050611b37565b600260045481548110611b0957611b08613314565b5b9060005260206000200160009054906101000a900473ffffffffffffffffffffffffffffffffffffffff1690505b90565b6000600280549050905090565b7f000000000000000000000000000000000000000000000000000000000000000081565b600360009054906101000a900460ff1681565b6107d081565b61012c81565b6000600180549050905090565b60045481565b7f000000000000000000000000000000000000000000000000000000000000000081565b61012c81565b60018181548110611bd757600080fd5b906000526020600020016000915054906101000a900473ffffffffffffffffffffffffffffffffffffffff1681565b600360009054906101000a900460ff16611c55576040517f08c379a0000000000000000000000000000000000000000000000000000000008152600401611c4c9061321c565b60405180910390fd5b600360029054906101000a900460ff1615611ca5576040517f08c379a0000000000000000000000000000000000000000000000000000000008152600401611c9c90613bde565b60405180910390fd5b600360019054906101000a900460ff1615611cf5576040517f08c379a0000000000000000000000000000000000000000000000000000000008152600401611cec90613c4a565b60405180910390fd5b60028054905060045410611d3e576040517f08c379a0000000000000000000000000000000000000000000000000000000008152600401611d3590613cb6565b60405180910390fd5b6005544211611d82576040517f08c379a0000000000000000000000000000000000000000000000000000000008152600401611d7990613d22565b60405180910390fd5b6000600260045481548110611d9a57611d99613314565b5b9060005260206000200160009054906101000a900473ffffffffffffffffffffffffffffffffffffffff16905060008060008373ffffffffffffffffffffffffffffffffffffffff1673ffffffffffffffffffffffffffffffffffffffff16815260200190815260200160002090508060030160029054906101000a900460ff1615611e5b576040517f08c379a0000000000000000000000000000000000000000000000000000000008152600401611e5290613d8e565b60405180910390fd5b60018160030160026101000a81548160ff02191690831515021790555060008160030160036101000a81548160ff02191690831515021790555060018160030160046101000a81548160ff02191690831515021790555060006127106101f47f0000000000000000000000000000000000000000000000000000000000000000611ee591906134b6565b611eef9190613527565b90506000817f0000000000000000000000000000000000000000000000000000000000000000611f1f9190613558565b905081600860003373ffffffffffffffffffffffffffffffffffffffff1673ffffffffffffffffffffffffffffffffffffffff1681526020019081526020016000206000828254611f70919061358c565b925050819055508060076000828254611f89919061358c565b925050819055503373ffffffffffffffffffffffffffffffffffffffff167f578afab8065b30a5e9827120e4905b8a1810e180d2f793ca54af6f7633f4e57a83604051611fd69190612f16565b60405180910390a28373ffffffffffffffffffffffffffffffffffffffff167f1fb16dd9688950cb1ed4e1ef4eb31ef7aa2b66802a519a8936389e4e6e4b0d717f00000000000000000000000000000000000000000000000000000000000000006040516120449190613dfa565b60405180910390a260016006600082825461205f919061358c565b92505081905550600160046000828254612079919061358c565b925050819055506000600280549050600454101590506000807f0000000000000000000000000000000000000000000000000000000000000000141580156120e357507f000000000000000000000000000000000000000000000000000000000000000060065410155b905081806120ee5750805b1561214f576001600360026101000a81548160ff0219169083151502179055506121186000612d74565b7f9427ab050d1cdff5b941bc297ad5e113728d69972e8c69aa27c13e2d1b63fa1960405160405180910390a1505050505050612265565b7f00000000000000000000000000000000000000000000000000000000000000004261217b919061358c565b600581905550600060026004548154811061219957612198613314565b5b9060005260206000200160009054906101000a900473ffffffffffffffffffffffffffffffffffffffff1690508073ffffffffffffffffffffffffffffffffffffffff167f6a05c8de3f1f9f35b92c0552a95c5fa9328cc1854919ec31893524194dc6eb466000808473ffffffffffffffffffffffffffffffffffffffff1673ffffffffffffffffffffffffffffffffffffffff1681526020019081526020016000206002015460055460065460405161225593929190612f31565b60405180910390a2505050505050505b565b678ac7230489e8000081565b66038d7ea4c6800081565b600360009054906101000a900460ff166122cd576040517f08c379a00000000000000000000000000000000000000000000000000000000081526004016122c49061321c565b60405180910390fd5b600360029054906101000a900460ff161561231d576040517f08c379a000000000000000000000000000000000000000000000000000000000815260040161231490613e74565b60405180910390fd5b600360019054906101000a900460ff161561236d576040517f08c379a000000000000000000000000000000000000000000000000000000000815260040161236490613c4a565b60405180910390fd5b600280549050600454106123b6576040517f08c379a00000000000000000000000000000000000000000000000000000000081526004016123ad90613cb6565b60405180910390fd5b6005544211156123fb576040517f08c379a00000000000000000000000000000000000000000000000000000000081526004016123f290613ee0565b60405180910390fd5b600060026004548154811061241357612412613314565b5b9060005260206000200160009054906101000a900473ffffffffffffffffffffffffffffffffffffffff1690508073ffffffffffffffffffffffffffffffffffffffff163373ffffffffffffffffffffffffffffffffffffffff16146124ae576040517f08c379a00000000000000000000000000000000000000000000000000000000081526004016124a590613f4c565b60405180910390fd5b60008060008373ffffffffffffffffffffffffffffffffffffffff1673ffffffffffffffffffffffffffffffffffffffff16815260200190815260200160002060020154905060007f00000000000000000000000000000000000000000000000000000000000000008211612524576000612551565b7f0000000000000000000000000000000000000000000000000000000000000000826125509190613558565b5b9050803414612595576040517f08c379a000000000000000000000000000000000000000000000000000000000815260040161258c90613fb8565b60405180910390fd5b347f00000000000000000000000000000000000000000000000000000000000000006125c1919061358c565b600760008282546125d2919061358c565b925050819055506001600360016101000a81548160ff0219169083151502179055506125fd83612d74565b60016000808573ffffffffffffffffffffffffffffffffffffffff1673ffffffffffffffffffffffffffffffffffffffff16815260200190815260200160002060030160026101000a81548160ff0219169083151502179055508273ffffffffffffffffffffffffffffffffffffffff167f8cbbe5cd65720098fc8ce6e99a5deb232085117dd486475b49cb11604b528f30347f00000000000000000000000000000000000000000000000000000000000000006126bb919061358c565b6040516126c89190612f16565b60405180910390a2505050565b6101f481565b7f0000000000000000000000000000000000000000000000000000000000000000421061273d576040517f08c379a000000000000000000000000000000000000000000000000000000000815260040161273490614024565b60405180910390fd5b6000801b8103612782576040517f08c379a000000000000000000000000000000000000000000000000000000000815260040161277990614090565b60405180910390fd5b7f0000000000000000000000000000000000000000000000000000000000000000600180549050106127e9576040517f08c379a00000000000000000000000000000000000000000000000000000000081526004016127e0906140fc565b60405180910390fd5b7f0000000000000000000000000000000000000000000000000000000000000000341461284b576040517f08c379a000000000000000000000000000000000000000000000000000000000815260040161284290614168565b60405180910390fd5b60008060003373ffffffffffffffffffffffffffffffffffffffff1673ffffffffffffffffffffffffffffffffffffffff16815260200190815260200160002090508060030160009054906101000a900460ff16156128df576040517f08c379a00000000000000000000000000000000000000000000000000000000081526004016128d6906141d4565b60405180910390fd5b81816000018190555042816001018190555060018160030160006101000a81548160ff0219169083151502179055506001339080600181540180825580915050600190039060005260206000200160009091909190916101000a81548173ffffffffffffffffffffffffffffffffffffffff021916908373ffffffffffffffffffffffffffffffffffffffff1602179055503373ffffffffffffffffffffffffffffffffffffffff167f4d7787535441abadf1feb20a4be6ef748ae9c25c03364e195afc8bcc8816d980836040516129b7919061302c565b60405180910390a25050565b600360029054906101000a900460ff1681565b7f000000000000000000000000000000000000000000000000000000000000000081565b60065481565b60006020528060005260406000206000915090508060000154908060010154908060020154908060030160009054906101000a900460ff16908060030160019054906101000a900460ff16908060030160029054906101000a900460ff16908060030160039054906101000a900460ff16908060030160049054906101000a900460ff16905088565b6002819080600181540180825580915050600190039060005260206000200160009091909190916101000a81548173ffffffffffffffffffffffffffffffffffffffff021916908373ffffffffffffffffffffffffffffffffffffffff16021790555060006001600280549050612b009190613558565b90505b6000811115612d705760006002600183612b1d9190613558565b81548110612b2e57612b2d613314565b5b9060005260206000200160009054906101000a900473ffffffffffffffffffffffffffffffffffffffff16905060008060008573ffffffffffffffffffffffffffffffffffffffff1673ffffffffffffffffffffffffffffffffffffffff16815260200190815260200160002060020154905060008060008473ffffffffffffffffffffffffffffffffffffffff1673ffffffffffffffffffffffffffffffffffffffff168152602001908152602001600020600201549050808211612c9457808203612c8b576000808473ffffffffffffffffffffffffffffffffffffffff1673ffffffffffffffffffffffffffffffffffffffff168152602001908152602001600020600101546000808773ffffffffffffffffffffffffffffffffffffffff1673ffffffffffffffffffffffffffffffffffffffff1681526020019081526020016000206001015410612c8657505050612d70565b612c93565b505050612d70565b5b8260028581548110612ca957612ca8613314565b5b9060005260206000200160006101000a81548173ffffffffffffffffffffffffffffffffffffffff021916908373ffffffffffffffffffffffffffffffffffffffff160217905550846002600186612d019190613558565b81548110612d1257612d11613314565b5b9060005260206000200160006101000a81548173ffffffffffffffffffffffffffffffffffffffff021916908373ffffffffffffffffffffffffffffffffffffffff1602179055508380612d65906141f4565b945050505050612b03565b5050565b60005b600280549050811015612e6957600060028281548110612d9a57612d99613314565b5b9060005260206000200160009054906101000a900473ffffffffffffffffffffffffffffffffffffffff1690508273ffffffffffffffffffffffffffffffffffffffff168173ffffffffffffffffffffffffffffffffffffffff1603612e005750612e5c565b60008060008373ffffffffffffffffffffffffffffffffffffffff1673ffffffffffffffffffffffffffffffffffffffff16815260200190815260200160002060030160036101000a81548160ff021916908315150217905550505b8080600101915050612d77565b5050565b600080fd5b600073ffffffffffffffffffffffffffffffffffffffff82169050919050565b6000612e9d82612e72565b9050919050565b612ead81612e92565b8114612eb857600080fd5b50565b600081359050612eca81612ea4565b92915050565b600060208284031215612ee657612ee5612e6d565b5b6000612ef484828501612ebb565b91505092915050565b6000819050919050565b612f1081612efd565b82525050565b6000602082019050612f2b6000830184612f07565b92915050565b6000606082019050612f466000830186612f07565b612f536020830185612f07565b612f606040830184612f07565b949350505050565b612f7181612efd565b8114612f7c57600080fd5b50565b600081359050612f8e81612f68565b92915050565b6000819050919050565b612fa781612f94565b8114612fb257600080fd5b50565b600081359050612fc481612f9e565b92915050565b600080600060608486031215612fe357612fe2612e6d565b5b6000612ff186828701612f7f565b935050602061300286828701612fb5565b925050604061301386828701612ebb565b9150509250925092565b61302681612f94565b82525050565b6000602082019050613041600083018461301d565b92915050565b60008115159050919050565b61305c81613047565b82525050565b60006020820190506130776000830184613053565b92915050565b6000806040838503121561309457613093612e6d565b5b60006130a285828601612f7f565b92505060206130b385828601612fb5565b9150509250929050565b6000602082840312156130d3576130d2612e6d565b5b60006130e184828501612f7f565b91505092915050565b6130f381612e92565b82525050565b600060208201905061310e60008301846130ea565b92915050565b60006020828403121561312a57613129612e6d565b5b600061313884828501612fb5565b91505092915050565b600061010082019050613157600083018b61301d565b613164602083018a612f07565b6131716040830189612f07565b61317e6060830188613053565b61318b6080830187613053565b61319860a0830186613053565b6131a560c0830185613053565b6131b260e0830184613053565b9998505050505050505050565b600082825260208201905092915050565b7f4e6f2066696e616c697a61646f00000000000000000000000000000000000000600082015250565b6000613206600d836131bf565b9150613211826131d0565b602082019050919050565b60006020820190508181036000830152613235816131f9565b9050919050565b7f4e6f207061727469636970617374650000000000000000000000000000000000600082015250565b6000613272600f836131bf565b915061327d8261323c565b602082019050919050565b600060208201905081810360008301526132a181613265565b9050919050565b7f596120726574697261646f2f67657374696f6e61646f00000000000000000000600082015250565b60006132de6016836131bf565b91506132e9826132a8565b602082019050919050565b6000602082019050818103600083015261330d816132d1565b9050919050565b7f4e487b7100000000000000000000000000000000000000000000000000000000600052603260045260246000fd5b7f47616e61646f72206e6f20726574697261000000000000000000000000000000600082015250565b60006133796011836131bf565b915061338482613343565b602082019050919050565b600060208201905081810360008301526133a88161336c565b9050919050565b7f44656661756c743a206669616e7a612070657264696461000000000000000000600082015250565b60006133e56017836131bf565b91506133f0826133af565b602082019050919050565b60006020820190508181036000830152613414816133d8565b9050919050565b7f41756e20626c6f71756561646f202872616e6b696e6729000000000000000000600082015250565b60006134516017836131bf565b915061345c8261341b565b602082019050919050565b6000602082019050818103600083015261348081613444565b9050919050565b7f4e487b7100000000000000000000000000000000000000000000000000000000600052601160045260246000fd5b60006134c182612efd565b91506134cc83612efd565b92508282026134da81612efd565b915082820484148315176134f1576134f0613487565b5b5092915050565b7f4e487b7100000000000000000000000000000000000000000000000000000000600052601260045260246000fd5b600061353282612efd565b915061353d83612efd565b92508261354d5761354c6134f8565b5b828204905092915050565b600061356382612efd565b915061356e83612efd565b925082820390508181111561358657613585613487565b5b92915050565b600061359782612efd565b91506135a283612efd565b92508282019050808211156135ba576135b9613487565b5b92915050565b7f646964206e6f742072657665616c000000000000000000000000000000000000600082015250565b60006135f6600e836131bf565b9150613601826135c0565b602082019050919050565b60006040820190506136216000830184612f07565b8181036020830152613632816135e9565b905092915050565b600081905092915050565b50565b600061365560008361363a565b915061366082613645565b600082019050919050565b600061367682613648565b9150819050919050565b7f5472616e736665722066616c6c6f000000000000000000000000000000000000600082015250565b60006136b6600e836131bf565b91506136c182613680565b602082019050919050565b600060208201905081810360008301526136e5816136a9565b9050919050565b60006080820190506137016000830187612f07565b61370e602083018661301d565b61371b60408301856130ea565b61372860608301846130ea565b95945050505050565b7f52657665616c206e6f20696e6963696164610000000000000000000000000000600082015250565b60006137676012836131bf565b915061377282613731565b602082019050919050565b600060208201905081810360008301526137968161375a565b9050919050565b7f52657665616c2063657272616461000000000000000000000000000000000000600082015250565b60006137d3600e836131bf565b91506137de8261379d565b602082019050919050565b60006020820190508181036000830152613802816137c6565b9050919050565b7f596120726576656c617374650000000000000000000000000000000000000000600082015250565b600061383f600c836131bf565b915061384a82613809565b602082019050919050565b6000602082019050818103600083015261386e81613832565b9050919050565b7f426964203c206669616e7a610000000000000000000000000000000000000000600082015250565b60006138ab600c836131bf565b91506138b682613875565b602082019050919050565b600060208201905081810360008301526138da8161389e565b9050919050565b7f52657665616c20696e76616c69646f0000000000000000000000000000000000600082015250565b6000613917600f836131bf565b9150613922826138e1565b602082019050919050565b600060208201905081810360008301526139468161390a565b9050919050565b7f52657665616c206e6f207465726d696e61646f00000000000000000000000000600082015250565b60006139836013836131bf565b915061398e8261394d565b602082019050919050565b600060208201905081810360008301526139b281613976565b9050919050565b7f59612066696e616c697a61646f00000000000000000000000000000000000000600082015250565b60006139ef600d836131bf565b91506139fa826139b9565b602082019050919050565b60006020820190508181036000830152613a1e816139e2565b9050919050565b6000604082019050613a3a6000830185612f07565b613a476020830184612f07565b9392505050565b7f616d6f756e743d30000000000000000000000000000000000000000000000000600082015250565b6000613a846008836131bf565b9150613a8f82613a4e565b602082019050919050565b60006020820190508181036000830152613ab381613a77565b9050919050565b7f496e737566696369656e74650000000000000000000000000000000000000000600082015250565b6000613af0600c836131bf565b9150613afb82613aba565b602082019050919050565b60006020820190508181036000830152613b1f81613ae3565b9050919050565b7f536f6c6f206f776e657200000000000000000000000000000000000000000000600082015250565b6000613b5c600a836131bf565b9150613b6782613b26565b602082019050919050565b60006020820190508181036000830152613b8b81613b4f565b9050919050565b7f5961206465736965727461000000000000000000000000000000000000000000600082015250565b6000613bc8600b836131bf565b9150613bd382613b92565b602082019050919050565b60006020820190508181036000830152613bf781613bbb565b9050919050565b7f596120636f6d706c657461646100000000000000000000000000000000000000600082015250565b6000613c34600d836131bf565b9150613c3f82613bfe565b602082019050919050565b60006020820190508181036000830152613c6381613c27565b9050919050565b7f53696e2067616e61646f72000000000000000000000000000000000000000000600082015250565b6000613ca0600b836131bf565b9150613cab82613c6a565b602082019050919050565b60006020820190508181036000830152613ccf81613c93565b9050919050565b7f506c617a6f2061756e2061637469766f00000000000000000000000000000000600082015250565b6000613d0c6010836131bf565b9150613d1782613cd6565b602082019050919050565b60006020820190508181036000830152613d3b81613cff565b9050919050565b7f59612067657374696f6e61646f00000000000000000000000000000000000000600082015250565b6000613d78600d836131bf565b9150613d8382613d42565b602082019050919050565b60006020820190508181036000830152613da781613d6b565b9050919050565b7f77696e6e657220646964206e6f74207061790000000000000000000000000000600082015250565b6000613de46012836131bf565b9150613def82613dae565b602082019050919050565b6000604082019050613e0f6000830184612f07565b8181036020830152613e2081613dd7565b905092915050565b7f5375626173746120646573696572746100000000000000000000000000000000600082015250565b6000613e5e6010836131bf565b9150613e6982613e28565b602082019050919050565b60006020820190508181036000830152613e8d81613e51565b9050919050565b7f506c617a6f20657870697261646f000000000000000000000000000000000000600082015250565b6000613eca600e836131bf565b9150613ed582613e94565b602082019050919050565b60006020820190508181036000830152613ef981613ebd565b9050919050565b7f4e6f206572657320656c2067616e61646f722061637475616c00000000000000600082015250565b6000613f366019836131bf565b9150613f4182613f00565b602082019050919050565b60006020820190508181036000830152613f6581613f29565b9050919050565b7f43616e746964616420696e636f72726563746100000000000000000000000000600082015250565b6000613fa26013836131bf565b9150613fad82613f6c565b602082019050919050565b60006020820190508181036000830152613fd181613f95565b9050919050565b7f436f6d6d69742063657272616461000000000000000000000000000000000000600082015250565b600061400e600e836131bf565b915061401982613fd8565b602082019050919050565b6000602082019050818103600083015261403d81614001565b9050919050565b7f436f6d6d69746d656e7420696e76616c69646f00000000000000000000000000600082015250565b600061407a6013836131bf565b915061408582614044565b602082019050919050565b600060208201905081810360008301526140a98161406d565b9050919050565b7f53756261737461206c6c656e6100000000000000000000000000000000000000600082015250565b60006140e6600d836131bf565b91506140f1826140b0565b602082019050919050565b60006020820190508181036000830152614115816140d9565b9050919050565b7f4465626573207061676172206c61206669616e7a612065786163746100000000600082015250565b6000614152601c836131bf565b915061415d8261411c565b602082019050919050565b6000602082019050818103600083015261418181614145565b9050919050565b7f5961206869636973746520636f6d6d6974000000000000000000000000000000600082015250565b60006141be6011836131bf565b91506141c982614188565b602082019050919050565b600060208201905081810360008301526141ed816141b1565b9050919050565b60006141ff82612efd565b91506000820361421257614211613487565b5b60018203905091905056fea264697066735822122071714615b3c5592e2444e46602d439e1c3b84ee2b2a196a06d9192aaa9ca79c964736f6c634300081e0033",
					"opcodes": "PUSH2 0x160 PUSH1 0x40 MSTORE CALLVALUE DUP1 ISZERO PUSH2 0x11 JUMPI PUSH1 0x0 DUP1 REVERT JUMPDEST POP PUSH1 0x40 MLOAD PUSH2 0x4A43 CODESIZE SUB DUP1 PUSH2 0x4A43 DUP4 CODECOPY DUP2 DUP2 ADD PUSH1 0x40 MSTORE DUP2 ADD SWAP1 PUSH2 0x33 SWAP2 SWAP1 PUSH2 0x2E4 JUMP JUMPDEST PUSH2 0x12C DUP7 LT ISZERO PUSH2 0x78 JUMPI PUSH1 0x40 MLOAD PUSH32 0x8C379A000000000000000000000000000000000000000000000000000000000 DUP2 MSTORE PUSH1 0x4 ADD PUSH2 0x6F SWAP1 PUSH2 0x3CE JUMP JUMPDEST PUSH1 0x40 MLOAD DUP1 SWAP2 SUB SWAP1 REVERT JUMPDEST PUSH2 0x12C DUP6 LT ISZERO PUSH2 0xBD JUMPI PUSH1 0x40 MLOAD PUSH32 0x8C379A000000000000000000000000000000000000000000000000000000000 DUP2 MSTORE PUSH1 0x4 ADD PUSH2 0xB4 SWAP1 PUSH2 0x43A JUMP JUMPDEST PUSH1 0x40 MLOAD DUP1 SWAP2 SUB SWAP1 REVERT JUMPDEST PUSH2 0x12C DUP4 LT ISZERO PUSH2 0x102 JUMPI PUSH1 0x40 MLOAD PUSH32 0x8C379A000000000000000000000000000000000000000000000000000000000 DUP2 MSTORE PUSH1 0x4 ADD PUSH2 0xF9 SWAP1 PUSH2 0x4A6 JUMP JUMPDEST PUSH1 0x40 MLOAD DUP1 SWAP2 SUB SWAP1 REVERT JUMPDEST PUSH7 0x38D7EA4C68000 DUP5 LT ISZERO PUSH2 0x14C JUMPI PUSH1 0x40 MLOAD PUSH32 0x8C379A000000000000000000000000000000000000000000000000000000000 DUP2 MSTORE PUSH1 0x4 ADD PUSH2 0x143 SWAP1 PUSH2 0x512 JUMP JUMPDEST PUSH1 0x40 MLOAD DUP1 SWAP2 SUB SWAP1 REVERT JUMPDEST PUSH8 0x8AC7230489E80000 DUP5 GT ISZERO PUSH2 0x197 JUMPI PUSH1 0x40 MLOAD PUSH32 0x8C379A000000000000000000000000000000000000000000000000000000000 DUP2 MSTORE PUSH1 0x4 ADD PUSH2 0x18E SWAP1 PUSH2 0x57E JUMP JUMPDEST PUSH1 0x40 MLOAD DUP1 SWAP2 SUB SWAP1 REVERT JUMPDEST PUSH1 0xA DUP3 LT ISZERO PUSH2 0x1DB JUMPI PUSH1 0x40 MLOAD PUSH32 0x8C379A000000000000000000000000000000000000000000000000000000000 DUP2 MSTORE PUSH1 0x4 ADD PUSH2 0x1D2 SWAP1 PUSH2 0x5EA JUMP JUMPDEST PUSH1 0x40 MLOAD DUP1 SWAP2 SUB SWAP1 REVERT JUMPDEST PUSH1 0xC8 DUP3 GT ISZERO PUSH2 0x21F JUMPI PUSH1 0x40 MLOAD PUSH32 0x8C379A000000000000000000000000000000000000000000000000000000000 DUP2 MSTORE PUSH1 0x4 ADD PUSH2 0x216 SWAP1 PUSH2 0x656 JUMP JUMPDEST PUSH1 0x40 MLOAD DUP1 SWAP2 SUB SWAP1 REVERT JUMPDEST CALLER PUSH20 0xFFFFFFFFFFFFFFFFFFFFFFFFFFFFFFFFFFFFFFFF AND PUSH1 0x80 DUP2 PUSH20 0xFFFFFFFFFFFFFFFFFFFFFFFFFFFFFFFFFFFFFFFF AND DUP2 MSTORE POP POP DUP6 TIMESTAMP PUSH2 0x25F SWAP2 SWAP1 PUSH2 0x6A5 JUMP JUMPDEST PUSH1 0xA0 DUP2 DUP2 MSTORE POP POP DUP5 PUSH1 0xA0 MLOAD PUSH2 0x274 SWAP2 SWAP1 PUSH2 0x6A5 JUMP JUMPDEST PUSH1 0xC0 DUP2 DUP2 MSTORE POP POP DUP4 PUSH1 0xE0 DUP2 DUP2 MSTORE POP POP DUP3 PUSH2 0x100 DUP2 DUP2 MSTORE POP POP DUP2 PUSH2 0x120 DUP2 DUP2 MSTORE POP POP DUP1 PUSH2 0x140 DUP2 DUP2 MSTORE POP POP POP POP POP POP POP POP PUSH2 0x6D9 JUMP JUMPDEST PUSH1 0x0 DUP1 REVERT JUMPDEST PUSH1 0x0 DUP2 SWAP1 POP SWAP2 SWAP1 POP JUMP JUMPDEST PUSH2 0x2C1 DUP2 PUSH2 0x2AE JUMP JUMPDEST DUP2 EQ PUSH2 0x2CC JUMPI PUSH1 0x0 DUP1 REVERT JUMPDEST POP JUMP JUMPDEST PUSH1 0x0 DUP2 MLOAD SWAP1 POP PUSH2 0x2DE DUP2 PUSH2 0x2B8 JUMP JUMPDEST SWAP3 SWAP2 POP POP JUMP JUMPDEST PUSH1 0x0 DUP1 PUSH1 0x0 DUP1 PUSH1 0x0 DUP1 PUSH1 0xC0 DUP8 DUP10 SUB SLT ISZERO PUSH2 0x301 JUMPI PUSH2 0x300 PUSH2 0x2A9 JUMP JUMPDEST JUMPDEST PUSH1 0x0 PUSH2 0x30F DUP10 DUP3 DUP11 ADD PUSH2 0x2CF JUMP JUMPDEST SWAP7 POP POP PUSH1 0x20 PUSH2 0x320 DUP10 DUP3 DUP11 ADD PUSH2 0x2CF JUMP JUMPDEST SWAP6 POP POP PUSH1 0x40 PUSH2 0x331 DUP10 DUP3 DUP11 ADD PUSH2 0x2CF JUMP JUMPDEST SWAP5 POP POP PUSH1 0x60 PUSH2 0x342 DUP10 DUP3 DUP11 ADD PUSH2 0x2CF JUMP JUMPDEST SWAP4 POP POP PUSH1 0x80 PUSH2 0x353 DUP10 DUP3 DUP11 ADD PUSH2 0x2CF JUMP JUMPDEST SWAP3 POP POP PUSH1 0xA0 PUSH2 0x364 DUP10 DUP3 DUP11 ADD PUSH2 0x2CF JUMP JUMPDEST SWAP2 POP POP SWAP3 SWAP6 POP SWAP3 SWAP6 POP SWAP3 SWAP6 JUMP JUMPDEST PUSH1 0x0 DUP3 DUP3 MSTORE PUSH1 0x20 DUP3 ADD SWAP1 POP SWAP3 SWAP2 POP POP JUMP JUMPDEST PUSH32 0x636F6D6D69744475726174696F6E206D757920636F72746F0000000000000000 PUSH1 0x0 DUP3 ADD MSTORE POP JUMP JUMPDEST PUSH1 0x0 PUSH2 0x3B8 PUSH1 0x18 DUP4 PUSH2 0x371 JUMP JUMPDEST SWAP2 POP PUSH2 0x3C3 DUP3 PUSH2 0x382 JUMP JUMPDEST PUSH1 0x20 DUP3 ADD SWAP1 POP SWAP2 SWAP1 POP JUMP JUMPDEST PUSH1 0x0 PUSH1 0x20 DUP3 ADD SWAP1 POP DUP2 DUP2 SUB PUSH1 0x0 DUP4 ADD MSTORE PUSH2 0x3E7 DUP2 PUSH2 0x3AB JUMP JUMPDEST SWAP1 POP SWAP2 SWAP1 POP JUMP JUMPDEST PUSH32 0x72657665616C4475726174696F6E206D757920636F72746F0000000000000000 PUSH1 0x0 DUP3 ADD MSTORE POP JUMP JUMPDEST PUSH1 0x0 PUSH2 0x424 PUSH1 0x18 DUP4 PUSH2 0x371 JUMP JUMPDEST SWAP2 POP PUSH2 0x42F DUP3 PUSH2 0x3EE JUMP JUMPDEST PUSH1 0x20 DUP3 ADD SWAP1 POP SWAP2 SWAP1 POP JUMP JUMPDEST PUSH1 0x0 PUSH1 0x20 DUP3 ADD SWAP1 POP DUP2 DUP2 SUB PUSH1 0x0 DUP4 ADD MSTORE PUSH2 0x453 DUP2 PUSH2 0x417 JUMP JUMPDEST SWAP1 POP SWAP2 SWAP1 POP JUMP JUMPDEST PUSH32 0x7061796D656E744475726174696F6E206D757920636F72746F00000000000000 PUSH1 0x0 DUP3 ADD MSTORE POP JUMP JUMPDEST PUSH1 0x0 PUSH2 0x490 PUSH1 0x19 DUP4 PUSH2 0x371 JUMP JUMPDEST SWAP2 POP PUSH2 0x49B DUP3 PUSH2 0x45A JUMP JUMPDEST PUSH1 0x20 DUP3 ADD SWAP1 POP SWAP2 SWAP1 POP JUMP JUMPDEST PUSH1 0x0 PUSH1 0x20 DUP3 ADD SWAP1 POP DUP2 DUP2 SUB PUSH1 0x0 DUP4 ADD MSTORE PUSH2 0x4BF DUP2 PUSH2 0x483 JUMP JUMPDEST SWAP1 POP SWAP2 SWAP1 POP JUMP JUMPDEST PUSH32 0x6465706F7369742064656D61736961646F2062616A6F00000000000000000000 PUSH1 0x0 DUP3 ADD MSTORE POP JUMP JUMPDEST PUSH1 0x0 PUSH2 0x4FC PUSH1 0x16 DUP4 PUSH2 0x371 JUMP JUMPDEST SWAP2 POP PUSH2 0x507 DUP3 PUSH2 0x4C6 JUMP JUMPDEST PUSH1 0x20 DUP3 ADD SWAP1 POP SWAP2 SWAP1 POP JUMP JUMPDEST PUSH1 0x0 PUSH1 0x20 DUP3 ADD SWAP1 POP DUP2 DUP2 SUB PUSH1 0x0 DUP4 ADD MSTORE PUSH2 0x52B DUP2 PUSH2 0x4EF JUMP JUMPDEST SWAP1 POP SWAP2 SWAP1 POP JUMP JUMPDEST PUSH32 0x6465706F7369742064656D61736961646F20616C746F00000000000000000000 PUSH1 0x0 DUP3 ADD MSTORE POP JUMP JUMPDEST PUSH1 0x0 PUSH2 0x568 PUSH1 0x16 DUP4 PUSH2 0x371 JUMP JUMPDEST SWAP2 POP PUSH2 0x573 DUP3 PUSH2 0x532 JUMP JUMPDEST PUSH1 0x20 DUP3 ADD SWAP1 POP SWAP2 SWAP1 POP JUMP JUMPDEST PUSH1 0x0 PUSH1 0x20 DUP3 ADD SWAP1 POP DUP2 DUP2 SUB PUSH1 0x0 DUP4 ADD MSTORE PUSH2 0x597 DUP2 PUSH2 0x55B JUMP JUMPDEST SWAP1 POP SWAP2 SWAP1 POP JUMP JUMPDEST PUSH32 0x6D6178426964646572732064656D61736961646F2062616A6F00000000000000 PUSH1 0x0 DUP3 ADD MSTORE POP JUMP JUMPDEST PUSH1 0x0 PUSH2 0x5D4 PUSH1 0x19 DUP4 PUSH2 0x371 JUMP JUMPDEST SWAP2 POP PUSH2 0x5DF DUP3 PUSH2 0x59E JUMP JUMPDEST PUSH1 0x20 DUP3 ADD SWAP1 POP SWAP2 SWAP1 POP JUMP JUMPDEST PUSH1 0x0 PUSH1 0x20 DUP3 ADD SWAP1 POP DUP2 DUP2 SUB PUSH1 0x0 DUP4 ADD MSTORE PUSH2 0x603 DUP2 PUSH2 0x5C7 JUMP JUMPDEST SWAP1 POP SWAP2 SWAP1 POP JUMP JUMPDEST PUSH32 0x6D6178426964646572732064656D61736961646F20616C746F00000000000000 PUSH1 0x0 DUP3 ADD MSTORE POP JUMP JUMPDEST PUSH1 0x0 PUSH2 0x640 PUSH1 0x19 DUP4 PUSH2 0x371 JUMP JUMPDEST SWAP2 POP PUSH2 0x64B DUP3 PUSH2 0x60A JUMP JUMPDEST PUSH1 0x20 DUP3 ADD SWAP1 POP SWAP2 SWAP1 POP JUMP JUMPDEST PUSH1 0x0 PUSH1 0x20 DUP3 ADD SWAP1 POP DUP2 DUP2 SUB PUSH1 0x0 DUP4 ADD MSTORE PUSH2 0x66F DUP2 PUSH2 0x633 JUMP JUMPDEST SWAP1 POP SWAP2 SWAP1 POP JUMP JUMPDEST PUSH32 0x4E487B7100000000000000000000000000000000000000000000000000000000 PUSH1 0x0 MSTORE PUSH1 0x11 PUSH1 0x4 MSTORE PUSH1 0x24 PUSH1 0x0 REVERT JUMPDEST PUSH1 0x0 PUSH2 0x6B0 DUP3 PUSH2 0x2AE JUMP JUMPDEST SWAP2 POP PUSH2 0x6BB DUP4 PUSH2 0x2AE JUMP JUMPDEST SWAP3 POP DUP3 DUP3 ADD SWAP1 POP DUP1 DUP3 GT ISZERO PUSH2 0x6D3 JUMPI PUSH2 0x6D2 PUSH2 0x676 JUMP JUMPDEST JUMPDEST SWAP3 SWAP2 POP POP JUMP JUMPDEST PUSH1 0x80 MLOAD PUSH1 0xA0 MLOAD PUSH1 0xC0 MLOAD PUSH1 0xE0 MLOAD PUSH2 0x100 MLOAD PUSH2 0x120 MLOAD PUSH2 0x140 MLOAD PUSH2 0x4253 PUSH2 0x7F0 PUSH1 0x0 CODECOPY PUSH1 0x0 DUP2 DUP2 PUSH2 0x2094 ADD MSTORE DUP2 DUP2 PUSH2 0x20BE ADD MSTORE PUSH2 0x29D8 ADD MSTORE PUSH1 0x0 DUP2 DUP2 PUSH2 0x1A4E ADD MSTORE PUSH2 0x2784 ADD MSTORE PUSH1 0x0 DUP2 DUP2 PUSH2 0x145F ADD MSTORE DUP2 DUP2 PUSH2 0x17C4 ADD MSTORE PUSH2 0x2151 ADD MSTORE PUSH1 0x0 DUP2 DUP2 PUSH2 0xBC9 ADD MSTORE DUP2 DUP2 PUSH2 0xBF9 ADD MSTORE DUP2 DUP2 PUSH2 0xC33 ADD MSTORE DUP2 DUP2 PUSH2 0x1117 ADD MSTORE DUP2 DUP2 PUSH2 0x1B9F ADD MSTORE DUP2 DUP2 PUSH2 0x1EBC ADD MSTORE DUP2 DUP2 PUSH2 0x1EF6 ADD MSTORE DUP2 DUP2 PUSH2 0x2018 ADD MSTORE DUP2 DUP2 PUSH2 0x24F8 ADD MSTORE DUP2 DUP2 PUSH2 0x2526 ADD MSTORE DUP2 DUP2 PUSH2 0x2598 ADD MSTORE DUP2 DUP2 PUSH2 0x2692 ADD MSTORE PUSH2 0x27EB ADD MSTORE PUSH1 0x0 DUP2 DUP2 PUSH2 0xE4B ADD MSTORE DUP2 DUP2 PUSH2 0xE7A ADD MSTORE DUP2 DUP2 PUSH2 0xFD0 ADD MSTORE DUP2 DUP2 PUSH2 0x127A ADD MSTORE PUSH2 0x1B49 ADD MSTORE PUSH1 0x0 DUP2 DUP2 PUSH2 0xDEE ADD MSTORE DUP2 DUP2 PUSH2 0xE1D ADD MSTORE DUP2 DUP2 PUSH2 0xF6D ADD MSTORE DUP2 DUP2 PUSH2 0x1A72 ADD MSTORE PUSH2 0x26DD ADD MSTORE PUSH1 0x0 DUP2 DUP2 PUSH2 0x17EE ADD MSTORE DUP2 DUP2 PUSH2 0x191F ADD MSTORE PUSH2 0x1A2A ADD MSTORE PUSH2 0x4253 PUSH1 0x0 RETURN INVALID PUSH1 0x80 PUSH1 0x40 MSTORE PUSH1 0x4 CALLDATASIZE LT PUSH2 0x23F JUMPI PUSH1 0x0 CALLDATALOAD PUSH1 0xE0 SHR DUP1 PUSH4 0xAE0AB2BA GT PUSH2 0x12E JUMPI DUP1 PUSH4 0xD4DAF77A GT PUSH2 0xAB JUMPI DUP1 PUSH4 0xF14FCBC8 GT PUSH2 0x6F JUMPI DUP1 PUSH4 0xF14FCBC8 EQ PUSH2 0x813 JUMPI DUP1 PUSH4 0xF156B57C EQ PUSH2 0x82F JUMPI DUP1 PUSH4 0xF2224795 EQ PUSH2 0x85A JUMPI DUP1 PUSH4 0xF776BD06 EQ PUSH2 0x885 JUMPI DUP1 PUSH4 0xFCC8F793 EQ PUSH2 0x8B0 JUMPI PUSH2 0x246 JUMP JUMPDEST DUP1 PUSH4 0xD4DAF77A EQ PUSH2 0x771 JUMPI DUP1 PUSH4 0xDD5967C3 EQ PUSH2 0x788 JUMPI DUP1 PUSH4 0xE1E158A5 EQ PUSH2 0x7B3 JUMPI DUP1 PUSH4 0xE35A70D9 EQ PUSH2 0x7DE JUMPI DUP1 PUSH4 0xEAAC5564 EQ PUSH2 0x7E8 JUMPI PUSH2 0x246 JUMP JUMPDEST DUP1 PUSH4 0xC87DA02D GT PUSH2 0xF2 JUMPI DUP1 PUSH4 0xC87DA02D EQ PUSH2 0x688 JUMPI DUP1 PUSH4 0xC8A58AB7 EQ PUSH2 0x6B3 JUMPI DUP1 PUSH4 0xD0E30DB0 EQ PUSH2 0x6DE JUMPI DUP1 PUSH4 0xD329DB8F EQ PUSH2 0x709 JUMPI DUP1 PUSH4 0xD3584E84 EQ PUSH2 0x734 JUMPI PUSH2 0x246 JUMP JUMPDEST DUP1 PUSH4 0xAE0AB2BA EQ PUSH2 0x5B1 JUMPI DUP1 PUSH4 0xB14B28A3 EQ PUSH2 0x5DC JUMPI DUP1 PUSH4 0xB3F05B97 EQ PUSH2 0x607 JUMPI DUP1 PUSH4 0xB9E42385 EQ PUSH2 0x632 JUMPI DUP1 PUSH4 0xC3F6AFD7 EQ PUSH2 0x65D JUMPI PUSH2 0x246 JUMP JUMPDEST DUP1 PUSH4 0x4C72E066 GT PUSH2 0x1BC JUMPI DUP1 PUSH4 0x7E278310 GT PUSH2 0x180 JUMPI DUP1 PUSH4 0x7E278310 EQ PUSH2 0x4DA JUMPI DUP1 PUSH4 0x8DA5CB5B EQ PUSH2 0x505 JUMPI DUP1 PUSH4 0xA097F3AC EQ PUSH2 0x530 JUMPI DUP1 PUSH4 0xA2FF0209 EQ PUSH2 0x55B JUMPI DUP1 PUSH4 0xAABE2FE3 EQ PUSH2 0x586 JUMPI PUSH2 0x246 JUMP JUMPDEST DUP1 PUSH4 0x4C72E066 EQ PUSH2 0x3F5 JUMPI DUP1 PUSH4 0x523A3F08 EQ PUSH2 0x432 JUMPI DUP1 PUSH4 0x56845EF7 EQ PUSH2 0x45B JUMPI DUP1 PUSH4 0x6D929F23 EQ PUSH2 0x486 JUMPI DUP1 PUSH4 0x76B9148F EQ PUSH2 0x4B1 JUMPI PUSH2 0x246 JUMP JUMPDEST DUP1 PUSH4 0x36D0054B GT PUSH2 0x203 JUMPI DUP1 PUSH4 0x36D0054B EQ PUSH2 0x334 JUMPI DUP1 PUSH4 0x3C454E40 EQ PUSH2 0x35F JUMPI DUP1 PUSH4 0x4036778F EQ PUSH2 0x38A JUMPI DUP1 PUSH4 0x474B7525 EQ PUSH2 0x3B3 JUMPI DUP1 PUSH4 0x4BB278F3 EQ PUSH2 0x3DE JUMPI PUSH2 0x246 JUMP JUMPDEST DUP1 PUSH4 0x700037D EQ PUSH2 0x24B JUMPI DUP1 PUSH4 0x117DF088 EQ PUSH2 0x288 JUMPI DUP1 PUSH4 0x1300A6D1 EQ PUSH2 0x29F JUMPI DUP1 PUSH4 0x176069E9 EQ PUSH2 0x2CC JUMPI DUP1 PUSH4 0x25BD0B9A EQ PUSH2 0x309 JUMPI PUSH2 0x246 JUMP JUMPDEST CALLDATASIZE PUSH2 0x246 JUMPI STOP JUMPDEST PUSH1 0x0 DUP1 REVERT JUMPDEST CALLVALUE DUP1 ISZERO PUSH2 0x257 JUMPI PUSH1 0x0 DUP1 REVERT JUMPDEST POP PUSH2 0x272 PUSH1 0x4 DUP1 CALLDATASIZE SUB DUP2 ADD SWAP1 PUSH2 0x26D SWAP2 SWAP1 PUSH2 0x2ED0 JUMP JUMPDEST PUSH2 0x8F4 JUMP JUMPDEST PUSH1 0x40 MLOAD PUSH2 0x27F SWAP2 SWAP1 PUSH2 0x2F16 JUMP JUMPDEST PUSH1 0x40 MLOAD DUP1 SWAP2 SUB SWAP1 RETURN JUMPDEST CALLVALUE DUP1 ISZERO PUSH2 0x294 JUMPI PUSH1 0x0 DUP1 REVERT JUMPDEST POP PUSH2 0x29D PUSH2 0x90C JUMP JUMPDEST STOP JUMPDEST CALLVALUE DUP1 ISZERO PUSH2 0x2AB JUMPI PUSH1 0x0 DUP1 REVERT JUMPDEST POP PUSH2 0x2B4 PUSH2 0xDE7 JUMP JUMPDEST PUSH1 0x40 MLOAD PUSH2 0x2C3 SWAP4 SWAP3 SWAP2 SWAP1 PUSH2 0x2F31 JUMP JUMPDEST PUSH1 0x40 MLOAD DUP1 SWAP2 SUB SWAP1 RETURN JUMPDEST CALLVALUE DUP1 ISZERO PUSH2 0x2D8 JUMPI PUSH1 0x0 DUP1 REVERT JUMPDEST POP PUSH2 0x2F3 PUSH1 0x4 DUP1 CALLDATASIZE SUB DUP2 ADD SWAP1 PUSH2 0x2EE SWAP2 SWAP1 PUSH2 0x2FCA JUMP JUMPDEST PUSH2 0xF16 JUMP JUMPDEST PUSH1 0x40 MLOAD PUSH2 0x300 SWAP2 SWAP1 PUSH2 0x302C JUMP JUMPDEST PUSH1 0x40 MLOAD DUP1 SWAP2 SUB SWAP1 RETURN JUMPDEST CALLVALUE DUP1 ISZERO PUSH2 0x315 JUMPI PUSH1 0x0 DUP1 REVERT JUMPDEST POP PUSH2 0x31E PUSH2 0xF4E JUMP JUMPDEST PUSH1 0x40 MLOAD PUSH2 0x32B SWAP2 SWAP1 PUSH2 0x2F16 JUMP JUMPDEST PUSH1 0x40 MLOAD DUP1 SWAP2 SUB SWAP1 RETURN JUMPDEST CALLVALUE DUP1 ISZERO PUSH2 0x340 JUMPI PUSH1 0x0 DUP1 REVERT JUMPDEST POP PUSH2 0x349 PUSH2 0xF53 JUMP JUMPDEST PUSH1 0x40 MLOAD PUSH2 0x356 SWAP2 SWAP1 PUSH2 0x3062 JUMP JUMPDEST PUSH1 0x40 MLOAD DUP1 SWAP2 SUB SWAP1 RETURN JUMPDEST CALLVALUE DUP1 ISZERO PUSH2 0x36B JUMPI PUSH1 0x0 DUP1 REVERT JUMPDEST POP PUSH2 0x374 PUSH2 0xF66 JUMP JUMPDEST PUSH1 0x40 MLOAD PUSH2 0x381 SWAP2 SWAP1 PUSH2 0x2F16 JUMP JUMPDEST PUSH1 0x40 MLOAD DUP1 SWAP2 SUB SWAP1 RETURN JUMPDEST CALLVALUE DUP1 ISZERO PUSH2 0x396 JUMPI PUSH1 0x0 DUP1 REVERT JUMPDEST POP PUSH2 0x3B1 PUSH1 0x4 DUP1 CALLDATASIZE SUB DUP2 ADD SWAP1 PUSH2 0x3AC SWAP2 SWAP1 PUSH2 0x307D JUMP JUMPDEST PUSH2 0xF6B JUMP JUMPDEST STOP JUMPDEST CALLVALUE DUP1 ISZERO PUSH2 0x3BF JUMPI PUSH1 0x0 DUP1 REVERT JUMPDEST POP PUSH2 0x3C8 PUSH2 0x1272 JUMP JUMPDEST PUSH1 0x40 MLOAD PUSH2 0x3D5 SWAP2 SWAP1 PUSH2 0x2F16 JUMP JUMPDEST PUSH1 0x40 MLOAD DUP1 SWAP2 SUB SWAP1 RETURN JUMPDEST CALLVALUE DUP1 ISZERO PUSH2 0x3EA JUMPI PUSH1 0x0 DUP1 REVERT JUMPDEST POP PUSH2 0x3F3 PUSH2 0x1278 JUMP JUMPDEST STOP JUMPDEST CALLVALUE DUP1 ISZERO PUSH2 0x401 JUMPI PUSH1 0x0 DUP1 REVERT JUMPDEST POP PUSH2 0x41C PUSH1 0x4 DUP1 CALLDATASIZE SUB DUP2 ADD SWAP1 PUSH2 0x417 SWAP2 SWAP1 PUSH2 0x30BD JUMP JUMPDEST PUSH2 0x156A JUMP JUMPDEST PUSH1 0x40 MLOAD PUSH2 0x429 SWAP2 SWAP1 PUSH2 0x30F9 JUMP JUMPDEST PUSH1 0x40 MLOAD DUP1 SWAP2 SUB SWAP1 RETURN JUMPDEST CALLVALUE DUP1 ISZERO PUSH2 0x43E JUMPI PUSH1 0x0 DUP1 REVERT JUMPDEST POP PUSH2 0x459 PUSH1 0x4 DUP1 CALLDATASIZE SUB DUP2 ADD SWAP1 PUSH2 0x454 SWAP2 SWAP1 PUSH2 0x30BD JUMP JUMPDEST PUSH2 0x15A9 JUMP JUMPDEST STOP JUMPDEST CALLVALUE DUP1 ISZERO PUSH2 0x467 JUMPI PUSH1 0x0 DUP1 REVERT JUMPDEST POP PUSH2 0x470 PUSH2 0x17C2 JUMP JUMPDEST PUSH1 0x40 MLOAD PUSH2 0x47D SWAP2 SWAP1 PUSH2 0x2F16 JUMP JUMPDEST PUSH1 0x40 MLOAD DUP1 SWAP2 SUB SWAP1 RETURN JUMPDEST CALLVALUE DUP1 ISZERO PUSH2 0x492 JUMPI PUSH1 0x0 DUP1 REVERT JUMPDEST POP PUSH2 0x49B PUSH2 0x17E6 JUMP JUMPDEST PUSH1 0x40 MLOAD PUSH2 0x4A8 SWAP2 SWAP1 PUSH2 0x2F16 JUMP JUMPDEST PUSH1 0x40 MLOAD DUP1 SWAP2 SUB SWAP1 RETURN JUMPDEST CALLVALUE DUP1 ISZERO PUSH2 0x4BD JUMPI PUSH1 0x0 DUP1 REVERT JUMPDEST POP PUSH2 0x4D8 PUSH1 0x4 DUP1 CALLDATASIZE SUB DUP2 ADD SWAP1 PUSH2 0x4D3 SWAP2 SWAP1 PUSH2 0x30BD JUMP JUMPDEST PUSH2 0x17EC JUMP JUMPDEST STOP JUMPDEST CALLVALUE DUP1 ISZERO PUSH2 0x4E6 JUMPI PUSH1 0x0 DUP1 REVERT JUMPDEST POP PUSH2 0x4EF PUSH2 0x1A22 JUMP JUMPDEST PUSH1 0x40 MLOAD PUSH2 0x4FC SWAP2 SWAP1 PUSH2 0x2F16 JUMP JUMPDEST PUSH1 0x40 MLOAD DUP1 SWAP2 SUB SWAP1 RETURN JUMPDEST CALLVALUE DUP1 ISZERO PUSH2 0x511 JUMPI PUSH1 0x0 DUP1 REVERT JUMPDEST POP PUSH2 0x51A PUSH2 0x1A28 JUMP JUMPDEST PUSH1 0x40 MLOAD PUSH2 0x527 SWAP2 SWAP1 PUSH2 0x30F9 JUMP JUMPDEST PUSH1 0x40 MLOAD DUP1 SWAP2 SUB SWAP1 RETURN JUMPDEST CALLVALUE DUP1 ISZERO PUSH2 0x53C JUMPI PUSH1 0x0 DUP1 REVERT JUMPDEST POP PUSH2 0x545 PUSH2 0x1A4C JUMP JUMPDEST PUSH1 0x40 MLOAD PUSH2 0x552 SWAP2 SWAP1 PUSH2 0x2F16 JUMP JUMPDEST PUSH1 0x40 MLOAD DUP1 SWAP2 SUB SWAP1 RETURN JUMPDEST CALLVALUE DUP1 ISZERO PUSH2 0x567 JUMPI PUSH1 0x0 DUP1 REVERT JUMPDEST POP PUSH2 0x570 PUSH2 0x1A70 JUMP JUMPDEST PUSH1 0x40 MLOAD PUSH2 0x57D SWAP2 SWAP1 PUSH2 0x2F16 JUMP JUMPDEST PUSH1 0x40 MLOAD DUP1 SWAP2 SUB SWAP1 RETURN JUMPDEST CALLVALUE DUP1 ISZERO PUSH2 0x592 JUMPI PUSH1 0x0 DUP1 REVERT JUMPDEST POP PUSH2 0x59B PUSH2 0x1A94 JUMP JUMPDEST PUSH1 0x40 MLOAD PUSH2 0x5A8 SWAP2 SWAP1 PUSH2 0x30F9 JUMP JUMPDEST PUSH1 0x40 MLOAD DUP1 SWAP2 SUB SWAP1 RETURN JUMPDEST CALLVALUE DUP1 ISZERO PUSH2 0x5BD JUMPI PUSH1 0x0 DUP1 REVERT JUMPDEST POP PUSH2 0x5C6 PUSH2 0x1B3A JUMP JUMPDEST PUSH1 0x40 MLOAD PUSH2 0x5D3 SWAP2 SWAP1 PUSH2 0x2F16 JUMP JUMPDEST PUSH1 0x40 MLOAD DUP1 SWAP2 SUB SWAP1 RETURN JUMPDEST CALLVALUE DUP1 ISZERO PUSH2 0x5E8 JUMPI PUSH1 0x0 DUP1 REVERT JUMPDEST POP PUSH2 0x5F1 PUSH2 0x1B47 JUMP JUMPDEST PUSH1 0x40 MLOAD PUSH2 0x5FE SWAP2 SWAP1 PUSH2 0x2F16 JUMP JUMPDEST PUSH1 0x40 MLOAD DUP1 SWAP2 SUB SWAP1 RETURN JUMPDEST CALLVALUE DUP1 ISZERO PUSH2 0x613 JUMPI PUSH1 0x0 DUP1 REVERT JUMPDEST POP PUSH2 0x61C PUSH2 0x1B6B JUMP JUMPDEST PUSH1 0x40 MLOAD PUSH2 0x629 SWAP2 SWAP1 PUSH2 0x3062 JUMP JUMPDEST PUSH1 0x40 MLOAD DUP1 SWAP2 SUB SWAP1 RETURN JUMPDEST CALLVALUE DUP1 ISZERO PUSH2 0x63E JUMPI PUSH1 0x0 DUP1 REVERT JUMPDEST POP PUSH2 0x647 PUSH2 0x1B7E JUMP JUMPDEST PUSH1 0x40 MLOAD PUSH2 0x654 SWAP2 SWAP1 PUSH2 0x2F16 JUMP JUMPDEST PUSH1 0x40 MLOAD DUP1 SWAP2 SUB SWAP1 RETURN JUMPDEST CALLVALUE DUP1 ISZERO PUSH2 0x669 JUMPI PUSH1 0x0 DUP1 REVERT JUMPDEST POP PUSH2 0x672 PUSH2 0x1B84 JUMP JUMPDEST PUSH1 0x40 MLOAD PUSH2 0x67F SWAP2 SWAP1 PUSH2 0x2F16 JUMP JUMPDEST PUSH1 0x40 MLOAD DUP1 SWAP2 SUB SWAP1 RETURN JUMPDEST CALLVALUE DUP1 ISZERO PUSH2 0x694 JUMPI PUSH1 0x0 DUP1 REVERT JUMPDEST POP PUSH2 0x69D PUSH2 0x1B8A JUMP JUMPDEST PUSH1 0x40 MLOAD PUSH2 0x6AA SWAP2 SWAP1 PUSH2 0x2F16 JUMP JUMPDEST PUSH1 0x40 MLOAD DUP1 SWAP2 SUB SWAP1 RETURN JUMPDEST CALLVALUE DUP1 ISZERO PUSH2 0x6BF JUMPI PUSH1 0x0 DUP1 REVERT JUMPDEST POP PUSH2 0x6C8 PUSH2 0x1B97 JUMP JUMPDEST PUSH1 0x40 MLOAD PUSH2 0x6D5 SWAP2 SWAP1 PUSH2 0x2F16 JUMP JUMPDEST PUSH1 0x40 MLOAD DUP1 SWAP2 SUB SWAP1 RETURN JUMPDEST CALLVALUE DUP1 ISZERO PUSH2 0x6EA JUMPI PUSH1 0x0 DUP1 REVERT JUMPDEST POP PUSH2 0x6F3 PUSH2 0x1B9D JUMP JUMPDEST PUSH1 0x40 MLOAD PUSH2 0x700 SWAP2 SWAP1 PUSH2 0x2F16 JUMP JUMPDEST PUSH1 0x40 MLOAD DUP1 SWAP2 SUB SWAP1 RETURN JUMPDEST CALLVALUE DUP1 ISZERO PUSH2 0x715 JUMPI PUSH1 0x0 DUP1 REVERT JUMPDEST POP PUSH2 0x71E PUSH2 0x1BC1 JUMP JUMPDEST PUSH1 0x40 MLOAD PUSH2 0x72B SWAP2 SWAP1 PUSH2 0x2F16 JUMP JUMPDEST PUSH1 0x40 MLOAD DUP1 SWAP2 SUB SWAP1 RETURN JUMPDEST CALLVALUE DUP1 ISZERO PUSH2 0x740 JUMPI PUSH1 0x0 DUP1 REVERT JUMPDEST POP PUSH2 0x75B PUSH1 0x4 DUP1 CALLDATASIZE SUB DUP2 ADD SWAP1 PUSH2 0x756 SWAP2 SWAP1 PUSH2 0x30BD JUMP JUMPDEST PUSH2 0x1BC7 JUMP JUMPDEST PUSH1 0x40 MLOAD PUSH2 0x768 SWAP2 SWAP1 PUSH2 0x30F9 JUMP JUMPDEST PUSH1 0x40 MLOAD DUP1 SWAP2 SUB SWAP1 RETURN JUMPDEST CALLVALUE DUP1 ISZERO PUSH2 0x77D JUMPI PUSH1 0x0 DUP1 REVERT JUMPDEST POP PUSH2 0x786 PUSH2 0x1C06 JUMP JUMPDEST STOP JUMPDEST CALLVALUE DUP1 ISZERO PUSH2 0x794 JUMPI PUSH1 0x0 DUP1 REVERT JUMPDEST POP PUSH2 0x79D PUSH2 0x2267 JUMP JUMPDEST PUSH1 0x40 MLOAD PUSH2 0x7AA SWAP2 SWAP1 PUSH2 0x2F16 JUMP JUMPDEST PUSH1 0x40 MLOAD DUP1 SWAP2 SUB SWAP1 RETURN JUMPDEST CALLVALUE DUP1 ISZERO PUSH2 0x7BF JUMPI PUSH1 0x0 DUP1 REVERT JUMPDEST POP PUSH2 0x7C8 PUSH2 0x2273 JUMP JUMPDEST PUSH1 0x40 MLOAD PUSH2 0x7D5 SWAP2 SWAP1 PUSH2 0x2F16 JUMP JUMPDEST PUSH1 0x40 MLOAD DUP1 SWAP2 SUB SWAP1 RETURN JUMPDEST PUSH2 0x7E6 PUSH2 0x227E JUMP JUMPDEST STOP JUMPDEST CALLVALUE DUP1 ISZERO PUSH2 0x7F4 JUMPI PUSH1 0x0 DUP1 REVERT JUMPDEST POP PUSH2 0x7FD PUSH2 0x26D5 JUMP JUMPDEST PUSH1 0x40 MLOAD PUSH2 0x80A SWAP2 SWAP1 PUSH2 0x2F16 JUMP JUMPDEST PUSH1 0x40 MLOAD DUP1 SWAP2 SUB SWAP1 RETURN JUMPDEST PUSH2 0x82D PUSH1 0x4 DUP1 CALLDATASIZE SUB DUP2 ADD SWAP1 PUSH2 0x828 SWAP2 SWAP1 PUSH2 0x3114 JUMP JUMPDEST PUSH2 0x26DB JUMP JUMPDEST STOP JUMPDEST CALLVALUE DUP1 ISZERO PUSH2 0x83B JUMPI PUSH1 0x0 DUP1 REVERT JUMPDEST POP PUSH2 0x844 PUSH2 0x29C3 JUMP JUMPDEST PUSH1 0x40 MLOAD PUSH2 0x851 SWAP2 SWAP1 PUSH2 0x3062 JUMP JUMPDEST PUSH1 0x40 MLOAD DUP1 SWAP2 SUB SWAP1 RETURN JUMPDEST CALLVALUE DUP1 ISZERO PUSH2 0x866 JUMPI PUSH1 0x0 DUP1 REVERT JUMPDEST POP PUSH2 0x86F PUSH2 0x29D6 JUMP JUMPDEST PUSH1 0x40 MLOAD PUSH2 0x87C SWAP2 SWAP1 PUSH2 0x2F16 JUMP JUMPDEST PUSH1 0x40 MLOAD DUP1 SWAP2 SUB SWAP1 RETURN JUMPDEST CALLVALUE DUP1 ISZERO PUSH2 0x891 JUMPI PUSH1 0x0 DUP1 REVERT JUMPDEST POP PUSH2 0x89A PUSH2 0x29FA JUMP JUMPDEST PUSH1 0x40 MLOAD PUSH2 0x8A7 SWAP2 SWAP1 PUSH2 0x2F16 JUMP JUMPDEST PUSH1 0x40 MLOAD DUP1 SWAP2 SUB SWAP1 RETURN JUMPDEST CALLVALUE DUP1 ISZERO PUSH2 0x8BC JUMPI PUSH1 0x0 DUP1 REVERT JUMPDEST POP PUSH2 0x8D7 PUSH1 0x4 DUP1 CALLDATASIZE SUB DUP2 ADD SWAP1 PUSH2 0x8D2 SWAP2 SWAP1 PUSH2 0x2ED0 JUMP JUMPDEST PUSH2 0x2A00 JUMP JUMPDEST PUSH1 0x40 MLOAD PUSH2 0x8EB SWAP9 SWAP8 SWAP7 SWAP6 SWAP5 SWAP4 SWAP3 SWAP2 SWAP1 PUSH2 0x3141 JUMP JUMPDEST PUSH1 0x40 MLOAD DUP1 SWAP2 SUB SWAP1 RETURN JUMPDEST PUSH1 0x8 PUSH1 0x20 MSTORE DUP1 PUSH1 0x0 MSTORE PUSH1 0x40 PUSH1 0x0 KECCAK256 PUSH1 0x0 SWAP2 POP SWAP1 POP SLOAD DUP2 JUMP JUMPDEST PUSH1 0x3 PUSH1 0x0 SWAP1 SLOAD SWAP1 PUSH2 0x100 EXP SWAP1 DIV PUSH1 0xFF AND PUSH2 0x95B JUMPI PUSH1 0x40 MLOAD PUSH32 0x8C379A000000000000000000000000000000000000000000000000000000000 DUP2 MSTORE PUSH1 0x4 ADD PUSH2 0x952 SWAP1 PUSH2 0x321C JUMP JUMPDEST PUSH1 0x40 MLOAD DUP1 SWAP2 SUB SWAP1 REVERT JUMPDEST PUSH1 0x0 DUP1 PUSH1 0x0 CALLER PUSH20 0xFFFFFFFFFFFFFFFFFFFFFFFFFFFFFFFFFFFFFFFF AND PUSH20 0xFFFFFFFFFFFFFFFFFFFFFFFFFFFFFFFFFFFFFFFF AND DUP2 MSTORE PUSH1 0x20 ADD SWAP1 DUP2 MSTORE PUSH1 0x20 ADD PUSH1 0x0 KECCAK256 SWAP1 POP DUP1 PUSH1 0x3 ADD PUSH1 0x0 SWAP1 SLOAD SWAP1 PUSH2 0x100 EXP SWAP1 DIV PUSH1 0xFF AND PUSH2 0x9EE JUMPI PUSH1 0x40 MLOAD PUSH32 0x8C379A000000000000000000000000000000000000000000000000000000000 DUP2 MSTORE PUSH1 0x4 ADD PUSH2 0x9E5 SWAP1 PUSH2 0x3288 JUMP JUMPDEST PUSH1 0x40 MLOAD DUP1 SWAP2 SUB SWAP1 REVERT JUMPDEST DUP1 PUSH1 0x3 ADD PUSH1 0x2 SWAP1 SLOAD SWAP1 PUSH2 0x100 EXP SWAP1 DIV PUSH1 0xFF AND ISZERO PUSH2 0xA40 JUMPI PUSH1 0x40 MLOAD PUSH32 0x8C379A000000000000000000000000000000000000000000000000000000000 DUP2 MSTORE PUSH1 0x4 ADD PUSH2 0xA37 SWAP1 PUSH2 0x32F4 JUMP JUMPDEST PUSH1 0x40 MLOAD DUP1 SWAP2 SUB SWAP1 REVERT JUMPDEST PUSH1 0x3 PUSH1 0x1 SWAP1 SLOAD SWAP1 PUSH2 0x100 EXP SWAP1 DIV PUSH1 0xFF AND ISZERO PUSH2 0xB0A JUMPI PUSH1 0x0 PUSH1 0x2 PUSH1 0x4 SLOAD DUP2 SLOAD DUP2 LT PUSH2 0xA6D JUMPI PUSH2 0xA6C PUSH2 0x3314 JUMP JUMPDEST JUMPDEST SWAP1 PUSH1 0x0 MSTORE PUSH1 0x20 PUSH1 0x0 KECCAK256 ADD PUSH1 0x0 SWAP1 SLOAD SWAP1 PUSH2 0x100 EXP SWAP1 DIV PUSH20 0xFFFFFFFFFFFFFFFFFFFFFFFFFFFFFFFFFFFFFFFF AND SWAP1 POP DUP1 PUSH20 0xFFFFFFFFFFFFFFFFFFFFFFFFFFFFFFFFFFFFFFFF AND CALLER PUSH20 0xFFFFFFFFFFFFFFFFFFFFFFFFFFFFFFFFFFFFFFFF AND SUB PUSH2 0xB08 JUMPI PUSH1 0x40 MLOAD PUSH32 0x8C379A000000000000000000000000000000000000000000000000000000000 DUP2 MSTORE PUSH1 0x4 ADD PUSH2 0xAFF SWAP1 PUSH2 0x338F JUMP JUMPDEST PUSH1 0x40 MLOAD DUP1 SWAP2 SUB SWAP1 REVERT JUMPDEST POP JUMPDEST DUP1 PUSH1 0x3 ADD PUSH1 0x4 SWAP1 SLOAD SWAP1 PUSH2 0x100 EXP SWAP1 DIV PUSH1 0xFF AND ISZERO PUSH2 0xB5C JUMPI PUSH1 0x40 MLOAD PUSH32 0x8C379A000000000000000000000000000000000000000000000000000000000 DUP2 MSTORE PUSH1 0x4 ADD PUSH2 0xB53 SWAP1 PUSH2 0x33FB JUMP JUMPDEST PUSH1 0x40 MLOAD DUP1 SWAP2 SUB SWAP1 REVERT JUMPDEST DUP1 PUSH1 0x3 ADD PUSH1 0x3 SWAP1 SLOAD SWAP1 PUSH2 0x100 EXP SWAP1 DIV PUSH1 0xFF AND ISZERO PUSH2 0xBAE JUMPI PUSH1 0x40 MLOAD PUSH32 0x8C379A000000000000000000000000000000000000000000000000000000000 DUP2 MSTORE PUSH1 0x4 ADD PUSH2 0xBA5 SWAP1 PUSH2 0x3467 JUMP JUMPDEST PUSH1 0x40 MLOAD DUP1 SWAP2 SUB SWAP1 REVERT JUMPDEST PUSH1 0x0 DUP2 PUSH1 0x3 ADD PUSH1 0x1 SWAP1 SLOAD SWAP1 PUSH2 0x100 EXP SWAP1 DIV PUSH1 0xFF AND ISZERO PUSH2 0xBEF JUMPI PUSH32 0x0 SWAP1 POP PUSH2 0xCCB JUMP JUMPDEST PUSH1 0x0 PUSH2 0x2710 PUSH2 0x7D0 PUSH32 0x0 PUSH2 0xC22 SWAP2 SWAP1 PUSH2 0x34B6 JUMP JUMPDEST PUSH2 0xC2C SWAP2 SWAP1 PUSH2 0x3527 JUMP JUMPDEST SWAP1 POP PUSH1 0x0 DUP2 PUSH32 0x0 PUSH2 0xC5C SWAP2 SWAP1 PUSH2 0x3558 JUMP JUMPDEST SWAP1 POP DUP2 PUSH1 0x7 PUSH1 0x0 DUP3 DUP3 SLOAD PUSH2 0xC70 SWAP2 SWAP1 PUSH2 0x358C JUMP JUMPDEST SWAP3 POP POP DUP2 SWAP1 SSTORE POP CALLER PUSH20 0xFFFFFFFFFFFFFFFFFFFFFFFFFFFFFFFFFFFFFFFF AND PUSH32 0x1FB16DD9688950CB1ED4E1EF4EB31EF7AA2B66802A519A8936389E4E6E4B0D71 DUP4 PUSH1 0x40 MLOAD PUSH2 0xCBD SWAP2 SWAP1 PUSH2 0x360C JUMP JUMPDEST PUSH1 0x40 MLOAD DUP1 SWAP2 SUB SWAP1 LOG2 DUP1 SWAP3 POP POP POP JUMPDEST PUSH1 0x1 DUP3 PUSH1 0x3 ADD PUSH1 0x2 PUSH2 0x100 EXP DUP2 SLOAD DUP2 PUSH1 0xFF MUL NOT AND SWAP1 DUP4 ISZERO ISZERO MUL OR SWAP1 SSTORE POP PUSH1 0x0 CALLER PUSH20 0xFFFFFFFFFFFFFFFFFFFFFFFFFFFFFFFFFFFFFFFF AND DUP3 PUSH1 0x40 MLOAD PUSH2 0xD0E SWAP1 PUSH2 0x366B JUMP JUMPDEST PUSH1 0x0 PUSH1 0x40 MLOAD DUP1 DUP4 SUB DUP2 DUP6 DUP8 GAS CALL SWAP3 POP POP POP RETURNDATASIZE DUP1 PUSH1 0x0 DUP2 EQ PUSH2 0xD4B JUMPI PUSH1 0x40 MLOAD SWAP2 POP PUSH1 0x1F NOT PUSH1 0x3F RETURNDATASIZE ADD AND DUP3 ADD PUSH1 0x40 MSTORE RETURNDATASIZE DUP3 MSTORE RETURNDATASIZE PUSH1 0x0 PUSH1 0x20 DUP5 ADD RETURNDATACOPY PUSH2 0xD50 JUMP JUMPDEST PUSH1 0x60 SWAP2 POP JUMPDEST POP POP SWAP1 POP DUP1 PUSH2 0xD94 JUMPI PUSH1 0x40 MLOAD PUSH32 0x8C379A000000000000000000000000000000000000000000000000000000000 DUP2 MSTORE PUSH1 0x4 ADD PUSH2 0xD8B SWAP1 PUSH2 0x36CC JUMP JUMPDEST PUSH1 0x40 MLOAD DUP1 SWAP2 SUB SWAP1 REVERT JUMPDEST CALLER PUSH20 0xFFFFFFFFFFFFFFFFFFFFFFFFFFFFFFFFFFFFFFFF AND PUSH32 0x4482101800A5C2E900F4156E57E05E19FFD7B366CDE579553D723FD3ABB2180E DUP4 PUSH1 0x40 MLOAD PUSH2 0xDDA SWAP2 SWAP1 PUSH2 0x2F16 JUMP JUMPDEST PUSH1 0x40 MLOAD DUP1 SWAP2 SUB SWAP1 LOG2 POP POP POP JUMP JUMPDEST PUSH1 0x0 DUP1 PUSH1 0x0 PUSH32 0x0 TIMESTAMP LT PUSH2 0xE1A JUMPI PUSH1 0x0 PUSH2 0xE47 JUMP JUMPDEST TIMESTAMP PUSH32 0x0 PUSH2 0xE46 SWAP2 SWAP1 PUSH2 0x3558 JUMP JUMPDEST JUMPDEST SWAP3 POP PUSH32 0x0 TIMESTAMP LT PUSH2 0xE77 JUMPI PUSH1 0x0 PUSH2 0xEA4 JUMP JUMPDEST TIMESTAMP PUSH32 0x0 PUSH2 0xEA3 SWAP2 SWAP1 PUSH2 0x3558 JUMP JUMPDEST JUMPDEST SWAP2 POP PUSH1 0x3 PUSH1 0x0 SWAP1 SLOAD SWAP1 PUSH2 0x100 EXP SWAP1 DIV PUSH1 0xFF AND DUP1 ISZERO PUSH2 0xECF JUMPI POP PUSH1 0x3 PUSH1 0x2 SWAP1 SLOAD SWAP1 PUSH2 0x100 EXP SWAP1 DIV PUSH1 0xFF AND ISZERO JUMPDEST DUP1 ISZERO PUSH2 0xEE8 JUMPI POP PUSH1 0x3 PUSH1 0x1 SWAP1 SLOAD SWAP1 PUSH2 0x100 EXP SWAP1 DIV PUSH1 0xFF AND ISZERO JUMPDEST DUP1 ISZERO PUSH2 0xEF5 JUMPI POP PUSH1 0x5 SLOAD TIMESTAMP LT JUMPDEST PUSH2 0xF00 JUMPI PUSH1 0x0 PUSH2 0xF0F JUMP JUMPDEST TIMESTAMP PUSH1 0x5 SLOAD PUSH2 0xF0E SWAP2 SWAP1 PUSH2 0x3558 JUMP JUMPDEST JUMPDEST SWAP1 POP SWAP1 SWAP2 SWAP3 JUMP JUMPDEST PUSH1 0x0 DUP4 DUP4 DUP4 ADDRESS PUSH1 0x40 MLOAD PUSH1 0x20 ADD PUSH2 0xF2F SWAP5 SWAP4 SWAP3 SWAP2 SWAP1 PUSH2 0x36EC JUMP JUMPDEST PUSH1 0x40 MLOAD PUSH1 0x20 DUP2 DUP4 SUB SUB DUP2 MSTORE SWAP1 PUSH1 0x40 MSTORE DUP1 MLOAD SWAP1 PUSH1 0x20 ADD KECCAK256 SWAP1 POP SWAP4 SWAP3 POP POP POP JUMP JUMPDEST PUSH1 0xC8 DUP2 JUMP JUMPDEST PUSH1 0x3 PUSH1 0x1 SWAP1 SLOAD SWAP1 PUSH2 0x100 EXP SWAP1 DIV PUSH1 0xFF AND DUP2 JUMP JUMPDEST PUSH1 0xA DUP2 JUMP JUMPDEST PUSH32 0x0 TIMESTAMP LT ISZERO PUSH2 0xFCE JUMPI PUSH1 0x40 MLOAD PUSH32 0x8C379A000000000000000000000000000000000000000000000000000000000 DUP2 MSTORE PUSH1 0x4 ADD PUSH2 0xFC5 SWAP1 PUSH2 0x377D JUMP JUMPDEST PUSH1 0x40 MLOAD DUP1 SWAP2 SUB SWAP1 REVERT JUMPDEST PUSH32 0x0 TIMESTAMP LT PUSH2 0x1030 JUMPI PUSH1 0x40 MLOAD PUSH32 0x8C379A000000000000000000000000000000000000000000000000000000000 DUP2 MSTORE PUSH1 0x4 ADD PUSH2 0x1027 SWAP1 PUSH2 0x37E9 JUMP JUMPDEST PUSH1 0x40 MLOAD DUP1 SWAP2 SUB SWAP1 REVERT JUMPDEST PUSH1 0x0 DUP1 PUSH1 0x0 CALLER PUSH20 0xFFFFFFFFFFFFFFFFFFFFFFFFFFFFFFFFFFFFFFFF AND PUSH20 0xFFFFFFFFFFFFFFFFFFFFFFFFFFFFFFFFFFFFFFFF AND DUP2 MSTORE PUSH1 0x20 ADD SWAP1 DUP2 MSTORE PUSH1 0x20 ADD PUSH1 0x0 KECCAK256 SWAP1 POP DUP1 PUSH1 0x3 ADD PUSH1 0x0 SWAP1 SLOAD SWAP1 PUSH2 0x100 EXP SWAP1 DIV PUSH1 0xFF AND PUSH2 0x10C3 JUMPI PUSH1 0x40 MLOAD PUSH32 0x8C379A000000000000000000000000000000000000000000000000000000000 DUP2 MSTORE PUSH1 0x4 ADD PUSH2 0x10BA SWAP1 PUSH2 0x3288 JUMP JUMPDEST PUSH1 0x40 MLOAD DUP1 SWAP2 SUB SWAP1 REVERT JUMPDEST DUP1 PUSH1 0x3 ADD PUSH1 0x1 SWAP1 SLOAD SWAP1 PUSH2 0x100 EXP SWAP1 DIV PUSH1 0xFF AND ISZERO PUSH2 0x1115 JUMPI PUSH1 0x40 MLOAD PUSH32 0x8C379A000000000000000000000000000000000000000000000000000000000 DUP2 MSTORE PUSH1 0x4 ADD PUSH2 0x110C SWAP1 PUSH2 0x3855 JUMP JUMPDEST PUSH1 0x40 MLOAD DUP1 SWAP2 SUB SWAP1 REVERT JUMPDEST PUSH32 0x0 DUP4 LT ISZERO PUSH2 0x1178 JUMPI PUSH1 0x40 MLOAD PUSH32 0x8C379A000000000000000000000000000000000000000000000000000000000 DUP2 MSTORE PUSH1 0x4 ADD PUSH2 0x116F SWAP1 PUSH2 0x38C1 JUMP JUMPDEST PUSH1 0x40 MLOAD DUP1 SWAP2 SUB SWAP1 REVERT JUMPDEST PUSH1 0x0 DUP4 DUP4 CALLER ADDRESS PUSH1 0x40 MLOAD PUSH1 0x20 ADD PUSH2 0x1191 SWAP5 SWAP4 SWAP3 SWAP2 SWAP1 PUSH2 0x36EC JUMP JUMPDEST PUSH1 0x40 MLOAD PUSH1 0x20 DUP2 DUP4 SUB SUB DUP2 MSTORE SWAP1 PUSH1 0x40 MSTORE DUP1 MLOAD SWAP1 PUSH1 0x20 ADD KECCAK256 SWAP1 POP DUP2 PUSH1 0x0 ADD SLOAD DUP2 EQ PUSH2 0x11EF JUMPI PUSH1 0x40 MLOAD PUSH32 0x8C379A000000000000000000000000000000000000000000000000000000000 DUP2 MSTORE PUSH1 0x4 ADD PUSH2 0x11E6 SWAP1 PUSH2 0x392D JUMP JUMPDEST PUSH1 0x40 MLOAD DUP1 SWAP2 SUB SWAP1 REVERT JUMPDEST PUSH1 0x1 DUP3 PUSH1 0x3 ADD PUSH1 0x1 PUSH2 0x100 EXP DUP2 SLOAD DUP2 PUSH1 0xFF MUL NOT AND SWAP1 DUP4 ISZERO ISZERO MUL OR SWAP1 SSTORE POP DUP4 DUP3 PUSH1 0x2 ADD DUP2 SWAP1 SSTORE POP PUSH2 0x121E CALLER PUSH2 0x2A89 JUMP JUMPDEST CALLER PUSH20 0xFFFFFFFFFFFFFFFFFFFFFFFFFFFFFFFFFFFFFFFF AND PUSH32 0x36CB84E26EC058BA1AADCD698199FA19568D3C52427B175BD593B94CE83F67C0 DUP6 PUSH1 0x40 MLOAD PUSH2 0x1264 SWAP2 SWAP1 PUSH2 0x2F16 JUMP JUMPDEST PUSH1 0x40 MLOAD DUP1 SWAP2 SUB SWAP1 LOG2 POP POP POP POP JUMP JUMPDEST PUSH1 0x7 SLOAD DUP2 JUMP JUMPDEST PUSH32 0x0 TIMESTAMP LT ISZERO PUSH2 0x12DB JUMPI PUSH1 0x40 MLOAD PUSH32 0x8C379A000000000000000000000000000000000000000000000000000000000 DUP2 MSTORE PUSH1 0x4 ADD PUSH2 0x12D2 SWAP1 PUSH2 0x3999 JUMP JUMPDEST PUSH1 0x40 MLOAD DUP1 SWAP2 SUB SWAP1 REVERT JUMPDEST PUSH1 0x3 PUSH1 0x0 SWAP1 SLOAD SWAP1 PUSH2 0x100 EXP SWAP1 DIV PUSH1 0xFF AND ISZERO PUSH2 0x132B JUMPI PUSH1 0x40 MLOAD PUSH32 0x8C379A000000000000000000000000000000000000000000000000000000000 DUP2 MSTORE PUSH1 0x4 ADD PUSH2 0x1322 SWAP1 PUSH2 0x3A05 JUMP JUMPDEST PUSH1 0x40 MLOAD DUP1 SWAP2 SUB SWAP1 REVERT JUMPDEST PUSH1 0x1 PUSH1 0x3 PUSH1 0x0 PUSH2 0x100 EXP DUP2 SLOAD DUP2 PUSH1 0xFF MUL NOT AND SWAP1 DUP4 ISZERO ISZERO MUL OR SWAP1 SSTORE POP PUSH1 0x0 PUSH1 0x2 DUP1 SLOAD SWAP1 POP SUB PUSH2 0x139F JUMPI PUSH1 0x1 PUSH1 0x3 PUSH1 0x2 PUSH2 0x100 EXP DUP2 SLOAD DUP2 PUSH1 0xFF MUL NOT AND SWAP1 DUP4 ISZERO ISZERO MUL OR SWAP1 SSTORE POP PUSH32 0x9427AB050D1CDFF5B941BC297AD5E113728D69972E8C69AA27C13E2D1B63FA19 PUSH1 0x40 MLOAD PUSH1 0x40 MLOAD DUP1 SWAP2 SUB SWAP1 LOG1 PUSH2 0x1568 JUMP JUMPDEST PUSH1 0x0 JUMPDEST PUSH1 0x2 DUP1 SLOAD SWAP1 POP DUP2 LT ISZERO PUSH2 0x1454 JUMPI PUSH1 0x1 PUSH1 0x0 DUP1 PUSH1 0x2 DUP5 DUP2 SLOAD DUP2 LT PUSH2 0x13C8 JUMPI PUSH2 0x13C7 PUSH2 0x3314 JUMP JUMPDEST JUMPDEST SWAP1 PUSH1 0x0 MSTORE PUSH1 0x20 PUSH1 0x0 KECCAK256 ADD PUSH1 0x0 SWAP1 SLOAD SWAP1 PUSH2 0x100 EXP SWAP1 DIV PUSH20 0xFFFFFFFFFFFFFFFFFFFFFFFFFFFFFFFFFFFFFFFF AND PUSH20 0xFFFFFFFFFFFFFFFFFFFFFFFFFFFFFFFFFFFFFFFF AND PUSH20 0xFFFFFFFFFFFFFFFFFFFFFFFFFFFFFFFFFFFFFFFF AND DUP2 MSTORE PUSH1 0x20 ADD SWAP1 DUP2 MSTORE PUSH1 0x20 ADD PUSH1 0x0 KECCAK256 PUSH1 0x3 ADD PUSH1 0x3 PUSH2 0x100 EXP DUP2 SLOAD DUP2 PUSH1 0xFF MUL NOT AND SWAP1 DUP4 ISZERO ISZERO MUL OR SWAP1 SSTORE POP DUP1 DUP1 PUSH1 0x1 ADD SWAP2 POP POP PUSH2 0x13A2 JUMP JUMPDEST POP PUSH1 0x0 PUSH1 0x4 DUP2 SWAP1 SSTORE POP PUSH32 0x0 TIMESTAMP PUSH2 0x1489 SWAP2 SWAP1 PUSH2 0x358C JUMP JUMPDEST PUSH1 0x5 DUP2 SWAP1 SSTORE POP PUSH1 0x0 PUSH1 0x2 PUSH1 0x0 DUP2 SLOAD DUP2 LT PUSH2 0x14A6 JUMPI PUSH2 0x14A5 PUSH2 0x3314 JUMP JUMPDEST JUMPDEST SWAP1 PUSH1 0x0 MSTORE PUSH1 0x20 PUSH1 0x0 KECCAK256 ADD PUSH1 0x0 SWAP1 SLOAD SWAP1 PUSH2 0x100 EXP SWAP1 DIV PUSH20 0xFFFFFFFFFFFFFFFFFFFFFFFFFFFFFFFFFFFFFFFF AND SWAP1 POP DUP1 PUSH20 0xFFFFFFFFFFFFFFFFFFFFFFFFFFFFFFFFFFFFFFFF AND PUSH32 0x616C9469DB50815AE0F1D0A020D9FC9060DA7C57F03559AFB0D4EBDAA0A3A05E PUSH1 0x0 DUP1 DUP5 PUSH20 0xFFFFFFFFFFFFFFFFFFFFFFFFFFFFFFFFFFFFFFFF AND PUSH20 0xFFFFFFFFFFFFFFFFFFFFFFFFFFFFFFFFFFFFFFFF AND DUP2 MSTORE PUSH1 0x20 ADD SWAP1 DUP2 MSTORE PUSH1 0x20 ADD PUSH1 0x0 KECCAK256 PUSH1 0x2 ADD SLOAD PUSH1 0x5 SLOAD PUSH1 0x40 MLOAD PUSH2 0x155E SWAP3 SWAP2 SWAP1 PUSH2 0x3A25 JUMP JUMPDEST PUSH1 0x40 MLOAD DUP1 SWAP2 SUB SWAP1 LOG2 POP JUMPDEST JUMP JUMPDEST PUSH1 0x2 DUP2 DUP2 SLOAD DUP2 LT PUSH2 0x157A JUMPI PUSH1 0x0 DUP1 REVERT JUMPDEST SWAP1 PUSH1 0x0 MSTORE PUSH1 0x20 PUSH1 0x0 KECCAK256 ADD PUSH1 0x0 SWAP2 POP SLOAD SWAP1 PUSH2 0x100 EXP SWAP1 DIV PUSH20 0xFFFFFFFFFFFFFFFFFFFFFFFFFFFFFFFFFFFFFFFF AND DUP2 JUMP JUMPDEST PUSH1 0x0 DUP2 GT PUSH2 0x15EC JUMPI PUSH1 0x40 MLOAD PUSH32 0x8C379A000000000000000000000000000000000000000000000000000000000 DUP2 MSTORE PUSH1 0x4 ADD PUSH2 0x15E3 SWAP1 PUSH2 0x3A9A JUMP JUMPDEST PUSH1 0x40 MLOAD DUP1 SWAP2 SUB SWAP1 REVERT JUMPDEST PUSH1 0x8 PUSH1 0x0 CALLER PUSH20 0xFFFFFFFFFFFFFFFFFFFFFFFFFFFFFFFFFFFFFFFF AND PUSH20 0xFFFFFFFFFFFFFFFFFFFFFFFFFFFFFFFFFFFFFFFF AND DUP2 MSTORE PUSH1 0x20 ADD SWAP1 DUP2 MSTORE PUSH1 0x20 ADD PUSH1 0x0 KECCAK256 SLOAD DUP2 GT ISZERO PUSH2 0x166E JUMPI PUSH1 0x40 MLOAD PUSH32 0x8C379A000000000000000000000000000000000000000000000000000000000 DUP2 MSTORE PUSH1 0x4 ADD PUSH2 0x1665 SWAP1 PUSH2 0x3B06 JUMP JUMPDEST PUSH1 0x40 MLOAD DUP1 SWAP2 SUB SWAP1 REVERT JUMPDEST DUP1 PUSH1 0x8 PUSH1 0x0 CALLER PUSH20 0xFFFFFFFFFFFFFFFFFFFFFFFFFFFFFFFFFFFFFFFF AND PUSH20 0xFFFFFFFFFFFFFFFFFFFFFFFFFFFFFFFFFFFFFFFF AND DUP2 MSTORE PUSH1 0x20 ADD SWAP1 DUP2 MSTORE PUSH1 0x20 ADD PUSH1 0x0 KECCAK256 PUSH1 0x0 DUP3 DUP3 SLOAD PUSH2 0x16BD SWAP2 SWAP1 PUSH2 0x3558 JUMP JUMPDEST SWAP3 POP POP DUP2 SWAP1 SSTORE POP PUSH1 0x0 CALLER PUSH20 0xFFFFFFFFFFFFFFFFFFFFFFFFFFFFFFFFFFFFFFFF AND DUP3 PUSH1 0x40 MLOAD PUSH2 0x16EA SWAP1 PUSH2 0x366B JUMP JUMPDEST PUSH1 0x0 PUSH1 0x40 MLOAD DUP1 DUP4 SUB DUP2 DUP6 DUP8 GAS CALL SWAP3 POP POP POP RETURNDATASIZE DUP1 PUSH1 0x0 DUP2 EQ PUSH2 0x1727 JUMPI PUSH1 0x40 MLOAD SWAP2 POP PUSH1 0x1F NOT PUSH1 0x3F RETURNDATASIZE ADD AND DUP3 ADD PUSH1 0x40 MSTORE RETURNDATASIZE DUP3 MSTORE RETURNDATASIZE PUSH1 0x0 PUSH1 0x20 DUP5 ADD RETURNDATACOPY PUSH2 0x172C JUMP JUMPDEST PUSH1 0x60 SWAP2 POP JUMPDEST POP POP SWAP1 POP DUP1 PUSH2 0x1770 JUMPI PUSH1 0x40 MLOAD PUSH32 0x8C379A000000000000000000000000000000000000000000000000000000000 DUP2 MSTORE PUSH1 0x4 ADD PUSH2 0x1767 SWAP1 PUSH2 0x36CC JUMP JUMPDEST PUSH1 0x40 MLOAD DUP1 SWAP2 SUB SWAP1 REVERT JUMPDEST CALLER PUSH20 0xFFFFFFFFFFFFFFFFFFFFFFFFFFFFFFFFFFFFFFFF AND PUSH32 0x1D3EEE4CA001CFF39EEC6EC7615AACF2F2BD61791273830728BA00CCBD6E1337 DUP4 PUSH1 0x40 MLOAD PUSH2 0x17B6 SWAP2 SWAP1 PUSH2 0x2F16 JUMP JUMPDEST PUSH1 0x40 MLOAD DUP1 SWAP2 SUB SWAP1 LOG2 POP POP JUMP JUMPDEST PUSH32 0x0 DUP2 JUMP JUMPDEST PUSH1 0x5 SLOAD DUP2 JUMP JUMPDEST PUSH32 0x0 PUSH20 0xFFFFFFFFFFFFFFFFFFFFFFFFFFFFFFFFFFFFFFFF AND CALLER PUSH20 0xFFFFFFFFFFFFFFFFFFFFFFFFFFFFFFFFFFFFFFFF AND EQ PUSH2 0x187A JUMPI PUSH1 0x40 MLOAD PUSH32 0x8C379A000000000000000000000000000000000000000000000000000000000 DUP2 MSTORE PUSH1 0x4 ADD PUSH2 0x1871 SWAP1 PUSH2 0x3B72 JUMP JUMPDEST PUSH1 0x40 MLOAD DUP1 SWAP2 SUB SWAP1 REVERT JUMPDEST PUSH1 0x0 DUP2 GT PUSH2 0x18BD JUMPI PUSH1 0x40 MLOAD PUSH32 0x8C379A000000000000000000000000000000000000000000000000000000000 DUP2 MSTORE PUSH1 0x4 ADD PUSH2 0x18B4 SWAP1 PUSH2 0x3A9A JUMP JUMPDEST PUSH1 0x40 MLOAD DUP1 SWAP2 SUB SWAP1 REVERT JUMPDEST PUSH1 0x7 SLOAD DUP2 GT ISZERO PUSH2 0x1902 JUMPI PUSH1 0x40 MLOAD PUSH32 0x8C379A000000000000000000000000000000000000000000000000000000000 DUP2 MSTORE PUSH1 0x4 ADD PUSH2 0x18F9 SWAP1 PUSH2 0x3B06 JUMP JUMPDEST PUSH1 0x40 MLOAD DUP1 SWAP2 SUB SWAP1 REVERT JUMPDEST DUP1 PUSH1 0x7 PUSH1 0x0 DUP3 DUP3 SLOAD PUSH2 0x1914 SWAP2 SWAP1 PUSH2 0x3558 JUMP JUMPDEST SWAP3 POP POP DUP2 SWAP1 SSTORE POP PUSH1 0x0 PUSH32 0x0 PUSH20 0xFFFFFFFFFFFFFFFFFFFFFFFFFFFFFFFFFFFFFFFF AND DUP3 PUSH1 0x40 MLOAD PUSH2 0x1961 SWAP1 PUSH2 0x366B JUMP JUMPDEST PUSH1 0x0 PUSH1 0x40 MLOAD DUP1 DUP4 SUB DUP2 DUP6 DUP8 GAS CALL SWAP3 POP POP POP RETURNDATASIZE DUP1 PUSH1 0x0 DUP2 EQ PUSH2 0x199E JUMPI PUSH1 0x40 MLOAD SWAP2 POP PUSH1 0x1F NOT PUSH1 0x3F RETURNDATASIZE ADD AND DUP3 ADD PUSH1 0x40 MSTORE RETURNDATASIZE DUP3 MSTORE RETURNDATASIZE PUSH1 0x0 PUSH1 0x20 DUP5 ADD RETURNDATACOPY PUSH2 0x19A3 JUMP JUMPDEST PUSH1 0x60 SWAP2 POP JUMPDEST POP POP SWAP1 POP DUP1 PUSH2 0x19E7 JUMPI PUSH1 0x40 MLOAD PUSH32 0x8C379A000000000000000000000000000000000000000000000000000000000 DUP2 MSTORE PUSH1 0x4 ADD PUSH2 0x19DE SWAP1 PUSH2 0x36CC JUMP JUMPDEST PUSH1 0x40 MLOAD DUP1 SWAP2 SUB SWAP1 REVERT JUMPDEST PUSH32 0xE1BA612886C314BAB269521F17316B07E06593A8FBE87C52802306C8C6F77865 DUP3 PUSH1 0x40 MLOAD PUSH2 0x1A16 SWAP2 SWAP1 PUSH2 0x2F16 JUMP JUMPDEST PUSH1 0x40 MLOAD DUP1 SWAP2 SUB SWAP1 LOG1 POP POP JUMP JUMPDEST PUSH2 0x12C DUP2 JUMP JUMPDEST PUSH32 0x0 DUP2 JUMP JUMPDEST PUSH32 0x0 DUP2 JUMP JUMPDEST PUSH32 0x0 DUP2 JUMP JUMPDEST PUSH1 0x0 PUSH1 0x3 PUSH1 0x0 SWAP1 SLOAD SWAP1 PUSH2 0x100 EXP SWAP1 DIV PUSH1 0xFF AND ISZERO DUP1 PUSH2 0x1ABE JUMPI POP PUSH1 0x3 PUSH1 0x2 SWAP1 SLOAD SWAP1 PUSH2 0x100 EXP SWAP1 DIV PUSH1 0xFF AND JUMPDEST DUP1 PUSH2 0x1ACE JUMPI POP PUSH1 0x0 PUSH1 0x2 DUP1 SLOAD SWAP1 POP EQ JUMPDEST ISZERO PUSH2 0x1ADC JUMPI PUSH1 0x0 SWAP1 POP PUSH2 0x1B37 JUMP JUMPDEST PUSH1 0x2 DUP1 SLOAD SWAP1 POP PUSH1 0x4 SLOAD LT PUSH2 0x1AF3 JUMPI PUSH1 0x0 SWAP1 POP PUSH2 0x1B37 JUMP JUMPDEST PUSH1 0x2 PUSH1 0x4 SLOAD DUP2 SLOAD DUP2 LT PUSH2 0x1B09 JUMPI PUSH2 0x1B08 PUSH2 0x3314 JUMP JUMPDEST JUMPDEST SWAP1 PUSH1 0x0 MSTORE PUSH1 0x20 PUSH1 0x0 KECCAK256 ADD PUSH1 0x0 SWAP1 SLOAD SWAP1 PUSH2 0x100 EXP SWAP1 DIV PUSH20 0xFFFFFFFFFFFFFFFFFFFFFFFFFFFFFFFFFFFFFFFF AND SWAP1 POP JUMPDEST SWAP1 JUMP JUMPDEST PUSH1 0x0 PUSH1 0x2 DUP1 SLOAD SWAP1 POP SWAP1 POP SWAP1 JUMP JUMPDEST PUSH32 0x0 DUP2 JUMP JUMPDEST PUSH1 0x3 PUSH1 0x0 SWAP1 SLOAD SWAP1 PUSH2 0x100 EXP SWAP1 DIV PUSH1 0xFF AND DUP2 JUMP JUMPDEST PUSH2 0x7D0 DUP2 JUMP JUMPDEST PUSH2 0x12C DUP2 JUMP JUMPDEST PUSH1 0x0 PUSH1 0x1 DUP1 SLOAD SWAP1 POP SWAP1 POP SWAP1 JUMP JUMPDEST PUSH1 0x4 SLOAD DUP2 JUMP JUMPDEST PUSH32 0x0 DUP2 JUMP JUMPDEST PUSH2 0x12C DUP2 JUMP JUMPDEST PUSH1 0x1 DUP2 DUP2 SLOAD DUP2 LT PUSH2 0x1BD7 JUMPI PUSH1 0x0 DUP1 REVERT JUMPDEST SWAP1 PUSH1 0x0 MSTORE PUSH1 0x20 PUSH1 0x0 KECCAK256 ADD PUSH1 0x0 SWAP2 POP SLOAD SWAP1 PUSH2 0x100 EXP SWAP1 DIV PUSH20 0xFFFFFFFFFFFFFFFFFFFFFFFFFFFFFFFFFFFFFFFF AND DUP2 JUMP JUMPDEST PUSH1 0x3 PUSH1 0x0 SWAP1 SLOAD SWAP1 PUSH2 0x100 EXP SWAP1 DIV PUSH1 0xFF AND PUSH2 0x1C55 JUMPI PUSH1 0x40 MLOAD PUSH32 0x8C379A000000000000000000000000000000000000000000000000000000000 DUP2 MSTORE PUSH1 0x4 ADD PUSH2 0x1C4C SWAP1 PUSH2 0x321C JUMP JUMPDEST PUSH1 0x40 MLOAD DUP1 SWAP2 SUB SWAP1 REVERT JUMPDEST PUSH1 0x3 PUSH1 0x2 SWAP1 SLOAD SWAP1 PUSH2 0x100 EXP SWAP1 DIV PUSH1 0xFF AND ISZERO PUSH2 0x1CA5 JUMPI PUSH1 0x40 MLOAD PUSH32 0x8C379A000000000000000000000000000000000000000000000000000000000 DUP2 MSTORE PUSH1 0x4 ADD PUSH2 0x1C9C SWAP1 PUSH2 0x3BDE JUMP JUMPDEST PUSH1 0x40 MLOAD DUP1 SWAP2 SUB SWAP1 REVERT JUMPDEST PUSH1 0x3 PUSH1 0x1 SWAP1 SLOAD SWAP1 PUSH2 0x100 EXP SWAP1 DIV PUSH1 0xFF AND ISZERO PUSH2 0x1CF5 JUMPI PUSH1 0x40 MLOAD PUSH32 0x8C379A000000000000000000000000000000000000000000000000000000000 DUP2 MSTORE PUSH1 0x4 ADD PUSH2 0x1CEC SWAP1 PUSH2 0x3C4A JUMP JUMPDEST PUSH1 0x40 MLOAD DUP1 SWAP2 SUB SWAP1 REVERT JUMPDEST PUSH1 0x2 DUP1 SLOAD SWAP1 POP PUSH1 0x4 SLOAD LT PUSH2 0x1D3E JUMPI PUSH1 0x40 MLOAD PUSH32 0x8C379A000000000000000000000000000000000000000000000000000000000 DUP2 MSTORE PUSH1 0x4 ADD PUSH2 0x1D35 SWAP1 PUSH2 0x3CB6 JUMP JUMPDEST PUSH1 0x40 MLOAD DUP1 SWAP2 SUB SWAP1 REVERT JUMPDEST PUSH1 0x5 SLOAD TIMESTAMP GT PUSH2 0x1D82 JUMPI PUSH1 0x40 MLOAD PUSH32 0x8C379A000000000000000000000000000000000000000000000000000000000 DUP2 MSTORE PUSH1 0x4 ADD PUSH2 0x1D79 SWAP1 PUSH2 0x3D22 JUMP JUMPDEST PUSH1 0x40 MLOAD DUP1 SWAP2 SUB SWAP1 REVERT JUMPDEST PUSH1 0x0 PUSH1 0x2 PUSH1 0x4 SLOAD DUP2 SLOAD DUP2 LT PUSH2 0x1D9A JUMPI PUSH2 0x1D99 PUSH2 0x3314 JUMP JUMPDEST JUMPDEST SWAP1 PUSH1 0x0 MSTORE PUSH1 0x20 PUSH1 0x0 KECCAK256 ADD PUSH1 0x0 SWAP1 SLOAD SWAP1 PUSH2 0x100 EXP SWAP1 DIV PUSH20 0xFFFFFFFFFFFFFFFFFFFFFFFFFFFFFFFFFFFFFFFF AND SWAP1 POP PUSH1 0x0 DUP1 PUSH1 0x0 DUP4 PUSH20 0xFFFFFFFFFFFFFFFFFFFFFFFFFFFFFFFFFFFFFFFF AND PUSH20 0xFFFFFFFFFFFFFFFFFFFFFFFFFFFFFFFFFFFFFFFF AND DUP2 MSTORE PUSH1 0x20 ADD SWAP1 DUP2 MSTORE PUSH1 0x20 ADD PUSH1 0x0 KECCAK256 SWAP1 POP DUP1 PUSH1 0x3 ADD PUSH1 0x2 SWAP1 SLOAD SWAP1 PUSH2 0x100 EXP SWAP1 DIV PUSH1 0xFF AND ISZERO PUSH2 0x1E5B JUMPI PUSH1 0x40 MLOAD PUSH32 0x8C379A000000000000000000000000000000000000000000000000000000000 DUP2 MSTORE PUSH1 0x4 ADD PUSH2 0x1E52 SWAP1 PUSH2 0x3D8E JUMP JUMPDEST PUSH1 0x40 MLOAD DUP1 SWAP2 SUB SWAP1 REVERT JUMPDEST PUSH1 0x1 DUP2 PUSH1 0x3 ADD PUSH1 0x2 PUSH2 0x100 EXP DUP2 SLOAD DUP2 PUSH1 0xFF MUL NOT AND SWAP1 DUP4 ISZERO ISZERO MUL OR SWAP1 SSTORE POP PUSH1 0x0 DUP2 PUSH1 0x3 ADD PUSH1 0x3 PUSH2 0x100 EXP DUP2 SLOAD DUP2 PUSH1 0xFF MUL NOT AND SWAP1 DUP4 ISZERO ISZERO MUL OR SWAP1 SSTORE POP PUSH1 0x1 DUP2 PUSH1 0x3 ADD PUSH1 0x4 PUSH2 0x100 EXP DUP2 SLOAD DUP2 PUSH1 0xFF MUL NOT AND SWAP1 DUP4 ISZERO ISZERO MUL OR SWAP1 SSTORE POP PUSH1 0x0 PUSH2 0x2710 PUSH2 0x1F4 PUSH32 0x0 PUSH2 0x1EE5 SWAP2 SWAP1 PUSH2 0x34B6 JUMP JUMPDEST PUSH2 0x1EEF SWAP2 SWAP1 PUSH2 0x3527 JUMP JUMPDEST SWAP1 POP PUSH1 0x0 DUP2 PUSH32 0x0 PUSH2 0x1F1F SWAP2 SWAP1 PUSH2 0x3558 JUMP JUMPDEST SWAP1 POP DUP2 PUSH1 0x8 PUSH1 0x0 CALLER PUSH20 0xFFFFFFFFFFFFFFFFFFFFFFFFFFFFFFFFFFFFFFFF AND PUSH20 0xFFFFFFFFFFFFFFFFFFFFFFFFFFFFFFFFFFFFFFFF AND DUP2 MSTORE PUSH1 0x20 ADD SWAP1 DUP2 MSTORE PUSH1 0x20 ADD PUSH1 0x0 KECCAK256 PUSH1 0x0 DUP3 DUP3 SLOAD PUSH2 0x1F70 SWAP2 SWAP1 PUSH2 0x358C JUMP JUMPDEST SWAP3 POP POP DUP2 SWAP1 SSTORE POP DUP1 PUSH1 0x7 PUSH1 0x0 DUP3 DUP3 SLOAD PUSH2 0x1F89 SWAP2 SWAP1 PUSH2 0x358C JUMP JUMPDEST SWAP3 POP POP DUP2 SWAP1 SSTORE POP CALLER PUSH20 0xFFFFFFFFFFFFFFFFFFFFFFFFFFFFFFFFFFFFFFFF AND PUSH32 0x578AFAB8065B30A5E9827120E4905B8A1810E180D2F793CA54AF6F7633F4E57A DUP4 PUSH1 0x40 MLOAD PUSH2 0x1FD6 SWAP2 SWAP1 PUSH2 0x2F16 JUMP JUMPDEST PUSH1 0x40 MLOAD DUP1 SWAP2 SUB SWAP1 LOG2 DUP4 PUSH20 0xFFFFFFFFFFFFFFFFFFFFFFFFFFFFFFFFFFFFFFFF AND PUSH32 0x1FB16DD9688950CB1ED4E1EF4EB31EF7AA2B66802A519A8936389E4E6E4B0D71 PUSH32 0x0 PUSH1 0x40 MLOAD PUSH2 0x2044 SWAP2 SWAP1 PUSH2 0x3DFA JUMP JUMPDEST PUSH1 0x40 MLOAD DUP1 SWAP2 SUB SWAP1 LOG2 PUSH1 0x1 PUSH1 0x6 PUSH1 0x0 DUP3 DUP3 SLOAD PUSH2 0x205F SWAP2 SWAP1 PUSH2 0x358C JUMP JUMPDEST SWAP3 POP POP DUP2 SWAP1 SSTORE POP PUSH1 0x1 PUSH1 0x4 PUSH1 0x0 DUP3 DUP3 SLOAD PUSH2 0x2079 SWAP2 SWAP1 PUSH2 0x358C JUMP JUMPDEST SWAP3 POP POP DUP2 SWAP1 SSTORE POP PUSH1 0x0 PUSH1 0x2 DUP1 SLOAD SWAP1 POP PUSH1 0x4 SLOAD LT ISZERO SWAP1 POP PUSH1 0x0 DUP1 PUSH32 0x0 EQ ISZERO DUP1 ISZERO PUSH2 0x20E3 JUMPI POP PUSH32 0x0 PUSH1 0x6 SLOAD LT ISZERO JUMPDEST SWAP1 POP DUP2 DUP1 PUSH2 0x20EE JUMPI POP DUP1 JUMPDEST ISZERO PUSH2 0x214F JUMPI PUSH1 0x1 PUSH1 0x3 PUSH1 0x2 PUSH2 0x100 EXP DUP2 SLOAD DUP2 PUSH1 0xFF MUL NOT AND SWAP1 DUP4 ISZERO ISZERO MUL OR SWAP1 SSTORE POP PUSH2 0x2118 PUSH1 0x0 PUSH2 0x2D74 JUMP JUMPDEST PUSH32 0x9427AB050D1CDFF5B941BC297AD5E113728D69972E8C69AA27C13E2D1B63FA19 PUSH1 0x40 MLOAD PUSH1 0x40 MLOAD DUP1 SWAP2 SUB SWAP1 LOG1 POP POP POP POP POP POP PUSH2 0x2265 JUMP JUMPDEST PUSH32 0x0 TIMESTAMP PUSH2 0x217B SWAP2 SWAP1 PUSH2 0x358C JUMP JUMPDEST PUSH1 0x5 DUP2 SWAP1 SSTORE POP PUSH1 0x0 PUSH1 0x2 PUSH1 0x4 SLOAD DUP2 SLOAD DUP2 LT PUSH2 0x2199 JUMPI PUSH2 0x2198 PUSH2 0x3314 JUMP JUMPDEST JUMPDEST SWAP1 PUSH1 0x0 MSTORE PUSH1 0x20 PUSH1 0x0 KECCAK256 ADD PUSH1 0x0 SWAP1 SLOAD SWAP1 PUSH2 0x100 EXP SWAP1 DIV PUSH20 0xFFFFFFFFFFFFFFFFFFFFFFFFFFFFFFFFFFFFFFFF AND SWAP1 POP DUP1 PUSH20 0xFFFFFFFFFFFFFFFFFFFFFFFFFFFFFFFFFFFFFFFF AND PUSH32 0x6A05C8DE3F1F9F35B92C0552A95C5FA9328CC1854919EC31893524194DC6EB46 PUSH1 0x0 DUP1 DUP5 PUSH20 0xFFFFFFFFFFFFFFFFFFFFFFFFFFFFFFFFFFFFFFFF AND PUSH20 0xFFFFFFFFFFFFFFFFFFFFFFFFFFFFFFFFFFFFFFFF AND DUP2 MSTORE PUSH1 0x20 ADD SWAP1 DUP2 MSTORE PUSH1 0x20 ADD PUSH1 0x0 KECCAK256 PUSH1 0x2 ADD SLOAD PUSH1 0x5 SLOAD PUSH1 0x6 SLOAD PUSH1 0x40 MLOAD PUSH2 0x2255 SWAP4 SWAP3 SWAP2 SWAP1 PUSH2 0x2F31 JUMP JUMPDEST PUSH1 0x40 MLOAD DUP1 SWAP2 SUB SWAP1 LOG2 POP POP POP POP POP POP POP JUMPDEST JUMP JUMPDEST PUSH8 0x8AC7230489E80000 DUP2 JUMP JUMPDEST PUSH7 0x38D7EA4C68000 DUP2 JUMP JUMPDEST PUSH1 0x3 PUSH1 0x0 SWAP1 SLOAD SWAP1 PUSH2 0x100 EXP SWAP1 DIV PUSH1 0xFF AND PUSH2 0x22CD JUMPI PUSH1 0x40 MLOAD PUSH32 0x8C379A000000000000000000000000000000000000000000000000000000000 DUP2 MSTORE PUSH1 0x4 ADD PUSH2 0x22C4 SWAP1 PUSH2 0x321C JUMP JUMPDEST PUSH1 0x40 MLOAD DUP1 SWAP2 SUB SWAP1 REVERT JUMPDEST PUSH1 0x3 PUSH1 0x2 SWAP1 SLOAD SWAP1 PUSH2 0x100 EXP SWAP1 DIV PUSH1 0xFF AND ISZERO PUSH2 0x231D JUMPI PUSH1 0x40 MLOAD PUSH32 0x8C379A000000000000000000000000000000000000000000000000000000000 DUP2 MSTORE PUSH1 0x4 ADD PUSH2 0x2314 SWAP1 PUSH2 0x3E74 JUMP JUMPDEST PUSH1 0x40 MLOAD DUP1 SWAP2 SUB SWAP1 REVERT JUMPDEST PUSH1 0x3 PUSH1 0x1 SWAP1 SLOAD SWAP1 PUSH2 0x100 EXP SWAP1 DIV PUSH1 0xFF AND ISZERO PUSH2 0x236D JUMPI PUSH1 0x40 MLOAD PUSH32 0x8C379A000000000000000000000000000000000000000000000000000000000 DUP2 MSTORE PUSH1 0x4 ADD PUSH2 0x2364 SWAP1 PUSH2 0x3C4A JUMP JUMPDEST PUSH1 0x40 MLOAD DUP1 SWAP2 SUB SWAP1 REVERT JUMPDEST PUSH1 0x2 DUP1 SLOAD SWAP1 POP PUSH1 0x4 SLOAD LT PUSH2 0x23B6 JUMPI PUSH1 0x40 MLOAD PUSH32 0x8C379A000000000000000000000000000000000000000000000000000000000 DUP2 MSTORE PUSH1 0x4 ADD PUSH2 0x23AD SWAP1 PUSH2 0x3CB6 JUMP JUMPDEST PUSH1 0x40 MLOAD DUP1 SWAP2 SUB SWAP1 REVERT JUMPDEST PUSH1 0x5 SLOAD TIMESTAMP GT ISZERO PUSH2 0x23FB JUMPI PUSH1 0x40 MLOAD PUSH32 0x8C379A000000000000000000000000000000000000000000000000000000000 DUP2 MSTORE PUSH1 0x4 ADD PUSH2 0x23F2 SWAP1 PUSH2 0x3EE0 JUMP JUMPDEST PUSH1 0x40 MLOAD DUP1 SWAP2 SUB SWAP1 REVERT JUMPDEST PUSH1 0x0 PUSH1 0x2 PUSH1 0x4 SLOAD DUP2 SLOAD DUP2 LT PUSH2 0x2413 JUMPI PUSH2 0x2412 PUSH2 0x3314 JUMP JUMPDEST JUMPDEST SWAP1 PUSH1 0x0 MSTORE PUSH1 0x20 PUSH1 0x0 KECCAK256 ADD PUSH1 0x0 SWAP1 SLOAD SWAP1 PUSH2 0x100 EXP SWAP1 DIV PUSH20 0xFFFFFFFFFFFFFFFFFFFFFFFFFFFFFFFFFFFFFFFF AND SWAP1 POP DUP1 PUSH20 0xFFFFFFFFFFFFFFFFFFFFFFFFFFFFFFFFFFFFFFFF AND CALLER PUSH20 0xFFFFFFFFFFFFFFFFFFFFFFFFFFFFFFFFFFFFFFFF AND EQ PUSH2 0x24AE JUMPI PUSH1 0x40 MLOAD PUSH32 0x8C379A000000000000000000000000000000000000000000000000000000000 DUP2 MSTORE PUSH1 0x4 ADD PUSH2 0x24A5 SWAP1 PUSH2 0x3F4C JUMP JUMPDEST PUSH1 0x40 MLOAD DUP1 SWAP2 SUB SWAP1 REVERT JUMPDEST PUSH1 0x0 DUP1 PUSH1 0x0 DUP4 PUSH20 0xFFFFFFFFFFFFFFFFFFFFFFFFFFFFFFFFFFFFFFFF AND PUSH20 0xFFFFFFFFFFFFFFFFFFFFFFFFFFFFFFFFFFFFFFFF AND DUP2 MSTORE PUSH1 0x20 ADD SWAP1 DUP2 MSTORE PUSH1 0x20 ADD PUSH1 0x0 KECCAK256 PUSH1 0x2 ADD SLOAD SWAP1 POP PUSH1 0x0 PUSH32 0x0 DUP3 GT PUSH2 0x2524 JUMPI PUSH1 0x0 PUSH2 0x2551 JUMP JUMPDEST PUSH32 0x0 DUP3 PUSH2 0x2550 SWAP2 SWAP1 PUSH2 0x3558 JUMP JUMPDEST JUMPDEST SWAP1 POP DUP1 CALLVALUE EQ PUSH2 0x2595 JUMPI PUSH1 0x40 MLOAD PUSH32 0x8C379A000000000000000000000000000000000000000000000000000000000 DUP2 MSTORE PUSH1 0x4 ADD PUSH2 0x258C SWAP1 PUSH2 0x3FB8 JUMP JUMPDEST PUSH1 0x40 MLOAD DUP1 SWAP2 SUB SWAP1 REVERT JUMPDEST CALLVALUE PUSH32 0x0 PUSH2 0x25C1 SWAP2 SWAP1 PUSH2 0x358C JUMP JUMPDEST PUSH1 0x7 PUSH1 0x0 DUP3 DUP3 SLOAD PUSH2 0x25D2 SWAP2 SWAP1 PUSH2 0x358C JUMP JUMPDEST SWAP3 POP POP DUP2 SWAP1 SSTORE POP PUSH1 0x1 PUSH1 0x3 PUSH1 0x1 PUSH2 0x100 EXP DUP2 SLOAD DUP2 PUSH1 0xFF MUL NOT AND SWAP1 DUP4 ISZERO ISZERO MUL OR SWAP1 SSTORE POP PUSH2 0x25FD DUP4 PUSH2 0x2D74 JUMP JUMPDEST PUSH1 0x1 PUSH1 0x0 DUP1 DUP6 PUSH20 0xFFFFFFFFFFFFFFFFFFFFFFFFFFFFFFFFFFFFFFFF AND PUSH20 0xFFFFFFFFFFFFFFFFFFFFFFFFFFFFFFFFFFFFFFFF AND DUP2 MSTORE PUSH1 0x20 ADD SWAP1 DUP2 MSTORE PUSH1 0x20 ADD PUSH1 0x0 KECCAK256 PUSH1 0x3 ADD PUSH1 0x2 PUSH2 0x100 EXP DUP2 SLOAD DUP2 PUSH1 0xFF MUL NOT AND SWAP1 DUP4 ISZERO ISZERO MUL OR SWAP1 SSTORE POP DUP3 PUSH20 0xFFFFFFFFFFFFFFFFFFFFFFFFFFFFFFFFFFFFFFFF AND PUSH32 0x8CBBE5CD65720098FC8CE6E99A5DEB232085117DD486475B49CB11604B528F30 CALLVALUE PUSH32 0x0 PUSH2 0x26BB SWAP2 SWAP1 PUSH2 0x358C JUMP JUMPDEST PUSH1 0x40 MLOAD PUSH2 0x26C8 SWAP2 SWAP1 PUSH2 0x2F16 JUMP JUMPDEST PUSH1 0x40 MLOAD DUP1 SWAP2 SUB SWAP1 LOG2 POP POP POP JUMP JUMPDEST PUSH2 0x1F4 DUP2 JUMP JUMPDEST PUSH32 0x0 TIMESTAMP LT PUSH2 0x273D JUMPI PUSH1 0x40 MLOAD PUSH32 0x8C379A000000000000000000000000000000000000000000000000000000000 DUP2 MSTORE PUSH1 0x4 ADD PUSH2 0x2734 SWAP1 PUSH2 0x4024 JUMP JUMPDEST PUSH1 0x40 MLOAD DUP1 SWAP2 SUB SWAP1 REVERT JUMPDEST PUSH1 0x0 DUP1 SHL DUP2 SUB PUSH2 0x2782 JUMPI PUSH1 0x40 MLOAD PUSH32 0x8C379A000000000000000000000000000000000000000000000000000000000 DUP2 MSTORE PUSH1 0x4 ADD PUSH2 0x2779 SWAP1 PUSH2 0x4090 JUMP JUMPDEST PUSH1 0x40 MLOAD DUP1 SWAP2 SUB SWAP1 REVERT JUMPDEST PUSH32 0x0 PUSH1 0x1 DUP1 SLOAD SWAP1 POP LT PUSH2 0x27E9 JUMPI PUSH1 0x40 MLOAD PUSH32 0x8C379A000000000000000000000000000000000000000000000000000000000 DUP2 MSTORE PUSH1 0x4 ADD PUSH2 0x27E0 SWAP1 PUSH2 0x40FC JUMP JUMPDEST PUSH1 0x40 MLOAD DUP1 SWAP2 SUB SWAP1 REVERT JUMPDEST PUSH32 0x0 CALLVALUE EQ PUSH2 0x284B JUMPI PUSH1 0x40 MLOAD PUSH32 0x8C379A000000000000000000000000000000000000000000000000000000000 DUP2 MSTORE PUSH1 0x4 ADD PUSH2 0x2842 SWAP1 PUSH2 0x4168 JUMP JUMPDEST PUSH1 0x40 MLOAD DUP1 SWAP2 SUB SWAP1 REVERT JUMPDEST PUSH1 0x0 DUP1 PUSH1 0x0 CALLER PUSH20 0xFFFFFFFFFFFFFFFFFFFFFFFFFFFFFFFFFFFFFFFF AND PUSH20 0xFFFFFFFFFFFFFFFFFFFFFFFFFFFFFFFFFFFFFFFF AND DUP2 MSTORE PUSH1 0x20 ADD SWAP1 DUP2 MSTORE PUSH1 0x20 ADD PUSH1 0x0 KECCAK256 SWAP1 POP DUP1 PUSH1 0x3 ADD PUSH1 0x0 SWAP1 SLOAD SWAP1 PUSH2 0x100 EXP SWAP1 DIV PUSH1 0xFF AND ISZERO PUSH2 0x28DF JUMPI PUSH1 0x40 MLOAD PUSH32 0x8C379A000000000000000000000000000000000000000000000000000000000 DUP2 MSTORE PUSH1 0x4 ADD PUSH2 0x28D6 SWAP1 PUSH2 0x41D4 JUMP JUMPDEST PUSH1 0x40 MLOAD DUP1 SWAP2 SUB SWAP1 REVERT JUMPDEST DUP2 DUP2 PUSH1 0x0 ADD DUP2 SWAP1 SSTORE POP TIMESTAMP DUP2 PUSH1 0x1 ADD DUP2 SWAP1 SSTORE POP PUSH1 0x1 DUP2 PUSH1 0x3 ADD PUSH1 0x0 PUSH2 0x100 EXP DUP2 SLOAD DUP2 PUSH1 0xFF MUL NOT AND SWAP1 DUP4 ISZERO ISZERO MUL OR SWAP1 SSTORE POP PUSH1 0x1 CALLER SWAP1 DUP1 PUSH1 0x1 DUP2 SLOAD ADD DUP1 DUP3 SSTORE DUP1 SWAP2 POP POP PUSH1 0x1 SWAP1 SUB SWAP1 PUSH1 0x0 MSTORE PUSH1 0x20 PUSH1 0x0 KECCAK256 ADD PUSH1 0x0 SWAP1 SWAP2 SWAP1 SWAP2 SWAP1 SWAP2 PUSH2 0x100 EXP DUP2 SLOAD DUP2 PUSH20 0xFFFFFFFFFFFFFFFFFFFFFFFFFFFFFFFFFFFFFFFF MUL NOT AND SWAP1 DUP4 PUSH20 0xFFFFFFFFFFFFFFFFFFFFFFFFFFFFFFFFFFFFFFFF AND MUL OR SWAP1 SSTORE POP CALLER PUSH20 0xFFFFFFFFFFFFFFFFFFFFFFFFFFFFFFFFFFFFFFFF AND PUSH32 0x4D7787535441ABADF1FEB20A4BE6EF748AE9C25C03364E195AFC8BCC8816D980 DUP4 PUSH1 0x40 MLOAD PUSH2 0x29B7 SWAP2 SWAP1 PUSH2 0x302C JUMP JUMPDEST PUSH1 0x40 MLOAD DUP1 SWAP2 SUB SWAP1 LOG2 POP POP JUMP JUMPDEST PUSH1 0x3 PUSH1 0x2 SWAP1 SLOAD SWAP1 PUSH2 0x100 EXP SWAP1 DIV PUSH1 0xFF AND DUP2 JUMP JUMPDEST PUSH32 0x0 DUP2 JUMP JUMPDEST PUSH1 0x6 SLOAD DUP2 JUMP JUMPDEST PUSH1 0x0 PUSH1 0x20 MSTORE DUP1 PUSH1 0x0 MSTORE PUSH1 0x40 PUSH1 0x0 KECCAK256 PUSH1 0x0 SWAP2 POP SWAP1 POP DUP1 PUSH1 0x0 ADD SLOAD SWAP1 DUP1 PUSH1 0x1 ADD SLOAD SWAP1 DUP1 PUSH1 0x2 ADD SLOAD SWAP1 DUP1 PUSH1 0x3 ADD PUSH1 0x0 SWAP1 SLOAD SWAP1 PUSH2 0x100 EXP SWAP1 DIV PUSH1 0xFF AND SWAP1 DUP1 PUSH1 0x3 ADD PUSH1 0x1 SWAP1 SLOAD SWAP1 PUSH2 0x100 EXP SWAP1 DIV PUSH1 0xFF AND SWAP1 DUP1 PUSH1 0x3 ADD PUSH1 0x2 SWAP1 SLOAD SWAP1 PUSH2 0x100 EXP SWAP1 DIV PUSH1 0xFF AND SWAP1 DUP1 PUSH1 0x3 ADD PUSH1 0x3 SWAP1 SLOAD SWAP1 PUSH2 0x100 EXP SWAP1 DIV PUSH1 0xFF AND SWAP1 DUP1 PUSH1 0x3 ADD PUSH1 0x4 SWAP1 SLOAD SWAP1 PUSH2 0x100 EXP SWAP1 DIV PUSH1 0xFF AND SWAP1 POP DUP9 JUMP JUMPDEST PUSH1 0x2 DUP2 SWAP1 DUP1 PUSH1 0x1 DUP2 SLOAD ADD DUP1 DUP3 SSTORE DUP1 SWAP2 POP POP PUSH1 0x1 SWAP1 SUB SWAP1 PUSH1 0x0 MSTORE PUSH1 0x20 PUSH1 0x0 KECCAK256 ADD PUSH1 0x0 SWAP1 SWAP2 SWAP1 SWAP2 SWAP1 SWAP2 PUSH2 0x100 EXP DUP2 SLOAD DUP2 PUSH20 0xFFFFFFFFFFFFFFFFFFFFFFFFFFFFFFFFFFFFFFFF MUL NOT AND SWAP1 DUP4 PUSH20 0xFFFFFFFFFFFFFFFFFFFFFFFFFFFFFFFFFFFFFFFF AND MUL OR SWAP1 SSTORE POP PUSH1 0x0 PUSH1 0x1 PUSH1 0x2 DUP1 SLOAD SWAP1 POP PUSH2 0x2B00 SWAP2 SWAP1 PUSH2 0x3558 JUMP JUMPDEST SWAP1 POP JUMPDEST PUSH1 0x0 DUP2 GT ISZERO PUSH2 0x2D70 JUMPI PUSH1 0x0 PUSH1 0x2 PUSH1 0x1 DUP4 PUSH2 0x2B1D SWAP2 SWAP1 PUSH2 0x3558 JUMP JUMPDEST DUP2 SLOAD DUP2 LT PUSH2 0x2B2E JUMPI PUSH2 0x2B2D PUSH2 0x3314 JUMP JUMPDEST JUMPDEST SWAP1 PUSH1 0x0 MSTORE PUSH1 0x20 PUSH1 0x0 KECCAK256 ADD PUSH1 0x0 SWAP1 SLOAD SWAP1 PUSH2 0x100 EXP SWAP1 DIV PUSH20 0xFFFFFFFFFFFFFFFFFFFFFFFFFFFFFFFFFFFFFFFF AND SWAP1 POP PUSH1 0x0 DUP1 PUSH1 0x0 DUP6 PUSH20 0xFFFFFFFFFFFFFFFFFFFFFFFFFFFFFFFFFFFFFFFF AND PUSH20 0xFFFFFFFFFFFFFFFFFFFFFFFFFFFFFFFFFFFFFFFF AND DUP2 MSTORE PUSH1 0x20 ADD SWAP1 DUP2 MSTORE PUSH1 0x20 ADD PUSH1 0x0 KECCAK256 PUSH1 0x2 ADD SLOAD SWAP1 POP PUSH1 0x0 DUP1 PUSH1 0x0 DUP5 PUSH20 0xFFFFFFFFFFFFFFFFFFFFFFFFFFFFFFFFFFFFFFFF AND PUSH20 0xFFFFFFFFFFFFFFFFFFFFFFFFFFFFFFFFFFFFFFFF AND DUP2 MSTORE PUSH1 0x20 ADD SWAP1 DUP2 MSTORE PUSH1 0x20 ADD PUSH1 0x0 KECCAK256 PUSH1 0x2 ADD SLOAD SWAP1 POP DUP1 DUP3 GT PUSH2 0x2C94 JUMPI DUP1 DUP3 SUB PUSH2 0x2C8B JUMPI PUSH1 0x0 DUP1 DUP5 PUSH20 0xFFFFFFFFFFFFFFFFFFFFFFFFFFFFFFFFFFFFFFFF AND PUSH20 0xFFFFFFFFFFFFFFFFFFFFFFFFFFFFFFFFFFFFFFFF AND DUP2 MSTORE PUSH1 0x20 ADD SWAP1 DUP2 MSTORE PUSH1 0x20 ADD PUSH1 0x0 KECCAK256 PUSH1 0x1 ADD SLOAD PUSH1 0x0 DUP1 DUP8 PUSH20 0xFFFFFFFFFFFFFFFFFFFFFFFFFFFFFFFFFFFFFFFF AND PUSH20 0xFFFFFFFFFFFFFFFFFFFFFFFFFFFFFFFFFFFFFFFF AND DUP2 MSTORE PUSH1 0x20 ADD SWAP1 DUP2 MSTORE PUSH1 0x20 ADD PUSH1 0x0 KECCAK256 PUSH1 0x1 ADD SLOAD LT PUSH2 0x2C86 JUMPI POP POP POP PUSH2 0x2D70 JUMP JUMPDEST PUSH2 0x2C93 JUMP JUMPDEST POP POP POP PUSH2 0x2D70 JUMP JUMPDEST JUMPDEST DUP3 PUSH1 0x2 DUP6 DUP2 SLOAD DUP2 LT PUSH2 0x2CA9 JUMPI PUSH2 0x2CA8 PUSH2 0x3314 JUMP JUMPDEST JUMPDEST SWAP1 PUSH1 0x0 MSTORE PUSH1 0x20 PUSH1 0x0 KECCAK256 ADD PUSH1 0x0 PUSH2 0x100 EXP DUP2 SLOAD DUP2 PUSH20 0xFFFFFFFFFFFFFFFFFFFFFFFFFFFFFFFFFFFFFFFF MUL NOT AND SWAP1 DUP4 PUSH20 0xFFFFFFFFFFFFFFFFFFFFFFFFFFFFFFFFFFFFFFFF AND MUL OR SWAP1 SSTORE POP DUP5 PUSH1 0x2 PUSH1 0x1 DUP7 PUSH2 0x2D01 SWAP2 SWAP1 PUSH2 0x3558 JUMP JUMPDEST DUP2 SLOAD DUP2 LT PUSH2 0x2D12 JUMPI PUSH2 0x2D11 PUSH2 0x3314 JUMP JUMPDEST JUMPDEST SWAP1 PUSH1 0x0 MSTORE PUSH1 0x20 PUSH1 0x0 KECCAK256 ADD PUSH1 0x0 PUSH2 0x100 EXP DUP2 SLOAD DUP2 PUSH20 0xFFFFFFFFFFFFFFFFFFFFFFFFFFFFFFFFFFFFFFFF MUL NOT AND SWAP1 DUP4 PUSH20 0xFFFFFFFFFFFFFFFFFFFFFFFFFFFFFFFFFFFFFFFF AND MUL OR SWAP1 SSTORE POP DUP4 DUP1 PUSH2 0x2D65 SWAP1 PUSH2 0x41F4 JUMP JUMPDEST SWAP5 POP POP POP POP POP PUSH2 0x2B03 JUMP JUMPDEST POP POP JUMP JUMPDEST PUSH1 0x0 JUMPDEST PUSH1 0x2 DUP1 SLOAD SWAP1 POP DUP2 LT ISZERO PUSH2 0x2E69 JUMPI PUSH1 0x0 PUSH1 0x2 DUP3 DUP2 SLOAD DUP2 LT PUSH2 0x2D9A JUMPI PUSH2 0x2D99 PUSH2 0x3314 JUMP JUMPDEST JUMPDEST SWAP1 PUSH1 0x0 MSTORE PUSH1 0x20 PUSH1 0x0 KECCAK256 ADD PUSH1 0x0 SWAP1 SLOAD SWAP1 PUSH2 0x100 EXP SWAP1 DIV PUSH20 0xFFFFFFFFFFFFFFFFFFFFFFFFFFFFFFFFFFFFFFFF AND SWAP1 POP DUP3 PUSH20 0xFFFFFFFFFFFFFFFFFFFFFFFFFFFFFFFFFFFFFFFF AND DUP2 PUSH20 0xFFFFFFFFFFFFFFFFFFFFFFFFFFFFFFFFFFFFFFFF AND SUB PUSH2 0x2E00 JUMPI POP PUSH2 0x2E5C JUMP JUMPDEST PUSH1 0x0 DUP1 PUSH1 0x0 DUP4 PUSH20 0xFFFFFFFFFFFFFFFFFFFFFFFFFFFFFFFFFFFFFFFF AND PUSH20 0xFFFFFFFFFFFFFFFFFFFFFFFFFFFFFFFFFFFFFFFF AND DUP2 MSTORE PUSH1 0x20 ADD SWAP1 DUP2 MSTORE PUSH1 0x20 ADD PUSH1 0x0 KECCAK256 PUSH1 0x3 ADD PUSH1 0x3 PUSH2 0x100 EXP DUP2 SLOAD DUP2 PUSH1 0xFF MUL NOT AND SWAP1 DUP4 ISZERO ISZERO MUL OR SWAP1 SSTORE POP POP JUMPDEST DUP1 DUP1 PUSH1 0x1 ADD SWAP2 POP POP PUSH2 0x2D77 JUMP JUMPDEST POP POP JUMP JUMPDEST PUSH1 0x0 DUP1 REVERT JUMPDEST PUSH1 0x0 PUSH20 0xFFFFFFFFFFFFFFFFFFFFFFFFFFFFFFFFFFFFFFFF DUP3 AND SWAP1 POP SWAP2 SWAP1 POP JUMP JUMPDEST PUSH1 0x0 PUSH2 0x2E9D DUP3 PUSH2 0x2E72 JUMP JUMPDEST SWAP1 POP SWAP2 SWAP1 POP JUMP JUMPDEST PUSH2 0x2EAD DUP2 PUSH2 0x2E92 JUMP JUMPDEST DUP2 EQ PUSH2 0x2EB8 JUMPI PUSH1 0x0 DUP1 REVERT JUMPDEST POP JUMP JUMPDEST PUSH1 0x0 DUP2 CALLDATALOAD SWAP1 POP PUSH2 0x2ECA DUP2 PUSH2 0x2EA4 JUMP JUMPDEST SWAP3 SWAP2 POP POP JUMP JUMPDEST PUSH1 0x0 PUSH1 0x20 DUP3 DUP5 SUB SLT ISZERO PUSH2 0x2EE6 JUMPI PUSH2 0x2EE5 PUSH2 0x2E6D JUMP JUMPDEST JUMPDEST PUSH1 0x0 PUSH2 0x2EF4 DUP5 DUP3 DUP6 ADD PUSH2 0x2EBB JUMP JUMPDEST SWAP2 POP POP SWAP3 SWAP2 POP POP JUMP JUMPDEST PUSH1 0x0 DUP2 SWAP1 POP SWAP2 SWAP1 POP JUMP JUMPDEST PUSH2 0x2F10 DUP2 PUSH2 0x2EFD JUMP JUMPDEST DUP3 MSTORE POP POP JUMP JUMPDEST PUSH1 0x0 PUSH1 0x20 DUP3 ADD SWAP1 POP PUSH2 0x2F2B PUSH1 0x0 DUP4 ADD DUP5 PUSH2 0x2F07 JUMP JUMPDEST SWAP3 SWAP2 POP POP JUMP JUMPDEST PUSH1 0x0 PUSH1 0x60 DUP3 ADD SWAP1 POP PUSH2 0x2F46 PUSH1 0x0 DUP4 ADD DUP7 PUSH2 0x2F07 JUMP JUMPDEST PUSH2 0x2F53 PUSH1 0x20 DUP4 ADD DUP6 PUSH2 0x2F07 JUMP JUMPDEST PUSH2 0x2F60 PUSH1 0x40 DUP4 ADD DUP5 PUSH2 0x2F07 JUMP JUMPDEST SWAP5 SWAP4 POP POP POP POP JUMP JUMPDEST PUSH2 0x2F71 DUP2 PUSH2 0x2EFD JUMP JUMPDEST DUP2 EQ PUSH2 0x2F7C JUMPI PUSH1 0x0 DUP1 REVERT JUMPDEST POP JUMP JUMPDEST PUSH1 0x0 DUP2 CALLDATALOAD SWAP1 POP PUSH2 0x2F8E DUP2 PUSH2 0x2F68 JUMP JUMPDEST SWAP3 SWAP2 POP POP JUMP JUMPDEST PUSH1 0x0 DUP2 SWAP1 POP SWAP2 SWAP1 POP JUMP JUMPDEST PUSH2 0x2FA7 DUP2 PUSH2 0x2F94 JUMP JUMPDEST DUP2 EQ PUSH2 0x2FB2 JUMPI PUSH1 0x0 DUP1 REVERT JUMPDEST POP JUMP JUMPDEST PUSH1 0x0 DUP2 CALLDATALOAD SWAP1 POP PUSH2 0x2FC4 DUP2 PUSH2 0x2F9E JUMP JUMPDEST SWAP3 SWAP2 POP POP JUMP JUMPDEST PUSH1 0x0 DUP1 PUSH1 0x0 PUSH1 0x60 DUP5 DUP7 SUB SLT ISZERO PUSH2 0x2FE3 JUMPI PUSH2 0x2FE2 PUSH2 0x2E6D JUMP JUMPDEST JUMPDEST PUSH1 0x0 PUSH2 0x2FF1 DUP7 DUP3 DUP8 ADD PUSH2 0x2F7F JUMP JUMPDEST SWAP4 POP POP PUSH1 0x20 PUSH2 0x3002 DUP7 DUP3 DUP8 ADD PUSH2 0x2FB5 JUMP JUMPDEST SWAP3 POP POP PUSH1 0x40 PUSH2 0x3013 DUP7 DUP3 DUP8 ADD PUSH2 0x2EBB JUMP JUMPDEST SWAP2 POP POP SWAP3 POP SWAP3 POP SWAP3 JUMP JUMPDEST PUSH2 0x3026 DUP2 PUSH2 0x2F94 JUMP JUMPDEST DUP3 MSTORE POP POP JUMP JUMPDEST PUSH1 0x0 PUSH1 0x20 DUP3 ADD SWAP1 POP PUSH2 0x3041 PUSH1 0x0 DUP4 ADD DUP5 PUSH2 0x301D JUMP JUMPDEST SWAP3 SWAP2 POP POP JUMP JUMPDEST PUSH1 0x0 DUP2 ISZERO ISZERO SWAP1 POP SWAP2 SWAP1 POP JUMP JUMPDEST PUSH2 0x305C DUP2 PUSH2 0x3047 JUMP JUMPDEST DUP3 MSTORE POP POP JUMP JUMPDEST PUSH1 0x0 PUSH1 0x20 DUP3 ADD SWAP1 POP PUSH2 0x3077 PUSH1 0x0 DUP4 ADD DUP5 PUSH2 0x3053 JUMP JUMPDEST SWAP3 SWAP2 POP POP JUMP JUMPDEST PUSH1 0x0 DUP1 PUSH1 0x40 DUP4 DUP6 SUB SLT ISZERO PUSH2 0x3094 JUMPI PUSH2 0x3093 PUSH2 0x2E6D JUMP JUMPDEST JUMPDEST PUSH1 0x0 PUSH2 0x30A2 DUP6 DUP3 DUP7 ADD PUSH2 0x2F7F JUMP JUMPDEST SWAP3 POP POP PUSH1 0x20 PUSH2 0x30B3 DUP6 DUP3 DUP7 ADD PUSH2 0x2FB5 JUMP JUMPDEST SWAP2 POP POP SWAP3 POP SWAP3 SWAP1 POP JUMP JUMPDEST PUSH1 0x0 PUSH1 0x20 DUP3 DUP5 SUB SLT ISZERO PUSH2 0x30D3 JUMPI PUSH2 0x30D2 PUSH2 0x2E6D JUMP JUMPDEST JUMPDEST PUSH1 0x0 PUSH2 0x30E1 DUP5 DUP3 DUP6 ADD PUSH2 0x2F7F JUMP JUMPDEST SWAP2 POP POP SWAP3 SWAP2 POP POP JUMP JUMPDEST PUSH2 0x30F3 DUP2 PUSH2 0x2E92 JUMP JUMPDEST DUP3 MSTORE POP POP JUMP JUMPDEST PUSH1 0x0 PUSH1 0x20 DUP3 ADD SWAP1 POP PUSH2 0x310E PUSH1 0x0 DUP4 ADD DUP5 PUSH2 0x30EA JUMP JUMPDEST SWAP3 SWAP2 POP POP JUMP JUMPDEST PUSH1 0x0 PUSH1 0x20 DUP3 DUP5 SUB SLT ISZERO PUSH2 0x312A JUMPI PUSH2 0x3129 PUSH2 0x2E6D JUMP JUMPDEST JUMPDEST PUSH1 0x0 PUSH2 0x3138 DUP5 DUP3 DUP6 ADD PUSH2 0x2FB5 JUMP JUMPDEST SWAP2 POP POP SWAP3 SWAP2 POP POP JUMP JUMPDEST PUSH1 0x0 PUSH2 0x100 DUP3 ADD SWAP1 POP PUSH2 0x3157 PUSH1 0x0 DUP4 ADD DUP12 PUSH2 0x301D JUMP JUMPDEST PUSH2 0x3164 PUSH1 0x20 DUP4 ADD DUP11 PUSH2 0x2F07 JUMP JUMPDEST PUSH2 0x3171 PUSH1 0x40 DUP4 ADD DUP10 PUSH2 0x2F07 JUMP JUMPDEST PUSH2 0x317E PUSH1 0x60 DUP4 ADD DUP9 PUSH2 0x3053 JUMP JUMPDEST PUSH2 0x318B PUSH1 0x80 DUP4 ADD DUP8 PUSH2 0x3053 JUMP JUMPDEST PUSH2 0x3198 PUSH1 0xA0 DUP4 ADD DUP7 PUSH2 0x3053 JUMP JUMPDEST PUSH2 0x31A5 PUSH1 0xC0 DUP4 ADD DUP6 PUSH2 0x3053 JUMP JUMPDEST PUSH2 0x31B2 PUSH1 0xE0 DUP4 ADD DUP5 PUSH2 0x3053 JUMP JUMPDEST SWAP10 SWAP9 POP POP POP POP POP POP POP POP POP JUMP JUMPDEST PUSH1 0x0 DUP3 DUP3 MSTORE PUSH1 0x20 DUP3 ADD SWAP1 POP SWAP3 SWAP2 POP POP JUMP JUMPDEST PUSH32 0x4E6F2066696E616C697A61646F00000000000000000000000000000000000000 PUSH1 0x0 DUP3 ADD MSTORE POP JUMP JUMPDEST PUSH1 0x0 PUSH2 0x3206 PUSH1 0xD DUP4 PUSH2 0x31BF JUMP JUMPDEST SWAP2 POP PUSH2 0x3211 DUP3 PUSH2 0x31D0 JUMP JUMPDEST PUSH1 0x20 DUP3 ADD SWAP1 POP SWAP2 SWAP1 POP JUMP JUMPDEST PUSH1 0x0 PUSH1 0x20 DUP3 ADD SWAP1 POP DUP2 DUP2 SUB PUSH1 0x0 DUP4 ADD MSTORE PUSH2 0x3235 DUP2 PUSH2 0x31F9 JUMP JUMPDEST SWAP1 POP SWAP2 SWAP1 POP JUMP JUMPDEST PUSH32 0x4E6F207061727469636970617374650000000000000000000000000000000000 PUSH1 0x0 DUP3 ADD MSTORE POP JUMP JUMPDEST PUSH1 0x0 PUSH2 0x3272 PUSH1 0xF DUP4 PUSH2 0x31BF JUMP JUMPDEST SWAP2 POP PUSH2 0x327D DUP3 PUSH2 0x323C JUMP JUMPDEST PUSH1 0x20 DUP3 ADD SWAP1 POP SWAP2 SWAP1 POP JUMP JUMPDEST PUSH1 0x0 PUSH1 0x20 DUP3 ADD SWAP1 POP DUP2 DUP2 SUB PUSH1 0x0 DUP4 ADD MSTORE PUSH2 0x32A1 DUP2 PUSH2 0x3265 JUMP JUMPDEST SWAP1 POP SWAP2 SWAP1 POP JUMP JUMPDEST PUSH32 0x596120726574697261646F2F67657374696F6E61646F00000000000000000000 PUSH1 0x0 DUP3 ADD MSTORE POP JUMP JUMPDEST PUSH1 0x0 PUSH2 0x32DE PUSH1 0x16 DUP4 PUSH2 0x31BF JUMP JUMPDEST SWAP2 POP PUSH2 0x32E9 DUP3 PUSH2 0x32A8 JUMP JUMPDEST PUSH1 0x20 DUP3 ADD SWAP1 POP SWAP2 SWAP1 POP JUMP JUMPDEST PUSH1 0x0 PUSH1 0x20 DUP3 ADD SWAP1 POP DUP2 DUP2 SUB PUSH1 0x0 DUP4 ADD MSTORE PUSH2 0x330D DUP2 PUSH2 0x32D1 JUMP JUMPDEST SWAP1 POP SWAP2 SWAP1 POP JUMP JUMPDEST PUSH32 0x4E487B7100000000000000000000000000000000000000000000000000000000 PUSH1 0x0 MSTORE PUSH1 0x32 PUSH1 0x4 MSTORE PUSH1 0x24 PUSH1 0x0 REVERT JUMPDEST PUSH32 0x47616E61646F72206E6F20726574697261000000000000000000000000000000 PUSH1 0x0 DUP3 ADD MSTORE POP JUMP JUMPDEST PUSH1 0x0 PUSH2 0x3379 PUSH1 0x11 DUP4 PUSH2 0x31BF JUMP JUMPDEST SWAP2 POP PUSH2 0x3384 DUP3 PUSH2 0x3343 JUMP JUMPDEST PUSH1 0x20 DUP3 ADD SWAP1 POP SWAP2 SWAP1 POP JUMP JUMPDEST PUSH1 0x0 PUSH1 0x20 DUP3 ADD SWAP1 POP DUP2 DUP2 SUB PUSH1 0x0 DUP4 ADD MSTORE PUSH2 0x33A8 DUP2 PUSH2 0x336C JUMP JUMPDEST SWAP1 POP SWAP2 SWAP1 POP JUMP JUMPDEST PUSH32 0x44656661756C743A206669616E7A612070657264696461000000000000000000 PUSH1 0x0 DUP3 ADD MSTORE POP JUMP JUMPDEST PUSH1 0x0 PUSH2 0x33E5 PUSH1 0x17 DUP4 PUSH2 0x31BF JUMP JUMPDEST SWAP2 POP PUSH2 0x33F0 DUP3 PUSH2 0x33AF JUMP JUMPDEST PUSH1 0x20 DUP3 ADD SWAP1 POP SWAP2 SWAP1 POP JUMP JUMPDEST PUSH1 0x0 PUSH1 0x20 DUP3 ADD SWAP1 POP DUP2 DUP2 SUB PUSH1 0x0 DUP4 ADD MSTORE PUSH2 0x3414 DUP2 PUSH2 0x33D8 JUMP JUMPDEST SWAP1 POP SWAP2 SWAP1 POP JUMP JUMPDEST PUSH32 0x41756E20626C6F71756561646F202872616E6B696E6729000000000000000000 PUSH1 0x0 DUP3 ADD MSTORE POP JUMP JUMPDEST PUSH1 0x0 PUSH2 0x3451 PUSH1 0x17 DUP4 PUSH2 0x31BF JUMP JUMPDEST SWAP2 POP PUSH2 0x345C DUP3 PUSH2 0x341B JUMP JUMPDEST PUSH1 0x20 DUP3 ADD SWAP1 POP SWAP2 SWAP1 POP JUMP JUMPDEST PUSH1 0x0 PUSH1 0x20 DUP3 ADD SWAP1 POP DUP2 DUP2 SUB PUSH1 0x0 DUP4 ADD MSTORE PUSH2 0x3480 DUP2 PUSH2 0x3444 JUMP JUMPDEST SWAP1 POP SWAP2 SWAP1 POP JUMP JUMPDEST PUSH32 0x4E487B7100000000000000000000000000000000000000000000000000000000 PUSH1 0x0 MSTORE PUSH1 0x11 PUSH1 0x4 MSTORE PUSH1 0x24 PUSH1 0x0 REVERT JUMPDEST PUSH1 0x0 PUSH2 0x34C1 DUP3 PUSH2 0x2EFD JUMP JUMPDEST SWAP2 POP PUSH2 0x34CC DUP4 PUSH2 0x2EFD JUMP JUMPDEST SWAP3 POP DUP3 DUP3 MUL PUSH2 0x34DA DUP2 PUSH2 0x2EFD JUMP JUMPDEST SWAP2 POP DUP3 DUP3 DIV DUP5 EQ DUP4 ISZERO OR PUSH2 0x34F1 JUMPI PUSH2 0x34F0 PUSH2 0x3487 JUMP JUMPDEST JUMPDEST POP SWAP3 SWAP2 POP POP JUMP JUMPDEST PUSH32 0x4E487B7100000000000000000000000000000000000000000000000000000000 PUSH1 0x0 MSTORE PUSH1 0x12 PUSH1 0x4 MSTORE PUSH1 0x24 PUSH1 0x0 REVERT JUMPDEST PUSH1 0x0 PUSH2 0x3532 DUP3 PUSH2 0x2EFD JUMP JUMPDEST SWAP2 POP PUSH2 0x353D DUP4 PUSH2 0x2EFD JUMP JUMPDEST SWAP3 POP DUP3 PUSH2 0x354D JUMPI PUSH2 0x354C PUSH2 0x34F8 JUMP JUMPDEST JUMPDEST DUP3 DUP3 DIV SWAP1 POP SWAP3 SWAP2 POP POP JUMP JUMPDEST PUSH1 0x0 PUSH2 0x3563 DUP3 PUSH2 0x2EFD JUMP JUMPDEST SWAP2 POP PUSH2 0x356E DUP4 PUSH2 0x2EFD JUMP JUMPDEST SWAP3 POP DUP3 DUP3 SUB SWAP1 POP DUP2 DUP2 GT ISZERO PUSH2 0x3586 JUMPI PUSH2 0x3585 PUSH2 0x3487 JUMP JUMPDEST JUMPDEST SWAP3 SWAP2 POP POP JUMP JUMPDEST PUSH1 0x0 PUSH2 0x3597 DUP3 PUSH2 0x2EFD JUMP JUMPDEST SWAP2 POP PUSH2 0x35A2 DUP4 PUSH2 0x2EFD JUMP JUMPDEST SWAP3 POP DUP3 DUP3 ADD SWAP1 POP DUP1 DUP3 GT ISZERO PUSH2 0x35BA JUMPI PUSH2 0x35B9 PUSH2 0x3487 JUMP JUMPDEST JUMPDEST SWAP3 SWAP2 POP POP JUMP JUMPDEST PUSH32 0x646964206E6F742072657665616C000000000000000000000000000000000000 PUSH1 0x0 DUP3 ADD MSTORE POP JUMP JUMPDEST PUSH1 0x0 PUSH2 0x35F6 PUSH1 0xE DUP4 PUSH2 0x31BF JUMP JUMPDEST SWAP2 POP PUSH2 0x3601 DUP3 PUSH2 0x35C0 JUMP JUMPDEST PUSH1 0x20 DUP3 ADD SWAP1 POP SWAP2 SWAP1 POP JUMP JUMPDEST PUSH1 0x0 PUSH1 0x40 DUP3 ADD SWAP1 POP PUSH2 0x3621 PUSH1 0x0 DUP4 ADD DUP5 PUSH2 0x2F07 JUMP JUMPDEST DUP2 DUP2 SUB PUSH1 0x20 DUP4 ADD MSTORE PUSH2 0x3632 DUP2 PUSH2 0x35E9 JUMP JUMPDEST SWAP1 POP SWAP3 SWAP2 POP POP JUMP JUMPDEST PUSH1 0x0 DUP2 SWAP1 POP SWAP3 SWAP2 POP POP JUMP JUMPDEST POP JUMP JUMPDEST PUSH1 0x0 PUSH2 0x3655 PUSH1 0x0 DUP4 PUSH2 0x363A JUMP JUMPDEST SWAP2 POP PUSH2 0x3660 DUP3 PUSH2 0x3645 JUMP JUMPDEST PUSH1 0x0 DUP3 ADD SWAP1 POP SWAP2 SWAP1 POP JUMP JUMPDEST PUSH1 0x0 PUSH2 0x3676 DUP3 PUSH2 0x3648 JUMP JUMPDEST SWAP2 POP DUP2 SWAP1 POP SWAP2 SWAP1 POP JUMP JUMPDEST PUSH32 0x5472616E736665722066616C6C6F000000000000000000000000000000000000 PUSH1 0x0 DUP3 ADD MSTORE POP JUMP JUMPDEST PUSH1 0x0 PUSH2 0x36B6 PUSH1 0xE DUP4 PUSH2 0x31BF JUMP JUMPDEST SWAP2 POP PUSH2 0x36C1 DUP3 PUSH2 0x3680 JUMP JUMPDEST PUSH1 0x20 DUP3 ADD SWAP1 POP SWAP2 SWAP1 POP JUMP JUMPDEST PUSH1 0x0 PUSH1 0x20 DUP3 ADD SWAP1 POP DUP2 DUP2 SUB PUSH1 0x0 DUP4 ADD MSTORE PUSH2 0x36E5 DUP2 PUSH2 0x36A9 JUMP JUMPDEST SWAP1 POP SWAP2 SWAP1 POP JUMP JUMPDEST PUSH1 0x0 PUSH1 0x80 DUP3 ADD SWAP1 POP PUSH2 0x3701 PUSH1 0x0 DUP4 ADD DUP8 PUSH2 0x2F07 JUMP JUMPDEST PUSH2 0x370E PUSH1 0x20 DUP4 ADD DUP7 PUSH2 0x301D JUMP JUMPDEST PUSH2 0x371B PUSH1 0x40 DUP4 ADD DUP6 PUSH2 0x30EA JUMP JUMPDEST PUSH2 0x3728 PUSH1 0x60 DUP4 ADD DUP5 PUSH2 0x30EA JUMP JUMPDEST SWAP6 SWAP5 POP POP POP POP POP JUMP JUMPDEST PUSH32 0x52657665616C206E6F20696E6963696164610000000000000000000000000000 PUSH1 0x0 DUP3 ADD MSTORE POP JUMP JUMPDEST PUSH1 0x0 PUSH2 0x3767 PUSH1 0x12 DUP4 PUSH2 0x31BF JUMP JUMPDEST SWAP2 POP PUSH2 0x3772 DUP3 PUSH2 0x3731 JUMP JUMPDEST PUSH1 0x20 DUP3 ADD SWAP1 POP SWAP2 SWAP1 POP JUMP JUMPDEST PUSH1 0x0 PUSH1 0x20 DUP3 ADD SWAP1 POP DUP2 DUP2 SUB PUSH1 0x0 DUP4 ADD MSTORE PUSH2 0x3796 DUP2 PUSH2 0x375A JUMP JUMPDEST SWAP1 POP SWAP2 SWAP1 POP JUMP JUMPDEST PUSH32 0x52657665616C2063657272616461000000000000000000000000000000000000 PUSH1 0x0 DUP3 ADD MSTORE POP JUMP JUMPDEST PUSH1 0x0 PUSH2 0x37D3 PUSH1 0xE DUP4 PUSH2 0x31BF JUMP JUMPDEST SWAP2 POP PUSH2 0x37DE DUP3 PUSH2 0x379D JUMP JUMPDEST PUSH1 0x20 DUP3 ADD SWAP1 POP SWAP2 SWAP1 POP JUMP JUMPDEST PUSH1 0x0 PUSH1 0x20 DUP3 ADD SWAP1 POP DUP2 DUP2 SUB PUSH1 0x0 DUP4 ADD MSTORE PUSH2 0x3802 DUP2 PUSH2 0x37C6 JUMP JUMPDEST SWAP1 POP SWAP2 SWAP1 POP JUMP JUMPDEST PUSH32 0x596120726576656C617374650000000000000000000000000000000000000000 PUSH1 0x0 DUP3 ADD MSTORE POP JUMP JUMPDEST PUSH1 0x0 PUSH2 0x383F PUSH1 0xC DUP4 PUSH2 0x31BF JUMP JUMPDEST SWAP2 POP PUSH2 0x384A DUP3 PUSH2 0x3809 JUMP JUMPDEST PUSH1 0x20 DUP3 ADD SWAP1 POP SWAP2 SWAP1 POP JUMP JUMPDEST PUSH1 0x0 PUSH1 0x20 DUP3 ADD SWAP1 POP DUP2 DUP2 SUB PUSH1 0x0 DUP4 ADD MSTORE PUSH2 0x386E DUP2 PUSH2 0x3832 JUMP JUMPDEST SWAP1 POP SWAP2 SWAP1 POP JUMP JUMPDEST PUSH32 0x426964203C206669616E7A610000000000000000000000000000000000000000 PUSH1 0x0 DUP3 ADD MSTORE POP JUMP JUMPDEST PUSH1 0x0 PUSH2 0x38AB PUSH1 0xC DUP4 PUSH2 0x31BF JUMP JUMPDEST SWAP2 POP PUSH2 0x38B6 DUP3 PUSH2 0x3875 JUMP JUMPDEST PUSH1 0x20 DUP3 ADD SWAP1 POP SWAP2 SWAP1 POP JUMP JUMPDEST PUSH1 0x0 PUSH1 0x20 DUP3 ADD SWAP1 POP DUP2 DUP2 SUB PUSH1 0x0 DUP4 ADD MSTORE PUSH2 0x38DA DUP2 PUSH2 0x389E JUMP JUMPDEST SWAP1 POP SWAP2 SWAP1 POP JUMP JUMPDEST PUSH32 0x52657665616C20696E76616C69646F0000000000000000000000000000000000 PUSH1 0x0 DUP3 ADD MSTORE POP JUMP JUMPDEST PUSH1 0x0 PUSH2 0x3917 PUSH1 0xF DUP4 PUSH2 0x31BF JUMP JUMPDEST SWAP2 POP PUSH2 0x3922 DUP3 PUSH2 0x38E1 JUMP JUMPDEST PUSH1 0x20 DUP3 ADD SWAP1 POP SWAP2 SWAP1 POP JUMP JUMPDEST PUSH1 0x0 PUSH1 0x20 DUP3 ADD SWAP1 POP DUP2 DUP2 SUB PUSH1 0x0 DUP4 ADD MSTORE PUSH2 0x3946 DUP2 PUSH2 0x390A JUMP JUMPDEST SWAP1 POP SWAP2 SWAP1 POP JUMP JUMPDEST PUSH32 0x52657665616C206E6F207465726D696E61646F00000000000000000000000000 PUSH1 0x0 DUP3 ADD MSTORE POP JUMP JUMPDEST PUSH1 0x0 PUSH2 0x3983 PUSH1 0x13 DUP4 PUSH2 0x31BF JUMP JUMPDEST SWAP2 POP PUSH2 0x398E DUP3 PUSH2 0x394D JUMP JUMPDEST PUSH1 0x20 DUP3 ADD SWAP1 POP SWAP2 SWAP1 POP JUMP JUMPDEST PUSH1 0x0 PUSH1 0x20 DUP3 ADD SWAP1 POP DUP2 DUP2 SUB PUSH1 0x0 DUP4 ADD MSTORE PUSH2 0x39B2 DUP2 PUSH2 0x3976 JUMP JUMPDEST SWAP1 POP SWAP2 SWAP1 POP JUMP JUMPDEST PUSH32 0x59612066696E616C697A61646F00000000000000000000000000000000000000 PUSH1 0x0 DUP3 ADD MSTORE POP JUMP JUMPDEST PUSH1 0x0 PUSH2 0x39EF PUSH1 0xD DUP4 PUSH2 0x31BF JUMP JUMPDEST SWAP2 POP PUSH2 0x39FA DUP3 PUSH2 0x39B9 JUMP JUMPDEST PUSH1 0x20 DUP3 ADD SWAP1 POP SWAP2 SWAP1 POP JUMP JUMPDEST PUSH1 0x0 PUSH1 0x20 DUP3 ADD SWAP1 POP DUP2 DUP2 SUB PUSH1 0x0 DUP4 ADD MSTORE PUSH2 0x3A1E DUP2 PUSH2 0x39E2 JUMP JUMPDEST SWAP1 POP SWAP2 SWAP1 POP JUMP JUMPDEST PUSH1 0x0 PUSH1 0x40 DUP3 ADD SWAP1 POP PUSH2 0x3A3A PUSH1 0x0 DUP4 ADD DUP6 PUSH2 0x2F07 JUMP JUMPDEST PUSH2 0x3A47 PUSH1 0x20 DUP4 ADD DUP5 PUSH2 0x2F07 JUMP JUMPDEST SWAP4 SWAP3 POP POP POP JUMP JUMPDEST PUSH32 0x616D6F756E743D30000000000000000000000000000000000000000000000000 PUSH1 0x0 DUP3 ADD MSTORE POP JUMP JUMPDEST PUSH1 0x0 PUSH2 0x3A84 PUSH1 0x8 DUP4 PUSH2 0x31BF JUMP JUMPDEST SWAP2 POP PUSH2 0x3A8F DUP3 PUSH2 0x3A4E JUMP JUMPDEST PUSH1 0x20 DUP3 ADD SWAP1 POP SWAP2 SWAP1 POP JUMP JUMPDEST PUSH1 0x0 PUSH1 0x20 DUP3 ADD SWAP1 POP DUP2 DUP2 SUB PUSH1 0x0 DUP4 ADD MSTORE PUSH2 0x3AB3 DUP2 PUSH2 0x3A77 JUMP JUMPDEST SWAP1 POP SWAP2 SWAP1 POP JUMP JUMPDEST PUSH32 0x496E737566696369656E74650000000000000000000000000000000000000000 PUSH1 0x0 DUP3 ADD MSTORE POP JUMP JUMPDEST PUSH1 0x0 PUSH2 0x3AF0 PUSH1 0xC DUP4 PUSH2 0x31BF JUMP JUMPDEST SWAP2 POP PUSH2 0x3AFB DUP3 PUSH2 0x3ABA JUMP JUMPDEST PUSH1 0x20 DUP3 ADD SWAP1 POP SWAP2 SWAP1 POP JUMP JUMPDEST PUSH1 0x0 PUSH1 0x20 DUP3 ADD SWAP1 POP DUP2 DUP2 SUB PUSH1 0x0 DUP4 ADD MSTORE PUSH2 0x3B1F DUP2 PUSH2 0x3AE3 JUMP JUMPDEST SWAP1 POP SWAP2 SWAP1 POP JUMP JUMPDEST PUSH32 0x536F6C6F206F776E657200000000000000000000000000000000000000000000 PUSH1 0x0 DUP3 ADD MSTORE POP JUMP JUMPDEST PUSH1 0x0 PUSH2 0x3B5C PUSH1 0xA DUP4 PUSH2 0x31BF JUMP JUMPDEST SWAP2 POP PUSH2 0x3B67 DUP3 PUSH2 0x3B26 JUMP JUMPDEST PUSH1 0x20 DUP3 ADD SWAP1 POP SWAP2 SWAP1 POP JUMP JUMPDEST PUSH1 0x0 PUSH1 0x20 DUP3 ADD SWAP1 POP DUP2 DUP2 SUB PUSH1 0x0 DUP4 ADD MSTORE PUSH2 0x3B8B DUP2 PUSH2 0x3B4F JUMP JUMPDEST SWAP1 POP SWAP2 SWAP1 POP JUMP JUMPDEST PUSH32 0x5961206465736965727461000000000000000000000000000000000000000000 PUSH1 0x0 DUP3 ADD MSTORE POP JUMP JUMPDEST PUSH1 0x0 PUSH2 0x3BC8 PUSH1 0xB DUP4 PUSH2 0x31BF JUMP JUMPDEST SWAP2 POP PUSH2 0x3BD3 DUP3 PUSH2 0x3B92 JUMP JUMPDEST PUSH1 0x20 DUP3 ADD SWAP1 POP SWAP2 SWAP1 POP JUMP JUMPDEST PUSH1 0x0 PUSH1 0x20 DUP3 ADD SWAP1 POP DUP2 DUP2 SUB PUSH1 0x0 DUP4 ADD MSTORE PUSH2 0x3BF7 DUP2 PUSH2 0x3BBB JUMP JUMPDEST SWAP1 POP SWAP2 SWAP1 POP JUMP JUMPDEST PUSH32 0x596120636F6D706C657461646100000000000000000000000000000000000000 PUSH1 0x0 DUP3 ADD MSTORE POP JUMP JUMPDEST PUSH1 0x0 PUSH2 0x3C34 PUSH1 0xD DUP4 PUSH2 0x31BF JUMP JUMPDEST SWAP2 POP PUSH2 0x3C3F DUP3 PUSH2 0x3BFE JUMP JUMPDEST PUSH1 0x20 DUP3 ADD SWAP1 POP SWAP2 SWAP1 POP JUMP JUMPDEST PUSH1 0x0 PUSH1 0x20 DUP3 ADD SWAP1 POP DUP2 DUP2 SUB PUSH1 0x0 DUP4 ADD MSTORE PUSH2 0x3C63 DUP2 PUSH2 0x3C27 JUMP JUMPDEST SWAP1 POP SWAP2 SWAP1 POP JUMP JUMPDEST PUSH32 0x53696E2067616E61646F72000000000000000000000000000000000000000000 PUSH1 0x0 DUP3 ADD MSTORE POP JUMP JUMPDEST PUSH1 0x0 PUSH2 0x3CA0 PUSH1 0xB DUP4 PUSH2 0x31BF JUMP JUMPDEST SWAP2 POP PUSH2 0x3CAB DUP3 PUSH2 0x3C6A JUMP JUMPDEST PUSH1 0x20 DUP3 ADD SWAP1 POP SWAP2 SWAP1 POP JUMP JUMPDEST PUSH1 0x0 PUSH1 0x20 DUP3 ADD SWAP1 POP DUP2 DUP2 SUB PUSH1 0x0 DUP4 ADD MSTORE PUSH2 0x3CCF DUP2 PUSH2 0x3C93 JUMP JUMPDEST SWAP1 POP SWAP2 SWAP1 POP JUMP JUMPDEST PUSH32 0x506C617A6F2061756E2061637469766F00000000000000000000000000000000 PUSH1 0x0 DUP3 ADD MSTORE POP JUMP JUMPDEST PUSH1 0x0 PUSH2 0x3D0C PUSH1 0x10 DUP4 PUSH2 0x31BF JUMP JUMPDEST SWAP2 POP PUSH2 0x3D17 DUP3 PUSH2 0x3CD6 JUMP JUMPDEST PUSH1 0x20 DUP3 ADD SWAP1 POP SWAP2 SWAP1 POP JUMP JUMPDEST PUSH1 0x0 PUSH1 0x20 DUP3 ADD SWAP1 POP DUP2 DUP2 SUB PUSH1 0x0 DUP4 ADD MSTORE PUSH2 0x3D3B DUP2 PUSH2 0x3CFF JUMP JUMPDEST SWAP1 POP SWAP2 SWAP1 POP JUMP JUMPDEST PUSH32 0x59612067657374696F6E61646F00000000000000000000000000000000000000 PUSH1 0x0 DUP3 ADD MSTORE POP JUMP JUMPDEST PUSH1 0x0 PUSH2 0x3D78 PUSH1 0xD DUP4 PUSH2 0x31BF JUMP JUMPDEST SWAP2 POP PUSH2 0x3D83 DUP3 PUSH2 0x3D42 JUMP JUMPDEST PUSH1 0x20 DUP3 ADD SWAP1 POP SWAP2 SWAP1 POP JUMP JUMPDEST PUSH1 0x0 PUSH1 0x20 DUP3 ADD SWAP1 POP DUP2 DUP2 SUB PUSH1 0x0 DUP4 ADD MSTORE PUSH2 0x3DA7 DUP2 PUSH2 0x3D6B JUMP JUMPDEST SWAP1 POP SWAP2 SWAP1 POP JUMP JUMPDEST PUSH32 0x77696E6E657220646964206E6F74207061790000000000000000000000000000 PUSH1 0x0 DUP3 ADD MSTORE POP JUMP JUMPDEST PUSH1 0x0 PUSH2 0x3DE4 PUSH1 0x12 DUP4 PUSH2 0x31BF JUMP JUMPDEST SWAP2 POP PUSH2 0x3DEF DUP3 PUSH2 0x3DAE JUMP JUMPDEST PUSH1 0x20 DUP3 ADD SWAP1 POP SWAP2 SWAP1 POP JUMP JUMPDEST PUSH1 0x0 PUSH1 0x40 DUP3 ADD SWAP1 POP PUSH2 0x3E0F PUSH1 0x0 DUP4 ADD DUP5 PUSH2 0x2F07 JUMP JUMPDEST DUP2 DUP2 SUB PUSH1 0x20 DUP4 ADD MSTORE PUSH2 0x3E20 DUP2 PUSH2 0x3DD7 JUMP JUMPDEST SWAP1 POP SWAP3 SWAP2 POP POP JUMP JUMPDEST PUSH32 0x5375626173746120646573696572746100000000000000000000000000000000 PUSH1 0x0 DUP3 ADD MSTORE POP JUMP JUMPDEST PUSH1 0x0 PUSH2 0x3E5E PUSH1 0x10 DUP4 PUSH2 0x31BF JUMP JUMPDEST SWAP2 POP PUSH2 0x3E69 DUP3 PUSH2 0x3E28 JUMP JUMPDEST PUSH1 0x20 DUP3 ADD SWAP1 POP SWAP2 SWAP1 POP JUMP JUMPDEST PUSH1 0x0 PUSH1 0x20 DUP3 ADD SWAP1 POP DUP2 DUP2 SUB PUSH1 0x0 DUP4 ADD MSTORE PUSH2 0x3E8D DUP2 PUSH2 0x3E51 JUMP JUMPDEST SWAP1 POP SWAP2 SWAP1 POP JUMP JUMPDEST PUSH32 0x506C617A6F20657870697261646F000000000000000000000000000000000000 PUSH1 0x0 DUP3 ADD MSTORE POP JUMP JUMPDEST PUSH1 0x0 PUSH2 0x3ECA PUSH1 0xE DUP4 PUSH2 0x31BF JUMP JUMPDEST SWAP2 POP PUSH2 0x3ED5 DUP3 PUSH2 0x3E94 JUMP JUMPDEST PUSH1 0x20 DUP3 ADD SWAP1 POP SWAP2 SWAP1 POP JUMP JUMPDEST PUSH1 0x0 PUSH1 0x20 DUP3 ADD SWAP1 POP DUP2 DUP2 SUB PUSH1 0x0 DUP4 ADD MSTORE PUSH2 0x3EF9 DUP2 PUSH2 0x3EBD JUMP JUMPDEST SWAP1 POP SWAP2 SWAP1 POP JUMP JUMPDEST PUSH32 0x4E6F206572657320656C2067616E61646F722061637475616C00000000000000 PUSH1 0x0 DUP3 ADD MSTORE POP JUMP JUMPDEST PUSH1 0x0 PUSH2 0x3F36 PUSH1 0x19 DUP4 PUSH2 0x31BF JUMP JUMPDEST SWAP2 POP PUSH2 0x3F41 DUP3 PUSH2 0x3F00 JUMP JUMPDEST PUSH1 0x20 DUP3 ADD SWAP1 POP SWAP2 SWAP1 POP JUMP JUMPDEST PUSH1 0x0 PUSH1 0x20 DUP3 ADD SWAP1 POP DUP2 DUP2 SUB PUSH1 0x0 DUP4 ADD MSTORE PUSH2 0x3F65 DUP2 PUSH2 0x3F29 JUMP JUMPDEST SWAP1 POP SWAP2 SWAP1 POP JUMP JUMPDEST PUSH32 0x43616E746964616420696E636F72726563746100000000000000000000000000 PUSH1 0x0 DUP3 ADD MSTORE POP JUMP JUMPDEST PUSH1 0x0 PUSH2 0x3FA2 PUSH1 0x13 DUP4 PUSH2 0x31BF JUMP JUMPDEST SWAP2 POP PUSH2 0x3FAD DUP3 PUSH2 0x3F6C JUMP JUMPDEST PUSH1 0x20 DUP3 ADD SWAP1 POP SWAP2 SWAP1 POP JUMP JUMPDEST PUSH1 0x0 PUSH1 0x20 DUP3 ADD SWAP1 POP DUP2 DUP2 SUB PUSH1 0x0 DUP4 ADD MSTORE PUSH2 0x3FD1 DUP2 PUSH2 0x3F95 JUMP JUMPDEST SWAP1 POP SWAP2 SWAP1 POP JUMP JUMPDEST PUSH32 0x436F6D6D69742063657272616461000000000000000000000000000000000000 PUSH1 0x0 DUP3 ADD MSTORE POP JUMP JUMPDEST PUSH1 0x0 PUSH2 0x400E PUSH1 0xE DUP4 PUSH2 0x31BF JUMP JUMPDEST SWAP2 POP PUSH2 0x4019 DUP3 PUSH2 0x3FD8 JUMP JUMPDEST PUSH1 0x20 DUP3 ADD SWAP1 POP SWAP2 SWAP1 POP JUMP JUMPDEST PUSH1 0x0 PUSH1 0x20 DUP3 ADD SWAP1 POP DUP2 DUP2 SUB PUSH1 0x0 DUP4 ADD MSTORE PUSH2 0x403D DUP2 PUSH2 0x4001 JUMP JUMPDEST SWAP1 POP SWAP2 SWAP1 POP JUMP JUMPDEST PUSH32 0x436F6D6D69746D656E7420696E76616C69646F00000000000000000000000000 PUSH1 0x0 DUP3 ADD MSTORE POP JUMP JUMPDEST PUSH1 0x0 PUSH2 0x407A PUSH1 0x13 DUP4 PUSH2 0x31BF JUMP JUMPDEST SWAP2 POP PUSH2 0x4085 DUP3 PUSH2 0x4044 JUMP JUMPDEST PUSH1 0x20 DUP3 ADD SWAP1 POP SWAP2 SWAP1 POP JUMP JUMPDEST PUSH1 0x0 PUSH1 0x20 DUP3 ADD SWAP1 POP DUP2 DUP2 SUB PUSH1 0x0 DUP4 ADD MSTORE PUSH2 0x40A9 DUP2 PUSH2 0x406D JUMP JUMPDEST SWAP1 POP SWAP2 SWAP1 POP JUMP JUMPDEST PUSH32 0x53756261737461206C6C656E6100000000000000000000000000000000000000 PUSH1 0x0 DUP3 ADD MSTORE POP JUMP JUMPDEST PUSH1 0x0 PUSH2 0x40E6 PUSH1 0xD DUP4 PUSH2 0x31BF JUMP JUMPDEST SWAP2 POP PUSH2 0x40F1 DUP3 PUSH2 0x40B0 JUMP JUMPDEST PUSH1 0x20 DUP3 ADD SWAP1 POP SWAP2 SWAP1 POP JUMP JUMPDEST PUSH1 0x0 PUSH1 0x20 DUP3 ADD SWAP1 POP DUP2 DUP2 SUB PUSH1 0x0 DUP4 ADD MSTORE PUSH2 0x4115 DUP2 PUSH2 0x40D9 JUMP JUMPDEST SWAP1 POP SWAP2 SWAP1 POP JUMP JUMPDEST PUSH32 0x4465626573207061676172206C61206669616E7A612065786163746100000000 PUSH1 0x0 DUP3 ADD MSTORE POP JUMP JUMPDEST PUSH1 0x0 PUSH2 0x4152 PUSH1 0x1C DUP4 PUSH2 0x31BF JUMP JUMPDEST SWAP2 POP PUSH2 0x415D DUP3 PUSH2 0x411C JUMP JUMPDEST PUSH1 0x20 DUP3 ADD SWAP1 POP SWAP2 SWAP1 POP JUMP JUMPDEST PUSH1 0x0 PUSH1 0x20 DUP3 ADD SWAP1 POP DUP2 DUP2 SUB PUSH1 0x0 DUP4 ADD MSTORE PUSH2 0x4181 DUP2 PUSH2 0x4145 JUMP JUMPDEST SWAP1 POP SWAP2 SWAP1 POP JUMP JUMPDEST PUSH32 0x5961206869636973746520636F6D6D6974000000000000000000000000000000 PUSH1 0x0 DUP3 ADD MSTORE POP JUMP JUMPDEST PUSH1 0x0 PUSH2 0x41BE PUSH1 0x11 DUP4 PUSH2 0x31BF JUMP JUMPDEST SWAP2 POP PUSH2 0x41C9 DUP3 PUSH2 0x4188 JUMP JUMPDEST PUSH1 0x20 DUP3 ADD SWAP1 POP SWAP2 SWAP1 POP JUMP JUMPDEST PUSH1 0x0 PUSH1 0x20 DUP3 ADD SWAP1 POP DUP2 DUP2 SUB PUSH1 0x0 DUP4 ADD MSTORE PUSH2 0x41ED DUP2 PUSH2 0x41B1 JUMP JUMPDEST SWAP1 POP SWAP2 SWAP1 POP JUMP JUMPDEST PUSH1 0x0 PUSH2 0x41FF DUP3 PUSH2 0x2EFD JUMP JUMPDEST SWAP2 POP PUSH1 0x0 DUP3 SUB PUSH2 0x4212 JUMPI PUSH2 0x4211 PUSH2 0x3487 JUMP JUMPDEST JUMPDEST PUSH1 0x1 DUP3 SUB SWAP1 POP SWAP2 SWAP1 POP JUMP INVALID LOG2 PUSH5 0x6970667358 0x22 SLT KECCAK256 PUSH18 0x714615B3C5592E2444E46602D439E1C3B84E 0xE2 0xB2 LOG1 SWAP7 LOG0 PUSH14 0x9192AAA9CA79C964736F6C634300 ADDMOD 0x1E STOP CALLER "
				},
				"gasEstimates": {
					"creation": {
						"codeDepositCost": "3395800",
						"executionCost": "infinite",
						"totalCost": "infinite"
					},
					"external": {
						"ADVANCE_CALLER_BOUNTY_BPS()": "462",
						"MAX_DEPOSIT()": "396",
						"MAX_MAX_BIDDERS()": "464",
						"MIN_COMMIT_DURATION()": "463",
						"MIN_DEPOSIT()": "418",
						"MIN_MAX_BIDDERS()": "397",
						"MIN_PAYMENT_DURATION()": "374",
						"MIN_REVEAL_DURATION()": "440",
						"UNREVEALED_PENALTY_BPS()": "441",
						"advanceWinnerIfUnpaid()": "infinite",
						"auctionDeserted()": "2587",
						"auctionSuccessful()": "2567",
						"bidderList(uint256)": "5089",
						"bidders(address)": "infinite",
						"commit(bytes32)": "infinite",
						"commitDeadline()": "infinite",
						"currentWinner()": "17670",
						"currentWinnerIndex()": "2496",
						"deposit()": "infinite",
						"fallbackCount()": "2539",
						"finalize()": "infinite",
						"finalized()": "2561",
						"getBidderCount()": "2490",
						"getRankedCount()": "2491",
						"hashBid(uint256,bytes32,address)": "infinite",
						"maxBidders()": "infinite",
						"maxFallbacks()": "infinite",
						"owner()": "infinite",
						"ownerProceeds()": "2541",
						"payWinningBid()": "infinite",
						"paymentDeadline()": "2541",
						"paymentDuration()": "infinite",
						"rankedBidders(uint256)": "5002",
						"reveal(uint256,bytes32)": "infinite",
						"revealDeadline()": "infinite",
						"rewards(address)": "2861",
						"timeLeft()": "infinite",
						"withdrawDeposit()": "infinite",
						"withdrawOwnerProceeds(uint256)": "infinite",
						"withdrawReward(uint256)": "infinite"
					},
					"internal": {
						"_insertIntoRanking(address)": "infinite",
						"_unlockAllRankedDepositsExceptWinner(address)": "infinite"
					}
				},
				"methodIdentifiers": {
					"ADVANCE_CALLER_BOUNTY_BPS()": "eaac5564",
					"MAX_DEPOSIT()": "dd5967c3",
					"MAX_MAX_BIDDERS()": "25bd0b9a",
					"MIN_COMMIT_DURATION()": "c3f6afd7",
					"MIN_DEPOSIT()": "e1e158a5",
					"MIN_MAX_BIDDERS()": "3c454e40",
					"MIN_PAYMENT_DURATION()": "7e278310",
					"MIN_REVEAL_DURATION()": "d329db8f",
					"UNREVEALED_PENALTY_BPS()": "b9e42385",
					"advanceWinnerIfUnpaid()": "d4daf77a",
					"auctionDeserted()": "f156b57c",
					"auctionSuccessful()": "36d0054b",
					"bidderList(uint256)": "d3584e84",
					"bidders(address)": "fcc8f793",
					"commit(bytes32)": "f14fcbc8",
					"commitDeadline()": "a2ff0209",
					"currentWinner()": "aabe2fe3",
					"currentWinnerIndex()": "c8a58ab7",
					"deposit()": "d0e30db0",
					"fallbackCount()": "f776bd06",
					"finalize()": "4bb278f3",
					"finalized()": "b3f05b97",
					"getBidderCount()": "c87da02d",
					"getRankedCount()": "ae0ab2ba",
					"hashBid(uint256,bytes32,address)": "176069e9",
					"maxBidders()": "a097f3ac",
					"maxFallbacks()": "f2224795",
					"owner()": "8da5cb5b",
					"ownerProceeds()": "474b7525",
					"payWinningBid()": "e35a70d9",
					"paymentDeadline()": "6d929f23",
					"paymentDuration()": "56845ef7",
					"rankedBidders(uint256)": "4c72e066",
					"reveal(uint256,bytes32)": "4036778f",
					"revealDeadline()": "b14b28a3",
					"rewards(address)": "0700037d",
					"timeLeft()": "1300a6d1",
					"withdrawDeposit()": "117df088",
					"withdrawOwnerProceeds(uint256)": "76b9148f",
					"withdrawReward(uint256)": "523a3f08"
				}
			},
			"storageLayout": {
				"storage": [
					{
						"astId": 65,
						"contract": "blindAuctionDEF.sol:BlindAuctionFinalV2",
						"label": "bidders",
						"offset": 0,
						"slot": "0",
						"type": "t_mapping(t_address,t_struct(Bidder)60_storage)"
					},
					{
						"astId": 68,
						"contract": "blindAuctionDEF.sol:BlindAuctionFinalV2",
						"label": "bidderList",
						"offset": 0,
						"slot": "1",
						"type": "t_array(t_address)dyn_storage"
					},
					{
						"astId": 71,
						"contract": "blindAuctionDEF.sol:BlindAuctionFinalV2",
						"label": "rankedBidders",
						"offset": 0,
						"slot": "2",
						"type": "t_array(t_address)dyn_storage"
					},
					{
						"astId": 73,
						"contract": "blindAuctionDEF.sol:BlindAuctionFinalV2",
						"label": "finalized",
						"offset": 0,
						"slot": "3",
						"type": "t_bool"
					},
					{
						"astId": 75,
						"contract": "blindAuctionDEF.sol:BlindAuctionFinalV2",
						"label": "auctionSuccessful",
						"offset": 1,
						"slot": "3",
						"type": "t_bool"
					},
					{
						"astId": 77,
						"contract": "blindAuctionDEF.sol:BlindAuctionFinalV2",
						"label": "auctionDeserted",
						"offset": 2,
						"slot": "3",
						"type": "t_bool"
					},
					{
						"astId": 79,
						"contract": "blindAuctionDEF.sol:BlindAuctionFinalV2",
						"label": "currentWinnerIndex",
						"offset": 0,
						"slot": "4",
						"type": "t_uint256"
					},
					{
						"astId": 81,
						"contract": "blindAuctionDEF.sol:BlindAuctionFinalV2",
						"label": "paymentDeadline",
						"offset": 0,
						"slot": "5",
						"type": "t_uint256"
					},
					{
						"astId": 83,
						"contract": "blindAuctionDEF.sol:BlindAuctionFinalV2",
						"label": "fallbackCount",
						"offset": 0,
						"slot": "6",
						"type": "t_uint256"
					},
					{
						"astId": 85,
						"contract": "blindAuctionDEF.sol:BlindAuctionFinalV2",
						"label": "ownerProceeds",
						"offset": 0,
						"slot": "7",
						"type": "t_uint256"
					},
					{
						"astId": 89,
						"contract": "blindAuctionDEF.sol:BlindAuctionFinalV2",
						"label": "rewards",
						"offset": 0,
						"slot": "8",
						"type": "t_mapping(t_address,t_uint256)"
					}
				],
				"types": {
					"t_address": {
						"encoding": "inplace",
						"label": "address",
						"numberOfBytes": "20"
					},
					"t_array(t_address)dyn_storage": {
						"base": "t_address",
						"encoding": "dynamic_array",
						"label": "address[]",
						"numberOfBytes": "32"
					},
					"t_bool": {
						"encoding": "inplace",
						"label": "bool",
						"numberOfBytes": "1"
					},
					"t_bytes32": {
						"encoding": "inplace",
						"label": "bytes32",
						"numberOfBytes": "32"
					},
					"t_mapping(t_address,t_struct(Bidder)60_storage)": {
						"encoding": "mapping",
						"key": "t_address",
						"label": "mapping(address => struct BlindAuctionFinalV2.Bidder)",
						"numberOfBytes": "32",
						"value": "t_struct(Bidder)60_storage"
					},
					"t_mapping(t_address,t_uint256)": {
						"encoding": "mapping",
						"key": "t_address",
						"label": "mapping(address => uint256)",
						"numberOfBytes": "32",
						"value": "t_uint256"
					},
					"t_struct(Bidder)60_storage": {
						"encoding": "inplace",
						"label": "struct BlindAuctionFinalV2.Bidder",
						"members": [
							{
								"astId": 45,
								"contract": "blindAuctionDEF.sol:BlindAuctionFinalV2",
								"label": "commitment",
								"offset": 0,
								"slot": "0",
								"type": "t_bytes32"
							},
							{
								"astId": 47,
								"contract": "blindAuctionDEF.sol:BlindAuctionFinalV2",
								"label": "commitTime",
								"offset": 0,
								"slot": "1",
								"type": "t_uint256"
							},
							{
								"astId": 49,
								"contract": "blindAuctionDEF.sol:BlindAuctionFinalV2",
								"label": "revealedBid",
								"offset": 0,
								"slot": "2",
								"type": "t_uint256"
							},
							{
								"astId": 51,
								"contract": "blindAuctionDEF.sol:BlindAuctionFinalV2",
								"label": "hasCommitted",
								"offset": 0,
								"slot": "3",
								"type": "t_bool"
							},
							{
								"astId": 53,
								"contract": "blindAuctionDEF.sol:BlindAuctionFinalV2",
								"label": "hasRevealed",
								"offset": 1,
								"slot": "3",
								"type": "t_bool"
							},
							{
								"astId": 55,
								"contract": "blindAuctionDEF.sol:BlindAuctionFinalV2",
								"label": "withdrawn",
								"offset": 2,
								"slot": "3",
								"type": "t_bool"
							},
							{
								"astId": 57,
								"contract": "blindAuctionDEF.sol:BlindAuctionFinalV2",
								"label": "depositLocked",
								"offset": 3,
								"slot": "3",
								"type": "t_bool"
							},
							{
								"astId": 59,
								"contract": "blindAuctionDEF.sol:BlindAuctionFinalV2",
								"label": "defaulted",
								"offset": 4,
								"slot": "3",
								"type": "t_bool"
							}
						],
						"numberOfBytes": "128"
					},
					"t_uint256": {
						"encoding": "inplace",
						"label": "uint256",
						"numberOfBytes": "32"
					}
				}
			},
			"userdoc": {
				"kind": "user",
				"methods": {
					"advanceWinnerIfUnpaid()": {
						"notice": "Si el ganador no paga a tiempo:   - Confisca 100% de la fianza (penalización fuerte)   - Da una pequeña recompensa al caller (pull reward)   - Avanza al siguiente ganador con un nuevo plazo de pago   - Si se agota ranking o maxFallbacks -> desierta"
					},
					"commit(bytes32)": {
						"notice": "Entrar en la subasta pagando EXACTAMENTE la fianza y enviando tu commitment."
					},
					"finalize()": {
						"notice": "Finaliza la subasta (callable por cualquiera) para garantizar progreso."
					},
					"reveal(uint256,bytes32)": {
						"notice": "Revela tu puja real. Si es válida, entras en el ranking."
					},
					"withdrawDeposit()": {
						"notice": "Retira tu fianza (o parte si no revelaste). Casos:  A) Revelaste válido y NO ganaste/NO default:     - Puedes retirar la fianza cuando depositLocked=false (tras éxito o subasta desierta).  B) NO revelaste:     - Puedes retirar DESPUÉS de revealDeadline (y finalize) con penalización parcial:       recuperas 80%, pierdes 20% (va al ownerProceeds).  C) Ganador exitoso: no retira (su fianza forma parte del pago).  D) Ganador que no paga (default): no retira (pierde 100%)."
					}
				},
				"notice": "Subasta sealed-bid (commit–reveal) con:  - Fianza fija (deposit) elegida por el vendedor dentro de rangos del programa  - Puja mínima = fianza  - Ganador paga resto (bid - fianza). Si no paga -> pierde 100% y pasa al siguiente  - No revelar -> penalización parcial (pierde menos que no pagar)  - Empates: gana quien hizo COMMIT antes (no quien revela antes)  - Pull payments (nadie devuelve en bucle): cada usuario retira su fianza  - finalize() y advanceWinnerIfUnpaid() callable por cualquiera (liveness)  - Incentivo simple para quien ejecuta el avance (recompensa)",
				"version": 1
			}
		}
	}
}