{
	"data": {
		"bytecode": {
			"linkReferences": {},
			"object": "61016060405234801561001157600080fd5b50604051614a43380380614a43833981810160405281019061003391906102e4565b61012c861015610078576040517f08c379a000000000000000000000000000000000000000000000000000000000815260040161006f906103ce565b60405180910390fd5b61012c8510156100bd576040517f08c379a00000000000000000000000000000000000000000000000000000000081526004016100b49061043a565b60405180910390fd5b61012c831015610102576040517f08c379a00000000000000000000000000000000000000000000000000000000081526004016100f9906104a6565b60405180910390fd5b66038d7ea4c6800084101561014c576040517f08c379a000000000000000000000000000000000000000000000000000000000815260040161014390610512565b60405180910390fd5b678ac7230489e80000841115610197576040517f08c379a000000000000000000000000000000000000000000000000000000000815260040161018e9061057e565b60405180910390fd5b600a8210156101db576040517f08c379a00000000000000000000000000000000000000000000000000000000081526004016101d2906105ea565b60405180910390fd5b60c882111561021f576040517f08c379a000000000000000000000000000000000000000000000000000000000815260040161021690610656565b60405180910390fd5b3373ffffffffffffffffffffffffffffffffffffffff1660808173ffffffffffffffffffffffffffffffffffffffff1681525050854261025f91906106a5565b60a081815250508460a05161027491906106a5565b60c081815250508360e081815250508261010081815250508161012081815250508061014081815250505050505050506106d9565b600080fd5b6000819050919050565b6102c1816102ae565b81146102cc57600080fd5b50565b6000815190506102de816102b8565b92915050565b60008060008060008060c08789031215610301576103006102a9565b5b600061030f89828a016102cf565b965050602061032089828a016102cf565b955050604061033189828a016102cf565b945050606061034289828a016102cf565b935050608061035389828a016102cf565b92505060a061036489828a016102cf565b9150509295509295509295565b600082825260208201905092915050565b7f636f6d6d69744475726174696f6e206d757920636f72746f0000000000000000600082015250565b60006103b8601883610371565b91506103c382610382565b602082019050919050565b600060208201905081810360008301526103e7816103ab565b9050919050565b7f72657665616c4475726174696f6e206d757920636f72746f0000000000000000600082015250565b6000610424601883610371565b915061042f826103ee565b602082019050919050565b6000602082019050818103600083015261045381610417565b9050919050565b7f7061796d656e744475726174696f6e206d757920636f72746f00000000000000600082015250565b6000610490601983610371565b915061049b8261045a565b602082019050919050565b600060208201905081810360008301526104bf81610483565b9050919050565b7f6465706f7369742064656d61736961646f2062616a6f00000000000000000000600082015250565b60006104fc601683610371565b9150610507826104c6565b602082019050919050565b6000602082019050818103600083015261052b816104ef565b9050919050565b7f6465706f7369742064656d61736961646f20616c746f00000000000000000000600082015250565b6000610568601683610371565b915061057382610532565b602082019050919050565b600060208201905081810360008301526105978161055b565b9050919050565b7f6d6178426964646572732064656d61736961646f2062616a6f00000000000000600082015250565b60006105d4601983610371565b91506105df8261059e565b602082019050919050565b60006020820190508181036000830152610603816105c7565b9050919050565b7f6d6178426964646572732064656d61736961646f20616c746f00000000000000600082015250565b6000610640601983610371565b915061064b8261060a565b602082019050919050565b6000602082019050818103600083015261066f81610633565b9050919050565b7f4e487b7100000000000000000000000000000000000000000000000000000000600052601160045260246000fd5b60006106b0826102ae565b91506106bb836102ae565b92508282019050808211156106d3576106d2610676565b5b92915050565b60805160a05160c05160e0516101005161012051610140516142536107f060003960008181612094015281816120be01526129d8015260008181611a4e015261278401526000818161145f015281816117c40152612151015260008181610bc901528181610bf901528181610c330152818161111701528181611b9f01528181611ebc01528181611ef601528181612018015281816124f801528181612526015281816125980152818161269201526127eb015260008181610e4b01528181610e7a01528181610fd00152818161127a0152611b49015260008181610dee01528181610e1d01528181610f6d01528181611a7201526126dd0152600081816117ee0152818161191f0152611a2a01526142536000f3fe60806040526004361061023f5760003560e01c8063ae0ab2ba1161012e578063d4daf77a116100ab578063f14fcbc81161006f578063f14fcbc814610813578063f156b57c1461082f578063f22247951461085a578063f776bd0614610885578063fcc8f793146108b057610246565b8063d4daf77a14610771578063dd5967c314610788578063e1e158a5146107b3578063e35a70d9146107de578063eaac5564146107e857610246565b8063c87da02d116100f2578063c87da02d14610688578063c8a58ab7146106b3578063d0e30db0146106de578063d329db8f14610709578063d3584e841461073457610246565b8063ae0ab2ba146105b1578063b14b28a3146105dc578063b3f05b9714610607578063b9e4238514610632578063c3f6afd71461065d57610246565b80634c72e066116101bc5780637e278310116101805780637e278310146104da5780638da5cb5b14610505578063a097f3ac14610530578063a2ff02091461055b578063aabe2fe31461058657610246565b80634c72e066146103f5578063523a3f081461043257806356845ef71461045b5780636d929f231461048657806376b9148f146104b157610246565b806336d0054b1161020357806336d0054b146103345780633c454e401461035f5780634036778f1461038a578063474b7525146103b35780634bb278f3146103de57610246565b80630700037d1461024b578063117df088146102885780631300a6d11461029f578063176069e9146102cc57806325bd0b9a1461030957610246565b3661024657005b600080fd5b34801561025757600080fd5b50610272600480360381019061026d9190612ed0565b6108f4565b60405161027f9190612f16565b60405180910390f35b34801561029457600080fd5b5061029d61090c565b005b3480156102ab57600080fd5b506102b4610de7565b6040516102c393929190612f31565b60405180910390f35b3480156102d857600080fd5b506102f360048036038101906102ee9190612fca565b610f16565b604051610300919061302c565b60405180910390f35b34801561031557600080fd5b5061031e610f4e565b60405161032b9190612f16565b60405180910390f35b34801561034057600080fd5b50610349610f53565b6040516103569190613062565b60405180910390f35b34801561036b57600080fd5b50610374610f66565b6040516103819190612f16565b60405180910390f35b34801561039657600080fd5b506103b160048036038101906103ac919061307d565b610f6b565b005b3480156103bf57600080fd5b506103c8611272565b6040516103d59190612f16565b60405180910390f35b3480156103ea57600080fd5b506103f3611278565b005b34801561040157600080fd5b5061041c600480360381019061041791906130bd565b61156a565b60405161042991906130f9565b60405180910390f35b34801561043e57600080fd5b50610459600480360381019061045491906130bd565b6115a9565b005b34801561046757600080fd5b506104706117c2565b60405161047d9190612f16565b60405180910390f35b34801561049257600080fd5b5061049b6117e6565b6040516104a89190612f16565b60405180910390f35b3480156104bd57600080fd5b506104d860048036038101906104d391906130bd565b6117ec565b005b3480156104e657600080fd5b506104ef611a22565b6040516104fc9190612f16565b60405180910390f35b34801561051157600080fd5b5061051a611a28565b60405161052791906130f9565b60405180910390f35b34801561053c57600080fd5b50610545611a4c565b6040516105529190612f16565b60405180910390f35b34801561056757600080fd5b50610570611a70565b60405161057d9190612f16565b60405180910390f35b34801561059257600080fd5b5061059b611a94565b6040516105a891906130f9565b60405180910390f35b3480156105bd57600080fd5b506105c6611b3a565b6040516105d39190612f16565b60405180910390f35b3480156105e857600080fd5b506105f1611b47565b6040516105fe9190612f16565b60405180910390f35b34801561061357600080fd5b5061061c611b6b565b6040516106299190613062565b60405180910390f35b34801561063e57600080fd5b50610647611b7e565b6040516106549190612f16565b60405180910390f35b34801561066957600080fd5b50610672611b84565b60405161067f9190612f16565b60405180910390f35b34801561069457600080fd5b5061069d611b8a565b6040516106aa9190612f16565b60405180910390f35b3480156106bf57600080fd5b506106c8611b97565b6040516106d59190612f16565b60405180910390f35b3480156106ea57600080fd5b506106f3611b9d565b6040516107009190612f16565b60405180910390f35b34801561071557600080fd5b5061071e611bc1565b60405161072b9190612f16565b60405180910390f35b34801561074057600080fd5b5061075b600480360381019061075691906130bd565b611bc7565b60405161076891906130f9565b60405180910390f35b34801561077d57600080fd5b50610786611c06565b005b34801561079457600080fd5b5061079d612267565b6040516107aa9190612f16565b60405180910390f35b3480156107bf57600080fd5b506107c8612273565b6040516107d59190612f16565b60405180910390f35b6107e661227e565b005b3480156107f457600080fd5b506107fd6126d5565b60405161080a9190612f16565b60405180910390f35b61082d60048036038101906108289190613114565b6126db565b005b34801561083b57600080fd5b506108446129c3565b6040516108519190613062565b60405180910390f35b34801561086657600080fd5b5061086f6129d6565b60405161087c9190612f16565b60405180910390f35b34801561089157600080fd5b5061089a6129fa565b6040516108a79190612f16565b60405180910390f35b3480156108bc57600080fd5b506108d760048036038101906108d29190612ed0565b612a00565b6040516108eb989796959493929190613141565b60405180910390f35b60086020528060005260406000206000915090505481565b600360009054906101000a900460ff1661095b576040517f08c379a00000000000000000000000000000000000000000000000000000000081526004016109529061321c565b60405180910390fd5b60008060003373ffffffffffffffffffffffffffffffffffffffff1673ffffffffffffffffffffffffffffffffffffffff16815260200190815260200160002090508060030160009054906101000a900460ff166109ee576040517f08c379a00000000000000000000000000000000000000000000000000000000081526004016109e590613288565b60405180910390fd5b8060030160029054906101000a900460ff1615610a40576040517f08c379a0000000000000000000000000000000000000000000000000000000008152600401610a37906132f4565b60405180910390fd5b600360019054906101000a900460ff1615610b0a576000600260045481548110610a6d57610a6c613314565b5b9060005260206000200160009054906101000a900473ffffffffffffffffffffffffffffffffffffffff1690508073ffffffffffffffffffffffffffffffffffffffff163373ffffffffffffffffffffffffffffffffffffffff1603610b08576040517f08c379a0000000000000000000000000000000000000000000000000000000008152600401610aff9061338f565b60405180910390fd5b505b8060030160049054906101000a900460ff1615610b5c576040517f08c379a0000000000000000000000000000000000000000000000000000000008152600401610b53906133fb565b60405180910390fd5b8060030160039054906101000a900460ff1615610bae576040517f08c379a0000000000000000000000000000000000000000000000000000000008152600401610ba590613467565b60405180910390fd5b60008160030160019054906101000a900460ff1615610bef577f00000000000000000000000000000000000000000000000000000000000000009050610ccb565b60006127106107d07f0000000000000000000000000000000000000000000000000000000000000000610c2291906134b6565b610c2c9190613527565b90506000817f0000000000000000000000000000000000000000000000000000000000000000610c5c9190613558565b90508160076000828254610c70919061358c565b925050819055503373ffffffffffffffffffffffffffffffffffffffff167f1fb16dd9688950cb1ed4e1ef4eb31ef7aa2b66802a519a8936389e4e6e4b0d7183604051610cbd919061360c565b60405180910390a280925050505b60018260030160026101000a81548160ff02191690831515021790555060003373ffffffffffffffffffffffffffffffffffffffff1682604051610d0e9061366b565b60006040518083038185875af1925050503d8060008114610d4b576040519150601f19603f3d011682016040523d82523d6000602084013e610d50565b606091505b5050905080610d94576040517f08c379a0000000000000000000000000000000000000000000000000000000008152600401610d8b906136cc565b60405180910390fd5b3373ffffffffffffffffffffffffffffffffffffffff167f4482101800a5c2e900f4156e57e05e19ffd7b366cde579553d723fd3abb2180e83604051610dda9190612f16565b60405180910390a2505050565b60008060007f00000000000000000000000000000000000000000000000000000000000000004210610e1a576000610e47565b427f0000000000000000000000000000000000000000000000000000000000000000610e469190613558565b5b92507f00000000000000000000000000000000000000000000000000000000000000004210610e77576000610ea4565b427f0000000000000000000000000000000000000000000000000000000000000000610ea39190613558565b5b9150600360009054906101000a900460ff168015610ecf5750600360029054906101000a900460ff16155b8015610ee85750600360019054906101000a900460ff16155b8015610ef5575060055442105b610f00576000610f0f565b42600554610f0e9190613558565b5b9050909192565b600083838330604051602001610f2f94939291906136ec565b6040516020818303038152906040528051906020012090509392505050565b60c881565b600360019054906101000a900460ff1681565b600a81565b7f0000000000000000000000000000000000000000000000000000000000000000421015610fce576040517f08c379a0000000000000000000000000000000000000000000000000000000008152600401610fc59061377d565b60405180910390fd5b7f00000000000000000000000000000000000000000000000000000000000000004210611030576040517f08c379a0000000000000000000000000000000000000000000000000000000008152600401611027906137e9565b60405180910390fd5b60008060003373ffffffffffffffffffffffffffffffffffffffff1673ffffffffffffffffffffffffffffffffffffffff16815260200190815260200160002090508060030160009054906101000a900460ff166110c3576040517f08c379a00000000000000000000000000000000000000000000000000000000081526004016110ba90613288565b60405180910390fd5b8060030160019054906101000a900460ff1615611115576040517f08c379a000000000000000000000000000000000000000000000000000000000815260040161110c90613855565b60405180910390fd5b7f0000000000000000000000000000000000000000000000000000000000000000831015611178576040517f08c379a000000000000000000000000000000000000000000000000000000000815260040161116f906138c1565b60405180910390fd5b60008383333060405160200161119194939291906136ec565b604051602081830303815290604052805190602001209050816000015481146111ef576040517f08c379a00000000000000000000000000000000000000000000000000000000081526004016111e69061392d565b60405180910390fd5b60018260030160016101000a81548160ff02191690831515021790555083826002018190555061121e33612a89565b3373ffffffffffffffffffffffffffffffffffffffff167f36cb84e26ec058ba1aadcd698199fa19568d3c52427b175bd593b94ce83f67c0856040516112649190612f16565b60405180910390a250505050565b60075481565b7f00000000000000000000000000000000000000000000000000000000000000004210156112db576040517f08c379a00000000000000000000000000000000000000000000000000000000081526004016112d290613999565b60405180910390fd5b600360009054906101000a900460ff161561132b576040517f08c379a000000000000000000000000000000000000000000000000000000000815260040161132290613a05565b60405180910390fd5b6001600360006101000a81548160ff02191690831515021790555060006002805490500361139f576001600360026101000a81548160ff0219169083151502179055507f9427ab050d1cdff5b941bc297ad5e113728d69972e8c69aa27c13e2d1b63fa1960405160405180910390a1611568565b60005b600280549050811015611454576001600080600284815481106113c8576113c7613314565b5b9060005260206000200160009054906101000a900473ffffffffffffffffffffffffffffffffffffffff1673ffffffffffffffffffffffffffffffffffffffff1673ffffffffffffffffffffffffffffffffffffffff16815260200190815260200160002060030160036101000a81548160ff02191690831515021790555080806001019150506113a2565b5060006004819055507f000000000000000000000000000000000000000000000000000000000000000042611489919061358c565b600581905550600060026000815481106114a6576114a5613314565b5b9060005260206000200160009054906101000a900473ffffffffffffffffffffffffffffffffffffffff1690508073ffffffffffffffffffffffffffffffffffffffff167f616c9469db50815ae0f1d0a020d9fc9060da7c57f03559afb0d4ebdaa0a3a05e6000808473ffffffffffffffffffffffffffffffffffffffff1673ffffffffffffffffffffffffffffffffffffffff1681526020019081526020016000206002015460055460405161155e929190613a25565b60405180910390a2505b565b6002818154811061157a57600080fd5b906000526020600020016000915054906101000a900473ffffffffffffffffffffffffffffffffffffffff1681565b600081116115ec576040517f08c379a00000000000000000000000000000000000000000000000000000000081526004016115e390613a9a565b60405180910390fd5b600860003373ffffffffffffffffffffffffffffffffffffffff1673ffffffffffffffffffffffffffffffffffffffff1681526020019081526020016000205481111561166e576040517f08c379a000000000000000000000000000000000000000000000000000000000815260040161166590613b06565b60405180910390fd5b80600860003373ffffffffffffffffffffffffffffffffffffffff1673ffffffffffffffffffffffffffffffffffffffff16815260200190815260200160002060008282546116bd9190613558565b9250508190555060003373ffffffffffffffffffffffffffffffffffffffff16826040516116ea9061366b565b60006040518083038185875af1925050503d8060008114611727576040519150601f19603f3d011682016040523d82523d6000602084013e61172c565b606091505b5050905080611770576040517f08c379a0000000000000000000000000000000000000000000000000000000008152600401611767906136cc565b60405180910390fd5b3373ffffffffffffffffffffffffffffffffffffffff167f1d3eee4ca001cff39eec6ec7615aacf2f2bd61791273830728ba00ccbd6e1337836040516117b69190612f16565b60405180910390a25050565b7f000000000000000000000000000000000000000000000000000000000000000081565b60055481565b7f000000000000000000000000000000000000000000000000000000000000000073ffffffffffffffffffffffffffffffffffffffff163373ffffffffffffffffffffffffffffffffffffffff161461187a576040517f08c379a000000000000000000000000000000000000000000000000000000000815260040161187190613b72565b60405180910390fd5b600081116118bd576040517f08c379a00000000000000000000000000000000000000000000000000000000081526004016118b490613a9a565b60405180910390fd5b600754811115611902576040517f08c379a00000000000000000000000000000000000000000000000000000000081526004016118f990613b06565b60405180910390fd5b80600760008282546119149190613558565b9250508190555060007f000000000000000000000000000000000000000000000000000000000000000073ffffffffffffffffffffffffffffffffffffffff16826040516119619061366b565b60006040518083038185875af1925050503d806000811461199e576040519150601f19603f3d011682016040523d82523d6000602084013e6119a3565b606091505b50509050806119e7576040517f08c379a00000000000000000000000000000000000000000000000000000000081526004016119de906136cc565b60405180910390fd5b7fe1ba612886c314bab269521f17316b07e06593a8fbe87c52802306c8c6f7786582604051611a169190612f16565b60405180910390a15050565b61012c81565b7f000000000000000000000000000000000000000000000000000000000000000081565b7f000000000000000000000000000000000000000000000000000000000000000081565b7f000000000000000000000000000000000000000000000000000000000000000081565b6000600360009054906101000a900460ff161580611abe5750600360029054906101000a900460ff165b80611ace57506000600280549050145b15611adc5760009050611b37565b60028054905060045410611af35760009050611b37565b600260045481548110611b0957611b08613314565b5b9060005260206000200160009054906101000a900473ffffffffffffffffffffffffffffffffffffffff1690505b90565b6000600280549050905090565b7f000000000000000000000000000000000000000000000000000000000000000081565b600360009054906101000a900460ff1681565b6107d081565b61012c81565b6000600180549050905090565b60045481565b7f000000000000000000000000000000000000000000000000000000000000000081565b61012c81565b60018181548110611bd757600080fd5b906000526020600020016000915054906101000a900473ffffffffffffffffffffffffffffffffffffffff1681565b600360009054906101000a900460ff16611c55576040517f08c379a0000000000000000000000000000000000000000000000000000000008152600401611c4c9061321c565b60405180910390fd5b600360029054906101000a900460ff1615611ca5576040517f08c379a0000000000000000000000000000000000000000000000000000000008152600401611c9c90613bde565b60405180910390fd5b600360019054906101000a900460ff1615611cf5576040517f08c379a0000000000000000000000000000000000000000000000000000000008152600401611cec90613c4a565b60405180910390fd5b60028054905060045410611d3e576040517f08c379a0000000000000000000000000000000000000000000000000000000008152600401611d3590613cb6565b60405180910390fd5b6005544211611d82576040517f08c379a0000000000000000000000000000000000000000000000000000000008152600401611d7990613d22565b60405180910390fd5b6000600260045481548110611d9a57611d99613314565b5b9060005260206000200160009054906101000a900473ffffffffffffffffffffffffffffffffffffffff16905060008060008373ffffffffffffffffffffffffffffffffffffffff1673ffffffffffffffffffffffffffffffffffffffff16815260200190815260200160002090508060030160029054906101000a900460ff1615611e5b576040517f08c379a0000000000000000000000000000000000000000000000000000000008152600401611e5290613d8e565b60405180910390fd5b60018160030160026101000a81548160ff02191690831515021790555060008160030160036101000a81548160ff02191690831515021790555060018160030160046101000a81548160ff02191690831515021790555060006127106101f47f0000000000000000000000000000000000000000000000000000000000000000611ee591906134b6565b611eef9190613527565b90506000817f0000000000000000000000000000000000000000000000000000000000000000611f1f9190613558565b905081600860003373ffffffffffffffffffffffffffffffffffffffff1673ffffffffffffffffffffffffffffffffffffffff1681526020019081526020016000206000828254611f70919061358c565b925050819055508060076000828254611f89919061358c565b925050819055503373ffffffffffffffffffffffffffffffffffffffff167f578afab8065b30a5e9827120e4905b8a1810e180d2f793ca54af6f7633f4e57a83604051611fd69190612f16565b60405180910390a28373ffffffffffffffffffffffffffffffffffffffff167f1fb16dd9688950cb1ed4e1ef4eb31ef7aa2b66802a519a8936389e4e6e4b0d717f00000000000000000000000000000000000000000000000000000000000000006040516120449190613dfa565b60405180910390a260016006600082825461205f919061358c565b92505081905550600160046000828254612079919061358c565b925050819055506000600280549050600454101590506000807f0000000000000000000000000000000000000000000000000000000000000000141580156120e357507f000000000000000000000000000000000000000000000000000000000000000060065410155b905081806120ee5750805b1561214f576001600360026101000a81548160ff0219169083151502179055506121186000612d74565b7f9427ab050d1cdff5b941bc297ad5e113728d69972e8c69aa27c13e2d1b63fa1960405160405180910390a1505050505050612265565b7f00000000000000000000000000000000000000000000000000000000000000004261217b919061358c565b600581905550600060026004548154811061219957612198613314565b5b9060005260206000200160009054906101000a900473ffffffffffffffffffffffffffffffffffffffff1690508073ffffffffffffffffffffffffffffffffffffffff167f6a05c8de3f1f9f35b92c0552a95c5fa9328cc1854919ec31893524194dc6eb466000808473ffffffffffffffffffffffffffffffffffffffff1673ffffffffffffffffffffffffffffffffffffffff1681526020019081526020016000206002015460055460065460405161225593929190612f31565b60405180910390a2505050505050505b565b678ac7230489e8000081565b66038d7ea4c6800081565b600360009054906101000a900460ff166122cd576040517f08c379a00000000000000000000000000000000000000000000000000000000081526004016122c49061321c565b60405180910390fd5b600360029054906101000a900460ff161561231d576040517f08c379a000000000000000000000000000000000000000000000000000000000815260040161231490613e74565b60405180910390fd5b600360019054906101000a900460ff161561236d576040517f08c379a000000000000000000000000000000000000000000000000000000000815260040161236490613c4a565b60405180910390fd5b600280549050600454106123b6576040517f08c379a00000000000000000000000000000000000000000000000000000000081526004016123ad90613cb6565b60405180910390fd5b6005544211156123fb576040517f08c379a00000000000000000000000000000000000000000000000000000000081526004016123f290613ee0565b60405180910390fd5b600060026004548154811061241357612412613314565b5b9060005260206000200160009054906101000a900473ffffffffffffffffffffffffffffffffffffffff1690508073ffffffffffffffffffffffffffffffffffffffff163373ffffffffffffffffffffffffffffffffffffffff16146124ae576040517f08c379a00000000000000000000000000000000000000000000000000000000081526004016124a590613f4c565b60405180910390fd5b60008060008373ffffffffffffffffffffffffffffffffffffffff1673ffffffffffffffffffffffffffffffffffffffff16815260200190815260200160002060020154905060007f00000000000000000000000000000000000000000000000000000000000000008211612524576000612551565b7f0000000000000000000000000000000000000000000000000000000000000000826125509190613558565b5b9050803414612595576040517f08c379a000000000000000000000000000000000000000000000000000000000815260040161258c90613fb8565b60405180910390fd5b347f00000000000000000000000000000000000000000000000000000000000000006125c1919061358c565b600760008282546125d2919061358c565b925050819055506001600360016101000a81548160ff0219169083151502179055506125fd83612d74565b60016000808573ffffffffffffffffffffffffffffffffffffffff1673ffffffffffffffffffffffffffffffffffffffff16815260200190815260200160002060030160026101000a81548160ff0219169083151502179055508273ffffffffffffffffffffffffffffffffffffffff167f8cbbe5cd65720098fc8ce6e99a5deb232085117dd486475b49cb11604b528f30347f00000000000000000000000000000000000000000000000000000000000000006126bb919061358c565b6040516126c89190612f16565b60405180910390a2505050565b6101f481565b7f0000000000000000000000000000000000000000000000000000000000000000421061273d576040517f08c379a000000000000000000000000000000000000000000000000000000000815260040161273490614024565b60405180910390fd5b6000801b8103612782576040517f08c379a000000000000000000000000000000000000000000000000000000000815260040161277990614090565b60405180910390fd5b7f0000000000000000000000000000000000000000000000000000000000000000600180549050106127e9576040517f08c379a00000000000000000000000000000000000000000000000000000000081526004016127e0906140fc565b60405180910390fd5b7f0000000000000000000000000000000000000000000000000000000000000000341461284b576040517f08c379a000000000000000000000000000000000000000000000000000000000815260040161284290614168565b60405180910390fd5b60008060003373ffffffffffffffffffffffffffffffffffffffff1673ffffffffffffffffffffffffffffffffffffffff16815260200190815260200160002090508060030160009054906101000a900460ff16156128df576040517f08c379a00000000000000000000000000000000000000000000000000000000081526004016128d6906141d4565b60405180910390fd5b81816000018190555042816001018190555060018160030160006101000a81548160ff0219169083151502179055506001339080600181540180825580915050600190039060005260206000200160009091909190916101000a81548173ffffffffffffffffffffffffffffffffffffffff021916908373ffffffffffffffffffffffffffffffffffffffff1602179055503373ffffffffffffffffffffffffffffffffffffffff167f4d7787535441abadf1feb20a4be6ef748ae9c25c03364e195afc8bcc8816d980836040516129b7919061302c565b60405180910390a25050565b600360029054906101000a900460ff1681565b7f000000000000000000000000000000000000000000000000000000000000000081565b60065481565b60006020528060005260406000206000915090508060000154908060010154908060020154908060030160009054906101000a900460ff16908060030160019054906101000a900460ff16908060030160029054906101000a900460ff16908060030160039054906101000a900460ff16908060030160049054906101000a900460ff16905088565b6002819080600181540180825580915050600190039060005260206000200160009091909190916101000a81548173ffffffffffffffffffffffffffffffffffffffff021916908373ffffffffffffffffffffffffffffffffffffffff16021790555060006001600280549050612b009190613558565b90505b6000811115612d705760006002600183612b1d9190613558565b81548110612b2e57612b2d613314565b5b9060005260206000200160009054906101000a900473ffffffffffffffffffffffffffffffffffffffff16905060008060008573ffffffffffffffffffffffffffffffffffffffff1673ffffffffffffffffffffffffffffffffffffffff16815260200190815260200160002060020154905060008060008473ffffffffffffffffffffffffffffffffffffffff1673ffffffffffffffffffffffffffffffffffffffff168152602001908152602001600020600201549050808211612c9457808203612c8b576000808473ffffffffffffffffffffffffffffffffffffffff1673ffffffffffffffffffffffffffffffffffffffff168152602001908152602001600020600101546000808773ffffffffffffffffffffffffffffffffffffffff1673ffffffffffffffffffffffffffffffffffffffff1681526020019081526020016000206001015410612c8657505050612d70565b612c93565b505050612d70565b5b8260028581548110612ca957612ca8613314565b5b9060005260206000200160006101000a81548173ffffffffffffffffffffffffffffffffffffffff021916908373ffffffffffffffffffffffffffffffffffffffff160217905550846002600186612d019190613558565b81548110612d1257612d11613314565b5b9060005260206000200160006101000a81548173ffffffffffffffffffffffffffffffffffffffff021916908373ffffffffffffffffffffffffffffffffffffffff1602179055508380612d65906141f4565b945050505050612b03565b5050565b60005b600280549050811015612e6957600060028281548110612d9a57612d99613314565b5b9060005260206000200160009054906101000a900473ffffffffffffffffffffffffffffffffffffffff1690508273ffffffffffffffffffffffffffffffffffffffff168173ffffffffffffffffffffffffffffffffffffffff1603612e005750612e5c565b60008060008373ffffffffffffffffffffffffffffffffffffffff1673ffffffffffffffffffffffffffffffffffffffff16815260200190815260200160002060030160036101000a81548160ff021916908315150217905550505b8080600101915050612d77565b5050565b600080fd5b600073ffffffffffffffffffffffffffffffffffffffff82169050919050565b6000612e9d82612e72565b9050919050565b612ead81612e92565b8114612eb857600080fd5b50565b600081359050612eca81612ea4565b92915050565b600060208284031215612ee657612ee5612e6d565b5b6000612ef484828501612ebb565b91505092915050565b6000819050919050565b612f1081612efd565b82525050565b6000602082019050612f2b6000830184612f07565b92915050565b6000606082019050612f466000830186612f07565b612f536020830185612f07565b612f606040830184612f07565b949350505050565b612f7181612efd565b8114612f7c57600080fd5b50565b600081359050612f8e81612f68565b92915050565b6000819050919050565b612fa781612f94565b8114612fb257600080fd5b50565b600081359050612fc481612f9e565b92915050565b600080600060608486031215612fe357612fe2612e6d565b5b6000612ff186828701612f7f565b935050602061300286828701612fb5565b925050604061301386828701612ebb565b9150509250925092565b61302681612f94565b82525050565b6000602082019050613041600083018461301d565b92915050565b60008115159050919050565b61305c81613047565b82525050565b60006020820190506130776000830184613053565b92915050565b6000806040838503121561309457613093612e6d565b5b60006130a285828601612f7f565b92505060206130b385828601612fb5565b9150509250929050565b6000602082840312156130d3576130d2612e6d565b5b60006130e184828501612f7f565b91505092915050565b6130f381612e92565b82525050565b600060208201905061310e60008301846130ea565b92915050565b60006020828403121561312a57613129612e6d565b5b600061313884828501612fb5565b91505092915050565b600061010082019050613157600083018b61301d565b613164602083018a612f07565b6131716040830189612f07565b61317e6060830188613053565b61318b6080830187613053565b61319860a0830186613053565b6131a560c0830185613053565b6131b260e0830184613053565b9998505050505050505050565b600082825260208201905092915050565b7f4e6f2066696e616c697a61646f00000000000000000000000000000000000000600082015250565b6000613206600d836131bf565b9150613211826131d0565b602082019050919050565b60006020820190508181036000830152613235816131f9565b9050919050565b7f4e6f207061727469636970617374650000000000000000000000000000000000600082015250565b6000613272600f836131bf565b915061327d8261323c565b602082019050919050565b600060208201905081810360008301526132a181613265565b9050919050565b7f596120726574697261646f2f67657374696f6e61646f00000000000000000000600082015250565b60006132de6016836131bf565b91506132e9826132a8565b602082019050919050565b6000602082019050818103600083015261330d816132d1565b9050919050565b7f4e487b7100000000000000000000000000000000000000000000000000000000600052603260045260246000fd5b7f47616e61646f72206e6f20726574697261000000000000000000000000000000600082015250565b60006133796011836131bf565b915061338482613343565b602082019050919050565b600060208201905081810360008301526133a88161336c565b9050919050565b7f44656661756c743a206669616e7a612070657264696461000000000000000000600082015250565b60006133e56017836131bf565b91506133f0826133af565b602082019050919050565b60006020820190508181036000830152613414816133d8565b9050919050565b7f41756e20626c6f71756561646f202872616e6b696e6729000000000000000000600082015250565b60006134516017836131bf565b915061345c8261341b565b602082019050919050565b6000602082019050818103600083015261348081613444565b9050919050565b7f4e487b7100000000000000000000000000000000000000000000000000000000600052601160045260246000fd5b60006134c182612efd565b91506134cc83612efd565b92508282026134da81612efd565b915082820484148315176134f1576134f0613487565b5b5092915050565b7f4e487b7100000000000000000000000000000000000000000000000000000000600052601260045260246000fd5b600061353282612efd565b915061353d83612efd565b92508261354d5761354c6134f8565b5b828204905092915050565b600061356382612efd565b915061356e83612efd565b925082820390508181111561358657613585613487565b5b92915050565b600061359782612efd565b91506135a283612efd565b92508282019050808211156135ba576135b9613487565b5b92915050565b7f646964206e6f742072657665616c000000000000000000000000000000000000600082015250565b60006135f6600e836131bf565b9150613601826135c0565b602082019050919050565b60006040820190506136216000830184612f07565b8181036020830152613632816135e9565b905092915050565b600081905092915050565b50565b600061365560008361363a565b915061366082613645565b600082019050919050565b600061367682613648565b9150819050919050565b7f5472616e736665722066616c6c6f000000000000000000000000000000000000600082015250565b60006136b6600e836131bf565b91506136c182613680565b602082019050919050565b600060208201905081810360008301526136e5816136a9565b9050919050565b60006080820190506137016000830187612f07565b61370e602083018661301d565b61371b60408301856130ea565b61372860608301846130ea565b95945050505050565b7f52657665616c206e6f20696e6963696164610000000000000000000000000000600082015250565b60006137676012836131bf565b915061377282613731565b602082019050919050565b600060208201905081810360008301526137968161375a565b9050919050565b7f52657665616c2063657272616461000000000000000000000000000000000000600082015250565b60006137d3600e836131bf565b91506137de8261379d565b602082019050919050565b60006020820190508181036000830152613802816137c6565b9050919050565b7f596120726576656c617374650000000000000000000000000000000000000000600082015250565b600061383f600c836131bf565b915061384a82613809565b602082019050919050565b6000602082019050818103600083015261386e81613832565b9050919050565b7f426964203c206669616e7a610000000000000000000000000000000000000000600082015250565b60006138ab600c836131bf565b91506138b682613875565b602082019050919050565b600060208201905081810360008301526138da8161389e565b9050919050565b7f52657665616c20696e76616c69646f0000000000000000000000000000000000600082015250565b6000613917600f836131bf565b9150613922826138e1565b602082019050919050565b600060208201905081810360008301526139468161390a565b9050919050565b7f52657665616c206e6f207465726d696e61646f00000000000000000000000000600082015250565b60006139836013836131bf565b915061398e8261394d565b602082019050919050565b600060208201905081810360008301526139b281613976565b9050919050565b7f59612066696e616c697a61646f00000000000000000000000000000000000000600082015250565b60006139ef600d836131bf565b91506139fa826139b9565b602082019050919050565b60006020820190508181036000830152613a1e816139e2565b9050919050565b6000604082019050613a3a6000830185612f07565b613a476020830184612f07565b9392505050565b7f616d6f756e743d30000000000000000000000000000000000000000000000000600082015250565b6000613a846008836131bf565b9150613a8f82613a4e565b602082019050919050565b60006020820190508181036000830152613ab381613a77565b9050919050565b7f496e737566696369656e74650000000000000000000000000000000000000000600082015250565b6000613af0600c836131bf565b9150613afb82613aba565b602082019050919050565b60006020820190508181036000830152613b1f81613ae3565b9050919050565b7f536f6c6f206f776e657200000000000000000000000000000000000000000000600082015250565b6000613b5c600a836131bf565b9150613b6782613b26565b602082019050919050565b60006020820190508181036000830152613b8b81613b4f565b9050919050565b7f5961206465736965727461000000000000000000000000000000000000000000600082015250565b6000613bc8600b836131bf565b9150613bd382613b92565b602082019050919050565b60006020820190508181036000830152613bf781613bbb565b9050919050565b7f596120636f6d706c657461646100000000000000000000000000000000000000600082015250565b6000613c34600d836131bf565b9150613c3f82613bfe565b602082019050919050565b60006020820190508181036000830152613c6381613c27565b9050919050565b7f53696e2067616e61646f72000000000000000000000000000000000000000000600082015250565b6000613ca0600b836131bf565b9150613cab82613c6a565b602082019050919050565b60006020820190508181036000830152613ccf81613c93565b9050919050565b7f506c617a6f2061756e2061637469766f00000000000000000000000000000000600082015250565b6000613d0c6010836131bf565b9150613d1782613cd6565b602082019050919050565b60006020820190508181036000830152613d3b81613cff565b9050919050565b7f59612067657374696f6e61646f00000000000000000000000000000000000000600082015250565b6000613d78600d836131bf565b9150613d8382613d42565b602082019050919050565b60006020820190508181036000830152613da781613d6b565b9050919050565b7f77696e6e657220646964206e6f74207061790000000000000000000000000000600082015250565b6000613de46012836131bf565b9150613def82613dae565b602082019050919050565b6000604082019050613e0f6000830184612f07565b8181036020830152613e2081613dd7565b905092915050565b7f5375626173746120646573696572746100000000000000000000000000000000600082015250565b6000613e5e6010836131bf565b9150613e6982613e28565b602082019050919050565b60006020820190508181036000830152613e8d81613e51565b9050919050565b7f506c617a6f20657870697261646f000000000000000000000000000000000000600082015250565b6000613eca600e836131bf565b9150613ed582613e94565b602082019050919050565b60006020820190508181036000830152613ef981613ebd565b9050919050565b7f4e6f206572657320656c2067616e61646f722061637475616c00000000000000600082015250565b6000613f366019836131bf565b9150613f4182613f00565b602082019050919050565b60006020820190508181036000830152613f6581613f29565b9050919050565b7f43616e746964616420696e636f72726563746100000000000000000000000000600082015250565b6000613fa26013836131bf565b9150613fad82613f6c565b602082019050919050565b60006020820190508181036000830152613fd181613f95565b9050919050565b7f436f6d6d69742063657272616461000000000000000000000000000000000000600082015250565b600061400e600e836131bf565b915061401982613fd8565b602082019050919050565b6000602082019050818103600083015261403d81614001565b9050919050565b7f436f6d6d69746d656e7420696e76616c69646f00000000000000000000000000600082015250565b600061407a6013836131bf565b915061408582614044565b602082019050919050565b600060208201905081810360008301526140a98161406d565b9050919050565b7f53756261737461206c6c656e6100000000000000000000000000000000000000600082015250565b60006140e6600d836131bf565b91506140f1826140b0565b602082019050919050565b60006020820190508181036000830152614115816140d9565b9050919050565b7f4465626573207061676172206c61206669616e7a612065786163746100000000600082015250565b6000614152601c836131bf565b915061415d8261411c565b602082019050919050565b6000602082019050818103600083015261418181614145565b9050919050565b7f5961206869636973746520636f6d6d6974000000000000000000000000000000600082015250565b60006141be6011836131bf565b91506141c982614188565b602082019050919050565b600060208201905081810360008301526141ed816141b1565b9050919050565b60006141ff82612efd565b91506000820361421257614211613487565b5b60018203905091905056fea264697066735822122071714615b3c5592e2444e46602d439e1c3b84ee2b2a196a06d9192aaa9ca79c964736f6c634300081e0033",
			"opcodes": "PUSH2 0x160 PUSH1 0x40 MSTORE CALLVALUE DUP1 ISZERO PUSH2 0x11 JUMPI PUSH1 0x0 DUP1 REVERT JUMPDEST POP PUSH1 0x40 MLOAD PUSH2 0x4A43 CODESIZE SUB DUP1 PUSH2 0x4A43 DUP4 CODECOPY DUP2 DUP2 ADD PUSH1 0x40 MSTORE DUP2 ADD SWAP1 PUSH2 0x33 SWAP2 SWAP1 PUSH2 0x2E4 JUMP JUMPDEST PUSH2 0x12C DUP7 LT ISZERO PUSH2 0x78 JUMPI PUSH1 0x40 MLOAD PUSH32 0x8C379A000000000000000000000000000000000000000000000000000000000 DUP2 MSTORE PUSH1 0x4 ADD PUSH2 0x6F SWAP1 PUSH2 0x3CE JUMP JUMPDEST PUSH1 0x40 MLOAD DUP1 SWAP2 SUB SWAP1 REVERT JUMPDEST PUSH2 0x12C DUP6 LT ISZERO PUSH2 0xBD JUMPI PUSH1 0x40 MLOAD PUSH32 0x8C379A000000000000000000000000000000000000000000000000000000000 DUP2 MSTORE PUSH1 0x4 ADD PUSH2 0xB4 SWAP1 PUSH2 0x43A JUMP JUMPDEST PUSH1 0x40 MLOAD DUP1 SWAP2 SUB SWAP1 REVERT JUMPDEST PUSH2 0x12C DUP4 LT ISZERO PUSH2 0x102 JUMPI PUSH1 0x40 MLOAD PUSH32 0x8C379A000000000000000000000000000000000000000000000000000000000 DUP2 MSTORE PUSH1 0x4 ADD PUSH2 0xF9 SWAP1 PUSH2 0x4A6 JUMP JUMPDEST PUSH1 0x40 MLOAD DUP1 SWAP2 SUB SWAP1 REVERT JUMPDEST PUSH7 0x38D7EA4C68000 DUP5 LT ISZERO PUSH2 0x14C JUMPI PUSH1 0x40 MLOAD PUSH32 0x8C379A000000000000000000000000000000000000000000000000000000000 DUP2 MSTORE PUSH1 0x4 ADD PUSH2 0x143 SWAP1 PUSH2 0x512 JUMP JUMPDEST PUSH1 0x40 MLOAD DUP1 SWAP2 SUB SWAP1 REVERT JUMPDEST PUSH8 0x8AC7230489E80000 DUP5 GT ISZERO PUSH2 0x197 JUMPI PUSH1 0x40 MLOAD PUSH32 0x8C379A000000000000000000000000000000000000000000000000000000000 DUP2 MSTORE PUSH1 0x4 ADD PUSH2 0x18E SWAP1 PUSH2 0x57E JUMP JUMPDEST PUSH1 0x40 MLOAD DUP1 SWAP2 SUB SWAP1 REVERT JUMPDEST PUSH1 0xA DUP3 LT ISZERO PUSH2 0x1DB JUMPI PUSH1 0x40 MLOAD PUSH32 0x8C379A000000000000000000000000000000000000000000000000000000000 DUP2 MSTORE PUSH1 0x4 ADD PUSH2 0x1D2 SWAP1 PUSH2 0x5EA JUMP JUMPDEST PUSH1 0x40 MLOAD DUP1 SWAP2 SUB SWAP1 REVERT JUMPDEST PUSH1 0xC8 DUP3 GT ISZERO PUSH2 0x21F JUMPI PUSH1 0x40 MLOAD PUSH32 0x8C379A000000000000000000000000000000000000000000000000000000000 DUP2 MSTORE PUSH1 0x4 ADD PUSH2 0x216 SWAP1 PUSH2 0x656 JUMP JUMPDEST PUSH1 0x40 MLOAD DUP1 SWAP2 SUB SWAP1 REVERT JUMPDEST CALLER PUSH20 0xFFFFFFFFFFFFFFFFFFFFFFFFFFFFFFFFFFFFFFFF AND PUSH1 0x80 DUP2 PUSH20 0xFFFFFFFFFFFFFFFFFFFFFFFFFFFFFFFFFFFFFFFF AND DUP2 MSTORE POP POP DUP6 TIMESTAMP PUSH2 0x25F SWAP2 SWAP1 PUSH2 0x6A5 JUMP JUMPDEST PUSH1 0xA0 DUP2 DUP2 MSTORE POP POP DUP5 PUSH1 0xA0 MLOAD PUSH2 0x274 SWAP2 SWAP1 PUSH2 0x6A5 JUMP JUMPDEST PUSH1 0xC0 DUP2 DUP2 MSTORE POP POP DUP4 PUSH1 0xE0 DUP2 DUP2 MSTORE POP POP DUP3 PUSH2 0x100 DUP2 DUP2 MSTORE POP POP DUP2 PUSH2 0x120 DUP2 DUP2 MSTORE POP POP DUP1 PUSH2 0x140 DUP2 DUP2 MSTORE POP POP POP POP POP POP POP POP PUSH2 0x6D9 JUMP JUMPDEST PUSH1 0x0 DUP1 REVERT JUMPDEST PUSH1 0x0 DUP2 SWAP1 POP SWAP2 SWAP1 POP JUMP JUMPDEST PUSH2 0x2C1 DUP2 PUSH2 0x2AE JUMP JUMPDEST DUP2 EQ PUSH2 0x2CC JUMPI PUSH1 0x0 DUP1 REVERT JUMPDEST POP JUMP JUMPDEST PUSH1 0x0 DUP2 MLOAD SWAP1 POP PUSH2 0x2DE DUP2 PUSH2 0x2B8 JUMP JUMPDEST SWAP3 SWAP2 POP POP JUMP JUMPDEST PUSH1 0x0 DUP1 PUSH1 0x0 DUP1 PUSH1 0x0 DUP1 PUSH1 0xC0 DUP8 DUP10 SUB SLT ISZERO PUSH2 0x301 JUMPI PUSH2 0x300 PUSH2 0x2A9 JUMP JUMPDEST JUMPDEST PUSH1 0x0 PUSH2 0x30F DUP10 DUP3 DUP11 ADD PUSH2 0x2CF JUMP JUMPDEST SWAP7 POP POP PUSH1 0x20 PUSH2 0x320 DUP10 DUP3 DUP11 ADD PUSH2 0x2CF JUMP JUMPDEST SWAP6 POP POP PUSH1 0x40 PUSH2 0x331 DUP10 DUP3 DUP11 ADD PUSH2 0x2CF JUMP JUMPDEST SWAP5 POP POP PUSH1 0x60 PUSH2 0x342 DUP10 DUP3 DUP11 ADD PUSH2 0x2CF JUMP JUMPDEST SWAP4 POP POP PUSH1 0x80 PUSH2 0x353 DUP10 DUP3 DUP11 ADD PUSH2 0x2CF JUMP JUMPDEST SWAP3 POP POP PUSH1 0xA0 PUSH2 0x364 DUP10 DUP3 DUP11 ADD PUSH2 0x2CF JUMP JUMPDEST SWAP2 POP POP SWAP3 SWAP6 POP SWAP3 SWAP6 POP SWAP3 SWAP6 JUMP JUMPDEST PUSH1 0x0 DUP3 DUP3 MSTORE PUSH1 0x20 DUP3 ADD SWAP1 POP SWAP3 SWAP2 POP POP JUMP JUMPDEST PUSH32 0x636F6D6D69744475726174696F6E206D757920636F72746F0000000000000000 PUSH1 0x0 DUP3 ADD MSTORE POP JUMP JUMPDEST PUSH1 0x0 PUSH2 0x3B8 PUSH1 0x18 DUP4 PUSH2 0x371 JUMP JUMPDEST SWAP2 POP PUSH2 0x3C3 DUP3 PUSH2 0x382 JUMP JUMPDEST PUSH1 0x20 DUP3 ADD SWAP1 POP SWAP2 SWAP1 POP JUMP JUMPDEST PUSH1 0x0 PUSH1 0x20 DUP3 ADD SWAP1 POP DUP2 DUP2 SUB PUSH1 0x0 DUP4 ADD MSTORE PUSH2 0x3E7 DUP2 PUSH2 0x3AB JUMP JUMPDEST SWAP1 POP SWAP2 SWAP1 POP JUMP JUMPDEST PUSH32 0x72657665616C4475726174696F6E206D757920636F72746F0000000000000000 PUSH1 0x0 DUP3 ADD MSTORE POP JUMP JUMPDEST PUSH1 0x0 PUSH2 0x424 PUSH1 0x18 DUP4 PUSH2 0x371 JUMP JUMPDEST SWAP2 POP PUSH2 0x42F DUP3 PUSH2 0x3EE JUMP JUMPDEST PUSH1 0x20 DUP3 ADD SWAP1 POP SWAP2 SWAP1 POP JUMP JUMPDEST PUSH1 0x0 PUSH1 0x20 DUP3 ADD SWAP1 POP DUP2 DUP2 SUB PUSH1 0x0 DUP4 ADD MSTORE PUSH2 0x453 DUP2 PUSH2 0x417 JUMP JUMPDEST SWAP1 POP SWAP2 SWAP1 POP JUMP JUMPDEST PUSH32 0x7061796D656E744475726174696F6E206D757920636F72746F00000000000000 PUSH1 0x0 DUP3 ADD MSTORE POP JUMP JUMPDEST PUSH1 0x0 PUSH2 0x490 PUSH1 0x19 DUP4 PUSH2 0x371 JUMP JUMPDEST SWAP2 POP PUSH2 0x49B DUP3 PUSH2 0x45A JUMP JUMPDEST PUSH1 0x20 DUP3 ADD SWAP1 POP SWAP2 SWAP1 POP JUMP JUMPDEST PUSH1 0x0 PUSH1 0x20 DUP3 ADD SWAP1 POP DUP2 DUP2 SUB PUSH1 0x0 DUP4 ADD MSTORE PUSH2 0x4BF DUP2 PUSH2 0x483 JUMP JUMPDEST SWAP1 POP SWAP2 SWAP1 POP JUMP JUMPDEST PUSH32 0x6465706F7369742064656D61736961646F2062616A6F00000000000000000000 PUSH1 0x0 DUP3 ADD MSTORE POP JUMP JUMPDEST PUSH1 0x0 PUSH2 0x4FC PUSH1 0x16 DUP4 PUSH2 0x371 JUMP JUMPDEST SWAP2 POP PUSH2 0x507 DUP3 PUSH2 0x4C6 JUMP JUMPDEST PUSH1 0x20 DUP3 ADD SWAP1 POP SWAP2 SWAP1 POP JUMP JUMPDEST PUSH1 0x0 PUSH1 0x20 DUP3 ADD SWAP1 POP DUP2 DUP2 SUB PUSH1 0x0 DUP4 ADD MSTORE PUSH2 0x52B DUP2 PUSH2 0x4EF JUMP JUMPDEST SWAP1 POP SWAP2 SWAP1 POP JUMP JUMPDEST PUSH32 0x6465706F7369742064656D61736961646F20616C746F00000000000000000000 PUSH1 0x0 DUP3 ADD MSTORE POP JUMP JUMPDEST PUSH1 0x0 PUSH2 0x568 PUSH1 0x16 DUP4 PUSH2 0x371 JUMP JUMPDEST SWAP2 POP PUSH2 0x573 DUP3 PUSH2 0x532 JUMP JUMPDEST PUSH1 0x20 DUP3 ADD SWAP1 POP SWAP2 SWAP1 POP JUMP JUMPDEST PUSH1 0x0 PUSH1 0x20 DUP3 ADD SWAP1 POP DUP2 DUP2 SUB PUSH1 0x0 DUP4 ADD MSTORE PUSH2 0x597 DUP2 PUSH2 0x55B JUMP JUMPDEST SWAP1 POP SWAP2 SWAP1 POP JUMP JUMPDEST PUSH32 0x6D6178426964646572732064656D61736961646F2062616A6F00000000000000 PUSH1 0x0 DUP3 ADD MSTORE POP JUMP JUMPDEST PUSH1 0x0 PUSH2 0x5D4 PUSH1 0x19 DUP4 PUSH2 0x371 JUMP JUMPDEST SWAP2 POP PUSH2 0x5DF DUP3 PUSH2 0x59E JUMP JUMPDEST PUSH1 0x20 DUP3 ADD SWAP1 POP SWAP2 SWAP1 POP JUMP JUMPDEST PUSH1 0x0 PUSH1 0x20 DUP3 ADD SWAP1 POP DUP2 DUP2 SUB PUSH1 0x0 DUP4 ADD MSTORE PUSH2 0x603 DUP2 PUSH2 0x5C7 JUMP JUMPDEST SWAP1 POP SWAP2 SWAP1 POP JUMP JUMPDEST PUSH32 0x6D6178426964646572732064656D61736961646F20616C746F00000000000000 PUSH1 0x0 DUP3 ADD MSTORE POP JUMP JUMPDEST PUSH1 0x0 PUSH2 0x640 PUSH1 0x19 DUP4 PUSH2 0x371 JUMP JUMPDEST SWAP2 POP PUSH2 0x64B DUP3 PUSH2 0x60A JUMP JUMPDEST PUSH1 0x20 DUP3 ADD SWAP1 POP SWAP2 SWAP1 POP JUMP JUMPDEST PUSH1 0x0 PUSH1 0x20 DUP3 ADD SWAP1 POP DUP2 DUP2 SUB PUSH1 0x0 DUP4 ADD MSTORE PUSH2 0x66F DUP2 PUSH2 0x633 JUMP JUMPDEST SWAP1 POP SWAP2 SWAP1 POP JUMP JUMPDEST PUSH32 0x4E487B7100000000000000000000000000000000000000000000000000000000 PUSH1 0x0 MSTORE PUSH1 0x11 PUSH1 0x4 MSTORE PUSH1 0x24 PUSH1 0x0 REVERT JUMPDEST PUSH1 0x0 PUSH2 0x6B0 DUP3 PUSH2 0x2AE JUMP JUMPDEST SWAP2 POP PUSH2 0x6BB DUP4 PUSH2 0x2AE JUMP JUMPDEST SWAP3 POP DUP3 DUP3 ADD SWAP1 POP DUP1 DUP3 GT ISZERO PUSH2 0x6D3 JUMPI PUSH2 0x6D2 PUSH2 0x676 JUMP JUMPDEST JUMPDEST SWAP3 SWAP2 POP POP JUMP JUMPDEST PUSH1 0x80 MLOAD PUSH1 0xA0 MLOAD PUSH1 0xC0 MLOAD PUSH1 0xE0 MLOAD PUSH2 0x100 MLOAD PUSH2 0x120 MLOAD PUSH2 0x140 MLOAD PUSH2 0x4253 PUSH2 0x7F0 PUSH1 0x0 CODECOPY PUSH1 0x0 DUP2 DUP2 PUSH2 0x2094 ADD MSTORE DUP2 DUP2 PUSH2 0x20BE ADD MSTORE PUSH2 0x29D8 ADD MSTORE PUSH1 0x0 DUP2 DUP2 PUSH2 0x1A4E ADD MSTORE PUSH2 0x2784 ADD MSTORE PUSH1 0x0 DUP2 DUP2 PUSH2 0x145F ADD MSTORE DUP2 DUP2 PUSH2 0x17C4 ADD MSTORE PUSH2 0x2151 ADD MSTORE PUSH1 0x0 DUP2 DUP2 PUSH2 0xBC9 ADD MSTORE DUP2 DUP2 PUSH2 0xBF9 ADD MSTORE DUP2 DUP2 PUSH2 0xC33 ADD MSTORE DUP2 DUP2 PUSH2 0x1117 ADD MSTORE DUP2 DUP2 PUSH2 0x1B9F ADD MSTORE DUP2 DUP2 PUSH2 0x1EBC ADD MSTORE DUP2 DUP2 PUSH2 0x1EF6 ADD MSTORE DUP2 DUP2 PUSH2 0x2018 ADD MSTORE DUP2 DUP2 PUSH2 0x24F8 ADD MSTORE DUP2 DUP2 PUSH2 0x2526 ADD MSTORE DUP2 DUP2 PUSH2 0x2598 ADD MSTORE DUP2 DUP2 PUSH2 0x2692 ADD MSTORE PUSH2 0x27EB ADD MSTORE PUSH1 0x0 DUP2 DUP2 PUSH2 0xE4B ADD MSTORE DUP2 DUP2 PUSH2 0xE7A ADD MSTORE DUP2 DUP2 PUSH2 0xFD0 ADD MSTORE DUP2 DUP2 PUSH2 0x127A ADD MSTORE PUSH2 0x1B49 ADD MSTORE PUSH1 0x0 DUP2 DUP2 PUSH2 0xDEE ADD MSTORE DUP2 DUP2 PUSH2 0xE1D ADD MSTORE DUP2 DUP2 PUSH2 0xF6D ADD MSTORE DUP2 DUP2 PUSH2 0x1A72 ADD MSTORE PUSH2 0x26DD ADD MSTORE PUSH1 0x0 DUP2 DUP2 PUSH2 0x17EE ADD MSTORE DUP2 DUP2 PUSH2 0x191F ADD MSTORE PUSH2 0x1A2A ADD MSTORE PUSH2 0x4253 PUSH1 0x0 RETURN INVALID PUSH1 0x80 PUSH1 0x40 MSTORE PUSH1 0x4 CALLDATASIZE LT PUSH2 0x23F JUMPI PUSH1 0x0 CALLDATALOAD PUSH1 0xE0 SHR DUP1 PUSH4 0xAE0AB2BA GT PUSH2 0x12E JUMPI DUP1 PUSH4 0xD4DAF77A GT PUSH2 0xAB JUMPI DUP1 PUSH4 0xF14FCBC8 GT PUSH2 0x6F JUMPI DUP1 PUSH4 0xF14FCBC8 EQ PUSH2 0x813 JUMPI DUP1 PUSH4 0xF156B57C EQ PUSH2 0x82F JUMPI DUP1 PUSH4 0xF2224795 EQ PUSH2 0x85A JUMPI DUP1 PUSH4 0xF776BD06 EQ PUSH2 0x885 JUMPI DUP1 PUSH4 0xFCC8F793 EQ PUSH2 0x8B0 JUMPI PUSH2 0x246 JUMP JUMPDEST DUP1 PUSH4 0xD4DAF77A EQ PUSH2 0x771 JUMPI DUP1 PUSH4 0xDD5967C3 EQ PUSH2 0x788 JUMPI DUP1 PUSH4 0xE1E158A5 EQ PUSH2 0x7B3 JUMPI DUP1 PUSH4 0xE35A70D9 EQ PUSH2 0x7DE JUMPI DUP1 PUSH4 0xEAAC5564 EQ PUSH2 0x7E8 JUMPI PUSH2 0x246 JUMP JUMPDEST DUP1 PUSH4 0xC87DA02D GT PUSH2 0xF2 JUMPI DUP1 PUSH4 0xC87DA02D EQ PUSH2 0x688 JUMPI DUP1 PUSH4 0xC8A58AB7 EQ PUSH2 0x6B3 JUMPI DUP1 PUSH4 0xD0E30DB0 EQ PUSH2 0x6DE JUMPI DUP1 PUSH4 0xD329DB8F EQ PUSH2 0x709 JUMPI DUP1 PUSH4 0xD3584E84 EQ PUSH2 0x734 JUMPI PUSH2 0x246 JUMP JUMPDEST DUP1 PUSH4 0xAE0AB2BA EQ PUSH2 0x5B1 JUMPI DUP1 PUSH4 0xB14B28A3 EQ PUSH2 0x5DC JUMPI DUP1 PUSH4 0xB3F05B97 EQ PUSH2 0x607 JUMPI DUP1 PUSH4 0xB9E42385 EQ PUSH2 0x632 JUMPI DUP1 PUSH4 0xC3F6AFD7 EQ PUSH2 0x65D JUMPI PUSH2 0x246 JUMP JUMPDEST DUP1 PUSH4 0x4C72E066 GT PUSH2 0x1BC JUMPI DUP1 PUSH4 0x7E278310 GT PUSH2 0x180 JUMPI DUP1 PUSH4 0x7E278310 EQ PUSH2 0x4DA JUMPI DUP1 PUSH4 0x8DA5CB5B EQ PUSH2 0x505 JUMPI DUP1 PUSH4 0xA097F3AC EQ PUSH2 0x530 JUMPI DUP1 PUSH4 0xA2FF0209 EQ PUSH2 0x55B JUMPI DUP1 PUSH4 0xAABE2FE3 EQ PUSH2 0x586 JUMPI PUSH2 0x246 JUMP JUMPDEST DUP1 PUSH4 0x4C72E066 EQ PUSH2 0x3F5 JUMPI DUP1 PUSH4 0x523A3F08 EQ PUSH2 0x432 JUMPI DUP1 PUSH4 0x56845EF7 EQ PUSH2 0x45B JUMPI DUP1 PUSH4 0x6D929F23 EQ PUSH2 0x486 JUMPI DUP1 PUSH4 0x76B9148F EQ PUSH2 0x4B1 JUMPI PUSH2 0x246 JUMP JUMPDEST DUP1 PUSH4 0x36D0054B GT PUSH2 0x203 JUMPI DUP1 PUSH4 0x36D0054B EQ PUSH2 0x334 JUMPI DUP1 PUSH4 0x3C454E40 EQ PUSH2 0x35F JUMPI DUP1 PUSH4 0x4036778F EQ PUSH2 0x38A JUMPI DUP1 PUSH4 0x474B7525 EQ PUSH2 0x3B3 JUMPI DUP1 PUSH4 0x4BB278F3 EQ PUSH2 0x3DE JUMPI PUSH2 0x246 JUMP JUMPDEST DUP1 PUSH4 0x700037D EQ PUSH2 0x24B JUMPI DUP1 PUSH4 0x117DF088 EQ PUSH2 0x288 JUMPI DUP1 PUSH4 0x1300A6D1 EQ PUSH2 0x29F JUMPI DUP1 PUSH4 0x176069E9 EQ PUSH2 0x2CC JUMPI DUP1 PUSH4 0x25BD0B9A EQ PUSH2 0x309 JUMPI PUSH2 0x246 JUMP JUMPDEST CALLDATASIZE PUSH2 0x246 JUMPI STOP JUMPDEST PUSH1 0x0 DUP1 REVERT JUMPDEST CALLVALUE DUP1 ISZERO PUSH2 0x257 JUMPI PUSH1 0x0 DUP1 REVERT JUMPDEST POP PUSH2 0x272 PUSH1 0x4 DUP1 CALLDATASIZE SUB DUP2 ADD SWAP1 PUSH2 0x26D SWAP2 SWAP1 PUSH2 0x2ED0 JUMP JUMPDEST PUSH2 0x8F4 JUMP JUMPDEST PUSH1 0x40 MLOAD PUSH2 0x27F SWAP2 SWAP1 PUSH2 0x2F16 JUMP JUMPDEST PUSH1 0x40 MLOAD DUP1 SWAP2 SUB SWAP1 RETURN JUMPDEST CALLVALUE DUP1 ISZERO PUSH2 0x294 JUMPI PUSH1 0x0 DUP1 REVERT JUMPDEST POP PUSH2 0x29D PUSH2 0x90C JUMP JUMPDEST STOP JUMPDEST CALLVALUE DUP1 ISZERO PUSH2 0x2AB JUMPI PUSH1 0x0 DUP1 REVERT JUMPDEST POP PUSH2 0x2B4 PUSH2 0xDE7 JUMP JUMPDEST PUSH1 0x40 MLOAD PUSH2 0x2C3 SWAP4 SWAP3 SWAP2 SWAP1 PUSH2 0x2F31 JUMP JUMPDEST PUSH1 0x40 MLOAD DUP1 SWAP2 SUB SWAP1 RETURN JUMPDEST CALLVALUE DUP1 ISZERO PUSH2 0x2D8 JUMPI PUSH1 0x0 DUP1 REVERT JUMPDEST POP PUSH2 0x2F3 PUSH1 0x4 DUP1 CALLDATASIZE SUB DUP2 ADD SWAP1 PUSH2 0x2EE SWAP2 SWAP1 PUSH2 0x2FCA JUMP JUMPDEST PUSH2 0xF16 JUMP JUMPDEST PUSH1 0x40 MLOAD PUSH2 0x300 SWAP2 SWAP1 PUSH2 0x302C JUMP JUMPDEST PUSH1 0x40 MLOAD DUP1 SWAP2 SUB SWAP1 RETURN JUMPDEST CALLVALUE DUP1 ISZERO PUSH2 0x315 JUMPI PUSH1 0x0 DUP1 REVERT JUMPDEST POP PUSH2 0x31E PUSH2 0xF4E JUMP JUMPDEST PUSH1 0x40 MLOAD PUSH2 0x32B SWAP2 SWAP1 PUSH2 0x2F16 JUMP JUMPDEST PUSH1 0x40 MLOAD DUP1 SWAP2 SUB SWAP1 RETURN JUMPDEST CALLVALUE DUP1 ISZERO PUSH2 0x340 JUMPI PUSH1 0x0 DUP1 REVERT JUMPDEST POP PUSH2 0x349 PUSH2 0xF53 JUMP JUMPDEST PUSH1 0x40 MLOAD PUSH2 0x356 SWAP2 SWAP1 PUSH2 0x3062 JUMP JUMPDEST PUSH1 0x40 MLOAD DUP1 SWAP2 SUB SWAP1 RETURN JUMPDEST CALLVALUE DUP1 ISZERO PUSH2 0x36B JUMPI PUSH1 0x0 DUP1 REVERT JUMPDEST POP PUSH2 0x374 PUSH2 0xF66 JUMP JUMPDEST PUSH1 0x40 MLOAD PUSH2 0x381 SWAP2 SWAP1 PUSH2 0x2F16 JUMP JUMPDEST PUSH1 0x40 MLOAD DUP1 SWAP2 SUB SWAP1 RETURN JUMPDEST CALLVALUE DUP1 ISZERO PUSH2 0x396 JUMPI PUSH1 0x0 DUP1 REVERT JUMPDEST POP PUSH2 0x3B1 PUSH1 0x4 DUP1 CALLDATASIZE SUB DUP2 ADD SWAP1 PUSH2 0x3AC SWAP2 SWAP1 PUSH2 0x307D JUMP JUMPDEST PUSH2 0xF6B JUMP JUMPDEST STOP JUMPDEST CALLVALUE DUP1 ISZERO PUSH2 0x3BF JUMPI PUSH1 0x0 DUP1 REVERT JUMPDEST POP PUSH2 0x3C8 PUSH2 0x1272 JUMP JUMPDEST PUSH1 0x40 MLOAD PUSH2 0x3D5 SWAP2 SWAP1 PUSH2 0x2F16 JUMP JUMPDEST PUSH1 0x40 MLOAD DUP1 SWAP2 SUB SWAP1 RETURN JUMPDEST CALLVALUE DUP1 ISZERO PUSH2 0x3EA JUMPI PUSH1 0x0 DUP1 REVERT JUMPDEST POP PUSH2 0x3F3 PUSH2 0x1278 JUMP JUMPDEST STOP JUMPDEST CALLVALUE DUP1 ISZERO PUSH2 0x401 JUMPI PUSH1 0x0 DUP1 REVERT JUMPDEST POP PUSH2 0x41C PUSH1 0x4 DUP1 CALLDATASIZE SUB DUP2 ADD SWAP1 PUSH2 0x417 SWAP2 SWAP1 PUSH2 0x30BD JUMP JUMPDEST PUSH2 0x156A JUMP JUMPDEST PUSH1 0x40 MLOAD PUSH2 0x429 SWAP2 SWAP1 PUSH2 0x30F9 JUMP JUMPDEST PUSH1 0x40 MLOAD DUP1 SWAP2 SUB SWAP1 RETURN JUMPDEST CALLVALUE DUP1 ISZERO PUSH2 0x43E JUMPI PUSH1 0x0 DUP1 REVERT JUMPDEST POP PUSH2 0x459 PUSH1 0x4 DUP1 CALLDATASIZE SUB DUP2 ADD SWAP1 PUSH2 0x454 SWAP2 SWAP1 PUSH2 0x30BD JUMP JUMPDEST PUSH2 0x15A9 JUMP JUMPDEST STOP JUMPDEST CALLVALUE DUP1 ISZERO PUSH2 0x467 JUMPI PUSH1 0x0 DUP1 REVERT JUMPDEST POP PUSH2 0x470 PUSH2 0x17C2 JUMP JUMPDEST PUSH1 0x40 MLOAD PUSH2 0x47D SWAP2 SWAP1 PUSH2 0x2F16 JUMP JUMPDEST PUSH1 0x40 MLOAD DUP1 SWAP2 SUB SWAP1 RETURN JUMPDEST CALLVALUE DUP1 ISZERO PUSH2 0x492 JUMPI PUSH1 0x0 DUP1 REVERT JUMPDEST POP PUSH2 0x49B PUSH2 0x17E6 JUMP JUMPDEST PUSH1 0x40 MLOAD PUSH2 0x4A8 SWAP2 SWAP1 PUSH2 0x2F16 JUMP JUMPDEST PUSH1 0x40 MLOAD DUP1 SWAP2 SUB SWAP1 RETURN JUMPDEST CALLVALUE DUP1 ISZERO PUSH2 0x4BD JUMPI PUSH1 0x0 DUP1 REVERT JUMPDEST POP PUSH2 0x4D8 PUSH1 0x4 DUP1 CALLDATASIZE SUB DUP2 ADD SWAP1 PUSH2 0x4D3 SWAP2 SWAP1 PUSH2 0x30BD JUMP JUMPDEST PUSH2 0x17EC JUMP JUMPDEST STOP JUMPDEST CALLVALUE DUP1 ISZERO PUSH2 0x4E6 JUMPI PUSH1 0x0 DUP1 REVERT JUMPDEST POP PUSH2 0x4EF PUSH2 0x1A22 JUMP JUMPDEST PUSH1 0x40 MLOAD PUSH2 0x4FC SWAP2 SWAP1 PUSH2 0x2F16 JUMP JUMPDEST PUSH1 0x40 MLOAD DUP1 SWAP2 SUB SWAP1 RETURN JUMPDEST CALLVALUE DUP1 ISZERO PUSH2 0x511 JUMPI PUSH1 0x0 DUP1 REVERT JUMPDEST POP PUSH2 0x51A PUSH2 0x1A28 JUMP JUMPDEST PUSH1 0x40 MLOAD PUSH2 0x527 SWAP2 SWAP1 PUSH2 0x30F9 JUMP JUMPDEST PUSH1 0x40 MLOAD DUP1 SWAP2 SUB SWAP1 RETURN JUMPDEST CALLVALUE DUP1 ISZERO PUSH2 0x53C JUMPI PUSH1 0x0 DUP1 REVERT JUMPDEST POP PUSH2 0x545 PUSH2 0x1A4C JUMP JUMPDEST PUSH1 0x40 MLOAD PUSH2 0x552 SWAP2 SWAP1 PUSH2 0x2F16 JUMP JUMPDEST PUSH1 0x40 MLOAD DUP1 SWAP2 SUB SWAP1 RETURN JUMPDEST CALLVALUE DUP1 ISZERO PUSH2 0x567 JUMPI PUSH1 0x0 DUP1 REVERT JUMPDEST POP PUSH2 0x570 PUSH2 0x1A70 JUMP JUMPDEST PUSH1 0x40 MLOAD PUSH2 0x57D SWAP2 SWAP1 PUSH2 0x2F16 JUMP JUMPDEST PUSH1 0x40 MLOAD DUP1 SWAP2 SUB SWAP1 RETURN JUMPDEST CALLVALUE DUP1 ISZERO PUSH2 0x592 JUMPI PUSH1 0x0 DUP1 REVERT JUMPDEST POP PUSH2 0x59B PUSH2 0x1A94 JUMP JUMPDEST PUSH1 0x40 MLOAD PUSH2 0x5A8 SWAP2 SWAP1 PUSH2 0x30F9 JUMP JUMPDEST PUSH1 0x40 MLOAD DUP1 SWAP2 SUB SWAP1 RETURN JUMPDEST CALLVALUE DUP1 ISZERO PUSH2 0x5BD JUMPI PUSH1 0x0 DUP1 REVERT JUMPDEST POP PUSH2 0x5C6 PUSH2 0x1B3A JUMP JUMPDEST PUSH1 0x40 MLOAD PUSH2 0x5D3 SWAP2 SWAP1 PUSH2 0x2F16 JUMP JUMPDEST PUSH1 0x40 MLOAD DUP1 SWAP2 SUB SWAP1 RETURN JUMPDEST CALLVALUE DUP1 ISZERO PUSH2 0x5E8 JUMPI PUSH1 0x0 DUP1 REVERT JUMPDEST POP PUSH2 0x5F1 PUSH2 0x1B47 JUMP JUMPDEST PUSH1 0x40 MLOAD PUSH2 0x5FE SWAP2 SWAP1 PUSH2 0x2F16 JUMP JUMPDEST PUSH1 0x40 MLOAD DUP1 SWAP2 SUB SWAP1 RETURN JUMPDEST CALLVALUE DUP1 ISZERO PUSH2 0x613 JUMPI PUSH1 0x0 DUP1 REVERT JUMPDEST POP PUSH2 0x61C PUSH2 0x1B6B JUMP JUMPDEST PUSH1 0x40 MLOAD PUSH2 0x629 SWAP2 SWAP1 PUSH2 0x3062 JUMP JUMPDEST PUSH1 0x40 MLOAD DUP1 SWAP2 SUB SWAP1 RETURN JUMPDEST CALLVALUE DUP1 ISZERO PUSH2 0x63E JUMPI PUSH1 0x0 DUP1 REVERT JUMPDEST POP PUSH2 0x647 PUSH2 0x1B7E JUMP JUMPDEST PUSH1 0x40 MLOAD PUSH2 0x654 SWAP2 SWAP1 PUSH2 0x2F16 JUMP JUMPDEST PUSH1 0x40 MLOAD DUP1 SWAP2 SUB SWAP1 RETURN JUMPDEST CALLVALUE DUP1 ISZERO PUSH2 0x669 JUMPI PUSH1 0x0 DUP1 REVERT JUMPDEST POP PUSH2 0x672 PUSH2 0x1B84 JUMP JUMPDEST PUSH1 0x40 MLOAD PUSH2 0x67F SWAP2 SWAP1 PUSH2 0x2F16 JUMP JUMPDEST PUSH1 0x40 MLOAD DUP1 SWAP2 SUB SWAP1 RETURN JUMPDEST CALLVALUE DUP1 ISZERO PUSH2 0x694 JUMPI PUSH1 0x0 DUP1 REVERT JUMPDEST POP PUSH2 0x69D PUSH2 0x1B8A JUMP JUMPDEST PUSH1 0x40 MLOAD PUSH2 0x6AA SWAP2 SWAP1 PUSH2 0x2F16 JUMP JUMPDEST PUSH1 0x40 MLOAD DUP1 SWAP2 SUB SWAP1 RETURN JUMPDEST CALLVALUE DUP1 ISZERO PUSH2 0x6BF JUMPI PUSH1 0x0 DUP1 REVERT JUMPDEST POP PUSH2 0x6C8 PUSH2 0x1B97 JUMP JUMPDEST PUSH1 0x40 MLOAD PUSH2 0x6D5 SWAP2 SWAP1 PUSH2 0x2F16 JUMP JUMPDEST PUSH1 0x40 MLOAD DUP1 SWAP2 SUB SWAP1 RETURN JUMPDEST CALLVALUE DUP1 ISZERO PUSH2 0x6EA JUMPI PUSH1 0x0 DUP1 REVERT JUMPDEST POP PUSH2 0x6F3 PUSH2 0x1B9D JUMP JUMPDEST PUSH1 0x40 MLOAD PUSH2 0x700 SWAP2 SWAP1 PUSH2 0x2F16 JUMP JUMPDEST PUSH1 0x40 MLOAD DUP1 SWAP2 SUB SWAP1 RETURN JUMPDEST CALLVALUE DUP1 ISZERO PUSH2 0x715 JUMPI PUSH1 0x0 DUP1 REVERT JUMPDEST POP PUSH2 0x71E PUSH2 0x1BC1 JUMP JUMPDEST PUSH1 0x40 MLOAD PUSH2 0x72B SWAP2 SWAP1 PUSH2 0x2F16 JUMP JUMPDEST PUSH1 0x40 MLOAD DUP1 SWAP2 SUB SWAP1 RETURN JUMPDEST CALLVALUE DUP1 ISZERO PUSH2 0x740 JUMPI PUSH1 0x0 DUP1 REVERT JUMPDEST POP PUSH2 0x75B PUSH1 0x4 DUP1 CALLDATASIZE SUB DUP2 ADD SWAP1 PUSH2 0x756 SWAP2 SWAP1 PUSH2 0x30BD JUMP JUMPDEST PUSH2 0x1BC7 JUMP JUMPDEST PUSH1 0x40 MLOAD PUSH2 0x768 SWAP2 SWAP1 PUSH2 0x30F9 JUMP JUMPDEST PUSH1 0x40 MLOAD DUP1 SWAP2 SUB SWAP1 RETURN JUMPDEST CALLVALUE DUP1 ISZERO PUSH2 0x77D JUMPI PUSH1 0x0 DUP1 REVERT JUMPDEST POP PUSH2 0x786 PUSH2 0x1C06 JUMP JUMPDEST STOP JUMPDEST CALLVALUE DUP1 ISZERO PUSH2 0x794 JUMPI PUSH1 0x0 DUP1 REVERT JUMPDEST POP PUSH2 0x79D PUSH2 0x2267 JUMP JUMPDEST PUSH1 0x40 MLOAD PUSH2 0x7AA SWAP2 SWAP1 PUSH2 0x2F16 JUMP JUMPDEST PUSH1 0x40 MLOAD DUP1 SWAP2 SUB SWAP1 RETURN JUMPDEST CALLVALUE DUP1 ISZERO PUSH2 0x7BF JUMPI PUSH1 0x0 DUP1 REVERT JUMPDEST POP PUSH2 0x7C8 PUSH2 0x2273 JUMP JUMPDEST PUSH1 0x40 MLOAD PUSH2 0x7D5 SWAP2 SWAP1 PUSH2 0x2F16 JUMP JUMPDEST PUSH1 0x40 MLOAD DUP1 SWAP2 SUB SWAP1 RETURN JUMPDEST PUSH2 0x7E6 PUSH2 0x227E JUMP JUMPDEST STOP JUMPDEST CALLVALUE DUP1 ISZERO PUSH2 0x7F4 JUMPI PUSH1 0x0 DUP1 REVERT JUMPDEST POP PUSH2 0x7FD PUSH2 0x26D5 JUMP JUMPDEST PUSH1 0x40 MLOAD PUSH2 0x80A SWAP2 SWAP1 PUSH2 0x2F16 JUMP JUMPDEST PUSH1 0x40 MLOAD DUP1 SWAP2 SUB SWAP1 RETURN JUMPDEST PUSH2 0x82D PUSH1 0x4 DUP1 CALLDATASIZE SUB DUP2 ADD SWAP1 PUSH2 0x828 SWAP2 SWAP1 PUSH2 0x3114 JUMP JUMPDEST PUSH2 0x26DB JUMP JUMPDEST STOP JUMPDEST CALLVALUE DUP1 ISZERO PUSH2 0x83B JUMPI PUSH1 0x0 DUP1 REVERT JUMPDEST POP PUSH2 0x844 PUSH2 0x29C3 JUMP JUMPDEST PUSH1 0x40 MLOAD PUSH2 0x851 SWAP2 SWAP1 PUSH2 0x3062 JUMP JUMPDEST PUSH1 0x40 MLOAD DUP1 SWAP2 SUB SWAP1 RETURN JUMPDEST CALLVALUE DUP1 ISZERO PUSH2 0x866 JUMPI PUSH1 0x0 DUP1 REVERT JUMPDEST POP PUSH2 0x86F PUSH2 0x29D6 JUMP JUMPDEST PUSH1 0x40 MLOAD PUSH2 0x87C SWAP2 SWAP1 PUSH2 0x2F16 JUMP JUMPDEST PUSH1 0x40 MLOAD DUP1 SWAP2 SUB SWAP1 RETURN JUMPDEST CALLVALUE DUP1 ISZERO PUSH2 0x891 JUMPI PUSH1 0x0 DUP1 REVERT JUMPDEST POP PUSH2 0x89A PUSH2 0x29FA JUMP JUMPDEST PUSH1 0x40 MLOAD PUSH2 0x8A7 SWAP2 SWAP1 PUSH2 0x2F16 JUMP JUMPDEST PUSH1 0x40 MLOAD DUP1 SWAP2 SUB SWAP1 RETURN JUMPDEST CALLVALUE DUP1 ISZERO PUSH2 0x8BC JUMPI PUSH1 0x0 DUP1 REVERT JUMPDEST POP PUSH2 0x8D7 PUSH1 0x4 DUP1 CALLDATASIZE SUB DUP2 ADD SWAP1 PUSH2 0x8D2 SWAP2 SWAP1 PUSH2 0x2ED0 JUMP JUMPDEST PUSH2 0x2A00 JUMP JUMPDEST PUSH1 0x40 MLOAD PUSH2 0x8EB SWAP9 SWAP8 SWAP7 SWAP6 SWAP5 SWAP4 SWAP3 SWAP2 SWAP1 PUSH2 0x3141 JUMP JUMPDEST PUSH1 0x40 MLOAD DUP1 SWAP2 SUB SWAP1 RETURN JUMPDEST PUSH1 0x8 PUSH1 0x20 MSTORE DUP1 PUSH1 0x0 MSTORE PUSH1 0x40 PUSH1 0x0 KECCAK256 PUSH1 0x0 SWAP2 POP SWAP1 POP SLOAD DUP2 JUMP JUMPDEST PUSH1 0x3 PUSH1 0x0 SWAP1 SLOAD SWAP1 PUSH2 0x100 EXP SWAP1 DIV PUSH1 0xFF AND PUSH2 0x95B JUMPI PUSH1 0x40 MLOAD PUSH32 0x8C379A000000000000000000000000000000000000000000000000000000000 DUP2 MSTORE PUSH1 0x4 ADD PUSH2 0x952 SWAP1 PUSH2 0x321C JUMP JUMPDEST PUSH1 0x40 MLOAD DUP1 SWAP2 SUB SWAP1 REVERT JUMPDEST PUSH1 0x0 DUP1 PUSH1 0x0 CALLER PUSH20 0xFFFFFFFFFFFFFFFFFFFFFFFFFFFFFFFFFFFFFFFF AND PUSH20 0xFFFFFFFFFFFFFFFFFFFFFFFFFFFFFFFFFFFFFFFF AND DUP2 MSTORE PUSH1 0x20 ADD SWAP1 DUP2 MSTORE PUSH1 0x20 ADD PUSH1 0x0 KECCAK256 SWAP1 POP DUP1 PUSH1 0x3 ADD PUSH1 0x0 SWAP1 SLOAD SWAP1 PUSH2 0x100 EXP SWAP1 DIV PUSH1 0xFF AND PUSH2 0x9EE JUMPI PUSH1 0x40 MLOAD PUSH32 0x8C379A000000000000000000000000000000000000000000000000000000000 DUP2 MSTORE PUSH1 0x4 ADD PUSH2 0x9E5 SWAP1 PUSH2 0x3288 JUMP JUMPDEST PUSH1 0x40 MLOAD DUP1 SWAP2 SUB SWAP1 REVERT JUMPDEST DUP1 PUSH1 0x3 ADD PUSH1 0x2 SWAP1 SLOAD SWAP1 PUSH2 0x100 EXP SWAP1 DIV PUSH1 0xFF AND ISZERO PUSH2 0xA40 JUMPI PUSH1 0x40 MLOAD PUSH32 0x8C379A000000000000000000000000000000000000000000000000000000000 DUP2 MSTORE PUSH1 0x4 ADD PUSH2 0xA37 SWAP1 PUSH2 0x32F4 JUMP JUMPDEST PUSH1 0x40 MLOAD DUP1 SWAP2 SUB SWAP1 REVERT JUMPDEST PUSH1 0x3 PUSH1 0x1 SWAP1 SLOAD SWAP1 PUSH2 0x100 EXP SWAP1 DIV PUSH1 0xFF AND ISZERO PUSH2 0xB0A JUMPI PUSH1 0x0 PUSH1 0x2 PUSH1 0x4 SLOAD DUP2 SLOAD DUP2 LT PUSH2 0xA6D JUMPI PUSH2 0xA6C PUSH2 0x3314 JUMP JUMPDEST JUMPDEST SWAP1 PUSH1 0x0 MSTORE PUSH1 0x20 PUSH1 0x0 KECCAK256 ADD PUSH1 0x0 SWAP1 SLOAD SWAP1 PUSH2 0x100 EXP SWAP1 DIV PUSH20 0xFFFFFFFFFFFFFFFFFFFFFFFFFFFFFFFFFFFFFFFF AND SWAP1 POP DUP1 PUSH20 0xFFFFFFFFFFFFFFFFFFFFFFFFFFFFFFFFFFFFFFFF AND CALLER PUSH20 0xFFFFFFFFFFFFFFFFFFFFFFFFFFFFFFFFFFFFFFFF AND SUB PUSH2 0xB08 JUMPI PUSH1 0x40 MLOAD PUSH32 0x8C379A000000000000000000000000000000000000000000000000000000000 DUP2 MSTORE PUSH1 0x4 ADD PUSH2 0xAFF SWAP1 PUSH2 0x338F JUMP JUMPDEST PUSH1 0x40 MLOAD DUP1 SWAP2 SUB SWAP1 REVERT JUMPDEST POP JUMPDEST DUP1 PUSH1 0x3 ADD PUSH1 0x4 SWAP1 SLOAD SWAP1 PUSH2 0x100 EXP SWAP1 DIV PUSH1 0xFF AND ISZERO PUSH2 0xB5C JUMPI PUSH1 0x40 MLOAD PUSH32 0x8C379A000000000000000000000000000000000000000000000000000000000 DUP2 MSTORE PUSH1 0x4 ADD PUSH2 0xB53 SWAP1 PUSH2 0x33FB JUMP JUMPDEST PUSH1 0x40 MLOAD DUP1 SWAP2 SUB SWAP1 REVERT JUMPDEST DUP1 PUSH1 0x3 ADD PUSH1 0x3 SWAP1 SLOAD SWAP1 PUSH2 0x100 EXP SWAP1 DIV PUSH1 0xFF AND ISZERO PUSH2 0xBAE JUMPI PUSH1 0x40 MLOAD PUSH32 0x8C379A000000000000000000000000000000000000000000000000000000000 DUP2 MSTORE PUSH1 0x4 ADD PUSH2 0xBA5 SWAP1 PUSH2 0x3467 JUMP JUMPDEST PUSH1 0x40 MLOAD DUP1 SWAP2 SUB SWAP1 REVERT JUMPDEST PUSH1 0x0 DUP2 PUSH1 0x3 ADD PUSH1 0x1 SWAP1 SLOAD SWAP1 PUSH2 0x100 EXP SWAP1 DIV PUSH1 0xFF AND ISZERO PUSH2 0xBEF JUMPI PUSH32 0x0 SWAP1 POP PUSH2 0xCCB JUMP JUMPDEST PUSH1 0x0 PUSH2 0x2710 PUSH2 0x7D0 PUSH32 0x0 PUSH2 0xC22 SWAP2 SWAP1 PUSH2 0x34B6 JUMP JUMPDEST PUSH2 0xC2C SWAP2 SWAP1 PUSH2 0x3527 JUMP JUMPDEST SWAP1 POP PUSH1 0x0 DUP2 PUSH32 0x0 PUSH2 0xC5C SWAP2 SWAP1 PUSH2 0x3558 JUMP JUMPDEST SWAP1 POP DUP2 PUSH1 0x7 PUSH1 0x0 DUP3 DUP3 SLOAD PUSH2 0xC70 SWAP2 SWAP1 PUSH2 0x358C JUMP JUMPDEST SWAP3 POP POP DUP2 SWAP1 SSTORE POP CALLER PUSH20 0xFFFFFFFFFFFFFFFFFFFFFFFFFFFFFFFFFFFFFFFF AND PUSH32 0x1FB16DD9688950CB1ED4E1EF4EB31EF7AA2B66802A519A8936389E4E6E4B0D71 DUP4 PUSH1 0x40 MLOAD PUSH2 0xCBD SWAP2 SWAP1 PUSH2 0x360C JUMP JUMPDEST PUSH1 0x40 MLOAD DUP1 SWAP2 SUB SWAP1 LOG2 DUP1 SWAP3 POP POP POP JUMPDEST PUSH1 0x1 DUP3 PUSH1 0x3 ADD PUSH1 0x2 PUSH2 0x100 EXP DUP2 SLOAD DUP2 PUSH1 0xFF MUL NOT AND SWAP1 DUP4 ISZERO ISZERO MUL OR SWAP1 SSTORE POP PUSH1 0x0 CALLER PUSH20 0xFFFFFFFFFFFFFFFFFFFFFFFFFFFFFFFFFFFFFFFF AND DUP3 PUSH1 0x40 MLOAD PUSH2 0xD0E SWAP1 PUSH2 0x366B JUMP JUMPDEST PUSH1 0x0 PUSH1 0x40 MLOAD DUP1 DUP4 SUB DUP2 DUP6 DUP8 GAS CALL SWAP3 POP POP POP RETURNDATASIZE DUP1 PUSH1 0x0 DUP2 EQ PUSH2 0xD4B JUMPI PUSH1 0x40 MLOAD SWAP2 POP PUSH1 0x1F NOT PUSH1 0x3F RETURNDATASIZE ADD AND DUP3 ADD PUSH1 0x40 MSTORE RETURNDATASIZE DUP3 MSTORE RETURNDATASIZE PUSH1 0x0 PUSH1 0x20 DUP5 ADD RETURNDATACOPY PUSH2 0xD50 JUMP JUMPDEST PUSH1 0x60 SWAP2 POP JUMPDEST POP POP SWAP1 POP DUP1 PUSH2 0xD94 JUMPI PUSH1 0x40 MLOAD PUSH32 0x8C379A000000000000000000000000000000000000000000000000000000000 DUP2 MSTORE PUSH1 0x4 ADD PUSH2 0xD8B SWAP1 PUSH2 0x36CC JUMP JUMPDEST PUSH1 0x40 MLOAD DUP1 SWAP2 SUB SWAP1 REVERT JUMPDEST CALLER PUSH20 0xFFFFFFFFFFFFFFFFFFFFFFFFFFFFFFFFFFFFFFFF AND PUSH32 0x4482101800A5C2E900F4156E57E05E19FFD7B366CDE579553D723FD3ABB2180E DUP4 PUSH1 0x40 MLOAD PUSH2 0xDDA SWAP2 SWAP1 PUSH2 0x2F16 JUMP JUMPDEST PUSH1 0x40 MLOAD DUP1 SWAP2 SUB SWAP1 LOG2 POP POP POP JUMP JUMPDEST PUSH1 0x0 DUP1 PUSH1 0x0 PUSH32 0x0 TIMESTAMP LT PUSH2 0xE1A JUMPI PUSH1 0x0 PUSH2 0xE47 JUMP JUMPDEST TIMESTAMP PUSH32 0x0 PUSH2 0xE46 SWAP2 SWAP1 PUSH2 0x3558 JUMP JUMPDEST JUMPDEST SWAP3 POP PUSH32 0x0 TIMESTAMP LT PUSH2 0xE77 JUMPI PUSH1 0x0 PUSH2 0xEA4 JUMP JUMPDEST TIMESTAMP PUSH32 0x0 PUSH2 0xEA3 SWAP2 SWAP1 PUSH2 0x3558 JUMP JUMPDEST JUMPDEST SWAP2 POP PUSH1 0x3 PUSH1 0x0 SWAP1 SLOAD SWAP1 PUSH2 0x100 EXP SWAP1 DIV PUSH1 0xFF AND DUP1 ISZERO PUSH2 0xECF JUMPI POP PUSH1 0x3 PUSH1 0x2 SWAP1 SLOAD SWAP1 PUSH2 0x100 EXP SWAP1 DIV PUSH1 0xFF AND ISZERO JUMPDEST DUP1 ISZERO PUSH2 0xEE8 JUMPI POP PUSH1 0x3 PUSH1 0x1 SWAP1 SLOAD SWAP1 PUSH2 0x100 EXP SWAP1 DIV PUSH1 0xFF AND ISZERO JUMPDEST DUP1 ISZERO PUSH2 0xEF5 JUMPI POP PUSH1 0x5 SLOAD TIMESTAMP LT JUMPDEST PUSH2 0xF00 JUMPI PUSH1 0x0 PUSH2 0xF0F JUMP JUMPDEST TIMESTAMP PUSH1 0x5 SLOAD PUSH2 0xF0E SWAP2 SWAP1 PUSH2 0x3558 JUMP JUMPDEST JUMPDEST SWAP1 POP SWAP1 SWAP2 SWAP3 JUMP JUMPDEST PUSH1 0x0 DUP4 DUP4 DUP4 ADDRESS PUSH1 0x40 MLOAD PUSH1 0x20 ADD PUSH2 0xF2F SWAP5 SWAP4 SWAP3 SWAP2 SWAP1 PUSH2 0x36EC JUMP JUMPDEST PUSH1 0x40 MLOAD PUSH1 0x20 DUP2 DUP4 SUB SUB DUP2 MSTORE SWAP1 PUSH1 0x40 MSTORE DUP1 MLOAD SWAP1 PUSH1 0x20 ADD KECCAK256 SWAP1 POP SWAP4 SWAP3 POP POP POP JUMP JUMPDEST PUSH1 0xC8 DUP2 JUMP JUMPDEST PUSH1 0x3 PUSH1 0x1 SWAP1 SLOAD SWAP1 PUSH2 0x100 EXP SWAP1 DIV PUSH1 0xFF AND DUP2 JUMP JUMPDEST PUSH1 0xA DUP2 JUMP JUMPDEST PUSH32 0x0 TIMESTAMP LT ISZERO PUSH2 0xFCE JUMPI PUSH1 0x40 MLOAD PUSH32 0x8C379A000000000000000000000000000000000000000000000000000000000 DUP2 MSTORE PUSH1 0x4 ADD PUSH2 0xFC5 SWAP1 PUSH2 0x377D JUMP JUMPDEST PUSH1 0x40 MLOAD DUP1 SWAP2 SUB SWAP1 REVERT JUMPDEST PUSH32 0x0 TIMESTAMP LT PUSH2 0x1030 JUMPI PUSH1 0x40 MLOAD PUSH32 0x8C379A000000000000000000000000000000000000000000000000000000000 DUP2 MSTORE PUSH1 0x4 ADD PUSH2 0x1027 SWAP1 PUSH2 0x37E9 JUMP JUMPDEST PUSH1 0x40 MLOAD DUP1 SWAP2 SUB SWAP1 REVERT JUMPDEST PUSH1 0x0 DUP1 PUSH1 0x0 CALLER PUSH20 0xFFFFFFFFFFFFFFFFFFFFFFFFFFFFFFFFFFFFFFFF AND PUSH20 0xFFFFFFFFFFFFFFFFFFFFFFFFFFFFFFFFFFFFFFFF AND DUP2 MSTORE PUSH1 0x20 ADD SWAP1 DUP2 MSTORE PUSH1 0x20 ADD PUSH1 0x0 KECCAK256 SWAP1 POP DUP1 PUSH1 0x3 ADD PUSH1 0x0 SWAP1 SLOAD SWAP1 PUSH2 0x100 EXP SWAP1 DIV PUSH1 0xFF AND PUSH2 0x10C3 JUMPI PUSH1 0x40 MLOAD PUSH32 0x8C379A000000000000000000000000000000000000000000000000000000000 DUP2 MSTORE PUSH1 0x4 ADD PUSH2 0x10BA SWAP1 PUSH2 0x3288 JUMP JUMPDEST PUSH1 0x40 MLOAD DUP1 SWAP2 SUB SWAP1 REVERT JUMPDEST DUP1 PUSH1 0x3 ADD PUSH1 0x1 SWAP1 SLOAD SWAP1 PUSH2 0x100 EXP SWAP1 DIV PUSH1 0xFF AND ISZERO PUSH2 0x1115 JUMPI PUSH1 0x40 MLOAD PUSH32 0x8C379A000000000000000000000000000000000000000000000000000000000 DUP2 MSTORE PUSH1 0x4 ADD PUSH2 0x110C SWAP1 PUSH2 0x3855 JUMP JUMPDEST PUSH1 0x40 MLOAD DUP1 SWAP2 SUB SWAP1 REVERT JUMPDEST PUSH32 0x0 DUP4 LT ISZERO PUSH2 0x1178 JUMPI PUSH1 0x40 MLOAD PUSH32 0x8C379A000000000000000000000000000000000000000000000000000000000 DUP2 MSTORE PUSH1 0x4 ADD PUSH2 0x116F SWAP1 PUSH2 0x38C1 JUMP JUMPDEST PUSH1 0x40 MLOAD DUP1 SWAP2 SUB SWAP1 REVERT JUMPDEST PUSH1 0x0 DUP4 DUP4 CALLER ADDRESS PUSH1 0x40 MLOAD PUSH1 0x20 ADD PUSH2 0x1191 SWAP5 SWAP4 SWAP3 SWAP2 SWAP1 PUSH2 0x36EC JUMP JUMPDEST PUSH1 0x40 MLOAD PUSH1 0x20 DUP2 DUP4 SUB SUB DUP2 MSTORE SWAP1 PUSH1 0x40 MSTORE DUP1 MLOAD SWAP1 PUSH1 0x20 ADD KECCAK256 SWAP1 POP DUP2 PUSH1 0x0 ADD SLOAD DUP2 EQ PUSH2 0x11EF JUMPI PUSH1 0x40 MLOAD PUSH32 0x8C379A000000000000000000000000000000000000000000000000000000000 DUP2 MSTORE PUSH1 0x4 ADD PUSH2 0x11E6 SWAP1 PUSH2 0x392D JUMP JUMPDEST PUSH1 0x40 MLOAD DUP1 SWAP2 SUB SWAP1 REVERT JUMPDEST PUSH1 0x1 DUP3 PUSH1 0x3 ADD PUSH1 0x1 PUSH2 0x100 EXP DUP2 SLOAD DUP2 PUSH1 0xFF MUL NOT AND SWAP1 DUP4 ISZERO ISZERO MUL OR SWAP1 SSTORE POP DUP4 DUP3 PUSH1 0x2 ADD DUP2 SWAP1 SSTORE POP PUSH2 0x121E CALLER PUSH2 0x2A89 JUMP JUMPDEST CALLER PUSH20 0xFFFFFFFFFFFFFFFFFFFFFFFFFFFFFFFFFFFFFFFF AND PUSH32 0x36CB84E26EC058BA1AADCD698199FA19568D3C52427B175BD593B94CE83F67C0 DUP6 PUSH1 0x40 MLOAD PUSH2 0x1264 SWAP2 SWAP1 PUSH2 0x2F16 JUMP JUMPDEST PUSH1 0x40 MLOAD DUP1 SWAP2 SUB SWAP1 LOG2 POP POP POP POP JUMP JUMPDEST PUSH1 0x7 SLOAD DUP2 JUMP JUMPDEST PUSH32 0x0 TIMESTAMP LT ISZERO PUSH2 0x12DB JUMPI PUSH1 0x40 MLOAD PUSH32 0x8C379A000000000000000000000000000000000000000000000000000000000 DUP2 MSTORE PUSH1 0x4 ADD PUSH2 0x12D2 SWAP1 PUSH2 0x3999 JUMP JUMPDEST PUSH1 0x40 MLOAD DUP1 SWAP2 SUB SWAP1 REVERT JUMPDEST PUSH1 0x3 PUSH1 0x0 SWAP1 SLOAD SWAP1 PUSH2 0x100 EXP SWAP1 DIV PUSH1 0xFF AND ISZERO PUSH2 0x132B JUMPI PUSH1 0x40 MLOAD PUSH32 0x8C379A000000000000000000000000000000000000000000000000000000000 DUP2 MSTORE PUSH1 0x4 ADD PUSH2 0x1322 SWAP1 PUSH2 0x3A05 JUMP JUMPDEST PUSH1 0x40 MLOAD DUP1 SWAP2 SUB SWAP1 REVERT JUMPDEST PUSH1 0x1 PUSH1 0x3 PUSH1 0x0 PUSH2 0x100 EXP DUP2 SLOAD DUP2 PUSH1 0xFF MUL NOT AND SWAP1 DUP4 ISZERO ISZERO MUL OR SWAP1 SSTORE POP PUSH1 0x0 PUSH1 0x2 DUP1 SLOAD SWAP1 POP SUB PUSH2 0x139F JUMPI PUSH1 0x1 PUSH1 0x3 PUSH1 0x2 PUSH2 0x100 EXP DUP2 SLOAD DUP2 PUSH1 0xFF MUL NOT AND SWAP1 DUP4 ISZERO ISZERO MUL OR SWAP1 SSTORE POP PUSH32 0x9427AB050D1CDFF5B941BC297AD5E113728D69972E8C69AA27C13E2D1B63FA19 PUSH1 0x40 MLOAD PUSH1 0x40 MLOAD DUP1 SWAP2 SUB SWAP1 LOG1 PUSH2 0x1568 JUMP JUMPDEST PUSH1 0x0 JUMPDEST PUSH1 0x2 DUP1 SLOAD SWAP1 POP DUP2 LT ISZERO PUSH2 0x1454 JUMPI PUSH1 0x1 PUSH1 0x0 DUP1 PUSH1 0x2 DUP5 DUP2 SLOAD DUP2 LT PUSH2 0x13C8 JUMPI PUSH2 0x13C7 PUSH2 0x3314 JUMP JUMPDEST JUMPDEST SWAP1 PUSH1 0x0 MSTORE PUSH1 0x20 PUSH1 0x0 KECCAK256 ADD PUSH1 0x0 SWAP1 SLOAD SWAP1 PUSH2 0x100 EXP SWAP1 DIV PUSH20 0xFFFFFFFFFFFFFFFFFFFFFFFFFFFFFFFFFFFFFFFF AND PUSH20 0xFFFFFFFFFFFFFFFFFFFFFFFFFFFFFFFFFFFFFFFF AND PUSH20 0xFFFFFFFFFFFFFFFFFFFFFFFFFFFFFFFFFFFFFFFF AND DUP2 MSTORE PUSH1 0x20 ADD SWAP1 DUP2 MSTORE PUSH1 0x20 ADD PUSH1 0x0 KECCAK256 PUSH1 0x3 ADD PUSH1 0x3 PUSH2 0x100 EXP DUP2 SLOAD DUP2 PUSH1 0xFF MUL NOT AND SWAP1 DUP4 ISZERO ISZERO MUL OR SWAP1 SSTORE POP DUP1 DUP1 PUSH1 0x1 ADD SWAP2 POP POP PUSH2 0x13A2 JUMP JUMPDEST POP PUSH1 0x0 PUSH1 0x4 DUP2 SWAP1 SSTORE POP PUSH32 0x0 TIMESTAMP PUSH2 0x1489 SWAP2 SWAP1 PUSH2 0x358C JUMP JUMPDEST PUSH1 0x5 DUP2 SWAP1 SSTORE POP PUSH1 0x0 PUSH1 0x2 PUSH1 0x0 DUP2 SLOAD DUP2 LT PUSH2 0x14A6 JUMPI PUSH2 0x14A5 PUSH2 0x3314 JUMP JUMPDEST JUMPDEST SWAP1 PUSH1 0x0 MSTORE PUSH1 0x20 PUSH1 0x0 KECCAK256 ADD PUSH1 0x0 SWAP1 SLOAD SWAP1 PUSH2 0x100 EXP SWAP1 DIV PUSH20 0xFFFFFFFFFFFFFFFFFFFFFFFFFFFFFFFFFFFFFFFF AND SWAP1 POP DUP1 PUSH20 0xFFFFFFFFFFFFFFFFFFFFFFFFFFFFFFFFFFFFFFFF AND PUSH32 0x616C9469DB50815AE0F1D0A020D9FC9060DA7C57F03559AFB0D4EBDAA0A3A05E PUSH1 0x0 DUP1 DUP5 PUSH20 0xFFFFFFFFFFFFFFFFFFFFFFFFFFFFFFFFFFFFFFFF AND PUSH20 0xFFFFFFFFFFFFFFFFFFFFFFFFFFFFFFFFFFFFFFFF AND DUP2 MSTORE PUSH1 0x20 ADD SWAP1 DUP2 MSTORE PUSH1 0x20 ADD PUSH1 0x0 KECCAK256 PUSH1 0x2 ADD SLOAD PUSH1 0x5 SLOAD PUSH1 0x40 MLOAD PUSH2 0x155E SWAP3 SWAP2 SWAP1 PUSH2 0x3A25 JUMP JUMPDEST PUSH1 0x40 MLOAD DUP1 SWAP2 SUB SWAP1 LOG2 POP JUMPDEST JUMP JUMPDEST PUSH1 0x2 DUP2 DUP2 SLOAD DUP2 LT PUSH2 0x157A JUMPI PUSH1 0x0 DUP1 REVERT JUMPDEST SWAP1 PUSH1 0x0 MSTORE PUSH1 0x20 PUSH1 0x0 KECCAK256 ADD PUSH1 0x0 SWAP2 POP SLOAD SWAP1 PUSH2 0x100 EXP SWAP1 DIV PUSH20 0xFFFFFFFFFFFFFFFFFFFFFFFFFFFFFFFFFFFFFFFF AND DUP2 JUMP JUMPDEST PUSH1 0x0 DUP2 GT PUSH2 0x15EC JUMPI PUSH1 0x40 MLOAD PUSH32 0x8C379A000000000000000000000000000000000000000000000000000000000 DUP2 MSTORE PUSH1 0x4 ADD PUSH2 0x15E3 SWAP1 PUSH2 0x3A9A JUMP JUMPDEST PUSH1 0x40 MLOAD DUP1 SWAP2 SUB SWAP1 REVERT JUMPDEST PUSH1 0x8 PUSH1 0x0 CALLER PUSH20 0xFFFFFFFFFFFFFFFFFFFFFFFFFFFFFFFFFFFFFFFF AND PUSH20 0xFFFFFFFFFFFFFFFFFFFFFFFFFFFFFFFFFFFFFFFF AND DUP2 MSTORE PUSH1 0x20 ADD SWAP1 DUP2 MSTORE PUSH1 0x20 ADD PUSH1 0x0 KECCAK256 SLOAD DUP2 GT ISZERO PUSH2 0x166E JUMPI PUSH1 0x40 MLOAD PUSH32 0x8C379A000000000000000000000000000000000000000000000000000000000 DUP2 MSTORE PUSH1 0x4 ADD PUSH2 0x1665 SWAP1 PUSH2 0x3B06 JUMP JUMPDEST PUSH1 0x40 MLOAD DUP1 SWAP2 SUB SWAP1 REVERT JUMPDEST DUP1 PUSH1 0x8 PUSH1 0x0 CALLER PUSH20 0xFFFFFFFFFFFFFFFFFFFFFFFFFFFFFFFFFFFFFFFF AND PUSH20 0xFFFFFFFFFFFFFFFFFFFFFFFFFFFFFFFFFFFFFFFF AND DUP2 MSTORE PUSH1 0x20 ADD SWAP1 DUP2 MSTORE PUSH1 0x20 ADD PUSH1 0x0 KECCAK256 PUSH1 0x0 DUP3 DUP3 SLOAD PUSH2 0x16BD SWAP2 SWAP1 PUSH2 0x3558 JUMP JUMPDEST SWAP3 POP POP DUP2 SWAP1 SSTORE POP PUSH1 0x0 CALLER PUSH20 0xFFFFFFFFFFFFFFFFFFFFFFFFFFFFFFFFFFFFFFFF AND DUP3 PUSH1 0x40 MLOAD PUSH2 0x16EA SWAP1 PUSH2 0x366B JUMP JUMPDEST PUSH1 0x0 PUSH1 0x40 MLOAD DUP1 DUP4 SUB DUP2 DUP6 DUP8 GAS CALL SWAP3 POP POP POP RETURNDATASIZE DUP1 PUSH1 0x0 DUP2 EQ PUSH2 0x1727 JUMPI PUSH1 0x40 MLOAD SWAP2 POP PUSH1 0x1F NOT PUSH1 0x3F RETURNDATASIZE ADD AND DUP3 ADD PUSH1 0x40 MSTORE RETURNDATASIZE DUP3 MSTORE RETURNDATASIZE PUSH1 0x0 PUSH1 0x20 DUP5 ADD RETURNDATACOPY PUSH2 0x172C JUMP JUMPDEST PUSH1 0x60 SWAP2 POP JUMPDEST POP POP SWAP1 POP DUP1 PUSH2 0x1770 JUMPI PUSH1 0x40 MLOAD PUSH32 0x8C379A000000000000000000000000000000000000000000000000000000000 DUP2 MSTORE PUSH1 0x4 ADD PUSH2 0x1767 SWAP1 PUSH2 0x36CC JUMP JUMPDEST PUSH1 0x40 MLOAD DUP1 SWAP2 SUB SWAP1 REVERT JUMPDEST CALLER PUSH20 0xFFFFFFFFFFFFFFFFFFFFFFFFFFFFFFFFFFFFFFFF AND PUSH32 0x1D3EEE4CA001CFF39EEC6EC7615AACF2F2BD61791273830728BA00CCBD6E1337 DUP4 PUSH1 0x40 MLOAD PUSH2 0x17B6 SWAP2 SWAP1 PUSH2 0x2F16 JUMP JUMPDEST PUSH1 0x40 MLOAD DUP1 SWAP2 SUB SWAP1 LOG2 POP POP JUMP JUMPDEST PUSH32 0x0 DUP2 JUMP JUMPDEST PUSH1 0x5 SLOAD DUP2 JUMP JUMPDEST PUSH32 0x0 PUSH20 0xFFFFFFFFFFFFFFFFFFFFFFFFFFFFFFFFFFFFFFFF AND CALLER PUSH20 0xFFFFFFFFFFFFFFFFFFFFFFFFFFFFFFFFFFFFFFFF AND EQ PUSH2 0x187A JUMPI PUSH1 0x40 MLOAD PUSH32 0x8C379A000000000000000000000000000000000000000000000000000000000 DUP2 MSTORE PUSH1 0x4 ADD PUSH2 0x1871 SWAP1 PUSH2 0x3B72 JUMP JUMPDEST PUSH1 0x40 MLOAD DUP1 SWAP2 SUB SWAP1 REVERT JUMPDEST PUSH1 0x0 DUP2 GT PUSH2 0x18BD JUMPI PUSH1 0x40 MLOAD PUSH32 0x8C379A000000000000000000000000000000000000000000000000000000000 DUP2 MSTORE PUSH1 0x4 ADD PUSH2 0x18B4 SWAP1 PUSH2 0x3A9A JUMP JUMPDEST PUSH1 0x40 MLOAD DUP1 SWAP2 SUB SWAP1 REVERT JUMPDEST PUSH1 0x7 SLOAD DUP2 GT ISZERO PUSH2 0x1902 JUMPI PUSH1 0x40 MLOAD PUSH32 0x8C379A000000000000000000000000000000000000000000000000000000000 DUP2 MSTORE PUSH1 0x4 ADD PUSH2 0x18F9 SWAP1 PUSH2 0x3B06 JUMP JUMPDEST PUSH1 0x40 MLOAD DUP1 SWAP2 SUB SWAP1 REVERT JUMPDEST DUP1 PUSH1 0x7 PUSH1 0x0 DUP3 DUP3 SLOAD PUSH2 0x1914 SWAP2 SWAP1 PUSH2 0x3558 JUMP JUMPDEST SWAP3 POP POP DUP2 SWAP1 SSTORE POP PUSH1 0x0 PUSH32 0x0 PUSH20 0xFFFFFFFFFFFFFFFFFFFFFFFFFFFFFFFFFFFFFFFF AND DUP3 PUSH1 0x40 MLOAD PUSH2 0x1961 SWAP1 PUSH2 0x366B JUMP JUMPDEST PUSH1 0x0 PUSH1 0x40 MLOAD DUP1 DUP4 SUB DUP2 DUP6 DUP8 GAS CALL SWAP3 POP POP POP RETURNDATASIZE DUP1 PUSH1 0x0 DUP2 EQ PUSH2 0x199E JUMPI PUSH1 0x40 MLOAD SWAP2 POP PUSH1 0x1F NOT PUSH1 0x3F RETURNDATASIZE ADD AND DUP3 ADD PUSH1 0x40 MSTORE RETURNDATASIZE DUP3 MSTORE RETURNDATASIZE PUSH1 0x0 PUSH1 0x20 DUP5 ADD RETURNDATACOPY PUSH2 0x19A3 JUMP JUMPDEST PUSH1 0x60 SWAP2 POP JUMPDEST POP POP SWAP1 POP DUP1 PUSH2 0x19E7 JUMPI PUSH1 0x40 MLOAD PUSH32 0x8C379A000000000000000000000000000000000000000000000000000000000 DUP2 MSTORE PUSH1 0x4 ADD PUSH2 0x19DE SWAP1 PUSH2 0x36CC JUMP JUMPDEST PUSH1 0x40 MLOAD DUP1 SWAP2 SUB SWAP1 REVERT JUMPDEST PUSH32 0xE1BA612886C314BAB269521F17316B07E06593A8FBE87C52802306C8C6F77865 DUP3 PUSH1 0x40 MLOAD PUSH2 0x1A16 SWAP2 SWAP1 PUSH2 0x2F16 JUMP JUMPDEST PUSH1 0x40 MLOAD DUP1 SWAP2 SUB SWAP1 LOG1 POP POP JUMP JUMPDEST PUSH2 0x12C DUP2 JUMP JUMPDEST PUSH32 0x0 DUP2 JUMP JUMPDEST PUSH32 0x0 DUP2 JUMP JUMPDEST PUSH32 0x0 DUP2 JUMP JUMPDEST PUSH1 0x0 PUSH1 0x3 PUSH1 0x0 SWAP1 SLOAD SWAP1 PUSH2 0x100 EXP SWAP1 DIV PUSH1 0xFF AND ISZERO DUP1 PUSH2 0x1ABE JUMPI POP PUSH1 0x3 PUSH1 0x2 SWAP1 SLOAD SWAP1 PUSH2 0x100 EXP SWAP1 DIV PUSH1 0xFF AND JUMPDEST DUP1 PUSH2 0x1ACE JUMPI POP PUSH1 0x0 PUSH1 0x2 DUP1 SLOAD SWAP1 POP EQ JUMPDEST ISZERO PUSH2 0x1ADC JUMPI PUSH1 0x0 SWAP1 POP PUSH2 0x1B37 JUMP JUMPDEST PUSH1 0x2 DUP1 SLOAD SWAP1 POP PUSH1 0x4 SLOAD LT PUSH2 0x1AF3 JUMPI PUSH1 0x0 SWAP1 POP PUSH2 0x1B37 JUMP JUMPDEST PUSH1 0x2 PUSH1 0x4 SLOAD DUP2 SLOAD DUP2 LT PUSH2 0x1B09 JUMPI PUSH2 0x1B08 PUSH2 0x3314 JUMP JUMPDEST JUMPDEST SWAP1 PUSH1 0x0 MSTORE PUSH1 0x20 PUSH1 0x0 KECCAK256 ADD PUSH1 0x0 SWAP1 SLOAD SWAP1 PUSH2 0x100 EXP SWAP1 DIV PUSH20 0xFFFFFFFFFFFFFFFFFFFFFFFFFFFFFFFFFFFFFFFF AND SWAP1 POP JUMPDEST SWAP1 JUMP JUMPDEST PUSH1 0x0 PUSH1 0x2 DUP1 SLOAD SWAP1 POP SWAP1 POP SWAP1 JUMP JUMPDEST PUSH32 0x0 DUP2 JUMP JUMPDEST PUSH1 0x3 PUSH1 0x0 SWAP1 SLOAD SWAP1 PUSH2 0x100 EXP SWAP1 DIV PUSH1 0xFF AND DUP2 JUMP JUMPDEST PUSH2 0x7D0 DUP2 JUMP JUMPDEST PUSH2 0x12C DUP2 JUMP JUMPDEST PUSH1 0x0 PUSH1 0x1 DUP1 SLOAD SWAP1 POP SWAP1 POP SWAP1 JUMP JUMPDEST PUSH1 0x4 SLOAD DUP2 JUMP JUMPDEST PUSH32 0x0 DUP2 JUMP JUMPDEST PUSH2 0x12C DUP2 JUMP JUMPDEST PUSH1 0x1 DUP2 DUP2 SLOAD DUP2 LT PUSH2 0x1BD7 JUMPI PUSH1 0x0 DUP1 REVERT JUMPDEST SWAP1 PUSH1 0x0 MSTORE PUSH1 0x20 PUSH1 0x0 KECCAK256 ADD PUSH1 0x0 SWAP2 POP SLOAD SWAP1 PUSH2 0x100 EXP SWAP1 DIV PUSH20 0xFFFFFFFFFFFFFFFFFFFFFFFFFFFFFFFFFFFFFFFF AND DUP2 JUMP JUMPDEST PUSH1 0x3 PUSH1 0x0 SWAP1 SLOAD SWAP1 PUSH2 0x100 EXP SWAP1 DIV PUSH1 0xFF AND PUSH2 0x1C55 JUMPI PUSH1 0x40 MLOAD PUSH32 0x8C379A000000000000000000000000000000000000000000000000000000000 DUP2 MSTORE PUSH1 0x4 ADD PUSH2 0x1C4C SWAP1 PUSH2 0x321C JUMP JUMPDEST PUSH1 0x40 MLOAD DUP1 SWAP2 SUB SWAP1 REVERT JUMPDEST PUSH1 0x3 PUSH1 0x2 SWAP1 SLOAD SWAP1 PUSH2 0x100 EXP SWAP1 DIV PUSH1 0xFF AND ISZERO PUSH2 0x1CA5 JUMPI PUSH1 0x40 MLOAD PUSH32 0x8C379A000000000000000000000000000000000000000000000000000000000 DUP2 MSTORE PUSH1 0x4 ADD PUSH2 0x1C9C SWAP1 PUSH2 0x3BDE JUMP JUMPDEST PUSH1 0x40 MLOAD DUP1 SWAP2 SUB SWAP1 REVERT JUMPDEST PUSH1 0x3 PUSH1 0x1 SWAP1 SLOAD SWAP1 PUSH2 0x100 EXP SWAP1 DIV PUSH1 0xFF AND ISZERO PUSH2 0x1CF5 JUMPI PUSH1 0x40 MLOAD PUSH32 0x8C379A000000000000000000000000000000000000000000000000000000000 DUP2 MSTORE PUSH1 0x4 ADD PUSH2 0x1CEC SWAP1 PUSH2 0x3C4A JUMP JUMPDEST PUSH1 0x40 MLOAD DUP1 SWAP2 SUB SWAP1 REVERT JUMPDEST PUSH1 0x2 DUP1 SLOAD SWAP1 POP PUSH1 0x4 SLOAD LT PUSH2 0x1D3E JUMPI PUSH1 0x40 MLOAD PUSH32 0x8C379A000000000000000000000000000000000000000000000000000000000 DUP2 MSTORE PUSH1 0x4 ADD PUSH2 0x1D35 SWAP1 PUSH2 0x3CB6 JUMP JUMPDEST PUSH1 0x40 MLOAD DUP1 SWAP2 SUB SWAP1 REVERT JUMPDEST PUSH1 0x5 SLOAD TIMESTAMP GT PUSH2 0x1D82 JUMPI PUSH1 0x40 MLOAD PUSH32 0x8C379A000000000000000000000000000000000000000000000000000000000 DUP2 MSTORE PUSH1 0x4 ADD PUSH2 0x1D79 SWAP1 PUSH2 0x3D22 JUMP JUMPDEST PUSH1 0x40 MLOAD DUP1 SWAP2 SUB SWAP1 REVERT JUMPDEST PUSH1 0x0 PUSH1 0x2 PUSH1 0x4 SLOAD DUP2 SLOAD DUP2 LT PUSH2 0x1D9A JUMPI PUSH2 0x1D99 PUSH2 0x3314 JUMP JUMPDEST JUMPDEST SWAP1 PUSH1 0x0 MSTORE PUSH1 0x20 PUSH1 0x0 KECCAK256 ADD PUSH1 0x0 SWAP1 SLOAD SWAP1 PUSH2 0x100 EXP SWAP1 DIV PUSH20 0xFFFFFFFFFFFFFFFFFFFFFFFFFFFFFFFFFFFFFFFF AND SWAP1 POP PUSH1 0x0 DUP1 PUSH1 0x0 DUP4 PUSH20 0xFFFFFFFFFFFFFFFFFFFFFFFFFFFFFFFFFFFFFFFF AND PUSH20 0xFFFFFFFFFFFFFFFFFFFFFFFFFFFFFFFFFFFFFFFF AND DUP2 MSTORE PUSH1 0x20 ADD SWAP1 DUP2 MSTORE PUSH1 0x20 ADD PUSH1 0x0 KECCAK256 SWAP1 POP DUP1 PUSH1 0x3 ADD PUSH1 0x2 SWAP1 SLOAD SWAP1 PUSH2 0x100 EXP SWAP1 DIV PUSH1 0xFF AND ISZERO PUSH2 0x1E5B JUMPI PUSH1 0x40 MLOAD PUSH32 0x8C379A000000000000000000000000000000000000000000000000000000000 DUP2 MSTORE PUSH1 0x4 ADD PUSH2 0x1E52 SWAP1 PUSH2 0x3D8E JUMP JUMPDEST PUSH1 0x40 MLOAD DUP1 SWAP2 SUB SWAP1 REVERT JUMPDEST PUSH1 0x1 DUP2 PUSH1 0x3 ADD PUSH1 0x2 PUSH2 0x100 EXP DUP2 SLOAD DUP2 PUSH1 0xFF MUL NOT AND SWAP1 DUP4 ISZERO ISZERO MUL OR SWAP1 SSTORE POP PUSH1 0x0 DUP2 PUSH1 0x3 ADD PUSH1 0x3 PUSH2 0x100 EXP DUP2 SLOAD DUP2 PUSH1 0xFF MUL NOT AND SWAP1 DUP4 ISZERO ISZERO MUL OR SWAP1 SSTORE POP PUSH1 0x1 DUP2 PUSH1 0x3 ADD PUSH1 0x4 PUSH2 0x100 EXP DUP2 SLOAD DUP2 PUSH1 0xFF MUL NOT AND SWAP1 DUP4 ISZERO ISZERO MUL OR SWAP1 SSTORE POP PUSH1 0x0 PUSH2 0x2710 PUSH2 0x1F4 PUSH32 0x0 PUSH2 0x1EE5 SWAP2 SWAP1 PUSH2 0x34B6 JUMP JUMPDEST PUSH2 0x1EEF SWAP2 SWAP1 PUSH2 0x3527 JUMP JUMPDEST SWAP1 POP PUSH1 0x0 DUP2 PUSH32 0x0 PUSH2 0x1F1F SWAP2 SWAP1 PUSH2 0x3558 JUMP JUMPDEST SWAP1 POP DUP2 PUSH1 0x8 PUSH1 0x0 CALLER PUSH20 0xFFFFFFFFFFFFFFFFFFFFFFFFFFFFFFFFFFFFFFFF AND PUSH20 0xFFFFFFFFFFFFFFFFFFFFFFFFFFFFFFFFFFFFFFFF AND DUP2 MSTORE PUSH1 0x20 ADD SWAP1 DUP2 MSTORE PUSH1 0x20 ADD PUSH1 0x0 KECCAK256 PUSH1 0x0 DUP3 DUP3 SLOAD PUSH2 0x1F70 SWAP2 SWAP1 PUSH2 0x358C JUMP JUMPDEST SWAP3 POP POP DUP2 SWAP1 SSTORE POP DUP1 PUSH1 0x7 PUSH1 0x0 DUP3 DUP3 SLOAD PUSH2 0x1F89 SWAP2 SWAP1 PUSH2 0x358C JUMP JUMPDEST SWAP3 POP POP DUP2 SWAP1 SSTORE POP CALLER PUSH20 0xFFFFFFFFFFFFFFFFFFFFFFFFFFFFFFFFFFFFFFFF AND PUSH32 0x578AFAB8065B30A5E9827120E4905B8A1810E180D2F793CA54AF6F7633F4E57A DUP4 PUSH1 0x40 MLOAD PUSH2 0x1FD6 SWAP2 SWAP1 PUSH2 0x2F16 JUMP JUMPDEST PUSH1 0x40 MLOAD DUP1 SWAP2 SUB SWAP1 LOG2 DUP4 PUSH20 0xFFFFFFFFFFFFFFFFFFFFFFFFFFFFFFFFFFFFFFFF AND PUSH32 0x1FB16DD9688950CB1ED4E1EF4EB31EF7AA2B66802A519A8936389E4E6E4B0D71 PUSH32 0x0 PUSH1 0x40 MLOAD PUSH2 0x2044 SWAP2 SWAP1 PUSH2 0x3DFA JUMP JUMPDEST PUSH1 0x40 MLOAD DUP1 SWAP2 SUB SWAP1 LOG2 PUSH1 0x1 PUSH1 0x6 PUSH1 0x0 DUP3 DUP3 SLOAD PUSH2 0x205F SWAP2 SWAP1 PUSH2 0x358C JUMP JUMPDEST SWAP3 POP POP DUP2 SWAP1 SSTORE POP PUSH1 0x1 PUSH1 0x4 PUSH1 0x0 DUP3 DUP3 SLOAD PUSH2 0x2079 SWAP2 SWAP1 PUSH2 0x358C JUMP JUMPDEST SWAP3 POP POP DUP2 SWAP1 SSTORE POP PUSH1 0x0 PUSH1 0x2 DUP1 SLOAD SWAP1 POP PUSH1 0x4 SLOAD LT ISZERO SWAP1 POP PUSH1 0x0 DUP1 PUSH32 0x0 EQ ISZERO DUP1 ISZERO PUSH2 0x20E3 JUMPI POP PUSH32 0x0 PUSH1 0x6 SLOAD LT ISZERO JUMPDEST SWAP1 POP DUP2 DUP1 PUSH2 0x20EE JUMPI POP DUP1 JUMPDEST ISZERO PUSH2 0x214F JUMPI PUSH1 0x1 PUSH1 0x3 PUSH1 0x2 PUSH2 0x100 EXP DUP2 SLOAD DUP2 PUSH1 0xFF MUL NOT AND SWAP1 DUP4 ISZERO ISZERO MUL OR SWAP1 SSTORE POP PUSH2 0x2118 PUSH1 0x0 PUSH2 0x2D74 JUMP JUMPDEST PUSH32 0x9427AB050D1CDFF5B941BC297AD5E113728D69972E8C69AA27C13E2D1B63FA19 PUSH1 0x40 MLOAD PUSH1 0x40 MLOAD DUP1 SWAP2 SUB SWAP1 LOG1 POP POP POP POP POP POP PUSH2 0x2265 JUMP JUMPDEST PUSH32 0x0 TIMESTAMP PUSH2 0x217B SWAP2 SWAP1 PUSH2 0x358C JUMP JUMPDEST PUSH1 0x5 DUP2 SWAP1 SSTORE POP PUSH1 0x0 PUSH1 0x2 PUSH1 0x4 SLOAD DUP2 SLOAD DUP2 LT PUSH2 0x2199 JUMPI PUSH2 0x2198 PUSH2 0x3314 JUMP JUMPDEST JUMPDEST SWAP1 PUSH1 0x0 MSTORE PUSH1 0x20 PUSH1 0x0 KECCAK256 ADD PUSH1 0x0 SWAP1 SLOAD SWAP1 PUSH2 0x100 EXP SWAP1 DIV PUSH20 0xFFFFFFFFFFFFFFFFFFFFFFFFFFFFFFFFFFFFFFFF AND SWAP1 POP DUP1 PUSH20 0xFFFFFFFFFFFFFFFFFFFFFFFFFFFFFFFFFFFFFFFF AND PUSH32 0x6A05C8DE3F1F9F35B92C0552A95C5FA9328CC1854919EC31893524194DC6EB46 PUSH1 0x0 DUP1 DUP5 PUSH20 0xFFFFFFFFFFFFFFFFFFFFFFFFFFFFFFFFFFFFFFFF AND PUSH20 0xFFFFFFFFFFFFFFFFFFFFFFFFFFFFFFFFFFFFFFFF AND DUP2 MSTORE PUSH1 0x20 ADD SWAP1 DUP2 MSTORE PUSH1 0x20 ADD PUSH1 0x0 KECCAK256 PUSH1 0x2 ADD SLOAD PUSH1 0x5 SLOAD PUSH1 0x6 SLOAD PUSH1 0x40 MLOAD PUSH2 0x2255 SWAP4 SWAP3 SWAP2 SWAP1 PUSH2 0x2F31 JUMP JUMPDEST PUSH1 0x40 MLOAD DUP1 SWAP2 SUB SWAP1 LOG2 POP POP POP POP POP POP POP JUMPDEST JUMP JUMPDEST PUSH8 0x8AC7230489E80000 DUP2 JUMP JUMPDEST PUSH7 0x38D7EA4C68000 DUP2 JUMP JUMPDEST PUSH1 0x3 PUSH1 0x0 SWAP1 SLOAD SWAP1 PUSH2 0x100 EXP SWAP1 DIV PUSH1 0xFF AND PUSH2 0x22CD JUMPI PUSH1 0x40 MLOAD PUSH32 0x8C379A000000000000000000000000000000000000000000000000000000000 DUP2 MSTORE PUSH1 0x4 ADD PUSH2 0x22C4 SWAP1 PUSH2 0x321C JUMP JUMPDEST PUSH1 0x40 MLOAD DUP1 SWAP2 SUB SWAP1 REVERT JUMPDEST PUSH1 0x3 PUSH1 0x2 SWAP1 SLOAD SWAP1 PUSH2 0x100 EXP SWAP1 DIV PUSH1 0xFF AND ISZERO PUSH2 0x231D JUMPI PUSH1 0x40 MLOAD PUSH32 0x8C379A000000000000000000000000000000000000000000000000000000000 DUP2 MSTORE PUSH1 0x4 ADD PUSH2 0x2314 SWAP1 PUSH2 0x3E74 JUMP JUMPDEST PUSH1 0x40 MLOAD DUP1 SWAP2 SUB SWAP1 REVERT JUMPDEST PUSH1 0x3 PUSH1 0x1 SWAP1 SLOAD SWAP1 PUSH2 0x100 EXP SWAP1 DIV PUSH1 0xFF AND ISZERO PUSH2 0x236D JUMPI PUSH1 0x40 MLOAD PUSH32 0x8C379A000000000000000000000000000000000000000000000000000000000 DUP2 MSTORE PUSH1 0x4 ADD PUSH2 0x2364 SWAP1 PUSH2 0x3C4A JUMP JUMPDEST PUSH1 0x40 MLOAD DUP1 SWAP2 SUB SWAP1 REVERT JUMPDEST PUSH1 0x2 DUP1 SLOAD SWAP1 POP PUSH1 0x4 SLOAD LT PUSH2 0x23B6 JUMPI PUSH1 0x40 MLOAD PUSH32 0x8C379A000000000000000000000000000000000000000000000000000000000 DUP2 MSTORE PUSH1 0x4 ADD PUSH2 0x23AD SWAP1 PUSH2 0x3CB6 JUMP JUMPDEST PUSH1 0x40 MLOAD DUP1 SWAP2 SUB SWAP1 REVERT JUMPDEST PUSH1 0x5 SLOAD TIMESTAMP GT ISZERO PUSH2 0x23FB JUMPI PUSH1 0x40 MLOAD PUSH32 0x8C379A000000000000000000000000000000000000000000000000000000000 DUP2 MSTORE PUSH1 0x4 ADD PUSH2 0x23F2 SWAP1 PUSH2 0x3EE0 JUMP JUMPDEST PUSH1 0x40 MLOAD DUP1 SWAP2 SUB SWAP1 REVERT JUMPDEST PUSH1 0x0 PUSH1 0x2 PUSH1 0x4 SLOAD DUP2 SLOAD DUP2 LT PUSH2 0x2413 JUMPI PUSH2 0x2412 PUSH2 0x3314 JUMP JUMPDEST JUMPDEST SWAP1 PUSH1 0x0 MSTORE PUSH1 0x20 PUSH1 0x0 KECCAK256 ADD PUSH1 0x0 SWAP1 SLOAD SWAP1 PUSH2 0x100 EXP SWAP1 DIV PUSH20 0xFFFFFFFFFFFFFFFFFFFFFFFFFFFFFFFFFFFFFFFF AND SWAP1 POP DUP1 PUSH20 0xFFFFFFFFFFFFFFFFFFFFFFFFFFFFFFFFFFFFFFFF AND CALLER PUSH20 0xFFFFFFFFFFFFFFFFFFFFFFFFFFFFFFFFFFFFFFFF AND EQ PUSH2 0x24AE JUMPI PUSH1 0x40 MLOAD PUSH32 0x8C379A000000000000000000000000000000000000000000000000000000000 DUP2 MSTORE PUSH1 0x4 ADD PUSH2 0x24A5 SWAP1 PUSH2 0x3F4C JUMP JUMPDEST PUSH1 0x40 MLOAD DUP1 SWAP2 SUB SWAP1 REVERT JUMPDEST PUSH1 0x0 DUP1 PUSH1 0x0 DUP4 PUSH20 0xFFFFFFFFFFFFFFFFFFFFFFFFFFFFFFFFFFFFFFFF AND PUSH20 0xFFFFFFFFFFFFFFFFFFFFFFFFFFFFFFFFFFFFFFFF AND DUP2 MSTORE PUSH1 0x20 ADD SWAP1 DUP2 MSTORE PUSH1 0x20 ADD PUSH1 0x0 KECCAK256 PUSH1 0x2 ADD SLOAD SWAP1 POP PUSH1 0x0 PUSH32 0x0 DUP3 GT PUSH2 0x2524 JUMPI PUSH1 0x0 PUSH2 0x2551 JUMP JUMPDEST PUSH32 0x0 DUP3 PUSH2 0x2550 SWAP2 SWAP1 PUSH2 0x3558 JUMP JUMPDEST JUMPDEST SWAP1 POP DUP1 CALLVALUE EQ PUSH2 0x2595 JUMPI PUSH1 0x40 MLOAD PUSH32 0x8C379A000000000000000000000000000000000000000000000000000000000 DUP2 MSTORE PUSH1 0x4 ADD PUSH2 0x258C SWAP1 PUSH2 0x3FB8 JUMP JUMPDEST PUSH1 0x40 MLOAD DUP1 SWAP2 SUB SWAP1 REVERT JUMPDEST CALLVALUE PUSH32 0x0 PUSH2 0x25C1 SWAP2 SWAP1 PUSH2 0x358C JUMP JUMPDEST PUSH1 0x7 PUSH1 0x0 DUP3 DUP3 SLOAD PUSH2 0x25D2 SWAP2 SWAP1 PUSH2 0x358C JUMP JUMPDEST SWAP3 POP POP DUP2 SWAP1 SSTORE POP PUSH1 0x1 PUSH1 0x3 PUSH1 0x1 PUSH2 0x100 EXP DUP2 SLOAD DUP2 PUSH1 0xFF MUL NOT AND SWAP1 DUP4 ISZERO ISZERO MUL OR SWAP1 SSTORE POP PUSH2 0x25FD DUP4 PUSH2 0x2D74 JUMP JUMPDEST PUSH1 0x1 PUSH1 0x0 DUP1 DUP6 PUSH20 0xFFFFFFFFFFFFFFFFFFFFFFFFFFFFFFFFFFFFFFFF AND PUSH20 0xFFFFFFFFFFFFFFFFFFFFFFFFFFFFFFFFFFFFFFFF AND DUP2 MSTORE PUSH1 0x20 ADD SWAP1 DUP2 MSTORE PUSH1 0x20 ADD PUSH1 0x0 KECCAK256 PUSH1 0x3 ADD PUSH1 0x2 PUSH2 0x100 EXP DUP2 SLOAD DUP2 PUSH1 0xFF MUL NOT AND SWAP1 DUP4 ISZERO ISZERO MUL OR SWAP1 SSTORE POP DUP3 PUSH20 0xFFFFFFFFFFFFFFFFFFFFFFFFFFFFFFFFFFFFFFFF AND PUSH32 0x8CBBE5CD65720098FC8CE6E99A5DEB232085117DD486475B49CB11604B528F30 CALLVALUE PUSH32 0x0 PUSH2 0x26BB SWAP2 SWAP1 PUSH2 0x358C JUMP JUMPDEST PUSH1 0x40 MLOAD PUSH2 0x26C8 SWAP2 SWAP1 PUSH2 0x2F16 JUMP JUMPDEST PUSH1 0x40 MLOAD DUP1 SWAP2 SUB SWAP1 LOG2 POP POP POP JUMP JUMPDEST PUSH2 0x1F4 DUP2 JUMP JUMPDEST PUSH32 0x0 TIMESTAMP LT PUSH2 0x273D JUMPI PUSH1 0x40 MLOAD PUSH32 0x8C379A000000000000000000000000000000000000000000000000000000000 DUP2 MSTORE PUSH1 0x4 ADD PUSH2 0x2734 SWAP1 PUSH2 0x4024 JUMP JUMPDEST PUSH1 0x40 MLOAD DUP1 SWAP2 SUB SWAP1 REVERT JUMPDEST PUSH1 0x0 DUP1 SHL DUP2 SUB PUSH2 0x2782 JUMPI PUSH1 0x40 MLOAD PUSH32 0x8C379A000000000000000000000000000000000000000000000000000000000 DUP2 MSTORE PUSH1 0x4 ADD PUSH2 0x2779 SWAP1 PUSH2 0x4090 JUMP JUMPDEST PUSH1 0x40 MLOAD DUP1 SWAP2 SUB SWAP1 REVERT JUMPDEST PUSH32 0x0 PUSH1 0x1 DUP1 SLOAD SWAP1 POP LT PUSH2 0x27E9 JUMPI PUSH1 0x40 MLOAD PUSH32 0x8C379A000000000000000000000000000000000000000000000000000000000 DUP2 MSTORE PUSH1 0x4 ADD PUSH2 0x27E0 SWAP1 PUSH2 0x40FC JUMP JUMPDEST PUSH1 0x40 MLOAD DUP1 SWAP2 SUB SWAP1 REVERT JUMPDEST PUSH32 0x0 CALLVALUE EQ PUSH2 0x284B JUMPI PUSH1 0x40 MLOAD PUSH32 0x8C379A000000000000000000000000000000000000000000000000000000000 DUP2 MSTORE PUSH1 0x4 ADD PUSH2 0x2842 SWAP1 PUSH2 0x4168 JUMP JUMPDEST PUSH1 0x40 MLOAD DUP1 SWAP2 SUB SWAP1 REVERT JUMPDEST PUSH1 0x0 DUP1 PUSH1 0x0 CALLER PUSH20 0xFFFFFFFFFFFFFFFFFFFFFFFFFFFFFFFFFFFFFFFF AND PUSH20 0xFFFFFFFFFFFFFFFFFFFFFFFFFFFFFFFFFFFFFFFF AND DUP2 MSTORE PUSH1 0x20 ADD SWAP1 DUP2 MSTORE PUSH1 0x20 ADD PUSH1 0x0 KECCAK256 SWAP1 POP DUP1 PUSH1 0x3 ADD PUSH1 0x0 SWAP1 SLOAD SWAP1 PUSH2 0x100 EXP SWAP1 DIV PUSH1 0xFF AND ISZERO PUSH2 0x28DF JUMPI PUSH1 0x40 MLOAD PUSH32 0x8C379A000000000000000000000000000000000000000000000000000000000 DUP2 MSTORE PUSH1 0x4 ADD PUSH2 0x28D6 SWAP1 PUSH2 0x41D4 JUMP JUMPDEST PUSH1 0x40 MLOAD DUP1 SWAP2 SUB SWAP1 REVERT JUMPDEST DUP2 DUP2 PUSH1 0x0 ADD DUP2 SWAP1 SSTORE POP TIMESTAMP DUP2 PUSH1 0x1 ADD DUP2 SWAP1 SSTORE POP PUSH1 0x1 DUP2 PUSH1 0x3 ADD PUSH1 0x0 PUSH2 0x100 EXP DUP2 SLOAD DUP2 PUSH1 0xFF MUL NOT AND SWAP1 DUP4 ISZERO ISZERO MUL OR SWAP1 SSTORE POP PUSH1 0x1 CALLER SWAP1 DUP1 PUSH1 0x1 DUP2 SLOAD ADD DUP1 DUP3 SSTORE DUP1 SWAP2 POP POP PUSH1 0x1 SWAP1 SUB SWAP1 PUSH1 0x0 MSTORE PUSH1 0x20 PUSH1 0x0 KECCAK256 ADD PUSH1 0x0 SWAP1 SWAP2 SWAP1 SWAP2 SWAP1 SWAP2 PUSH2 0x100 EXP DUP2 SLOAD DUP2 PUSH20 0xFFFFFFFFFFFFFFFFFFFFFFFFFFFFFFFFFFFFFFFF MUL NOT AND SWAP1 DUP4 PUSH20 0xFFFFFFFFFFFFFFFFFFFFFFFFFFFFFFFFFFFFFFFF AND MUL OR SWAP1 SSTORE POP CALLER PUSH20 0xFFFFFFFFFFFFFFFFFFFFFFFFFFFFFFFFFFFFFFFF AND PUSH32 0x4D7787535441ABADF1FEB20A4BE6EF748AE9C25C03364E195AFC8BCC8816D980 DUP4 PUSH1 0x40 MLOAD PUSH2 0x29B7 SWAP2 SWAP1 PUSH2 0x302C JUMP JUMPDEST PUSH1 0x40 MLOAD DUP1 SWAP2 SUB SWAP1 LOG2 POP POP JUMP JUMPDEST PUSH1 0x3 PUSH1 0x2 SWAP1 SLOAD SWAP1 PUSH2 0x100 EXP SWAP1 DIV PUSH1 0xFF AND DUP2 JUMP JUMPDEST PUSH32 0x0 DUP2 JUMP JUMPDEST PUSH1 0x6 SLOAD DUP2 JUMP JUMPDEST PUSH1 0x0 PUSH1 0x20 MSTORE DUP1 PUSH1 0x0 MSTORE PUSH1 0x40 PUSH1 0x0 KECCAK256 PUSH1 0x0 SWAP2 POP SWAP1 POP DUP1 PUSH1 0x0 ADD SLOAD SWAP1 DUP1 PUSH1 0x1 ADD SLOAD SWAP1 DUP1 PUSH1 0x2 ADD SLOAD SWAP1 DUP1 PUSH1 0x3 ADD PUSH1 0x0 SWAP1 SLOAD SWAP1 PUSH2 0x100 EXP SWAP1 DIV PUSH1 0xFF AND SWAP1 DUP1 PUSH1 0x3 ADD PUSH1 0x1 SWAP1 SLOAD SWAP1 PUSH2 0x100 EXP SWAP1 DIV PUSH1 0xFF AND SWAP1 DUP1 PUSH1 0x3 ADD PUSH1 0x2 SWAP1 SLOAD SWAP1 PUSH2 0x100 EXP SWAP1 DIV PUSH1 0xFF AND SWAP1 DUP1 PUSH1 0x3 ADD PUSH1 0x3 SWAP1 SLOAD SWAP1 PUSH2 0x100 EXP SWAP1 DIV PUSH1 0xFF AND SWAP1 DUP1 PUSH1 0x3 ADD PUSH1 0x4 SWAP1 SLOAD SWAP1 PUSH2 0x100 EXP SWAP1 DIV PUSH1 0xFF AND SWAP1 POP DUP9 JUMP JUMPDEST PUSH1 0x2 DUP2 SWAP1 DUP1 PUSH1 0x1 DUP2 SLOAD ADD DUP1 DUP3 SSTORE DUP1 SWAP2 POP POP PUSH1 0x1 SWAP1 SUB SWAP1 PUSH1 0x0 MSTORE PUSH1 0x20 PUSH1 0x0 KECCAK256 ADD PUSH1 0x0 SWAP1 SWAP2 SWAP1 SWAP2 SWAP1 SWAP2 PUSH2 0x100 EXP DUP2 SLOAD DUP2 PUSH20 0xFFFFFFFFFFFFFFFFFFFFFFFFFFFFFFFFFFFFFFFF MUL NOT AND SWAP1 DUP4 PUSH20 0xFFFFFFFFFFFFFFFFFFFFFFFFFFFFFFFFFFFFFFFF AND MUL OR SWAP1 SSTORE POP PUSH1 0x0 PUSH1 0x1 PUSH1 0x2 DUP1 SLOAD SWAP1 POP PUSH2 0x2B00 SWAP2 SWAP1 PUSH2 0x3558 JUMP JUMPDEST SWAP1 POP JUMPDEST PUSH1 0x0 DUP2 GT ISZERO PUSH2 0x2D70 JUMPI PUSH1 0x0 PUSH1 0x2 PUSH1 0x1 DUP4 PUSH2 0x2B1D SWAP2 SWAP1 PUSH2 0x3558 JUMP JUMPDEST DUP2 SLOAD DUP2 LT PUSH2 0x2B2E JUMPI PUSH2 0x2B2D PUSH2 0x3314 JUMP JUMPDEST JUMPDEST SWAP1 PUSH1 0x0 MSTORE PUSH1 0x20 PUSH1 0x0 KECCAK256 ADD PUSH1 0x0 SWAP1 SLOAD SWAP1 PUSH2 0x100 EXP SWAP1 DIV PUSH20 0xFFFFFFFFFFFFFFFFFFFFFFFFFFFFFFFFFFFFFFFF AND SWAP1 POP PUSH1 0x0 DUP1 PUSH1 0x0 DUP6 PUSH20 0xFFFFFFFFFFFFFFFFFFFFFFFFFFFFFFFFFFFFFFFF AND PUSH20 0xFFFFFFFFFFFFFFFFFFFFFFFFFFFFFFFFFFFFFFFF AND DUP2 MSTORE PUSH1 0x20 ADD SWAP1 DUP2 MSTORE PUSH1 0x20 ADD PUSH1 0x0 KECCAK256 PUSH1 0x2 ADD SLOAD SWAP1 POP PUSH1 0x0 DUP1 PUSH1 0x0 DUP5 PUSH20 0xFFFFFFFFFFFFFFFFFFFFFFFFFFFFFFFFFFFFFFFF AND PUSH20 0xFFFFFFFFFFFFFFFFFFFFFFFFFFFFFFFFFFFFFFFF AND DUP2 MSTORE PUSH1 0x20 ADD SWAP1 DUP2 MSTORE PUSH1 0x20 ADD PUSH1 0x0 KECCAK256 PUSH1 0x2 ADD SLOAD SWAP1 POP DUP1 DUP3 GT PUSH2 0x2C94 JUMPI DUP1 DUP3 SUB PUSH2 0x2C8B JUMPI PUSH1 0x0 DUP1 DUP5 PUSH20 0xFFFFFFFFFFFFFFFFFFFFFFFFFFFFFFFFFFFFFFFF AND PUSH20 0xFFFFFFFFFFFFFFFFFFFFFFFFFFFFFFFFFFFFFFFF AND DUP2 MSTORE PUSH1 0x20 ADD SWAP1 DUP2 MSTORE PUSH1 0x20 ADD PUSH1 0x0 KECCAK256 PUSH1 0x1 ADD SLOAD PUSH1 0x0 DUP1 DUP8 PUSH20 0xFFFFFFFFFFFFFFFFFFFFFFFFFFFFFFFFFFFFFFFF AND PUSH20 0xFFFFFFFFFFFFFFFFFFFFFFFFFFFFFFFFFFFFFFFF AND DUP2 MSTORE PUSH1 0x20 ADD SWAP1 DUP2 MSTORE PUSH1 0x20 ADD PUSH1 0x0 KECCAK256 PUSH1 0x1 ADD SLOAD LT PUSH2 0x2C86 JUMPI POP POP POP PUSH2 0x2D70 JUMP JUMPDEST PUSH2 0x2C93 JUMP JUMPDEST POP POP POP PUSH2 0x2D70 JUMP JUMPDEST JUMPDEST DUP3 PUSH1 0x2 DUP6 DUP2 SLOAD DUP2 LT PUSH2 0x2CA9 JUMPI PUSH2 0x2CA8 PUSH2 0x3314 JUMP JUMPDEST JUMPDEST SWAP1 PUSH1 0x0 MSTORE PUSH1 0x20 PUSH1 0x0 KECCAK256 ADD PUSH1 0x0 PUSH2 0x100 EXP DUP2 SLOAD DUP2 PUSH20 0xFFFFFFFFFFFFFFFFFFFFFFFFFFFFFFFFFFFFFFFF MUL NOT AND SWAP1 DUP4 PUSH20 0xFFFFFFFFFFFFFFFFFFFFFFFFFFFFFFFFFFFFFFFF AND MUL OR SWAP1 SSTORE POP DUP5 PUSH1 0x2 PUSH1 0x1 DUP7 PUSH2 0x2D01 SWAP2 SWAP1 PUSH2 0x3558 JUMP JUMPDEST DUP2 SLOAD DUP2 LT PUSH2 0x2D12 JUMPI PUSH2 0x2D11 PUSH2 0x3314 JUMP JUMPDEST JUMPDEST SWAP1 PUSH1 0x0 MSTORE PUSH1 0x20 PUSH1 0x0 KECCAK256 ADD PUSH1 0x0 PUSH2 0x100 EXP DUP2 SLOAD DUP2 PUSH20 0xFFFFFFFFFFFFFFFFFFFFFFFFFFFFFFFFFFFFFFFF MUL NOT AND SWAP1 DUP4 PUSH20 0xFFFFFFFFFFFFFFFFFFFFFFFFFFFFFFFFFFFFFFFF AND MUL OR SWAP1 SSTORE POP DUP4 DUP1 PUSH2 0x2D65 SWAP1 PUSH2 0x41F4 JUMP JUMPDEST SWAP5 POP POP POP POP POP PUSH2 0x2B03 JUMP JUMPDEST POP POP JUMP JUMPDEST PUSH1 0x0 JUMPDEST PUSH1 0x2 DUP1 SLOAD SWAP1 POP DUP2 LT ISZERO PUSH2 0x2E69 JUMPI PUSH1 0x0 PUSH1 0x2 DUP3 DUP2 SLOAD DUP2 LT PUSH2 0x2D9A JUMPI PUSH2 0x2D99 PUSH2 0x3314 JUMP JUMPDEST JUMPDEST SWAP1 PUSH1 0x0 MSTORE PUSH1 0x20 PUSH1 0x0 KECCAK256 ADD PUSH1 0x0 SWAP1 SLOAD SWAP1 PUSH2 0x100 EXP SWAP1 DIV PUSH20 0xFFFFFFFFFFFFFFFFFFFFFFFFFFFFFFFFFFFFFFFF AND SWAP1 POP DUP3 PUSH20 0xFFFFFFFFFFFFFFFFFFFFFFFFFFFFFFFFFFFFFFFF AND DUP2 PUSH20 0xFFFFFFFFFFFFFFFFFFFFFFFFFFFFFFFFFFFFFFFF AND SUB PUSH2 0x2E00 JUMPI POP PUSH2 0x2E5C JUMP JUMPDEST PUSH1 0x0 DUP1 PUSH1 0x0 DUP4 PUSH20 0xFFFFFFFFFFFFFFFFFFFFFFFFFFFFFFFFFFFFFFFF AND PUSH20 0xFFFFFFFFFFFFFFFFFFFFFFFFFFFFFFFFFFFFFFFF AND DUP2 MSTORE PUSH1 0x20 ADD SWAP1 DUP2 MSTORE PUSH1 0x20 ADD PUSH1 0x0 KECCAK256 PUSH1 0x3 ADD PUSH1 0x3 PUSH2 0x100 EXP DUP2 SLOAD DUP2 PUSH1 0xFF MUL NOT AND SWAP1 DUP4 ISZERO ISZERO MUL OR SWAP1 SSTORE POP POP JUMPDEST DUP1 DUP1 PUSH1 0x1 ADD SWAP2 POP POP PUSH2 0x2D77 JUMP JUMPDEST POP POP JUMP JUMPDEST PUSH1 0x0 DUP1 REVERT JUMPDEST PUSH1 0x0 PUSH20 0xFFFFFFFFFFFFFFFFFFFFFFFFFFFFFFFFFFFFFFFF DUP3 AND SWAP1 POP SWAP2 SWAP1 POP JUMP JUMPDEST PUSH1 0x0 PUSH2 0x2E9D DUP3 PUSH2 0x2E72 JUMP JUMPDEST SWAP1 POP SWAP2 SWAP1 POP JUMP JUMPDEST PUSH2 0x2EAD DUP2 PUSH2 0x2E92 JUMP JUMPDEST DUP2 EQ PUSH2 0x2EB8 JUMPI PUSH1 0x0 DUP1 REVERT JUMPDEST POP JUMP JUMPDEST PUSH1 0x0 DUP2 CALLDATALOAD SWAP1 POP PUSH2 0x2ECA DUP2 PUSH2 0x2EA4 JUMP JUMPDEST SWAP3 SWAP2 POP POP JUMP JUMPDEST PUSH1 0x0 PUSH1 0x20 DUP3 DUP5 SUB SLT ISZERO PUSH2 0x2EE6 JUMPI PUSH2 0x2EE5 PUSH2 0x2E6D JUMP JUMPDEST JUMPDEST PUSH1 0x0 PUSH2 0x2EF4 DUP5 DUP3 DUP6 ADD PUSH2 0x2EBB JUMP JUMPDEST SWAP2 POP POP SWAP3 SWAP2 POP POP JUMP JUMPDEST PUSH1 0x0 DUP2 SWAP1 POP SWAP2 SWAP1 POP JUMP JUMPDEST PUSH2 0x2F10 DUP2 PUSH2 0x2EFD JUMP JUMPDEST DUP3 MSTORE POP POP JUMP JUMPDEST PUSH1 0x0 PUSH1 0x20 DUP3 ADD SWAP1 POP PUSH2 0x2F2B PUSH1 0x0 DUP4 ADD DUP5 PUSH2 0x2F07 JUMP JUMPDEST SWAP3 SWAP2 POP POP JUMP JUMPDEST PUSH1 0x0 PUSH1 0x60 DUP3 ADD SWAP1 POP PUSH2 0x2F46 PUSH1 0x0 DUP4 ADD DUP7 PUSH2 0x2F07 JUMP JUMPDEST PUSH2 0x2F53 PUSH1 0x20 DUP4 ADD DUP6 PUSH2 0x2F07 JUMP JUMPDEST PUSH2 0x2F60 PUSH1 0x40 DUP4 ADD DUP5 PUSH2 0x2F07 JUMP JUMPDEST SWAP5 SWAP4 POP POP POP POP JUMP JUMPDEST PUSH2 0x2F71 DUP2 PUSH2 0x2EFD JUMP JUMPDEST DUP2 EQ PUSH2 0x2F7C JUMPI PUSH1 0x0 DUP1 REVERT JUMPDEST POP JUMP JUMPDEST PUSH1 0x0 DUP2 CALLDATALOAD SWAP1 POP PUSH2 0x2F8E DUP2 PUSH2 0x2F68 JUMP JUMPDEST SWAP3 SWAP2 POP POP JUMP JUMPDEST PUSH1 0x0 DUP2 SWAP1 POP SWAP2 SWAP1 POP JUMP JUMPDEST PUSH2 0x2FA7 DUP2 PUSH2 0x2F94 JUMP JUMPDEST DUP2 EQ PUSH2 0x2FB2 JUMPI PUSH1 0x0 DUP1 REVERT JUMPDEST POP JUMP JUMPDEST PUSH1 0x0 DUP2 CALLDATALOAD SWAP1 POP PUSH2 0x2FC4 DUP2 PUSH2 0x2F9E JUMP JUMPDEST SWAP3 SWAP2 POP POP JUMP JUMPDEST PUSH1 0x0 DUP1 PUSH1 0x0 PUSH1 0x60 DUP5 DUP7 SUB SLT ISZERO PUSH2 0x2FE3 JUMPI PUSH2 0x2FE2 PUSH2 0x2E6D JUMP JUMPDEST JUMPDEST PUSH1 0x0 PUSH2 0x2FF1 DUP7 DUP3 DUP8 ADD PUSH2 0x2F7F JUMP JUMPDEST SWAP4 POP POP PUSH1 0x20 PUSH2 0x3002 DUP7 DUP3 DUP8 ADD PUSH2 0x2FB5 JUMP JUMPDEST SWAP3 POP POP PUSH1 0x40 PUSH2 0x3013 DUP7 DUP3 DUP8 ADD PUSH2 0x2EBB JUMP JUMPDEST SWAP2 POP POP SWAP3 POP SWAP3 POP SWAP3 JUMP JUMPDEST PUSH2 0x3026 DUP2 PUSH2 0x2F94 JUMP JUMPDEST DUP3 MSTORE POP POP JUMP JUMPDEST PUSH1 0x0 PUSH1 0x20 DUP3 ADD SWAP1 POP PUSH2 0x3041 PUSH1 0x0 DUP4 ADD DUP5 PUSH2 0x301D JUMP JUMPDEST SWAP3 SWAP2 POP POP JUMP JUMPDEST PUSH1 0x0 DUP2 ISZERO ISZERO SWAP1 POP SWAP2 SWAP1 POP JUMP JUMPDEST PUSH2 0x305C DUP2 PUSH2 0x3047 JUMP JUMPDEST DUP3 MSTORE POP POP JUMP JUMPDEST PUSH1 0x0 PUSH1 0x20 DUP3 ADD SWAP1 POP PUSH2 0x3077 PUSH1 0x0 DUP4 ADD DUP5 PUSH2 0x3053 JUMP JUMPDEST SWAP3 SWAP2 POP POP JUMP JUMPDEST PUSH1 0x0 DUP1 PUSH1 0x40 DUP4 DUP6 SUB SLT ISZERO PUSH2 0x3094 JUMPI PUSH2 0x3093 PUSH2 0x2E6D JUMP JUMPDEST JUMPDEST PUSH1 0x0 PUSH2 0x30A2 DUP6 DUP3 DUP7 ADD PUSH2 0x2F7F JUMP JUMPDEST SWAP3 POP POP PUSH1 0x20 PUSH2 0x30B3 DUP6 DUP3 DUP7 ADD PUSH2 0x2FB5 JUMP JUMPDEST SWAP2 POP POP SWAP3 POP SWAP3 SWAP1 POP JUMP JUMPDEST PUSH1 0x0 PUSH1 0x20 DUP3 DUP5 SUB SLT ISZERO PUSH2 0x30D3 JUMPI PUSH2 0x30D2 PUSH2 0x2E6D JUMP JUMPDEST JUMPDEST PUSH1 0x0 PUSH2 0x30E1 DUP5 DUP3 DUP6 ADD PUSH2 0x2F7F JUMP JUMPDEST SWAP2 POP POP SWAP3 SWAP2 POP POP JUMP JUMPDEST PUSH2 0x30F3 DUP2 PUSH2 0x2E92 JUMP JUMPDEST DUP3 MSTORE POP POP JUMP JUMPDEST PUSH1 0x0 PUSH1 0x20 DUP3 ADD SWAP1 POP PUSH2 0x310E PUSH1 0x0 DUP4 ADD DUP5 PUSH2 0x30EA JUMP JUMPDEST SWAP3 SWAP2 POP POP JUMP JUMPDEST PUSH1 0x0 PUSH1 0x20 DUP3 DUP5 SUB SLT ISZERO PUSH2 0x312A JUMPI PUSH2 0x3129 PUSH2 0x2E6D JUMP JUMPDEST JUMPDEST PUSH1 0x0 PUSH2 0x3138 DUP5 DUP3 DUP6 ADD PUSH2 0x2FB5 JUMP JUMPDEST SWAP2 POP POP SWAP3 SWAP2 POP POP JUMP JUMPDEST PUSH1 0x0 PUSH2 0x100 DUP3 ADD SWAP1 POP PUSH2 0x3157 PUSH1 0x0 DUP4 ADD DUP12 PUSH2 0x301D JUMP JUMPDEST PUSH2 0x3164 PUSH1 0x20 DUP4 ADD DUP11 PUSH2 0x2F07 JUMP JUMPDEST PUSH2 0x3171 PUSH1 0x40 DUP4 ADD DUP10 PUSH2 0x2F07 JUMP JUMPDEST PUSH2 0x317E PUSH1 0x60 DUP4 ADD DUP9 PUSH2 0x3053 JUMP JUMPDEST PUSH2 0x318B PUSH1 0x80 DUP4 ADD DUP8 PUSH2 0x3053 JUMP JUMPDEST PUSH2 0x3198 PUSH1 0xA0 DUP4 ADD DUP7 PUSH2 0x3053 JUMP JUMPDEST PUSH2 0x31A5 PUSH1 0xC0 DUP4 ADD DUP6 PUSH2 0x3053 JUMP JUMPDEST PUSH2 0x31B2 PUSH1 0xE0 DUP4 ADD DUP5 PUSH2 0x3053 JUMP JUMPDEST SWAP10 SWAP9 POP POP POP POP POP POP POP POP POP JUMP JUMPDEST PUSH1 0x0 DUP3 DUP3 MSTORE PUSH1 0x20 DUP3 ADD SWAP1 POP SWAP3 SWAP2 POP POP JUMP JUMPDEST PUSH32 0x4E6F2066696E616C697A61646F00000000000000000000000000000000000000 PUSH1 0x0 DUP3 ADD MSTORE POP JUMP JUMPDEST PUSH1 0x0 PUSH2 0x3206 PUSH1 0xD DUP4 PUSH2 0x31BF JUMP JUMPDEST SWAP2 POP PUSH2 0x3211 DUP3 PUSH2 0x31D0 JUMP JUMPDEST PUSH1 0x20 DUP3 ADD SWAP1 POP SWAP2 SWAP1 POP JUMP JUMPDEST PUSH1 0x0 PUSH1 0x20 DUP3 ADD SWAP1 POP DUP2 DUP2 SUB PUSH1 0x0 DUP4 ADD MSTORE PUSH2 0x3235 DUP2 PUSH2 0x31F9 JUMP JUMPDEST SWAP1 POP SWAP2 SWAP1 POP JUMP JUMPDEST PUSH32 0x4E6F207061727469636970617374650000000000000000000000000000000000 PUSH1 0x0 DUP3 ADD MSTORE POP JUMP JUMPDEST PUSH1 0x0 PUSH2 0x3272 PUSH1 0xF DUP4 PUSH2 0x31BF JUMP JUMPDEST SWAP2 POP PUSH2 0x327D DUP3 PUSH2 0x323C JUMP JUMPDEST PUSH1 0x20 DUP3 ADD SWAP1 POP SWAP2 SWAP1 POP JUMP JUMPDEST PUSH1 0x0 PUSH1 0x20 DUP3 ADD SWAP1 POP DUP2 DUP2 SUB PUSH1 0x0 DUP4 ADD MSTORE PUSH2 0x32A1 DUP2 PUSH2 0x3265 JUMP JUMPDEST SWAP1 POP SWAP2 SWAP1 POP JUMP JUMPDEST PUSH32 0x596120726574697261646F2F67657374696F6E61646F00000000000000000000 PUSH1 0x0 DUP3 ADD MSTORE POP JUMP JUMPDEST PUSH1 0x0 PUSH2 0x32DE PUSH1 0x16 DUP4 PUSH2 0x31BF JUMP JUMPDEST SWAP2 POP PUSH2 0x32E9 DUP3 PUSH2 0x32A8 JUMP JUMPDEST PUSH1 0x20 DUP3 ADD SWAP1 POP SWAP2 SWAP1 POP JUMP JUMPDEST PUSH1 0x0 PUSH1 0x20 DUP3 ADD SWAP1 POP DUP2 DUP2 SUB PUSH1 0x0 DUP4 ADD MSTORE PUSH2 0x330D DUP2 PUSH2 0x32D1 JUMP JUMPDEST SWAP1 POP SWAP2 SWAP1 POP JUMP JUMPDEST PUSH32 0x4E487B7100000000000000000000000000000000000000000000000000000000 PUSH1 0x0 MSTORE PUSH1 0x32 PUSH1 0x4 MSTORE PUSH1 0x24 PUSH1 0x0 REVERT JUMPDEST PUSH32 0x47616E61646F72206E6F20726574697261000000000000000000000000000000 PUSH1 0x0 DUP3 ADD MSTORE POP JUMP JUMPDEST PUSH1 0x0 PUSH2 0x3379 PUSH1 0x11 DUP4 PUSH2 0x31BF JUMP JUMPDEST SWAP2 POP PUSH2 0x3384 DUP3 PUSH2 0x3343 JUMP JUMPDEST PUSH1 0x20 DUP3 ADD SWAP1 POP SWAP2 SWAP1 POP JUMP JUMPDEST PUSH1 0x0 PUSH1 0x20 DUP3 ADD SWAP1 POP DUP2 DUP2 SUB PUSH1 0x0 DUP4 ADD MSTORE PUSH2 0x33A8 DUP2 PUSH2 0x336C JUMP JUMPDEST SWAP1 POP SWAP2 SWAP1 POP JUMP JUMPDEST PUSH32 0x44656661756C743A206669616E7A612070657264696461000000000000000000 PUSH1 0x0 DUP3 ADD MSTORE POP JUMP JUMPDEST PUSH1 0x0 PUSH2 0x33E5 PUSH1 0x17 DUP4 PUSH2 0x31BF JUMP JUMPDEST SWAP2 POP PUSH2 0x33F0 DUP3 PUSH2 0x33AF JUMP JUMPDEST PUSH1 0x20 DUP3 ADD SWAP1 POP SWAP2 SWAP1 POP JUMP JUMPDEST PUSH1 0x0 PUSH1 0x20 DUP3 ADD SWAP1 POP DUP2 DUP2 SUB PUSH1 0x0 DUP4 ADD MSTORE PUSH2 0x3414 DUP2 PUSH2 0x33D8 JUMP JUMPDEST SWAP1 POP SWAP2 SWAP1 POP JUMP JUMPDEST PUSH32 0x41756E20626C6F71756561646F202872616E6B696E6729000000000000000000 PUSH1 0x0 DUP3 ADD MSTORE POP JUMP JUMPDEST PUSH1 0x0 PUSH2 0x3451 PUSH1 0x17 DUP4 PUSH2 0x31BF JUMP JUMPDEST SWAP2 POP PUSH2 0x345C DUP3 PUSH2 0x341B JUMP JUMPDEST PUSH1 0x20 DUP3 ADD SWAP1 POP SWAP2 SWAP1 POP JUMP JUMPDEST PUSH1 0x0 PUSH1 0x20 DUP3 ADD SWAP1 POP DUP2 DUP2 SUB PUSH1 0x0 DUP4 ADD MSTORE PUSH2 0x3480 DUP2 PUSH2 0x3444 JUMP JUMPDEST SWAP1 POP SWAP2 SWAP1 POP JUMP JUMPDEST PUSH32 0x4E487B7100000000000000000000000000000000000000000000000000000000 PUSH1 0x0 MSTORE PUSH1 0x11 PUSH1 0x4 MSTORE PUSH1 0x24 PUSH1 0x0 REVERT JUMPDEST PUSH1 0x0 PUSH2 0x34C1 DUP3 PUSH2 0x2EFD JUMP JUMPDEST SWAP2 POP PUSH2 0x34CC DUP4 PUSH2 0x2EFD JUMP JUMPDEST SWAP3 POP DUP3 DUP3 MUL PUSH2 0x34DA DUP2 PUSH2 0x2EFD JUMP JUMPDEST SWAP2 POP DUP3 DUP3 DIV DUP5 EQ DUP4 ISZERO OR PUSH2 0x34F1 JUMPI PUSH2 0x34F0 PUSH2 0x3487 JUMP JUMPDEST JUMPDEST POP SWAP3 SWAP2 POP POP JUMP JUMPDEST PUSH32 0x4E487B7100000000000000000000000000000000000000000000000000000000 PUSH1 0x0 MSTORE PUSH1 0x12 PUSH1 0x4 MSTORE PUSH1 0x24 PUSH1 0x0 REVERT JUMPDEST PUSH1 0x0 PUSH2 0x3532 DUP3 PUSH2 0x2EFD JUMP JUMPDEST SWAP2 POP PUSH2 0x353D DUP4 PUSH2 0x2EFD JUMP JUMPDEST SWAP3 POP DUP3 PUSH2 0x354D JUMPI PUSH2 0x354C PUSH2 0x34F8 JUMP JUMPDEST JUMPDEST DUP3 DUP3 DIV SWAP1 POP SWAP3 SWAP2 POP POP JUMP JUMPDEST PUSH1 0x0 PUSH2 0x3563 DUP3 PUSH2 0x2EFD JUMP JUMPDEST SWAP2 POP PUSH2 0x356E DUP4 PUSH2 0x2EFD JUMP JUMPDEST SWAP3 POP DUP3 DUP3 SUB SWAP1 POP DUP2 DUP2 GT ISZERO PUSH2 0x3586 JUMPI PUSH2 0x3585 PUSH2 0x3487 JUMP JUMPDEST JUMPDEST SWAP3 SWAP2 POP POP JUMP JUMPDEST PUSH1 0x0 PUSH2 0x3597 DUP3 PUSH2 0x2EFD JUMP JUMPDEST SWAP2 POP PUSH2 0x35A2 DUP4 PUSH2 0x2EFD JUMP JUMPDEST SWAP3 POP DUP3 DUP3 ADD SWAP1 POP DUP1 DUP3 GT ISZERO PUSH2 0x35BA JUMPI PUSH2 0x35B9 PUSH2 0x3487 JUMP JUMPDEST JUMPDEST SWAP3 SWAP2 POP POP JUMP JUMPDEST PUSH32 0x646964206E6F742072657665616C000000000000000000000000000000000000 PUSH1 0x0 DUP3 ADD MSTORE POP JUMP JUMPDEST PUSH1 0x0 PUSH2 0x35F6 PUSH1 0xE DUP4 PUSH2 0x31BF JUMP JUMPDEST SWAP2 POP PUSH2 0x3601 DUP3 PUSH2 0x35C0 JUMP JUMPDEST PUSH1 0x20 DUP3 ADD SWAP1 POP SWAP2 SWAP1 POP JUMP JUMPDEST PUSH1 0x0 PUSH1 0x40 DUP3 ADD SWAP1 POP PUSH2 0x3621 PUSH1 0x0 DUP4 ADD DUP5 PUSH2 0x2F07 JUMP JUMPDEST DUP2 DUP2 SUB PUSH1 0x20 DUP4 ADD MSTORE PUSH2 0x3632 DUP2 PUSH2 0x35E9 JUMP JUMPDEST SWAP1 POP SWAP3 SWAP2 POP POP JUMP JUMPDEST PUSH1 0x0 DUP2 SWAP1 POP SWAP3 SWAP2 POP POP JUMP JUMPDEST POP JUMP JUMPDEST PUSH1 0x0 PUSH2 0x3655 PUSH1 0x0 DUP4 PUSH2 0x363A JUMP JUMPDEST SWAP2 POP PUSH2 0x3660 DUP3 PUSH2 0x3645 JUMP JUMPDEST PUSH1 0x0 DUP3 ADD SWAP1 POP SWAP2 SWAP1 POP JUMP JUMPDEST PUSH1 0x0 PUSH2 0x3676 DUP3 PUSH2 0x3648 JUMP JUMPDEST SWAP2 POP DUP2 SWAP1 POP SWAP2 SWAP1 POP JUMP JUMPDEST PUSH32 0x5472616E736665722066616C6C6F000000000000000000000000000000000000 PUSH1 0x0 DUP3 ADD MSTORE POP JUMP JUMPDEST PUSH1 0x0 PUSH2 0x36B6 PUSH1 0xE DUP4 PUSH2 0x31BF JUMP JUMPDEST SWAP2 POP PUSH2 0x36C1 DUP3 PUSH2 0x3680 JUMP JUMPDEST PUSH1 0x20 DUP3 ADD SWAP1 POP SWAP2 SWAP1 POP JUMP JUMPDEST PUSH1 0x0 PUSH1 0x20 DUP3 ADD SWAP1 POP DUP2 DUP2 SUB PUSH1 0x0 DUP4 ADD MSTORE PUSH2 0x36E5 DUP2 PUSH2 0x36A9 JUMP JUMPDEST SWAP1 POP SWAP2 SWAP1 POP JUMP JUMPDEST PUSH1 0x0 PUSH1 0x80 DUP3 ADD SWAP1 POP PUSH2 0x3701 PUSH1 0x0 DUP4 ADD DUP8 PUSH2 0x2F07 JUMP JUMPDEST PUSH2 0x370E PUSH1 0x20 DUP4 ADD DUP7 PUSH2 0x301D JUMP JUMPDEST PUSH2 0x371B PUSH1 0x40 DUP4 ADD DUP6 PUSH2 0x30EA JUMP JUMPDEST PUSH2 0x3728 PUSH1 0x60 DUP4 ADD DUP5 PUSH2 0x30EA JUMP JUMPDEST SWAP6 SWAP5 POP POP POP POP POP JUMP JUMPDEST PUSH32 0x52657665616C206E6F20696E6963696164610000000000000000000000000000 PUSH1 0x0 DUP3 ADD MSTORE POP JUMP JUMPDEST PUSH1 0x0 PUSH2 0x3767 PUSH1 0x12 DUP4 PUSH2 0x31BF JUMP JUMPDEST SWAP2 POP PUSH2 0x3772 DUP3 PUSH2 0x3731 JUMP JUMPDEST PUSH1 0x20 DUP3 ADD SWAP1 POP SWAP2 SWAP1 POP JUMP JUMPDEST PUSH1 0x0 PUSH1 0x20 DUP3 ADD SWAP1 POP DUP2 DUP2 SUB PUSH1 0x0 DUP4 ADD MSTORE PUSH2 0x3796 DUP2 PUSH2 0x375A JUMP JUMPDEST SWAP1 POP SWAP2 SWAP1 POP JUMP JUMPDEST PUSH32 0x52657665616C2063657272616461000000000000000000000000000000000000 PUSH1 0x0 DUP3 ADD MSTORE POP JUMP JUMPDEST PUSH1 0x0 PUSH2 0x37D3 PUSH1 0xE DUP4 PUSH2 0x31BF JUMP JUMPDEST SWAP2 POP PUSH2 0x37DE DUP3 PUSH2 0x379D JUMP JUMPDEST PUSH1 0x20 DUP3 ADD SWAP1 POP SWAP2 SWAP1 POP JUMP JUMPDEST PUSH1 0x0 PUSH1 0x20 DUP3 ADD SWAP1 POP DUP2 DUP2 SUB PUSH1 0x0 DUP4 ADD MSTORE PUSH2 0x3802 DUP2 PUSH2 0x37C6 JUMP JUMPDEST SWAP1 POP SWAP2 SWAP1 POP JUMP JUMPDEST PUSH32 0x596120726576656C617374650000000000000000000000000000000000000000 PUSH1 0x0 DUP3 ADD MSTORE POP JUMP JUMPDEST PUSH1 0x0 PUSH2 0x383F PUSH1 0xC DUP4 PUSH2 0x31BF JUMP JUMPDEST SWAP2 POP PUSH2 0x384A DUP3 PUSH2 0x3809 JUMP JUMPDEST PUSH1 0x20 DUP3 ADD SWAP1 POP SWAP2 SWAP1 POP JUMP JUMPDEST PUSH1 0x0 PUSH1 0x20 DUP3 ADD SWAP1 POP DUP2 DUP2 SUB PUSH1 0x0 DUP4 ADD MSTORE PUSH2 0x386E DUP2 PUSH2 0x3832 JUMP JUMPDEST SWAP1 POP SWAP2 SWAP1 POP JUMP JUMPDEST PUSH32 0x426964203C206669616E7A610000000000000000000000000000000000000000 PUSH1 0x0 DUP3 ADD MSTORE POP JUMP JUMPDEST PUSH1 0x0 PUSH2 0x38AB PUSH1 0xC DUP4 PUSH2 0x31BF JUMP JUMPDEST SWAP2 POP PUSH2 0x38B6 DUP3 PUSH2 0x3875 JUMP JUMPDEST PUSH1 0x20 DUP3 ADD SWAP1 POP SWAP2 SWAP1 POP JUMP JUMPDEST PUSH1 0x0 PUSH1 0x20 DUP3 ADD SWAP1 POP DUP2 DUP2 SUB PUSH1 0x0 DUP4 ADD MSTORE PUSH2 0x38DA DUP2 PUSH2 0x389E JUMP JUMPDEST SWAP1 POP SWAP2 SWAP1 POP JUMP JUMPDEST PUSH32 0x52657665616C20696E76616C69646F0000000000000000000000000000000000 PUSH1 0x0 DUP3 ADD MSTORE POP JUMP JUMPDEST PUSH1 0x0 PUSH2 0x3917 PUSH1 0xF DUP4 PUSH2 0x31BF JUMP JUMPDEST SWAP2 POP PUSH2 0x3922 DUP3 PUSH2 0x38E1 JUMP JUMPDEST PUSH1 0x20 DUP3 ADD SWAP1 POP SWAP2 SWAP1 POP JUMP JUMPDEST PUSH1 0x0 PUSH1 0x20 DUP3 ADD SWAP1 POP DUP2 DUP2 SUB PUSH1 0x0 DUP4 ADD MSTORE PUSH2 0x3946 DUP2 PUSH2 0x390A JUMP JUMPDEST SWAP1 POP SWAP2 SWAP1 POP JUMP JUMPDEST PUSH32 0x52657665616C206E6F207465726D696E61646F00000000000000000000000000 PUSH1 0x0 DUP3 ADD MSTORE POP JUMP JUMPDEST PUSH1 0x0 PUSH2 0x3983 PUSH1 0x13 DUP4 PUSH2 0x31BF JUMP JUMPDEST SWAP2 POP PUSH2 0x398E DUP3 PUSH2 0x394D JUMP JUMPDEST PUSH1 0x20 DUP3 ADD SWAP1 POP SWAP2 SWAP1 POP JUMP JUMPDEST PUSH1 0x0 PUSH1 0x20 DUP3 ADD SWAP1 POP DUP2 DUP2 SUB PUSH1 0x0 DUP4 ADD MSTORE PUSH2 0x39B2 DUP2 PUSH2 0x3976 JUMP JUMPDEST SWAP1 POP SWAP2 SWAP1 POP JUMP JUMPDEST PUSH32 0x59612066696E616C697A61646F00000000000000000000000000000000000000 PUSH1 0x0 DUP3 ADD MSTORE POP JUMP JUMPDEST PUSH1 0x0 PUSH2 0x39EF PUSH1 0xD DUP4 PUSH2 0x31BF JUMP JUMPDEST SWAP2 POP PUSH2 0x39FA DUP3 PUSH2 0x39B9 JUMP JUMPDEST PUSH1 0x20 DUP3 ADD SWAP1 POP SWAP2 SWAP1 POP JUMP JUMPDEST PUSH1 0x0 PUSH1 0x20 DUP3 ADD SWAP1 POP DUP2 DUP2 SUB PUSH1 0x0 DUP4 ADD MSTORE PUSH2 0x3A1E DUP2 PUSH2 0x39E2 JUMP JUMPDEST SWAP1 POP SWAP2 SWAP1 POP JUMP JUMPDEST PUSH1 0x0 PUSH1 0x40 DUP3 ADD SWAP1 POP PUSH2 0x3A3A PUSH1 0x0 DUP4 ADD DUP6 PUSH2 0x2F07 JUMP JUMPDEST PUSH2 0x3A47 PUSH1 0x20 DUP4 ADD DUP5 PUSH2 0x2F07 JUMP JUMPDEST SWAP4 SWAP3 POP POP POP JUMP JUMPDEST PUSH32 0x616D6F756E743D30000000000000000000000000000000000000000000000000 PUSH1 0x0 DUP3 ADD MSTORE POP JUMP JUMPDEST PUSH1 0x0 PUSH2 0x3A84 PUSH1 0x8 DUP4 PUSH2 0x31BF JUMP JUMPDEST SWAP2 POP PUSH2 0x3A8F DUP3 PUSH2 0x3A4E JUMP JUMPDEST PUSH1 0x20 DUP3 ADD SWAP1 POP SWAP2 SWAP1 POP JUMP JUMPDEST PUSH1 0x0 PUSH1 0x20 DUP3 ADD SWAP1 POP DUP2 DUP2 SUB PUSH1 0x0 DUP4 ADD MSTORE PUSH2 0x3AB3 DUP2 PUSH2 0x3A77 JUMP JUMPDEST SWAP1 POP SWAP2 SWAP1 POP JUMP JUMPDEST PUSH32 0x496E737566696369656E74650000000000000000000000000000000000000000 PUSH1 0x0 DUP3 ADD MSTORE POP JUMP JUMPDEST PUSH1 0x0 PUSH2 0x3AF0 PUSH1 0xC DUP4 PUSH2 0x31BF JUMP JUMPDEST SWAP2 POP PUSH2 0x3AFB DUP3 PUSH2 0x3ABA JUMP JUMPDEST PUSH1 0x20 DUP3 ADD SWAP1 POP SWAP2 SWAP1 POP JUMP JUMPDEST PUSH1 0x0 PUSH1 0x20 DUP3 ADD SWAP1 POP DUP2 DUP2 SUB PUSH1 0x0 DUP4 ADD MSTORE PUSH2 0x3B1F DUP2 PUSH2 0x3AE3 JUMP JUMPDEST SWAP1 POP SWAP2 SWAP1 POP JUMP JUMPDEST PUSH32 0x536F6C6F206F776E657200000000000000000000000000000000000000000000 PUSH1 0x0 DUP3 ADD MSTORE POP JUMP JUMPDEST PUSH1 0x0 PUSH2 0x3B5C PUSH1 0xA DUP4 PUSH2 0x31BF JUMP JUMPDEST SWAP2 POP PUSH2 0x3B67 DUP3 PUSH2 0x3B26 JUMP JUMPDEST PUSH1 0x20 DUP3 ADD SWAP1 POP SWAP2 SWAP1 POP JUMP JUMPDEST PUSH1 0x0 PUSH1 0x20 DUP3 ADD SWAP1 POP DUP2 DUP2 SUB PUSH1 0x0 DUP4 ADD MSTORE PUSH2 0x3B8B DUP2 PUSH2 0x3B4F JUMP JUMPDEST SWAP1 POP SWAP2 SWAP1 POP JUMP JUMPDEST PUSH32 0x5961206465736965727461000000000000000000000000000000000000000000 PUSH1 0x0 DUP3 ADD MSTORE POP JUMP JUMPDEST PUSH1 0x0 PUSH2 0x3BC8 PUSH1 0xB DUP4 PUSH2 0x31BF JUMP JUMPDEST SWAP2 POP PUSH2 0x3BD3 DUP3 PUSH2 0x3B92 JUMP JUMPDEST PUSH1 0x20 DUP3 ADD SWAP1 POP SWAP2 SWAP1 POP JUMP JUMPDEST PUSH1 0x0 PUSH1 0x20 DUP3 ADD SWAP1 POP DUP2 DUP2 SUB PUSH1 0x0 DUP4 ADD MSTORE PUSH2 0x3BF7 DUP2 PUSH2 0x3BBB JUMP JUMPDEST SWAP1 POP SWAP2 SWAP1 POP JUMP JUMPDEST PUSH32 0x596120636F6D706C657461646100000000000000000000000000000000000000 PUSH1 0x0 DUP3 ADD MSTORE POP JUMP JUMPDEST PUSH1 0x0 PUSH2 0x3C34 PUSH1 0xD DUP4 PUSH2 0x31BF JUMP JUMPDEST SWAP2 POP PUSH2 0x3C3F DUP3 PUSH2 0x3BFE JUMP JUMPDEST PUSH1 0x20 DUP3 ADD SWAP1 POP SWAP2 SWAP1 POP JUMP JUMPDEST PUSH1 0x0 PUSH1 0x20 DUP3 ADD SWAP1 POP DUP2 DUP2 SUB PUSH1 0x0 DUP4 ADD MSTORE PUSH2 0x3C63 DUP2 PUSH2 0x3C27 JUMP JUMPDEST SWAP1 POP SWAP2 SWAP1 POP JUMP JUMPDEST PUSH32 0x53696E2067616E61646F72000000000000000000000000000000000000000000 PUSH1 0x0 DUP3 ADD MSTORE POP JUMP JUMPDEST PUSH1 0x0 PUSH2 0x3CA0 PUSH1 0xB DUP4 PUSH2 0x31BF JUMP JUMPDEST SWAP2 POP PUSH2 0x3CAB DUP3 PUSH2 0x3C6A JUMP JUMPDEST PUSH1 0x20 DUP3 ADD SWAP1 POP SWAP2 SWAP1 POP JUMP JUMPDEST PUSH1 0x0 PUSH1 0x20 DUP3 ADD SWAP1 POP DUP2 DUP2 SUB PUSH1 0x0 DUP4 ADD MSTORE PUSH2 0x3CCF DUP2 PUSH2 0x3C93 JUMP JUMPDEST SWAP1 POP SWAP2 SWAP1 POP JUMP JUMPDEST PUSH32 0x506C617A6F2061756E2061637469766F00000000000000000000000000000000 PUSH1 0x0 DUP3 ADD MSTORE POP JUMP JUMPDEST PUSH1 0x0 PUSH2 0x3D0C PUSH1 0x10 DUP4 PUSH2 0x31BF JUMP JUMPDEST SWAP2 POP PUSH2 0x3D17 DUP3 PUSH2 0x3CD6 JUMP JUMPDEST PUSH1 0x20 DUP3 ADD SWAP1 POP SWAP2 SWAP1 POP JUMP JUMPDEST PUSH1 0x0 PUSH1 0x20 DUP3 ADD SWAP1 POP DUP2 DUP2 SUB PUSH1 0x0 DUP4 ADD MSTORE PUSH2 0x3D3B DUP2 PUSH2 0x3CFF JUMP JUMPDEST SWAP1 POP SWAP2 SWAP1 POP JUMP JUMPDEST PUSH32 0x59612067657374696F6E61646F00000000000000000000000000000000000000 PUSH1 0x0 DUP3 ADD MSTORE POP JUMP JUMPDEST PUSH1 0x0 PUSH2 0x3D78 PUSH1 0xD DUP4 PUSH2 0x31BF JUMP JUMPDEST SWAP2 POP PUSH2 0x3D83 DUP3 PUSH2 0x3D42 JUMP JUMPDEST PUSH1 0x20 DUP3 ADD SWAP1 POP SWAP2 SWAP1 POP JUMP JUMPDEST PUSH1 0x0 PUSH1 0x20 DUP3 ADD SWAP1 POP DUP2 DUP2 SUB PUSH1 0x0 DUP4 ADD MSTORE PUSH2 0x3DA7 DUP2 PUSH2 0x3D6B JUMP JUMPDEST SWAP1 POP SWAP2 SWAP1 POP JUMP JUMPDEST PUSH32 0x77696E6E657220646964206E6F74207061790000000000000000000000000000 PUSH1 0x0 DUP3 ADD MSTORE POP JUMP JUMPDEST PUSH1 0x0 PUSH2 0x3DE4 PUSH1 0x12 DUP4 PUSH2 0x31BF JUMP JUMPDEST SWAP2 POP PUSH2 0x3DEF DUP3 PUSH2 0x3DAE JUMP JUMPDEST PUSH1 0x20 DUP3 ADD SWAP1 POP SWAP2 SWAP1 POP JUMP JUMPDEST PUSH1 0x0 PUSH1 0x40 DUP3 ADD SWAP1 POP PUSH2 0x3E0F PUSH1 0x0 DUP4 ADD DUP5 PUSH2 0x2F07 JUMP JUMPDEST DUP2 DUP2 SUB PUSH1 0x20 DUP4 ADD MSTORE PUSH2 0x3E20 DUP2 PUSH2 0x3DD7 JUMP JUMPDEST SWAP1 POP SWAP3 SWAP2 POP POP JUMP JUMPDEST PUSH32 0x5375626173746120646573696572746100000000000000000000000000000000 PUSH1 0x0 DUP3 ADD MSTORE POP JUMP JUMPDEST PUSH1 0x0 PUSH2 0x3E5E PUSH1 0x10 DUP4 PUSH2 0x31BF JUMP JUMPDEST SWAP2 POP PUSH2 0x3E69 DUP3 PUSH2 0x3E28 JUMP JUMPDEST PUSH1 0x20 DUP3 ADD SWAP1 POP SWAP2 SWAP1 POP JUMP JUMPDEST PUSH1 0x0 PUSH1 0x20 DUP3 ADD SWAP1 POP DUP2 DUP2 SUB PUSH1 0x0 DUP4 ADD MSTORE PUSH2 0x3E8D DUP2 PUSH2 0x3E51 JUMP JUMPDEST SWAP1 POP SWAP2 SWAP1 POP JUMP JUMPDEST PUSH32 0x506C617A6F20657870697261646F000000000000000000000000000000000000 PUSH1 0x0 DUP3 ADD MSTORE POP JUMP JUMPDEST PUSH1 0x0 PUSH2 0x3ECA PUSH1 0xE DUP4 PUSH2 0x31BF JUMP JUMPDEST SWAP2 POP PUSH2 0x3ED5 DUP3 PUSH2 0x3E94 JUMP JUMPDEST PUSH1 0x20 DUP3 ADD SWAP1 POP SWAP2 SWAP1 POP JUMP JUMPDEST PUSH1 0x0 PUSH1 0x20 DUP3 ADD SWAP1 POP DUP2 DUP2 SUB PUSH1 0x0 DUP4 ADD MSTORE PUSH2 0x3EF9 DUP2 PUSH2 0x3EBD JUMP JUMPDEST SWAP1 POP SWAP2 SWAP1 POP JUMP JUMPDEST PUSH32 0x4E6F206572657320656C2067616E61646F722061637475616C00000000000000 PUSH1 0x0 DUP3 ADD MSTORE POP JUMP JUMPDEST PUSH1 0x0 PUSH2 0x3F36 PUSH1 0x19 DUP4 PUSH2 0x31BF JUMP JUMPDEST SWAP2 POP PUSH2 0x3F41 DUP3 PUSH2 0x3F00 JUMP JUMPDEST PUSH1 0x20 DUP3 ADD SWAP1 POP SWAP2 SWAP1 POP JUMP JUMPDEST PUSH1 0x0 PUSH1 0x20 DUP3 ADD SWAP1 POP DUP2 DUP2 SUB PUSH1 0x0 DUP4 ADD MSTORE PUSH2 0x3F65 DUP2 PUSH2 0x3F29 JUMP JUMPDEST SWAP1 POP SWAP2 SWAP1 POP JUMP JUMPDEST PUSH32 0x43616E746964616420696E636F72726563746100000000000000000000000000 PUSH1 0x0 DUP3 ADD MSTORE POP JUMP JUMPDEST PUSH1 0x0 PUSH2 0x3FA2 PUSH1 0x13 DUP4 PUSH2 0x31BF JUMP JUMPDEST SWAP2 POP PUSH2 0x3FAD DUP3 PUSH2 0x3F6C JUMP JUMPDEST PUSH1 0x20 DUP3 ADD SWAP1 POP SWAP2 SWAP1 POP JUMP JUMPDEST PUSH1 0x0 PUSH1 0x20 DUP3 ADD SWAP1 POP DUP2 DUP2 SUB PUSH1 0x0 DUP4 ADD MSTORE PUSH2 0x3FD1 DUP2 PUSH2 0x3F95 JUMP JUMPDEST SWAP1 POP SWAP2 SWAP1 POP JUMP JUMPDEST PUSH32 0x436F6D6D69742063657272616461000000000000000000000000000000000000 PUSH1 0x0 DUP3 ADD MSTORE POP JUMP JUMPDEST PUSH1 0x0 PUSH2 0x400E PUSH1 0xE DUP4 PUSH2 0x31BF JUMP JUMPDEST SWAP2 POP PUSH2 0x4019 DUP3 PUSH2 0x3FD8 JUMP JUMPDEST PUSH1 0x20 DUP3 ADD SWAP1 POP SWAP2 SWAP1 POP JUMP JUMPDEST PUSH1 0x0 PUSH1 0x20 DUP3 ADD SWAP1 POP DUP2 DUP2 SUB PUSH1 0x0 DUP4 ADD MSTORE PUSH2 0x403D DUP2 PUSH2 0x4001 JUMP JUMPDEST SWAP1 POP SWAP2 SWAP1 POP JUMP JUMPDEST PUSH32 0x436F6D6D69746D656E7420696E76616C69646F00000000000000000000000000 PUSH1 0x0 DUP3 ADD MSTORE POP JUMP JUMPDEST PUSH1 0x0 PUSH2 0x407A PUSH1 0x13 DUP4 PUSH2 0x31BF JUMP JUMPDEST SWAP2 POP PUSH2 0x4085 DUP3 PUSH2 0x4044 JUMP JUMPDEST PUSH1 0x20 DUP3 ADD SWAP1 POP SWAP2 SWAP1 POP JUMP JUMPDEST PUSH1 0x0 PUSH1 0x20 DUP3 ADD SWAP1 POP DUP2 DUP2 SUB PUSH1 0x0 DUP4 ADD MSTORE PUSH2 0x40A9 DUP2 PUSH2 0x406D JUMP JUMPDEST SWAP1 POP SWAP2 SWAP1 POP JUMP JUMPDEST PUSH32 0x53756261737461206C6C656E6100000000000000000000000000000000000000 PUSH1 0x0 DUP3 ADD MSTORE POP JUMP JUMPDEST PUSH1 0x0 PUSH2 0x40E6 PUSH1 0xD DUP4 PUSH2 0x31BF JUMP JUMPDEST SWAP2 POP PUSH2 0x40F1 DUP3 PUSH2 0x40B0 JUMP JUMPDEST PUSH1 0x20 DUP3 ADD SWAP1 POP SWAP2 SWAP1 POP JUMP JUMPDEST PUSH1 0x0 PUSH1 0x20 DUP3 ADD SWAP1 POP DUP2 DUP2 SUB PUSH1 0x0 DUP4 ADD MSTORE PUSH2 0x4115 DUP2 PUSH2 0x40D9 JUMP JUMPDEST SWAP1 POP SWAP2 SWAP1 POP JUMP JUMPDEST PUSH32 0x4465626573207061676172206C61206669616E7A612065786163746100000000 PUSH1 0x0 DUP3 ADD MSTORE POP JUMP JUMPDEST PUSH1 0x0 PUSH2 0x4152 PUSH1 0x1C DUP4 PUSH2 0x31BF JUMP JUMPDEST SWAP2 POP PUSH2 0x415D DUP3 PUSH2 0x411C JUMP JUMPDEST PUSH1 0x20 DUP3 ADD SWAP1 POP SWAP2 SWAP1 POP JUMP JUMPDEST PUSH1 0x0 PUSH1 0x20 DUP3 ADD SWAP1 POP DUP2 DUP2 SUB PUSH1 0x0 DUP4 ADD MSTORE PUSH2 0x4181 DUP2 PUSH2 0x4145 JUMP JUMPDEST SWAP1 POP SWAP2 SWAP1 POP JUMP JUMPDEST PUSH32 0x5961206869636973746520636F6D6D6974000000000000000000000000000000 PUSH1 0x0 DUP3 ADD MSTORE POP JUMP JUMPDEST PUSH1 0x0 PUSH2 0x41BE PUSH1 0x11 DUP4 PUSH2 0x31BF JUMP JUMPDEST SWAP2 POP PUSH2 0x41C9 DUP3 PUSH2 0x4188 JUMP JUMPDEST PUSH1 0x20 DUP3 ADD SWAP1 POP SWAP2 SWAP1 POP JUMP JUMPDEST PUSH1 0x0 PUSH1 0x20 DUP3 ADD SWAP1 POP DUP2 DUP2 SUB PUSH1 0x0 DUP4 ADD MSTORE PUSH2 0x41ED DUP2 PUSH2 0x41B1 JUMP JUMPDEST SWAP1 POP SWAP2 SWAP1 POP JUMP JUMPDEST PUSH1 0x0 PUSH2 0x41FF DUP3 PUSH2 0x2EFD JUMP JUMPDEST SWAP2 POP PUSH1 0x0 DUP3 SUB PUSH2 0x4212 JUMPI PUSH2 0x4211 PUSH2 0x3487 JUMP JUMPDEST JUMPDEST PUSH1 0x1 DUP3 SUB SWAP1 POP SWAP2 SWAP1 POP JUMP INVALID LOG2 PUSH5 0x6970667358 0x22 SLT KECCAK256 PUSH18 0x714615B3C5592E2444E46602D439E1C3B84E 0xE2 0xB2 LOG1 SWAP7 LOG0 PUSH14 0x9192AAA9CA79C964736F6C634300 ADDMOD 0x1E STOP CALLER "
		},
		"gasEstimates": {
			"creation": {
				"codeDepositCost": "3395800",
				"executionCost": "infinite",
				"totalCost": "infinite"
			},
			"external": {
				"ADVANCE_CALLER_BOUNTY_BPS()": "462",
				"MAX_DEPOSIT()": "396",
				"MAX_MAX_BIDDERS()": "464",
				"MIN_COMMIT_DURATION()": "463",
				"MIN_DEPOSIT()": "418",
				"MIN_MAX_BIDDERS()": "397",
				"MIN_PAYMENT_DURATION()": "374",
				"MIN_REVEAL_DURATION()": "440",
				"UNREVEALED_PENALTY_BPS()": "441",
				"advanceWinnerIfUnpaid()": "infinite",
				"auctionDeserted()": "2587",
				"auctionSuccessful()": "2567",
				"bidderList(uint256)": "5089",
				"bidders(address)": "infinite",
				"commit(bytes32)": "infinite",
				"commitDeadline()": "infinite",
				"currentWinner()": "17670",
				"currentWinnerIndex()": "2496",
				"deposit()": "infinite",
				"fallbackCount()": "2539",
				"finalize()": "infinite",
				"finalized()": "2561",
				"getBidderCount()": "2490",
				"getRankedCount()": "2491",
				"hashBid(uint256,bytes32,address)": "infinite",
				"maxBidders()": "infinite",
				"maxFallbacks()": "infinite",
				"owner()": "infinite",
				"ownerProceeds()": "2541",
				"payWinningBid()": "infinite",
				"paymentDeadline()": "2541",
				"paymentDuration()": "infinite",
				"rankedBidders(uint256)": "5002",
				"reveal(uint256,bytes32)": "infinite",
				"revealDeadline()": "infinite",
				"rewards(address)": "2861",
				"timeLeft()": "infinite",
				"withdrawDeposit()": "infinite",
				"withdrawOwnerProceeds(uint256)": "infinite",
				"withdrawReward(uint256)": "infinite"
			},
			"internal": {
				"_insertIntoRanking(address)": "infinite",
				"_unlockAllRankedDepositsExceptWinner(address)": "infinite"
			}
		},
		"methodIdentifiers": {
			"ADVANCE_CALLER_BOUNTY_BPS()": "eaac5564",
			"MAX_DEPOSIT()": "dd5967c3",
			"MAX_MAX_BIDDERS()": "25bd0b9a",
			"MIN_COMMIT_DURATION()": "c3f6afd7",
			"MIN_DEPOSIT()": "e1e158a5",
			"MIN_MAX_BIDDERS()": "3c454e40",
			"MIN_PAYMENT_DURATION()": "7e278310",
			"MIN_REVEAL_DURATION()": "d329db8f",
			"UNREVEALED_PENALTY_BPS()": "b9e42385",
			"advanceWinnerIfUnpaid()": "d4daf77a",
			"auctionDeserted()": "f156b57c",
			"auctionSuccessful()": "36d0054b",
			"bidderList(uint256)": "d3584e84",
			"bidders(address)": "fcc8f793",
			"commit(bytes32)": "f14fcbc8",
			"commitDeadline()": "a2ff0209",
			"currentWinner()": "aabe2fe3",
			"currentWinnerIndex()": "c8a58ab7",
			"deposit()": "d0e30db0",
			"fallbackCount()": "f776bd06",
			"finalize()": "4bb278f3",
			"finalized()": "b3f05b97",
			"getBidderCount()": "c87da02d",
			"getRankedCount()": "ae0ab2ba",
			"hashBid(uint256,bytes32,address)": "176069e9",
			"maxBidders()": "a097f3ac",
			"maxFallbacks()": "f2224795",
			"owner()": "8da5cb5b",
			"ownerProceeds()": "474b7525",
			"payWinningBid()": "e35a70d9",
			"paymentDeadline()": "6d929f23",
			"paymentDuration()": "56845ef7",
			"rankedBidders(uint256)": "4c72e066",
			"reveal(uint256,bytes32)": "4036778f",
			"revealDeadline()": "b14b28a3",
			"rewards(address)": "0700037d",
			"timeLeft()": "1300a6d1",
			"withdrawDeposit()": "117df088",
			"withdrawOwnerProceeds(uint256)": "76b9148f",
			"withdrawReward(uint256)": "523a3f08"
		}
	},
	"abi": [
		{
			"inputs": [
				{
					"internalType": "uint256",
					"name": "_commitDuration",
					"type": "uint256"
				},
				{
					"internalType": "uint256",
					"name": "_revealDuration",
					"type": "uint256"
				},
				{
					"internalType": "uint256",
					"name": "_deposit",
					"type": "uint256"
				},
				{
					"internalType": "uint256",
					"name": "_paymentDuration",
					"type": "uint256"
				},
				{
					"internalType": "uint256",
					"name": "_maxBidders",
					"type": "uint256"
				},
				{
					"internalType": "uint256",
					"name": "_maxFallbacks",
					"type": "uint256"
				}
			],
			"stateMutability": "nonpayable",
			"type": "constructor"
		},
		{
			"anonymous": false,
			"inputs": [
				{
					"indexed": true,
					"internalType": "address",
					"name": "bidder",
					"type": "address"
				},
				{
					"indexed": false,
					"internalType": "bytes32",
					"name": "commitment",
					"type": "bytes32"
				}
			],
			"name": "Committed",
			"type": "event"
		},
		{
			"anonymous": false,
			"inputs": [
				{
					"indexed": true,
					"internalType": "address",
					"name": "bidder",
					"type": "address"
				},
				{
					"indexed": false,
					"internalType": "uint256",
					"name": "amount",
					"type": "uint256"
				},
				{
					"indexed": false,
					"internalType": "string",
					"name": "reason",
					"type": "string"
				}
			],
			"name": "DepositConfiscated",
			"type": "event"
		},
		{
			"anonymous": false,
			"inputs": [
				{
					"indexed": true,
					"internalType": "address",
					"name": "bidder",
					"type": "address"
				},
				{
					"indexed": false,
					"internalType": "uint256",
					"name": "amount",
					"type": "uint256"
				}
			],
			"name": "DepositWithdrawn",
			"type": "event"
		},
		{
			"anonymous": false,
			"inputs": [],
			"name": "Deserted",
			"type": "event"
		},
		{
			"anonymous": false,
			"inputs": [
				{
					"indexed": true,
					"internalType": "address",
					"name": "firstWinner",
					"type": "address"
				},
				{
					"indexed": false,
					"internalType": "uint256",
					"name": "bid",
					"type": "uint256"
				},
				{
					"indexed": false,
					"internalType": "uint256",
					"name": "paymentDeadline",
					"type": "uint256"
				}
			],
			"name": "Finalized",
			"type": "event"
		},
		{
			"anonymous": false,
			"inputs": [
				{
					"indexed": false,
					"internalType": "uint256",
					"name": "amount",
					"type": "uint256"
				}
			],
			"name": "OwnerWithdrawn",
			"type": "event"
		},
		{
			"anonymous": false,
			"inputs": [
				{
					"indexed": true,
					"internalType": "address",
					"name": "bidder",
					"type": "address"
				},
				{
					"indexed": false,
					"internalType": "uint256",
					"name": "bid",
					"type": "uint256"
				}
			],
			"name": "Revealed",
			"type": "event"
		},
		{
			"anonymous": false,
			"inputs": [
				{
					"indexed": true,
					"internalType": "address",
					"name": "caller",
					"type": "address"
				},
				{
					"indexed": false,
					"internalType": "uint256",
					"name": "amount",
					"type": "uint256"
				}
			],
			"name": "RewardAccrued",
			"type": "event"
		},
		{
			"anonymous": false,
			"inputs": [
				{
					"indexed": true,
					"internalType": "address",
					"name": "caller",
					"type": "address"
				},
				{
					"indexed": false,
					"internalType": "uint256",
					"name": "amount",
					"type": "uint256"
				}
			],
			"name": "RewardWithdrawn",
			"type": "event"
		},
		{
			"anonymous": false,
			"inputs": [
				{
					"indexed": true,
					"internalType": "address",
					"name": "newWinner",
					"type": "address"
				},
				{
					"indexed": false,
					"internalType": "uint256",
					"name": "bid",
					"type": "uint256"
				},
				{
					"indexed": false,
					"internalType": "uint256",
					"name": "paymentDeadline",
					"type": "uint256"
				},
				{
					"indexed": false,
					"internalType": "uint256",
					"name": "fallbackCount",
					"type": "uint256"
				}
			],
			"name": "WinnerAdvanced",
			"type": "event"
		},
		{
			"anonymous": false,
			"inputs": [
				{
					"indexed": true,
					"internalType": "address",
					"name": "winner",
					"type": "address"
				},
				{
					"indexed": false,
					"internalType": "uint256",
					"name": "totalPaid",
					"type": "uint256"
				}
			],
			"name": "WinnerPaid",
			"type": "event"
		},
		{
			"inputs": [],
			"name": "ADVANCE_CALLER_BOUNTY_BPS",
			"outputs": [
				{
					"internalType": "uint256",
					"name": "",
					"type": "uint256"
				}
			],
			"stateMutability": "view",
			"type": "function"
		},
		{
			"inputs": [],
			"name": "MAX_DEPOSIT",
			"outputs": [
				{
					"internalType": "uint256",
					"name": "",
					"type": "uint256"
				}
			],
			"stateMutability": "view",
			"type": "function"
		},
		{
			"inputs": [],
			"name": "MAX_MAX_BIDDERS",
			"outputs": [
				{
					"internalType": "uint256",
					"name": "",
					"type": "uint256"
				}
			],
			"stateMutability": "view",
			"type": "function"
		},
		{
			"inputs": [],
			"name": "MIN_COMMIT_DURATION",
			"outputs": [
				{
					"internalType": "uint256",
					"name": "",
					"type": "uint256"
				}
			],
			"stateMutability": "view",
			"type": "function"
		},
		{
			"inputs": [],
			"name": "MIN_DEPOSIT",
			"outputs": [
				{
					"internalType": "uint256",
					"name": "",
					"type": "uint256"
				}
			],
			"stateMutability": "view",
			"type": "function"
		},
		{
			"inputs": [],
			"name": "MIN_MAX_BIDDERS",
			"outputs": [
				{
					"internalType": "uint256",
					"name": "",
					"type": "uint256"
				}
			],
			"stateMutability": "view",
			"type": "function"
		},
		{
			"inputs": [],
			"name": "MIN_PAYMENT_DURATION",
			"outputs": [
				{
					"internalType": "uint256",
					"name": "",
					"type": "uint256"
				}
			],
			"stateMutability": "view",
			"type": "function"
		},
		{
			"inputs": [],
			"name": "MIN_REVEAL_DURATION",
			"outputs": [
				{
					"internalType": "uint256",
					"name": "",
					"type": "uint256"
				}
			],
			"stateMutability": "view",
			"type": "function"
		},
		{
			"inputs": [],
			"name": "UNREVEALED_PENALTY_BPS",
			"outputs": [
				{
					"internalType": "uint256",
					"name": "",
					"type": "uint256"
				}
			],
			"stateMutability": "view",
			"type": "function"
		},
		{
			"inputs": [],
			"name": "advanceWinnerIfUnpaid",
			"outputs": [],
			"stateMutability": "nonpayable",
			"type": "function"
		},
		{
			"inputs": [],
			"name": "auctionDeserted",
			"outputs": [
				{
					"internalType": "bool",
					"name": "",
					"type": "bool"
				}
			],
			"stateMutability": "view",
			"type": "function"
		},
		{
			"inputs": [],
			"name": "auctionSuccessful",
			"outputs": [
				{
					"internalType": "bool",
					"name": "",
					"type": "bool"
				}
			],
			"stateMutability": "view",
			"type": "function"
		},
		{
			"inputs": [
				{
					"internalType": "uint256",
					"name": "",
					"type": "uint256"
				}
			],
			"name": "bidderList",
			"outputs": [
				{
					"internalType": "address",
					"name": "",
					"type": "address"
				}
			],
			"stateMutability": "view",
			"type": "function"
		},
		{
			"inputs": [
				{
					"internalType": "address",
					"name": "",
					"type": "address"
				}
			],
			"name": "bidders",
			"outputs": [
				{
					"internalType": "bytes32",
					"name": "commitment",
					"type": "bytes32"
				},
				{
					"internalType": "uint256",
					"name": "commitTime",
					"type": "uint256"
				},
				{
					"internalType": "uint256",
					"name": "revealedBid",
					"type": "uint256"
				},
				{
					"internalType": "bool",
					"name": "hasCommitted",
					"type": "bool"
				},
				{
					"internalType": "bool",
					"name": "hasRevealed",
					"type": "bool"
				},
				{
					"internalType": "bool",
					"name": "withdrawn",
					"type": "bool"
				},
				{
					"internalType": "bool",
					"name": "depositLocked",
					"type": "bool"
				},
				{
					"internalType": "bool",
					"name": "defaulted",
					"type": "bool"
				}
			],
			"stateMutability": "view",
			"type": "function"
		},
		{
			"inputs": [
				{
					"internalType": "bytes32",
					"name": "_commitment",
					"type": "bytes32"
				}
			],
			"name": "commit",
			"outputs": [],
			"stateMutability": "payable",
			"type": "function"
		},
		{
			"inputs": [],
			"name": "commitDeadline",
			"outputs": [
				{
					"internalType": "uint256",
					"name": "",
					"type": "uint256"
				}
			],
			"stateMutability": "view",
			"type": "function"
		},
		{
			"inputs": [],
			"name": "currentWinner",
			"outputs": [
				{
					"internalType": "address",
					"name": "",
					"type": "address"
				}
			],
			"stateMutability": "view",
			"type": "function"
		},
		{
			"inputs": [],
			"name": "currentWinnerIndex",
			"outputs": [
				{
					"internalType": "uint256",
					"name": "",
					"type": "uint256"
				}
			],
			"stateMutability": "view",
			"type": "function"
		},
		{
			"inputs": [],
			"name": "deposit",
			"outputs": [
				{
					"internalType": "uint256",
					"name": "",
					"type": "uint256"
				}
			],
			"stateMutability": "view",
			"type": "function"
		},
		{
			"inputs": [],
			"name": "fallbackCount",
			"outputs": [
				{
					"internalType": "uint256",
					"name": "",
					"type": "uint256"
				}
			],
			"stateMutability": "view",
			"type": "function"
		},
		{
			"inputs": [],
			"name": "finalize",
			"outputs": [],
			"stateMutability": "nonpayable",
			"type": "function"
		},
		{
			"inputs": [],
			"name": "finalized",
			"outputs": [
				{
					"internalType": "bool",
					"name": "",
					"type": "bool"
				}
			],
			"stateMutability": "view",
			"type": "function"
		},
		{
			"inputs": [],
			"name": "getBidderCount",
			"outputs": [
				{
					"internalType": "uint256",
					"name": "",
					"type": "uint256"
				}
			],
			"stateMutability": "view",
			"type": "function"
		},
		{
			"inputs": [],
			"name": "getRankedCount",
			"outputs": [
				{
					"internalType": "uint256",
					"name": "",
					"type": "uint256"
				}
			],
			"stateMutability": "view",
			"type": "function"
		},
		{
			"inputs": [
				{
					"internalType": "uint256",
					"name": "bidAmount",
					"type": "uint256"
				},
				{
					"internalType": "bytes32",
					"name": "salt",
					"type": "bytes32"
				},
				{
					"internalType": "address",
					"name": "bidder",
					"type": "address"
				}
			],
			"name": "hashBid",
			"outputs": [
				{
					"internalType": "bytes32",
					"name": "",
					"type": "bytes32"
				}
			],
			"stateMutability": "view",
			"type": "function"
		},
		{
			"inputs": [],
			"name": "maxBidders",
			"outputs": [
				{
					"internalType": "uint256",
					"name": "",
					"type": "uint256"
				}
			],
			"stateMutability": "view",
			"type": "function"
		},
		{
			"inputs": [],
			"name": "maxFallbacks",
			"outputs": [
				{
					"internalType": "uint256",
					"name": "",
					"type": "uint256"
				}
			],
			"stateMutability": "view",
			"type": "function"
		},
		{
			"inputs": [],
			"name": "owner",
			"outputs": [
				{
					"internalType": "address",
					"name": "",
					"type": "address"
				}
			],
			"stateMutability": "view",
			"type": "function"
		},
		{
			"inputs": [],
			"name": "ownerProceeds",
			"outputs": [
				{
					"internalType": "uint256",
					"name": "",
					"type": "uint256"
				}
			],
			"stateMutability": "view",
			"type": "function"
		},
		{
			"inputs": [],
			"name": "payWinningBid",
			"outputs": [],
			"stateMutability": "payable",
			"type": "function"
		},
		{
			"inputs": [],
			"name": "paymentDeadline",
			"outputs": [
				{
					"internalType": "uint256",
					"name": "",
					"type": "uint256"
				}
			],
			"stateMutability": "view",
			"type": "function"
		},
		{
			"inputs": [],
			"name": "paymentDuration",
			"outputs": [
				{
					"internalType": "uint256",
					"name": "",
					"type": "uint256"
				}
			],
			"stateMutability": "view",
			"type": "function"
		},
		{
			"inputs": [
				{
					"internalType": "uint256",
					"name": "",
					"type": "uint256"
				}
			],
			"name": "rankedBidders",
			"outputs": [
				{
					"internalType": "address",
					"name": "",
					"type": "address"
				}
			],
			"stateMutability": "view",
			"type": "function"
		},
		{
			"inputs": [
				{
					"internalType": "uint256",
					"name": "_bidAmount",
					"type": "uint256"
				},
				{
					"internalType": "bytes32",
					"name": "_salt",
					"type": "bytes32"
				}
			],
			"name": "reveal",
			"outputs": [],
			"stateMutability": "nonpayable",
			"type": "function"
		},
		{
			"inputs": [],
			"name": "revealDeadline",
			"outputs": [
				{
					"internalType": "uint256",
					"name": "",
					"type": "uint256"
				}
			],
			"stateMutability": "view",
			"type": "function"
		},
		{
			"inputs": [
				{
					"internalType": "address",
					"name": "",
					"type": "address"
				}
			],
			"name": "rewards",
			"outputs": [
				{
					"internalType": "uint256",
					"name": "",
					"type": "uint256"
				}
			],
			"stateMutability": "view",
			"type": "function"
		},
		{
			"inputs": [],
			"name": "timeLeft",
			"outputs": [
				{
					"internalType": "uint256",
					"name": "commitLeft",
					"type": "uint256"
				},
				{
					"internalType": "uint256",
					"name": "revealLeft",
					"type": "uint256"
				},
				{
					"internalType": "uint256",
					"name": "payLeft",
					"type": "uint256"
				}
			],
			"stateMutability": "view",
			"type": "function"
		},
		{
			"inputs": [],
			"name": "withdrawDeposit",
			"outputs": [],
			"stateMutability": "nonpayable",
			"type": "function"
		},
		{
			"inputs": [
				{
					"internalType": "uint256",
					"name": "amount",
					"type": "uint256"
				}
			],
			"name": "withdrawOwnerProceeds",
			"outputs": [],
			"stateMutability": "nonpayable",
			"type": "function"
		},
		{
			"inputs": [
				{
					"internalType": "uint256",
					"name": "amount",
					"type": "uint256"
				}
			],
			"name": "withdrawReward",
			"outputs": [],
			"stateMutability": "nonpayable",
			"type": "function"
		},
		{
			"stateMutability": "payable",
			"type": "receive"
		}
	]
}